{
	"TinTinCourse/AMM/amm.sol": {
		"AMM": {
			"abi": [
				{
					"inputs": [
						{
							"internalType": "contract IERC20",
							"name": "_token0",
							"type": "address"
						},
						{
							"internalType": "contract IERC20",
							"name": "_token1",
							"type": "address"
						}
					],
					"stateMutability": "nonpayable",
					"type": "constructor"
				},
				{
					"inputs": [
						{
							"internalType": "address",
							"name": "spender",
							"type": "address"
						},
						{
							"internalType": "uint256",
							"name": "allowance",
							"type": "uint256"
						},
						{
							"internalType": "uint256",
							"name": "needed",
							"type": "uint256"
						}
					],
					"name": "ERC20InsufficientAllowance",
					"type": "error"
				},
				{
					"inputs": [
						{
							"internalType": "address",
							"name": "sender",
							"type": "address"
						},
						{
							"internalType": "uint256",
							"name": "balance",
							"type": "uint256"
						},
						{
							"internalType": "uint256",
							"name": "needed",
							"type": "uint256"
						}
					],
					"name": "ERC20InsufficientBalance",
					"type": "error"
				},
				{
					"inputs": [
						{
							"internalType": "address",
							"name": "approver",
							"type": "address"
						}
					],
					"name": "ERC20InvalidApprover",
					"type": "error"
				},
				{
					"inputs": [
						{
							"internalType": "address",
							"name": "receiver",
							"type": "address"
						}
					],
					"name": "ERC20InvalidReceiver",
					"type": "error"
				},
				{
					"inputs": [
						{
							"internalType": "address",
							"name": "sender",
							"type": "address"
						}
					],
					"name": "ERC20InvalidSender",
					"type": "error"
				},
				{
					"inputs": [
						{
							"internalType": "address",
							"name": "spender",
							"type": "address"
						}
					],
					"name": "ERC20InvalidSpender",
					"type": "error"
				},
				{
					"anonymous": false,
					"inputs": [
						{
							"indexed": true,
							"internalType": "address",
							"name": "owner",
							"type": "address"
						},
						{
							"indexed": true,
							"internalType": "address",
							"name": "spender",
							"type": "address"
						},
						{
							"indexed": false,
							"internalType": "uint256",
							"name": "value",
							"type": "uint256"
						}
					],
					"name": "Approval",
					"type": "event"
				},
				{
					"anonymous": false,
					"inputs": [
						{
							"indexed": true,
							"internalType": "address",
							"name": "sender",
							"type": "address"
						},
						{
							"indexed": false,
							"internalType": "uint256",
							"name": "amount0",
							"type": "uint256"
						},
						{
							"indexed": false,
							"internalType": "uint256",
							"name": "amount1",
							"type": "uint256"
						}
					],
					"name": "Burn",
					"type": "event"
				},
				{
					"anonymous": false,
					"inputs": [
						{
							"indexed": true,
							"internalType": "address",
							"name": "sender",
							"type": "address"
						},
						{
							"indexed": false,
							"internalType": "uint256",
							"name": "amount0",
							"type": "uint256"
						},
						{
							"indexed": false,
							"internalType": "uint256",
							"name": "amount1",
							"type": "uint256"
						}
					],
					"name": "Mint",
					"type": "event"
				},
				{
					"anonymous": false,
					"inputs": [
						{
							"indexed": true,
							"internalType": "address",
							"name": "sender",
							"type": "address"
						},
						{
							"indexed": false,
							"internalType": "uint256",
							"name": "amountIn",
							"type": "uint256"
						},
						{
							"indexed": false,
							"internalType": "address",
							"name": "tokenIn",
							"type": "address"
						},
						{
							"indexed": false,
							"internalType": "uint256",
							"name": "amountOut",
							"type": "uint256"
						},
						{
							"indexed": false,
							"internalType": "address",
							"name": "tokenOut",
							"type": "address"
						}
					],
					"name": "Swap",
					"type": "event"
				},
				{
					"anonymous": false,
					"inputs": [
						{
							"indexed": true,
							"internalType": "address",
							"name": "from",
							"type": "address"
						},
						{
							"indexed": true,
							"internalType": "address",
							"name": "to",
							"type": "address"
						},
						{
							"indexed": false,
							"internalType": "uint256",
							"name": "value",
							"type": "uint256"
						}
					],
					"name": "Transfer",
					"type": "event"
				},
				{
					"inputs": [
						{
							"internalType": "uint256",
							"name": "amount0Desired",
							"type": "uint256"
						},
						{
							"internalType": "uint256",
							"name": "amount1Desired",
							"type": "uint256"
						}
					],
					"name": "addLiquidity",
					"outputs": [
						{
							"internalType": "uint256",
							"name": "liquidity",
							"type": "uint256"
						}
					],
					"stateMutability": "nonpayable",
					"type": "function"
				},
				{
					"inputs": [
						{
							"internalType": "address",
							"name": "owner",
							"type": "address"
						},
						{
							"internalType": "address",
							"name": "spender",
							"type": "address"
						}
					],
					"name": "allowance",
					"outputs": [
						{
							"internalType": "uint256",
							"name": "",
							"type": "uint256"
						}
					],
					"stateMutability": "view",
					"type": "function"
				},
				{
					"inputs": [
						{
							"internalType": "address",
							"name": "spender",
							"type": "address"
						},
						{
							"internalType": "uint256",
							"name": "value",
							"type": "uint256"
						}
					],
					"name": "approve",
					"outputs": [
						{
							"internalType": "bool",
							"name": "",
							"type": "bool"
						}
					],
					"stateMutability": "nonpayable",
					"type": "function"
				},
				{
					"inputs": [
						{
							"internalType": "address",
							"name": "account",
							"type": "address"
						}
					],
					"name": "balanceOf",
					"outputs": [
						{
							"internalType": "uint256",
							"name": "",
							"type": "uint256"
						}
					],
					"stateMutability": "view",
					"type": "function"
				},
				{
					"inputs": [],
					"name": "decimals",
					"outputs": [
						{
							"internalType": "uint8",
							"name": "",
							"type": "uint8"
						}
					],
					"stateMutability": "view",
					"type": "function"
				},
				{
					"inputs": [
						{
							"internalType": "uint256",
							"name": "amountIn",
							"type": "uint256"
						},
						{
							"internalType": "uint256",
							"name": "reserveIn",
							"type": "uint256"
						},
						{
							"internalType": "uint256",
							"name": "reserveOut",
							"type": "uint256"
						}
					],
					"name": "getAmountOut",
					"outputs": [
						{
							"internalType": "uint256",
							"name": "amountOut",
							"type": "uint256"
						}
					],
					"stateMutability": "pure",
					"type": "function"
				},
				{
					"inputs": [],
					"name": "name",
					"outputs": [
						{
							"internalType": "string",
							"name": "",
							"type": "string"
						}
					],
					"stateMutability": "view",
					"type": "function"
				},
				{
					"inputs": [
						{
							"internalType": "uint256",
							"name": "liquidity",
							"type": "uint256"
						}
					],
					"name": "removeLiquidity",
					"outputs": [
						{
							"internalType": "uint256",
							"name": "amount0",
							"type": "uint256"
						},
						{
							"internalType": "uint256",
							"name": "amount1",
							"type": "uint256"
						}
					],
					"stateMutability": "nonpayable",
					"type": "function"
				},
				{
					"inputs": [],
					"name": "reserve0",
					"outputs": [
						{
							"internalType": "uint256",
							"name": "",
							"type": "uint256"
						}
					],
					"stateMutability": "view",
					"type": "function"
				},
				{
					"inputs": [],
					"name": "reserve1",
					"outputs": [
						{
							"internalType": "uint256",
							"name": "",
							"type": "uint256"
						}
					],
					"stateMutability": "view",
					"type": "function"
				},
				{
					"inputs": [
						{
							"internalType": "uint256",
							"name": "amountIn",
							"type": "uint256"
						},
						{
							"internalType": "contract IERC20",
							"name": "tokenIn",
							"type": "address"
						},
						{
							"internalType": "uint256",
							"name": "amountOutMin",
							"type": "uint256"
						}
					],
					"name": "swap",
					"outputs": [
						{
							"internalType": "uint256",
							"name": "amountOut",
							"type": "uint256"
						},
						{
							"internalType": "contract IERC20",
							"name": "tokenOut",
							"type": "address"
						}
					],
					"stateMutability": "nonpayable",
					"type": "function"
				},
				{
					"inputs": [],
					"name": "symbol",
					"outputs": [
						{
							"internalType": "string",
							"name": "",
							"type": "string"
						}
					],
					"stateMutability": "view",
					"type": "function"
				},
				{
					"inputs": [],
					"name": "token0",
					"outputs": [
						{
							"internalType": "contract IERC20",
							"name": "",
							"type": "address"
						}
					],
					"stateMutability": "view",
					"type": "function"
				},
				{
					"inputs": [],
					"name": "token1",
					"outputs": [
						{
							"internalType": "contract IERC20",
							"name": "",
							"type": "address"
						}
					],
					"stateMutability": "view",
					"type": "function"
				},
				{
					"inputs": [],
					"name": "totalSupply",
					"outputs": [
						{
							"internalType": "uint256",
							"name": "",
							"type": "uint256"
						}
					],
					"stateMutability": "view",
					"type": "function"
				},
				{
					"inputs": [
						{
							"internalType": "address",
							"name": "to",
							"type": "address"
						},
						{
							"internalType": "uint256",
							"name": "value",
							"type": "uint256"
						}
					],
					"name": "transfer",
					"outputs": [
						{
							"internalType": "bool",
							"name": "",
							"type": "bool"
						}
					],
					"stateMutability": "nonpayable",
					"type": "function"
				},
				{
					"inputs": [
						{
							"internalType": "address",
							"name": "from",
							"type": "address"
						},
						{
							"internalType": "address",
							"name": "to",
							"type": "address"
						},
						{
							"internalType": "uint256",
							"name": "value",
							"type": "uint256"
						}
					],
					"name": "transferFrom",
					"outputs": [
						{
							"internalType": "bool",
							"name": "",
							"type": "bool"
						}
					],
					"stateMutability": "nonpayable",
					"type": "function"
				}
			],
			"devdoc": {
				"errors": {
					"ERC20InsufficientAllowance(address,uint256,uint256)": [
						{
							"details": "Indicates a failure with the `spender`’s `allowance`. Used in transfers.",
							"params": {
								"allowance": "Amount of tokens a `spender` is allowed to operate with.",
								"needed": "Minimum amount required to perform a transfer.",
								"spender": "Address that may be allowed to operate on tokens without being their owner."
							}
						}
					],
					"ERC20InsufficientBalance(address,uint256,uint256)": [
						{
							"details": "Indicates an error related to the current `balance` of a `sender`. Used in transfers.",
							"params": {
								"balance": "Current balance for the interacting account.",
								"needed": "Minimum amount required to perform a transfer.",
								"sender": "Address whose tokens are being transferred."
							}
						}
					],
					"ERC20InvalidApprover(address)": [
						{
							"details": "Indicates a failure with the `approver` of a token to be approved. Used in approvals.",
							"params": {
								"approver": "Address initiating an approval operation."
							}
						}
					],
					"ERC20InvalidReceiver(address)": [
						{
							"details": "Indicates a failure with the token `receiver`. Used in transfers.",
							"params": {
								"receiver": "Address to which tokens are being transferred."
							}
						}
					],
					"ERC20InvalidSender(address)": [
						{
							"details": "Indicates a failure with the token `sender`. Used in transfers.",
							"params": {
								"sender": "Address whose tokens are being transferred."
							}
						}
					],
					"ERC20InvalidSpender(address)": [
						{
							"details": "Indicates a failure with the `spender` to be approved. Used in approvals.",
							"params": {
								"spender": "Address that may be allowed to operate on tokens without being their owner."
							}
						}
					]
				},
				"events": {
					"Approval(address,address,uint256)": {
						"details": "Emitted when the allowance of a `spender` for an `owner` is set by a call to {approve}. `value` is the new allowance."
					},
					"Transfer(address,address,uint256)": {
						"details": "Emitted when `value` tokens are moved from one account (`from`) to another (`to`). Note that `value` may be zero."
					}
				},
				"kind": "dev",
				"methods": {
					"allowance(address,address)": {
						"details": "See {IERC20-allowance}."
					},
					"approve(address,uint256)": {
						"details": "See {IERC20-approve}. NOTE: If `value` is the maximum `uint256`, the allowance is not updated on `transferFrom`. This is semantically equivalent to an infinite approval. Requirements: - `spender` cannot be the zero address."
					},
					"balanceOf(address)": {
						"details": "See {IERC20-balanceOf}."
					},
					"decimals()": {
						"details": "Returns the number of decimals used to get its user representation. For example, if `decimals` equals `2`, a balance of `505` tokens should be displayed to a user as `5.05` (`505 / 10 ** 2`). Tokens usually opt for a value of 18, imitating the relationship between Ether and Wei. This is the default value returned by this function, unless it's overridden. NOTE: This information is only used for _display_ purposes: it in no way affects any of the arithmetic of the contract, including {IERC20-balanceOf} and {IERC20-transfer}."
					},
					"name()": {
						"details": "Returns the name of the token."
					},
					"symbol()": {
						"details": "Returns the symbol of the token, usually a shorter version of the name."
					},
					"totalSupply()": {
						"details": "See {IERC20-totalSupply}."
					},
					"transfer(address,uint256)": {
						"details": "See {IERC20-transfer}. Requirements: - `to` cannot be the zero address. - the caller must have a balance of at least `value`."
					},
					"transferFrom(address,address,uint256)": {
						"details": "See {IERC20-transferFrom}. Emits an {Approval} event indicating the updated allowance. This is not required by the EIP. See the note at the beginning of {ERC20}. NOTE: Does not update the allowance if the current allowance is the maximum `uint256`. Requirements: - `from` and `to` cannot be the zero address. - `from` must have a balance of at least `value`. - the caller must have allowance for ``from``'s tokens of at least `value`."
					}
				},
				"version": 1
			},
			"evm": {
				"assembly": "    /* \"TinTinCourse/AMM/amm.sol\":705:7090  contract AMM is ERC20 {... */\n  mstore(0x40, 0x80)\n    /* \"TinTinCourse/AMM/amm.sol\":1256:1388  constructor(IERC20 _token0, IERC20 _token1) ERC20(\"SimpleSwap\", \"SS\") {... */\n  callvalue\n  dup1\n  iszero\n  tag_1\n  jumpi\n  revert(0x00, 0x00)\ntag_1:\n  pop\n  mload(0x40)\n  sub(codesize, bytecodeSize)\n  dup1\n  bytecodeSize\n  dup4\n  codecopy\n  dup2\n  add\n  0x40\n  dup2\n  swap1\n  mstore\n  tag_2\n  swap2\n  tag_3\n  jump\t// in\ntag_2:\n    /* \"@openzeppelin/contracts/token/ERC20/ERC20.sol\":1896:2009  constructor(string memory name_, string memory symbol_) {... */\n  mload(0x40)\n  dup1\n  0x40\n  add\n  0x40\n  mstore\n  dup1\n  0x0a\n  dup2\n  mstore\n  0x20\n  add\n  shl(0xb4, 0x053696d706c655377617)\n  dup2\n  mstore\n  pop\n  mload(0x40)\n  dup1\n  0x40\n  add\n  0x40\n  mstore\n  dup1\n  0x02\n  dup2\n  mstore\n  0x20\n  add\n  shl(0xf0, 0x5353)\n  dup2\n  mstore\n  pop\n    /* \"@openzeppelin/contracts/token/ERC20/ERC20.sol\":1970:1975  name_ */\n  dup2\n    /* \"@openzeppelin/contracts/token/ERC20/ERC20.sol\":1962:1967  _name */\n  0x03\n    /* \"@openzeppelin/contracts/token/ERC20/ERC20.sol\":1962:1975  _name = name_ */\n  swap1\n  dup2\n  tag_7\n  swap2\n  swap1\n  tag_8\n  jump\t// in\ntag_7:\n  pop\n    /* \"@openzeppelin/contracts/token/ERC20/ERC20.sol\":1985:1992  _symbol */\n  0x04\n    /* \"@openzeppelin/contracts/token/ERC20/ERC20.sol\":1985:2002  _symbol = symbol_ */\n  tag_9\n    /* \"@openzeppelin/contracts/token/ERC20/ERC20.sol\":1995:2002  symbol_ */\n  dup3\n    /* \"@openzeppelin/contracts/token/ERC20/ERC20.sol\":1985:1992  _symbol */\n  dup3\n    /* \"@openzeppelin/contracts/token/ERC20/ERC20.sol\":1985:2002  _symbol = symbol_ */\n  tag_8\n  jump\t// in\ntag_9:\n  pop\n  pop\n    /* \"TinTinCourse/AMM/amm.sol\":1337:1343  token0 */\n  0x05\n    /* \"TinTinCourse/AMM/amm.sol\":1337:1353  token0 = _token0 */\n  dup1\n  sload\n  sub(shl(0xa0, 0x01), 0x01)\n  swap5\n  dup6\n  and\n  not(sub(shl(0xa0, 0x01), 0x01))\n  swap2\n  dup3\n  and\n  or\n  swap1\n  swap2\n  sstore\n    /* \"TinTinCourse/AMM/amm.sol\":1364:1370  token1 */\n  0x06\n    /* \"TinTinCourse/AMM/amm.sol\":1364:1380  token1 = _token1 */\n  dup1\n  sload\n  swap4\n  swap1\n  swap5\n  and\n  swap3\n  and\n  swap2\n  swap1\n  swap2\n  or\n  swap1\n  swap2\n  sstore\n  pop\n    /* \"TinTinCourse/AMM/amm.sol\":705:7090  contract AMM is ERC20 {... */\n  jump(tag_18)\n    /* \"#utility.yul\":14:199   */\ntag_12:\n    /* \"#utility.yul\":101:114   */\n  dup1\n  mload\n  sub(shl(0xa0, 0x01), 0x01)\n    /* \"#utility.yul\":143:174   */\n  dup2\n  and\n    /* \"#utility.yul\":133:175   */\n  dup2\n  eq\n    /* \"#utility.yul\":123:193   */\n  tag_20\n  jumpi\n    /* \"#utility.yul\":189:190   */\n  0x00\n    /* \"#utility.yul\":186:187   */\n  0x00\n    /* \"#utility.yul\":179:191   */\n  revert\n    /* \"#utility.yul\":123:193   */\ntag_20:\n    /* \"#utility.yul\":14:199   */\n  swap2\n  swap1\n  pop\n  jump\t// out\n    /* \"#utility.yul\":204:541   */\ntag_3:\n    /* \"#utility.yul\":311:317   */\n  0x00\n    /* \"#utility.yul\":319:325   */\n  0x00\n    /* \"#utility.yul\":372:374   */\n  0x40\n    /* \"#utility.yul\":360:369   */\n  dup4\n    /* \"#utility.yul\":351:358   */\n  dup6\n    /* \"#utility.yul\":347:370   */\n  sub\n    /* \"#utility.yul\":343:375   */\n  slt\n    /* \"#utility.yul\":340:392   */\n  iszero\n  tag_22\n  jumpi\n    /* \"#utility.yul\":388:389   */\n  0x00\n    /* \"#utility.yul\":385:386   */\n  0x00\n    /* \"#utility.yul\":378:390   */\n  revert\n    /* \"#utility.yul\":340:392   */\ntag_22:\n    /* \"#utility.yul\":411:459   */\n  tag_23\n    /* \"#utility.yul\":449:458   */\n  dup4\n    /* \"#utility.yul\":411:459   */\n  tag_12\n  jump\t// in\ntag_23:\n    /* \"#utility.yul\":401:459   */\n  swap2\n  pop\n    /* \"#utility.yul\":478:535   */\n  tag_24\n    /* \"#utility.yul\":531:533   */\n  0x20\n    /* \"#utility.yul\":520:529   */\n  dup5\n    /* \"#utility.yul\":516:534   */\n  add\n    /* \"#utility.yul\":478:535   */\n  tag_12\n  jump\t// in\ntag_24:\n    /* \"#utility.yul\":468:535   */\n  swap1\n  pop\n    /* \"#utility.yul\":204:541   */\n  swap3\n  pop\n  swap3\n  swap1\n  pop\n  jump\t// out\n    /* \"#utility.yul\":546:673   */\ntag_13:\n    /* \"#utility.yul\":607:617   */\n  0x4e487b71\n    /* \"#utility.yul\":602:605   */\n  0xe0\n    /* \"#utility.yul\":598:618   */\n  shl\n    /* \"#utility.yul\":595:596   */\n  0x00\n    /* \"#utility.yul\":588:619   */\n  mstore\n    /* \"#utility.yul\":638:642   */\n  0x41\n    /* \"#utility.yul\":635:636   */\n  0x04\n    /* \"#utility.yul\":628:643   */\n  mstore\n    /* \"#utility.yul\":662:666   */\n  0x24\n    /* \"#utility.yul\":659:660   */\n  0x00\n    /* \"#utility.yul\":652:667   */\n  revert\n    /* \"#utility.yul\":678:1058   */\ntag_14:\n    /* \"#utility.yul\":757:758   */\n  0x01\n    /* \"#utility.yul\":753:765   */\n  dup2\n  dup2\n  shr\n  swap1\n    /* \"#utility.yul\":800:812   */\n  dup3\n  and\n  dup1\n    /* \"#utility.yul\":821:882   */\n  tag_27\n  jumpi\n    /* \"#utility.yul\":875:879   */\n  0x7f\n    /* \"#utility.yul\":867:873   */\n  dup3\n    /* \"#utility.yul\":863:880   */\n  and\n    /* \"#utility.yul\":853:880   */\n  swap2\n  pop\n    /* \"#utility.yul\":821:882   */\ntag_27:\n    /* \"#utility.yul\":928:930   */\n  0x20\n    /* \"#utility.yul\":920:926   */\n  dup3\n    /* \"#utility.yul\":917:931   */\n  lt\n    /* \"#utility.yul\":897:915   */\n  dup2\n    /* \"#utility.yul\":894:932   */\n  sub\n    /* \"#utility.yul\":891:1052   */\n  tag_28\n  jumpi\n    /* \"#utility.yul\":974:984   */\n  0x4e487b71\n    /* \"#utility.yul\":969:972   */\n  0xe0\n    /* \"#utility.yul\":965:985   */\n  shl\n    /* \"#utility.yul\":962:963   */\n  0x00\n    /* \"#utility.yul\":955:986   */\n  mstore\n    /* \"#utility.yul\":1009:1013   */\n  0x22\n    /* \"#utility.yul\":1006:1007   */\n  0x04\n    /* \"#utility.yul\":999:1014   */\n  mstore\n    /* \"#utility.yul\":1037:1041   */\n  0x24\n    /* \"#utility.yul\":1034:1035   */\n  0x00\n    /* \"#utility.yul\":1027:1042   */\n  revert\n    /* \"#utility.yul\":891:1052   */\ntag_28:\n  pop\n    /* \"#utility.yul\":678:1058   */\n  swap2\n  swap1\n  pop\n  jump\t// out\n    /* \"#utility.yul\":1189:1707   */\ntag_16:\n    /* \"#utility.yul\":1291:1293   */\n  0x1f\n    /* \"#utility.yul\":1286:1289   */\n  dup3\n    /* \"#utility.yul\":1283:1294   */\n  gt\n    /* \"#utility.yul\":1280:1701   */\n  iszero\n  tag_31\n  jumpi\n    /* \"#utility.yul\":1327:1332   */\n  dup1\n    /* \"#utility.yul\":1324:1325   */\n  0x00\n    /* \"#utility.yul\":1317:1333   */\n  mstore\n    /* \"#utility.yul\":1371:1375   */\n  0x20\n    /* \"#utility.yul\":1368:1369   */\n  0x00\n    /* \"#utility.yul\":1358:1376   */\n  keccak256\n    /* \"#utility.yul\":1441:1443   */\n  0x1f\n    /* \"#utility.yul\":1429:1439   */\n  dup5\n    /* \"#utility.yul\":1425:1444   */\n  add\n    /* \"#utility.yul\":1422:1423   */\n  0x05\n    /* \"#utility.yul\":1418:1445   */\n  shr\n    /* \"#utility.yul\":1412:1416   */\n  dup2\n    /* \"#utility.yul\":1408:1446   */\n  add\n    /* \"#utility.yul\":1477:1481   */\n  0x20\n    /* \"#utility.yul\":1465:1475   */\n  dup6\n    /* \"#utility.yul\":1462:1482   */\n  lt\n    /* \"#utility.yul\":1459:1506   */\n  iszero\n  tag_32\n  jumpi\n  pop\n    /* \"#utility.yul\":1500:1504   */\n  dup1\n    /* \"#utility.yul\":1459:1506   */\ntag_32:\n    /* \"#utility.yul\":1555:1557   */\n  0x1f\n    /* \"#utility.yul\":1550:1553   */\n  dup5\n    /* \"#utility.yul\":1546:1558   */\n  add\n    /* \"#utility.yul\":1543:1544   */\n  0x05\n    /* \"#utility.yul\":1539:1559   */\n  shr\n    /* \"#utility.yul\":1533:1537   */\n  dup3\n    /* \"#utility.yul\":1529:1560   */\n  add\n    /* \"#utility.yul\":1519:1560   */\n  swap2\n  pop\n    /* \"#utility.yul\":1610:1691   */\ntag_33:\n    /* \"#utility.yul\":1628:1630   */\n  dup2\n    /* \"#utility.yul\":1621:1626   */\n  dup2\n    /* \"#utility.yul\":1618:1631   */\n  lt\n    /* \"#utility.yul\":1610:1691   */\n  iszero\n  tag_35\n  jumpi\n    /* \"#utility.yul\":1687:1688   */\n  0x00\n    /* \"#utility.yul\":1673:1689   */\n  dup2\n  sstore\n    /* \"#utility.yul\":1654:1655   */\n  0x01\n    /* \"#utility.yul\":1643:1656   */\n  add\n    /* \"#utility.yul\":1610:1691   */\n  jump(tag_33)\ntag_35:\n    /* \"#utility.yul\":1614:1617   */\n  pop\n  pop\n    /* \"#utility.yul\":1280:1701   */\ntag_31:\n    /* \"#utility.yul\":1189:1707   */\n  pop\n  pop\n  pop\n  jump\t// out\n    /* \"#utility.yul\":1883:3182   */\ntag_8:\n    /* \"#utility.yul\":2003:2013   */\n  dup2\n  mload\n  sub(shl(0x40, 0x01), 0x01)\n    /* \"#utility.yul\":2025:2055   */\n  dup2\n  gt\n    /* \"#utility.yul\":2022:2078   */\n  iszero\n  tag_39\n  jumpi\n    /* \"#utility.yul\":2058:2076   */\n  tag_39\n  tag_13\n  jump\t// in\ntag_39:\n    /* \"#utility.yul\":2087:2184   */\n  tag_40\n    /* \"#utility.yul\":2177:2183   */\n  dup2\n    /* \"#utility.yul\":2137:2175   */\n  tag_41\n    /* \"#utility.yul\":2169:2173   */\n  dup5\n    /* \"#utility.yul\":2163:2174   */\n  sload\n    /* \"#utility.yul\":2137:2175   */\n  tag_14\n  jump\t// in\ntag_41:\n    /* \"#utility.yul\":2131:2135   */\n  dup5\n    /* \"#utility.yul\":2087:2184   */\n  tag_16\n  jump\t// in\ntag_40:\n    /* \"#utility.yul\":2233:2237   */\n  0x20\n    /* \"#utility.yul\":2264:2266   */\n  0x1f\n    /* \"#utility.yul\":2253:2267   */\n  dup3\n  gt\n    /* \"#utility.yul\":2281:2282   */\n  0x01\n    /* \"#utility.yul\":2276:2925   */\n  dup2\n  eq\n  tag_43\n  jumpi\n    /* \"#utility.yul\":2969:2970   */\n  0x00\n    /* \"#utility.yul\":2986:2992   */\n  dup4\n    /* \"#utility.yul\":2983:3072   */\n  iszero\n  tag_44\n  jumpi\n  pop\n    /* \"#utility.yul\":3038:3057   */\n  dup5\n  dup3\n  add\n    /* \"#utility.yul\":3032:3058   */\n  mload\n    /* \"#utility.yul\":2983:3072   */\ntag_44:\n  not(0x00)\n    /* \"#utility.yul\":1840:1841   */\n  0x03\n    /* \"#utility.yul\":1836:1847   */\n  dup6\n  swap1\n  shl\n    /* \"#utility.yul\":1832:1856   */\n  shr\n    /* \"#utility.yul\":1828:1857   */\n  not\n    /* \"#utility.yul\":1818:1858   */\n  and\n    /* \"#utility.yul\":1864:1865   */\n  0x01\n    /* \"#utility.yul\":1860:1871   */\n  dup5\n  swap1\n  shl\n    /* \"#utility.yul\":1815:1872   */\n  or\n    /* \"#utility.yul\":3085:3166   */\n  dup5\n  sstore\n    /* \"#utility.yul\":2246:3176   */\n  jump(tag_35)\n    /* \"#utility.yul\":2276:2925   */\ntag_43:\n    /* \"#utility.yul\":1136:1137   */\n  0x00\n    /* \"#utility.yul\":1129:1143   */\n  dup5\n  dup2\n  mstore\n    /* \"#utility.yul\":1173:1177   */\n  0x20\n    /* \"#utility.yul\":1160:1178   */\n  dup2\n  keccak256\n  not(0x1f)\n    /* \"#utility.yul\":2312:2332   */\n  dup6\n  and\n  swap2\n    /* \"#utility.yul\":2430:2652   */\ntag_47:\n    /* \"#utility.yul\":2444:2451   */\n  dup3\n    /* \"#utility.yul\":2441:2442   */\n  dup2\n    /* \"#utility.yul\":2438:2452   */\n  lt\n    /* \"#utility.yul\":2430:2652   */\n  iszero\n  tag_49\n  jumpi\n    /* \"#utility.yul\":2526:2545   */\n  dup8\n  dup6\n  add\n    /* \"#utility.yul\":2520:2546   */\n  mload\n    /* \"#utility.yul\":2505:2547   */\n  dup3\n  sstore\n    /* \"#utility.yul\":2633:2637   */\n  0x20\n    /* \"#utility.yul\":2618:2638   */\n  swap5\n  dup6\n  add\n  swap5\n    /* \"#utility.yul\":2586:2587   */\n  0x01\n    /* \"#utility.yul\":2574:2588   */\n  swap1\n  swap3\n  add\n  swap2\n    /* \"#utility.yul\":2460:2472   */\n  add\n    /* \"#utility.yul\":2430:2652   */\n  jump(tag_47)\ntag_49:\n    /* \"#utility.yul\":2434:2437   */\n  pop\n    /* \"#utility.yul\":2680:2686   */\n  dup5\n    /* \"#utility.yul\":2671:2678   */\n  dup3\n    /* \"#utility.yul\":2668:2687   */\n  lt\n    /* \"#utility.yul\":2665:2866   */\n  iszero\n  tag_50\n  jumpi\n    /* \"#utility.yul\":2741:2760   */\n  dup7\n  dup5\n  add\n    /* \"#utility.yul\":2735:2761   */\n  mload\n  not(0x00)\n    /* \"#utility.yul\":2824:2825   */\n  0x03\n    /* \"#utility.yul\":2820:2834   */\n  dup8\n  swap1\n  shl\n    /* \"#utility.yul\":2836:2839   */\n  0xf8\n    /* \"#utility.yul\":2816:2840   */\n  and\n    /* \"#utility.yul\":2812:2849   */\n  shr\n    /* \"#utility.yul\":2808:2850   */\n  not\n    /* \"#utility.yul\":2793:2851   */\n  and\n    /* \"#utility.yul\":2778:2852   */\n  dup2\n  sstore\n    /* \"#utility.yul\":2665:2866   */\ntag_50:\n  pop\n  pop\n  pop\n  pop\n    /* \"#utility.yul\":2912:2913   */\n  0x01\n    /* \"#utility.yul\":2896:2910   */\n  swap1\n  dup2\n  shl\n    /* \"#utility.yul\":2892:2914   */\n  add\n    /* \"#utility.yul\":2879:2915   */\n  swap1\n  sstore\n  pop\n    /* \"#utility.yul\":1883:3182   */\n  jump\t// out\ntag_18:\n    /* \"TinTinCourse/AMM/amm.sol\":705:7090  contract AMM is ERC20 {... */\n  dataSize(sub_0)\n  dup1\n  dataOffset(sub_0)\n  0x00\n  codecopy\n  0x00\n  return\nstop\n\nsub_0: assembly {\n        /* \"TinTinCourse/AMM/amm.sol\":705:7090  contract AMM is ERC20 {... */\n      mstore(0x40, 0x80)\n      callvalue\n      dup1\n      iszero\n      tag_1\n      jumpi\n      revert(0x00, 0x00)\n    tag_1:\n      pop\n      jumpi(tag_2, lt(calldatasize, 0x04))\n      shr(0xe0, calldataload(0x00))\n      dup1\n      0x443cb4bc\n      gt\n      tag_20\n      jumpi\n      dup1\n      0x9c8f9f23\n      gt\n      tag_21\n      jumpi\n      dup1\n      0x9c8f9f23\n      eq\n      tag_15\n      jumpi\n      dup1\n      0x9cd441da\n      eq\n      tag_16\n      jumpi\n      dup1\n      0xa9059cbb\n      eq\n      tag_17\n      jumpi\n      dup1\n      0xd21220a7\n      eq\n      tag_18\n      jumpi\n      dup1\n      0xdd62ed3e\n      eq\n      tag_19\n      jumpi\n      revert(0x00, 0x00)\n    tag_21:\n      dup1\n      0x443cb4bc\n      eq\n      tag_11\n      jumpi\n      dup1\n      0x5a76f25e\n      eq\n      tag_12\n      jumpi\n      dup1\n      0x70a08231\n      eq\n      tag_13\n      jumpi\n      dup1\n      0x95d89b41\n      eq\n      tag_14\n      jumpi\n      revert(0x00, 0x00)\n    tag_20:\n      dup1\n      0x18160ddd\n      gt\n      tag_22\n      jumpi\n      dup1\n      0x18160ddd\n      eq\n      tag_7\n      jumpi\n      dup1\n      0x23b872dd\n      eq\n      tag_8\n      jumpi\n      dup1\n      0x313ce567\n      eq\n      tag_9\n      jumpi\n      dup1\n      0x43264349\n      eq\n      tag_10\n      jumpi\n      revert(0x00, 0x00)\n    tag_22:\n      dup1\n      0x054d50d4\n      eq\n      tag_3\n      jumpi\n      dup1\n      0x06fdde03\n      eq\n      tag_4\n      jumpi\n      dup1\n      0x095ea7b3\n      eq\n      tag_5\n      jumpi\n      dup1\n      0x0dfe1681\n      eq\n      tag_6\n      jumpi\n    tag_2:\n      revert(0x00, 0x00)\n        /* \"TinTinCourse/AMM/amm.sol\":5035:5351  function getAmountOut(uint amountIn, uint reserveIn, uint reserveOut) public pure returns (uint amountOut) {... */\n    tag_3:\n      tag_23\n      tag_24\n      calldatasize\n      0x04\n      tag_25\n      jump\t// in\n    tag_24:\n      tag_26\n      jump\t// in\n    tag_23:\n      mload(0x40)\n        /* \"#utility.yul\":631:656   */\n      swap1\n      dup2\n      mstore\n        /* \"#utility.yul\":619:621   */\n      0x20\n        /* \"#utility.yul\":604:622   */\n      add\n        /* \"TinTinCourse/AMM/amm.sol\":5035:5351  function getAmountOut(uint amountIn, uint reserveIn, uint reserveOut) public pure returns (uint amountOut) {... */\n    tag_27:\n      mload(0x40)\n      dup1\n      swap2\n      sub\n      swap1\n      return\n        /* \"@openzeppelin/contracts/token/ERC20/ERC20.sol\":2074:2163  function name() public view virtual returns (string memory) {... */\n    tag_4:\n      tag_29\n      tag_30\n      jump\t// in\n    tag_29:\n      mload(0x40)\n      tag_27\n      swap2\n      swap1\n      tag_32\n      jump\t// in\n        /* \"@openzeppelin/contracts/token/ERC20/ERC20.sol\":4293:4479  function approve(address spender, uint256 value) public virtual returns (bool) {... */\n    tag_5:\n      tag_33\n      tag_34\n      calldatasize\n      0x04\n      tag_35\n      jump\t// in\n    tag_34:\n      tag_36\n      jump\t// in\n    tag_33:\n      mload(0x40)\n        /* \"#utility.yul\":1763:1777   */\n      swap1\n      iszero\n        /* \"#utility.yul\":1756:1778   */\n      iszero\n        /* \"#utility.yul\":1738:1779   */\n      dup2\n      mstore\n        /* \"#utility.yul\":1726:1728   */\n      0x20\n        /* \"#utility.yul\":1711:1729   */\n      add\n        /* \"@openzeppelin/contracts/token/ERC20/ERC20.sol\":4293:4479  function approve(address spender, uint256 value) public virtual returns (bool) {... */\n      tag_27\n        /* \"#utility.yul\":1598:1785   */\n      jump\n        /* \"TinTinCourse/AMM/amm.sol\":755:775  IERC20 public token0 */\n    tag_6:\n      sload(0x05)\n      tag_39\n      swap1\n      sub(shl(0xa0, 0x01), 0x01)\n      and\n      dup2\n      jump\n    tag_39:\n      mload(0x40)\n      sub(shl(0xa0, 0x01), 0x01)\n        /* \"#utility.yul\":1968:2000   */\n      swap1\n      swap2\n      and\n        /* \"#utility.yul\":1950:2001   */\n      dup2\n      mstore\n        /* \"#utility.yul\":1938:1940   */\n      0x20\n        /* \"#utility.yul\":1923:1941   */\n      add\n        /* \"TinTinCourse/AMM/amm.sol\":755:775  IERC20 public token0 */\n      tag_27\n        /* \"#utility.yul\":1790:2007   */\n      jump\n        /* \"@openzeppelin/contracts/token/ERC20/ERC20.sol\":3144:3241  function totalSupply() public view virtual returns (uint256) {... */\n    tag_7:\n        /* \"@openzeppelin/contracts/token/ERC20/ERC20.sol\":3222:3234  _totalSupply */\n      sload(0x02)\n        /* \"@openzeppelin/contracts/token/ERC20/ERC20.sol\":3144:3241  function totalSupply() public view virtual returns (uint256) {... */\n      jump(tag_23)\n        /* \"@openzeppelin/contracts/token/ERC20/ERC20.sol\":5039:5283  function transferFrom(address from, address to, uint256 value) public virtual returns (bool) {... */\n    tag_8:\n      tag_33\n      tag_47\n      calldatasize\n      0x04\n      tag_48\n      jump\t// in\n    tag_47:\n      tag_49\n      jump\t// in\n        /* \"@openzeppelin/contracts/token/ERC20/ERC20.sol\":3002:3084  function decimals() public view virtual returns (uint8) {... */\n    tag_9:\n      mload(0x40)\n        /* \"@openzeppelin/contracts/token/ERC20/ERC20.sol\":3075:3077  18 */\n      0x12\n        /* \"#utility.yul\":2667:2703   */\n      dup2\n      mstore\n        /* \"#utility.yul\":2655:2657   */\n      0x20\n        /* \"#utility.yul\":2640:2658   */\n      add\n        /* \"@openzeppelin/contracts/token/ERC20/ERC20.sol\":3002:3084  function decimals() public view virtual returns (uint8) {... */\n      tag_27\n        /* \"#utility.yul\":2525:2709   */\n      jump\n        /* \"TinTinCourse/AMM/amm.sol\":5555:7087  function swap(uint amountIn, IERC20 tokenIn, uint amountOutMin) external returns (uint amountOut, IERC20 tokenOut){... */\n    tag_10:\n      tag_55\n      tag_56\n      calldatasize\n      0x04\n      tag_57\n      jump\t// in\n    tag_56:\n      tag_58\n      jump\t// in\n    tag_55:\n      0x40\n      dup1\n      mload\n        /* \"#utility.yul\":3408:3433   */\n      swap3\n      dup4\n      mstore\n      sub(shl(0xa0, 0x01), 0x01)\n        /* \"#utility.yul\":3469:3501   */\n      swap1\n      swap2\n      and\n        /* \"#utility.yul\":3464:3466   */\n      0x20\n        /* \"#utility.yul\":3449:3467   */\n      dup4\n      add\n        /* \"#utility.yul\":3442:3502   */\n      mstore\n        /* \"#utility.yul\":3381:3399   */\n      add\n        /* \"TinTinCourse/AMM/amm.sol\":5555:7087  function swap(uint amountIn, IERC20 tokenIn, uint amountOutMin) external returns (uint amountOut, IERC20 tokenOut){... */\n      tag_27\n        /* \"#utility.yul\":3220:3508   */\n      jump\n        /* \"TinTinCourse/AMM/amm.sol\":835:855  uint public reserve0 */\n    tag_11:\n      tag_23\n      sload(0x07)\n      dup2\n      jump\n        /* \"TinTinCourse/AMM/amm.sol\":862:882  uint public reserve1 */\n    tag_12:\n      tag_23\n      sload(0x08)\n      dup2\n      jump\n        /* \"@openzeppelin/contracts/token/ERC20/ERC20.sol\":3299:3415  function balanceOf(address account) public view virtual returns (uint256) {... */\n    tag_13:\n      tag_23\n      tag_68\n      calldatasize\n      0x04\n      tag_69\n      jump\t// in\n    tag_68:\n      sub(shl(0xa0, 0x01), 0x01)\n        /* \"@openzeppelin/contracts/token/ERC20/ERC20.sol\":3390:3408  _balances[account] */\n      and\n        /* \"@openzeppelin/contracts/token/ERC20/ERC20.sol\":3364:3371  uint256 */\n      0x00\n        /* \"@openzeppelin/contracts/token/ERC20/ERC20.sol\":3390:3408  _balances[account] */\n      swap1\n      dup2\n      mstore\n      0x20\n      dup2\n      swap1\n      mstore\n      0x40\n      swap1\n      keccak256\n      sload\n      swap1\n        /* \"@openzeppelin/contracts/token/ERC20/ERC20.sol\":3299:3415  function balanceOf(address account) public view virtual returns (uint256) {... */\n      jump\n        /* \"@openzeppelin/contracts/token/ERC20/ERC20.sol\":2276:2369  function symbol() public view virtual returns (string memory) {... */\n    tag_14:\n      tag_29\n      tag_73\n      jump\t// in\n        /* \"TinTinCourse/AMM/amm.sol\":3805:4729  function removeLiquidity(uint liquidity) external returns (uint amount0, uint amount1) {... */\n    tag_15:\n      tag_75\n      tag_76\n      calldatasize\n      0x04\n      tag_77\n      jump\t// in\n    tag_76:\n      tag_78\n      jump\t// in\n    tag_75:\n      0x40\n      dup1\n      mload\n        /* \"#utility.yul\":4170:4195   */\n      swap3\n      dup4\n      mstore\n        /* \"#utility.yul\":4226:4228   */\n      0x20\n        /* \"#utility.yul\":4211:4229   */\n      dup4\n      add\n        /* \"#utility.yul\":4204:4238   */\n      swap2\n      swap1\n      swap2\n      mstore\n        /* \"#utility.yul\":4143:4161   */\n      add\n        /* \"TinTinCourse/AMM/amm.sol\":3805:4729  function removeLiquidity(uint liquidity) external returns (uint amount0, uint amount1) {... */\n      tag_27\n        /* \"#utility.yul\":3996:4244   */\n      jump\n        /* \"TinTinCourse/AMM/amm.sol\":2299:3635  function addLiquidity(uint amount0Desired, uint amount1Desired) public returns(uint liquidity){... */\n    tag_16:\n      tag_23\n      tag_82\n      calldatasize\n      0x04\n      tag_83\n      jump\t// in\n    tag_82:\n      tag_84\n      jump\t// in\n        /* \"@openzeppelin/contracts/token/ERC20/ERC20.sol\":3610:3788  function transfer(address to, uint256 value) public virtual returns (bool) {... */\n    tag_17:\n      tag_33\n      tag_87\n      calldatasize\n      0x04\n      tag_35\n      jump\t// in\n    tag_87:\n      tag_88\n      jump\t// in\n        /* \"TinTinCourse/AMM/amm.sol\":782:802  IERC20 public token1 */\n    tag_18:\n      sload(0x06)\n      tag_39\n      swap1\n      sub(shl(0xa0, 0x01), 0x01)\n      and\n      dup2\n      jump\n        /* \"@openzeppelin/contracts/token/ERC20/ERC20.sol\":3846:3986  function allowance(address owner, address spender) public view virtual returns (uint256) {... */\n    tag_19:\n      tag_23\n      tag_94\n      calldatasize\n      0x04\n      tag_95\n      jump\t// in\n    tag_94:\n      sub(shl(0xa0, 0x01), 0x01)\n        /* \"@openzeppelin/contracts/token/ERC20/ERC20.sol\":3952:3970  _allowances[owner] */\n      swap2\n      dup3\n      and\n        /* \"@openzeppelin/contracts/token/ERC20/ERC20.sol\":3926:3933  uint256 */\n      0x00\n        /* \"@openzeppelin/contracts/token/ERC20/ERC20.sol\":3952:3970  _allowances[owner] */\n      swap1\n      dup2\n      mstore\n        /* \"@openzeppelin/contracts/token/ERC20/ERC20.sol\":3952:3963  _allowances */\n      0x01\n        /* \"@openzeppelin/contracts/token/ERC20/ERC20.sol\":3952:3970  _allowances[owner] */\n      0x20\n      swap1\n      dup2\n      mstore\n      0x40\n      dup1\n      dup4\n      keccak256\n        /* \"@openzeppelin/contracts/token/ERC20/ERC20.sol\":3952:3979  _allowances[owner][spender] */\n      swap4\n      swap1\n      swap5\n      and\n      dup3\n      mstore\n      swap2\n      swap1\n      swap2\n      mstore\n      keccak256\n      sload\n      swap1\n        /* \"@openzeppelin/contracts/token/ERC20/ERC20.sol\":3846:3986  function allowance(address owner, address spender) public view virtual returns (uint256) {... */\n      jump\n        /* \"TinTinCourse/AMM/amm.sol\":5035:5351  function getAmountOut(uint amountIn, uint reserveIn, uint reserveOut) public pure returns (uint amountOut) {... */\n    tag_26:\n        /* \"TinTinCourse/AMM/amm.sol\":5126:5140  uint amountOut */\n      0x00\n        /* \"TinTinCourse/AMM/amm.sol\":5172:5173  0 */\n      0x00\n        /* \"TinTinCourse/AMM/amm.sol\":5161:5169  amountIn */\n      dup5\n        /* \"TinTinCourse/AMM/amm.sol\":5161:5173  amountIn > 0 */\n      gt\n        /* \"TinTinCourse/AMM/amm.sol\":5153:5197  require(amountIn > 0, 'INSUFFICIENT_AMOUNT') */\n      tag_99\n      jumpi\n      mload(0x40)\n      shl(0xe5, 0x461bcd)\n      dup2\n      mstore\n        /* \"#utility.yul\":5195:5197   */\n      0x20\n        /* \"TinTinCourse/AMM/amm.sol\":5153:5197  require(amountIn > 0, 'INSUFFICIENT_AMOUNT') */\n      0x04\n      dup3\n      add\n        /* \"#utility.yul\":5177:5198   */\n      mstore\n        /* \"#utility.yul\":5234:5236   */\n      0x13\n        /* \"#utility.yul\":5214:5232   */\n      0x24\n      dup3\n      add\n        /* \"#utility.yul\":5207:5237   */\n      mstore\n      shl(0x6a, 0x125394d551919250d251539517d05353d55395)\n        /* \"#utility.yul\":5253:5271   */\n      0x44\n      dup3\n      add\n        /* \"#utility.yul\":5246:5295   */\n      mstore\n        /* \"#utility.yul\":5312:5330   */\n      0x64\n      add\n        /* \"TinTinCourse/AMM/amm.sol\":5153:5197  require(amountIn > 0, 'INSUFFICIENT_AMOUNT') */\n    tag_100:\n      mload(0x40)\n      dup1\n      swap2\n      sub\n      swap1\n      revert\n    tag_99:\n        /* \"TinTinCourse/AMM/amm.sol\":5228:5229  0 */\n      0x00\n        /* \"TinTinCourse/AMM/amm.sol\":5216:5225  reserveIn */\n      dup4\n        /* \"TinTinCourse/AMM/amm.sol\":5216:5229  reserveIn > 0 */\n      gt\n        /* \"TinTinCourse/AMM/amm.sol\":5216:5247  reserveIn > 0 && reserveOut > 0 */\n      dup1\n      iszero\n      tag_102\n      jumpi\n      pop\n        /* \"TinTinCourse/AMM/amm.sol\":5246:5247  0 */\n      0x00\n        /* \"TinTinCourse/AMM/amm.sol\":5233:5243  reserveOut */\n      dup3\n        /* \"TinTinCourse/AMM/amm.sol\":5233:5247  reserveOut > 0 */\n      gt\n        /* \"TinTinCourse/AMM/amm.sol\":5216:5247  reserveIn > 0 && reserveOut > 0 */\n    tag_102:\n        /* \"TinTinCourse/AMM/amm.sol\":5208:5274  require(reserveIn > 0 && reserveOut > 0, 'INSUFFICIENT_LIQUIDITY') */\n      tag_103\n      jumpi\n      mload(0x40)\n      shl(0xe5, 0x461bcd)\n      dup2\n      mstore\n        /* \"#utility.yul\":5543:5545   */\n      0x20\n        /* \"TinTinCourse/AMM/amm.sol\":5208:5274  require(reserveIn > 0 && reserveOut > 0, 'INSUFFICIENT_LIQUIDITY') */\n      0x04\n      dup3\n      add\n        /* \"#utility.yul\":5525:5546   */\n      mstore\n        /* \"#utility.yul\":5582:5584   */\n      0x16\n        /* \"#utility.yul\":5562:5580   */\n      0x24\n      dup3\n      add\n        /* \"#utility.yul\":5555:5585   */\n      mstore\n      shl(0x50, 0x494e53554646494349454e545f4c4951554944495459)\n        /* \"#utility.yul\":5601:5619   */\n      0x44\n      dup3\n      add\n        /* \"#utility.yul\":5594:5646   */\n      mstore\n        /* \"#utility.yul\":5663:5681   */\n      0x64\n      add\n        /* \"TinTinCourse/AMM/amm.sol\":5208:5274  require(reserveIn > 0 && reserveOut > 0, 'INSUFFICIENT_LIQUIDITY') */\n      tag_100\n        /* \"#utility.yul\":5341:5687   */\n      jump\n        /* \"TinTinCourse/AMM/amm.sol\":5208:5274  require(reserveIn > 0 && reserveOut > 0, 'INSUFFICIENT_LIQUIDITY') */\n    tag_103:\n        /* \"TinTinCourse/AMM/amm.sol\":5322:5342  reserveIn + amountIn */\n      tag_106\n        /* \"TinTinCourse/AMM/amm.sol\":5334:5342  amountIn */\n      dup5\n        /* \"TinTinCourse/AMM/amm.sol\":5322:5331  reserveIn */\n      dup5\n        /* \"TinTinCourse/AMM/amm.sol\":5322:5342  reserveIn + amountIn */\n      tag_107\n      jump\t// in\n    tag_106:\n        /* \"TinTinCourse/AMM/amm.sol\":5297:5318  amountIn * reserveOut */\n      tag_108\n        /* \"TinTinCourse/AMM/amm.sol\":5308:5318  reserveOut */\n      dup4\n        /* \"TinTinCourse/AMM/amm.sol\":5297:5305  amountIn */\n      dup7\n        /* \"TinTinCourse/AMM/amm.sol\":5297:5318  amountIn * reserveOut */\n      tag_109\n      jump\t// in\n    tag_108:\n        /* \"TinTinCourse/AMM/amm.sol\":5297:5343  amountIn * reserveOut / (reserveIn + amountIn) */\n      tag_110\n      swap2\n      swap1\n      tag_111\n      jump\t// in\n    tag_110:\n        /* \"TinTinCourse/AMM/amm.sol\":5285:5343  amountOut = amountIn * reserveOut / (reserveIn + amountIn) */\n      swap5\n        /* \"TinTinCourse/AMM/amm.sol\":5035:5351  function getAmountOut(uint amountIn, uint reserveIn, uint reserveOut) public pure returns (uint amountOut) {... */\n      swap4\n      pop\n      pop\n      pop\n      pop\n      jump\t// out\n        /* \"@openzeppelin/contracts/token/ERC20/ERC20.sol\":2074:2163  function name() public view virtual returns (string memory) {... */\n    tag_30:\n        /* \"@openzeppelin/contracts/token/ERC20/ERC20.sol\":2119:2132  string memory */\n      0x60\n        /* \"@openzeppelin/contracts/token/ERC20/ERC20.sol\":2151:2156  _name */\n      0x03\n        /* \"@openzeppelin/contracts/token/ERC20/ERC20.sol\":2144:2156  return _name */\n      dup1\n      sload\n      tag_113\n      swap1\n      tag_114\n      jump\t// in\n    tag_113:\n      dup1\n      0x1f\n      add\n      0x20\n      dup1\n      swap2\n      div\n      mul\n      0x20\n      add\n      mload(0x40)\n      swap1\n      dup2\n      add\n      0x40\n      mstore\n      dup1\n      swap3\n      swap2\n      swap1\n      dup2\n      dup2\n      mstore\n      0x20\n      add\n      dup3\n      dup1\n      sload\n      tag_115\n      swap1\n      tag_114\n      jump\t// in\n    tag_115:\n      dup1\n      iszero\n      tag_116\n      jumpi\n      dup1\n      0x1f\n      lt\n      tag_117\n      jumpi\n      0x0100\n      dup1\n      dup4\n      sload\n      div\n      mul\n      dup4\n      mstore\n      swap2\n      0x20\n      add\n      swap2\n      jump(tag_116)\n    tag_117:\n      dup3\n      add\n      swap2\n      swap1\n      0x00\n      mstore\n      keccak256(0x00, 0x20)\n      swap1\n    tag_118:\n      dup2\n      sload\n      dup2\n      mstore\n      swap1\n      0x01\n      add\n      swap1\n      0x20\n      add\n      dup1\n      dup4\n      gt\n      tag_118\n      jumpi\n      dup3\n      swap1\n      sub\n      0x1f\n      and\n      dup3\n      add\n      swap2\n    tag_116:\n      pop\n      pop\n      pop\n      pop\n      pop\n      swap1\n      pop\n        /* \"@openzeppelin/contracts/token/ERC20/ERC20.sol\":2074:2163  function name() public view virtual returns (string memory) {... */\n      swap1\n      jump\t// out\n        /* \"@openzeppelin/contracts/token/ERC20/ERC20.sol\":4293:4479  function approve(address spender, uint256 value) public virtual returns (bool) {... */\n    tag_36:\n        /* \"@openzeppelin/contracts/token/ERC20/ERC20.sol\":4366:4370  bool */\n      0x00\n        /* \"@openzeppelin/contracts/utils/Context.sol\":735:745  msg.sender */\n      caller\n        /* \"@openzeppelin/contracts/token/ERC20/ERC20.sol\":4420:4451  _approve(owner, spender, value) */\n      tag_122\n        /* \"@openzeppelin/contracts/utils/Context.sol\":735:745  msg.sender */\n      dup2\n        /* \"@openzeppelin/contracts/token/ERC20/ERC20.sol\":4436:4443  spender */\n      dup6\n        /* \"@openzeppelin/contracts/token/ERC20/ERC20.sol\":4445:4450  value */\n      dup6\n        /* \"@openzeppelin/contracts/token/ERC20/ERC20.sol\":4420:4428  _approve */\n      tag_123\n        /* \"@openzeppelin/contracts/token/ERC20/ERC20.sol\":4420:4451  _approve(owner, spender, value) */\n      jump\t// in\n    tag_122:\n        /* \"@openzeppelin/contracts/token/ERC20/ERC20.sol\":4468:4472  true */\n      0x01\n        /* \"@openzeppelin/contracts/token/ERC20/ERC20.sol\":4461:4472  return true */\n      swap2\n      pop\n      pop\n        /* \"@openzeppelin/contracts/token/ERC20/ERC20.sol\":4293:4479  function approve(address spender, uint256 value) public virtual returns (bool) {... */\n    tag_119:\n      swap3\n      swap2\n      pop\n      pop\n      jump\t// out\n        /* \"@openzeppelin/contracts/token/ERC20/ERC20.sol\":5039:5283  function transferFrom(address from, address to, uint256 value) public virtual returns (bool) {... */\n    tag_49:\n        /* \"@openzeppelin/contracts/token/ERC20/ERC20.sol\":5126:5130  bool */\n      0x00\n        /* \"@openzeppelin/contracts/utils/Context.sol\":735:745  msg.sender */\n      caller\n        /* \"@openzeppelin/contracts/token/ERC20/ERC20.sol\":5182:5219  _spendAllowance(from, spender, value) */\n      tag_127\n        /* \"@openzeppelin/contracts/token/ERC20/ERC20.sol\":5198:5202  from */\n      dup6\n        /* \"@openzeppelin/contracts/utils/Context.sol\":735:745  msg.sender */\n      dup3\n        /* \"@openzeppelin/contracts/token/ERC20/ERC20.sol\":5213:5218  value */\n      dup6\n        /* \"@openzeppelin/contracts/token/ERC20/ERC20.sol\":5182:5197  _spendAllowance */\n      tag_128\n        /* \"@openzeppelin/contracts/token/ERC20/ERC20.sol\":5182:5219  _spendAllowance(from, spender, value) */\n      jump\t// in\n    tag_127:\n        /* \"@openzeppelin/contracts/token/ERC20/ERC20.sol\":5229:5255  _transfer(from, to, value) */\n      tag_129\n        /* \"@openzeppelin/contracts/token/ERC20/ERC20.sol\":5239:5243  from */\n      dup6\n        /* \"@openzeppelin/contracts/token/ERC20/ERC20.sol\":5245:5247  to */\n      dup6\n        /* \"@openzeppelin/contracts/token/ERC20/ERC20.sol\":5249:5254  value */\n      dup6\n        /* \"@openzeppelin/contracts/token/ERC20/ERC20.sol\":5229:5238  _transfer */\n      tag_130\n        /* \"@openzeppelin/contracts/token/ERC20/ERC20.sol\":5229:5255  _transfer(from, to, value) */\n      jump\t// in\n    tag_129:\n      pop\n        /* \"@openzeppelin/contracts/token/ERC20/ERC20.sol\":5272:5276  true */\n      0x01\n      swap5\n        /* \"@openzeppelin/contracts/token/ERC20/ERC20.sol\":5039:5283  function transferFrom(address from, address to, uint256 value) public virtual returns (bool) {... */\n      swap4\n      pop\n      pop\n      pop\n      pop\n      jump\t// out\n        /* \"TinTinCourse/AMM/amm.sol\":5555:7087  function swap(uint amountIn, IERC20 tokenIn, uint amountOutMin) external returns (uint amountOut, IERC20 tokenOut){... */\n    tag_58:\n        /* \"TinTinCourse/AMM/amm.sol\":5637:5651  uint amountOut */\n      0x00\n        /* \"TinTinCourse/AMM/amm.sol\":5653:5668  IERC20 tokenOut */\n      0x00\n        /* \"TinTinCourse/AMM/amm.sol\":5699:5700  0 */\n      0x00\n        /* \"TinTinCourse/AMM/amm.sol\":5688:5696  amountIn */\n      dup6\n        /* \"TinTinCourse/AMM/amm.sol\":5688:5700  amountIn > 0 */\n      gt\n        /* \"TinTinCourse/AMM/amm.sol\":5680:5731  require(amountIn > 0, 'INSUFFICIENT_OUTPUT_AMOUNT') */\n      tag_133\n      jumpi\n      mload(0x40)\n      shl(0xe5, 0x461bcd)\n      dup2\n      mstore\n      0x04\n      add\n      tag_100\n      swap1\n      tag_135\n      jump\t// in\n    tag_133:\n        /* \"TinTinCourse/AMM/amm.sol\":5761:5767  token0 */\n      sload(0x05)\n      sub(shl(0xa0, 0x01), 0x01)\n        /* \"TinTinCourse/AMM/amm.sol\":5750:5767  tokenIn == token0 */\n      dup6\n      dup2\n      and\n        /* \"TinTinCourse/AMM/amm.sol\":5761:5767  token0 */\n      swap2\n      and\n        /* \"TinTinCourse/AMM/amm.sol\":5750:5767  tokenIn == token0 */\n      eq\n      dup1\n        /* \"TinTinCourse/AMM/amm.sol\":5750:5788  tokenIn == token0 || tokenIn == token1 */\n      tag_136\n      jumpi\n      pop\n        /* \"TinTinCourse/AMM/amm.sol\":5782:5788  token1 */\n      sload(0x06)\n      sub(shl(0xa0, 0x01), 0x01)\n        /* \"TinTinCourse/AMM/amm.sol\":5771:5788  tokenIn == token1 */\n      dup6\n      dup2\n      and\n        /* \"TinTinCourse/AMM/amm.sol\":5782:5788  token1 */\n      swap2\n      and\n        /* \"TinTinCourse/AMM/amm.sol\":5771:5788  tokenIn == token1 */\n      eq\n        /* \"TinTinCourse/AMM/amm.sol\":5750:5788  tokenIn == token0 || tokenIn == token1 */\n    tag_136:\n        /* \"TinTinCourse/AMM/amm.sol\":5742:5806  require(tokenIn == token0 || tokenIn == token1, 'INVALID_TOKEN') */\n      tag_137\n      jumpi\n      mload(0x40)\n      shl(0xe5, 0x461bcd)\n      dup2\n      mstore\n        /* \"#utility.yul\":7291:7293   */\n      0x20\n        /* \"TinTinCourse/AMM/amm.sol\":5742:5806  require(tokenIn == token0 || tokenIn == token1, 'INVALID_TOKEN') */\n      0x04\n      dup3\n      add\n        /* \"#utility.yul\":7273:7294   */\n      mstore\n        /* \"#utility.yul\":7330:7332   */\n      0x0d\n        /* \"#utility.yul\":7310:7328   */\n      0x24\n      dup3\n      add\n        /* \"#utility.yul\":7303:7333   */\n      mstore\n      shl(0x99, 0x24a72b20a624a22faa27a5a2a7)\n        /* \"#utility.yul\":7349:7367   */\n      0x44\n      dup3\n      add\n        /* \"#utility.yul\":7342:7385   */\n      mstore\n        /* \"#utility.yul\":7402:7420   */\n      0x64\n      add\n        /* \"TinTinCourse/AMM/amm.sol\":5742:5806  require(tokenIn == token0 || tokenIn == token1, 'INVALID_TOKEN') */\n      tag_100\n        /* \"#utility.yul\":7089:7426   */\n      jump\n        /* \"TinTinCourse/AMM/amm.sol\":5742:5806  require(tokenIn == token0 || tokenIn == token1, 'INVALID_TOKEN') */\n    tag_137:\n        /* \"TinTinCourse/AMM/amm.sol\":5843:5849  token0 */\n      sload(0x05)\n        /* \"TinTinCourse/AMM/amm.sol\":5843:5874  token0.balanceOf(address(this)) */\n      mload(0x40)\n      shl(0xe0, 0x70a08231)\n      dup2\n      mstore\n        /* \"TinTinCourse/AMM/amm.sol\":5868:5872  this */\n      address\n        /* \"TinTinCourse/AMM/amm.sol\":5843:5874  token0.balanceOf(address(this)) */\n      0x04\n      dup3\n      add\n        /* \"#utility.yul\":1950:2001   */\n      mstore\n        /* \"TinTinCourse/AMM/amm.sol\":5827:5840  uint balance0 */\n      0x00\n      swap2\n      sub(shl(0xa0, 0x01), 0x01)\n        /* \"TinTinCourse/AMM/amm.sol\":5843:5849  token0 */\n      and\n      swap1\n        /* \"TinTinCourse/AMM/amm.sol\":5843:5859  token0.balanceOf */\n      0x70a08231\n      swap1\n        /* \"#utility.yul\":1923:1941   */\n      0x24\n      add\n        /* \"TinTinCourse/AMM/amm.sol\":5843:5874  token0.balanceOf(address(this)) */\n      0x20\n      mload(0x40)\n      dup1\n      dup4\n      sub\n      dup2\n      dup7\n      gas\n      staticcall\n      iszero\n      dup1\n      iszero\n      tag_143\n      jumpi\n      returndatacopy(0x00, 0x00, returndatasize)\n      revert(0x00, returndatasize)\n    tag_143:\n      pop\n      pop\n      pop\n      pop\n      mload(0x40)\n      returndatasize\n      not(0x1f)\n      0x1f\n      dup3\n      add\n      and\n      dup3\n      add\n      dup1\n      0x40\n      mstore\n      pop\n      dup2\n      add\n      swap1\n      tag_144\n      swap2\n      swap1\n      tag_145\n      jump\t// in\n    tag_144:\n        /* \"TinTinCourse/AMM/amm.sol\":5901:5907  token1 */\n      sload(0x06)\n        /* \"TinTinCourse/AMM/amm.sol\":5901:5932  token1.balanceOf(address(this)) */\n      mload(0x40)\n      shl(0xe0, 0x70a08231)\n      dup2\n      mstore\n        /* \"TinTinCourse/AMM/amm.sol\":5926:5930  this */\n      address\n        /* \"TinTinCourse/AMM/amm.sol\":5901:5932  token1.balanceOf(address(this)) */\n      0x04\n      dup3\n      add\n        /* \"#utility.yul\":1950:2001   */\n      mstore\n        /* \"TinTinCourse/AMM/amm.sol\":5827:5874  uint balance0 = token0.balanceOf(address(this)) */\n      swap2\n      swap3\n      pop\n        /* \"TinTinCourse/AMM/amm.sol\":5885:5898  uint balance1 */\n      0x00\n      swap2\n      sub(shl(0xa0, 0x01), 0x01)\n        /* \"TinTinCourse/AMM/amm.sol\":5901:5907  token1 */\n      swap1\n      swap2\n      and\n      swap1\n        /* \"TinTinCourse/AMM/amm.sol\":5901:5917  token1.balanceOf */\n      0x70a08231\n      swap1\n        /* \"#utility.yul\":1923:1941   */\n      0x24\n      add\n        /* \"TinTinCourse/AMM/amm.sol\":5901:5932  token1.balanceOf(address(this)) */\n      0x20\n      mload(0x40)\n      dup1\n      dup4\n      sub\n      dup2\n      dup7\n      gas\n      staticcall\n      iszero\n      dup1\n      iszero\n      tag_148\n      jumpi\n      returndatacopy(0x00, 0x00, returndatasize)\n      revert(0x00, returndatasize)\n    tag_148:\n      pop\n      pop\n      pop\n      pop\n      mload(0x40)\n      returndatasize\n      not(0x1f)\n      0x1f\n      dup3\n      add\n      and\n      dup3\n      add\n      dup1\n      0x40\n      mstore\n      pop\n      dup2\n      add\n      swap1\n      tag_149\n      swap2\n      swap1\n      tag_145\n      jump\t// in\n    tag_149:\n        /* \"TinTinCourse/AMM/amm.sol\":5959:5965  token0 */\n      sload(0x05)\n        /* \"TinTinCourse/AMM/amm.sol\":5885:5932  uint balance1 = token1.balanceOf(address(this)) */\n      swap1\n      swap2\n      pop\n      sub(shl(0xa0, 0x01), 0x01)\n        /* \"TinTinCourse/AMM/amm.sol\":5959:5965  token0 */\n      swap1\n      dup2\n      and\n        /* \"TinTinCourse/AMM/amm.sol\":5948:5965  tokenIn == token0 */\n      swap1\n      dup8\n      and\n      sub\n        /* \"TinTinCourse/AMM/amm.sol\":5945:6852  if(tokenIn == token0){... */\n      tag_150\n      jumpi\n        /* \"TinTinCourse/AMM/amm.sol\":6036:6042  token1 */\n      and(sub(shl(0xa0, 0x01), 0x01), sload(0x06))\n      swap3\n      pop\n        /* \"TinTinCourse/AMM/amm.sol\":6119:6161  getAmountOut(amountIn, balance0, balance1) */\n      tag_151\n        /* \"TinTinCourse/AMM/amm.sol\":6132:6140  amountIn */\n      dup8\n        /* \"TinTinCourse/AMM/amm.sol\":6142:6150  balance0 */\n      dup4\n        /* \"TinTinCourse/AMM/amm.sol\":6152:6160  balance1 */\n      dup4\n        /* \"TinTinCourse/AMM/amm.sol\":6119:6131  getAmountOut */\n      tag_26\n        /* \"TinTinCourse/AMM/amm.sol\":6119:6161  getAmountOut(amountIn, balance0, balance1) */\n      jump\t// in\n    tag_151:\n        /* \"TinTinCourse/AMM/amm.sol\":6107:6161  amountOut = getAmountOut(amountIn, balance0, balance1) */\n      swap4\n      pop\n        /* \"TinTinCourse/AMM/amm.sol\":6196:6208  amountOutMin */\n      dup5\n        /* \"TinTinCourse/AMM/amm.sol\":6184:6193  amountOut */\n      dup5\n        /* \"TinTinCourse/AMM/amm.sol\":6184:6208  amountOut > amountOutMin */\n      gt\n        /* \"TinTinCourse/AMM/amm.sol\":6176:6239  require(amountOut > amountOutMin, 'INSUFFICIENT_OUTPUT_AMOUNT') */\n      tag_152\n      jumpi\n      mload(0x40)\n      shl(0xe5, 0x461bcd)\n      dup2\n      mstore\n      0x04\n      add\n      tag_100\n      swap1\n      tag_135\n      jump\t// in\n    tag_152:\n        /* \"TinTinCourse/AMM/amm.sol\":6283:6340  tokenIn.transferFrom(msg.sender, address(this), amountIn) */\n      mload(0x40)\n      shl(0xe0, 0x23b872dd)\n      dup2\n      mstore\n      sub(shl(0xa0, 0x01), 0x01)\n        /* \"TinTinCourse/AMM/amm.sol\":6283:6303  tokenIn.transferFrom */\n      dup8\n      and\n      swap1\n      0x23b872dd\n      swap1\n        /* \"TinTinCourse/AMM/amm.sol\":6283:6340  tokenIn.transferFrom(msg.sender, address(this), amountIn) */\n      tag_154\n      swap1\n        /* \"TinTinCourse/AMM/amm.sol\":6304:6314  msg.sender */\n      caller\n      swap1\n        /* \"TinTinCourse/AMM/amm.sol\":6324:6328  this */\n      address\n      swap1\n        /* \"TinTinCourse/AMM/amm.sol\":6331:6339  amountIn */\n      dup13\n      swap1\n        /* \"TinTinCourse/AMM/amm.sol\":6283:6340  tokenIn.transferFrom(msg.sender, address(this), amountIn) */\n      0x04\n      add\n      tag_155\n      jump\t// in\n    tag_154:\n      0x20\n      mload(0x40)\n      dup1\n      dup4\n      sub\n      dup2\n      0x00\n      dup8\n      gas\n      call\n      iszero\n      dup1\n      iszero\n      tag_157\n      jumpi\n      returndatacopy(0x00, 0x00, returndatasize)\n      revert(0x00, returndatasize)\n    tag_157:\n      pop\n      pop\n      pop\n      pop\n      mload(0x40)\n      returndatasize\n      not(0x1f)\n      0x1f\n      dup3\n      add\n      and\n      dup3\n      add\n      dup1\n      0x40\n      mstore\n      pop\n      dup2\n      add\n      swap1\n      tag_158\n      swap2\n      swap1\n      tag_159\n      jump\t// in\n    tag_158:\n      pop\n        /* \"TinTinCourse/AMM/amm.sol\":6355:6395  tokenOut.transfer(msg.sender, amountOut) */\n      mload(0x40)\n      shl(0xe0, 0xa9059cbb)\n      dup2\n      mstore\n        /* \"TinTinCourse/AMM/amm.sol\":6373:6383  msg.sender */\n      caller\n        /* \"TinTinCourse/AMM/amm.sol\":6355:6395  tokenOut.transfer(msg.sender, amountOut) */\n      0x04\n      dup3\n      add\n        /* \"#utility.yul\":8660:8711   */\n      mstore\n        /* \"#utility.yul\":8727:8745   */\n      0x24\n      dup2\n      add\n        /* \"#utility.yul\":8720:8754   */\n      dup6\n      swap1\n      mstore\n      sub(shl(0xa0, 0x01), 0x01)\n        /* \"TinTinCourse/AMM/amm.sol\":6355:6372  tokenOut.transfer */\n      dup5\n      and\n      swap1\n      0xa9059cbb\n      swap1\n        /* \"#utility.yul\":8633:8651   */\n      0x44\n      add\n        /* \"TinTinCourse/AMM/amm.sol\":6355:6395  tokenOut.transfer(msg.sender, amountOut) */\n      0x20\n      mload(0x40)\n      dup1\n      dup4\n      sub\n      dup2\n      0x00\n      dup8\n      gas\n      call\n      iszero\n      dup1\n      iszero\n      tag_163\n      jumpi\n      returndatacopy(0x00, 0x00, returndatasize)\n      revert(0x00, returndatasize)\n    tag_163:\n      pop\n      pop\n      pop\n      pop\n      mload(0x40)\n      returndatasize\n      not(0x1f)\n      0x1f\n      dup3\n      add\n      and\n      dup3\n      add\n      dup1\n      0x40\n      mstore\n      pop\n      dup2\n      add\n      swap1\n      tag_164\n      swap2\n      swap1\n      tag_159\n      jump\t// in\n    tag_164:\n      pop\n        /* \"TinTinCourse/AMM/amm.sol\":5945:6852  if(tokenIn == token0){... */\n      jump(tag_165)\n    tag_150:\n        /* \"TinTinCourse/AMM/amm.sol\":6481:6487  token0 */\n      and(sub(shl(0xa0, 0x01), 0x01), sload(0x05))\n      swap3\n      pop\n        /* \"TinTinCourse/AMM/amm.sol\":6564:6606  getAmountOut(amountIn, balance1, balance0) */\n      tag_166\n        /* \"TinTinCourse/AMM/amm.sol\":6577:6585  amountIn */\n      dup8\n        /* \"TinTinCourse/AMM/amm.sol\":6587:6595  balance1 */\n      dup3\n        /* \"TinTinCourse/AMM/amm.sol\":6597:6605  balance0 */\n      dup5\n        /* \"TinTinCourse/AMM/amm.sol\":6564:6576  getAmountOut */\n      tag_26\n        /* \"TinTinCourse/AMM/amm.sol\":6564:6606  getAmountOut(amountIn, balance1, balance0) */\n      jump\t// in\n    tag_166:\n        /* \"TinTinCourse/AMM/amm.sol\":6552:6606  amountOut = getAmountOut(amountIn, balance1, balance0) */\n      swap4\n      pop\n        /* \"TinTinCourse/AMM/amm.sol\":6641:6653  amountOutMin */\n      dup5\n        /* \"TinTinCourse/AMM/amm.sol\":6629:6638  amountOut */\n      dup5\n        /* \"TinTinCourse/AMM/amm.sol\":6629:6653  amountOut > amountOutMin */\n      gt\n        /* \"TinTinCourse/AMM/amm.sol\":6621:6684  require(amountOut > amountOutMin, 'INSUFFICIENT_OUTPUT_AMOUNT') */\n      tag_167\n      jumpi\n      mload(0x40)\n      shl(0xe5, 0x461bcd)\n      dup2\n      mstore\n      0x04\n      add\n      tag_100\n      swap1\n      tag_135\n      jump\t// in\n    tag_167:\n        /* \"TinTinCourse/AMM/amm.sol\":6728:6785  tokenIn.transferFrom(msg.sender, address(this), amountIn) */\n      mload(0x40)\n      shl(0xe0, 0x23b872dd)\n      dup2\n      mstore\n      sub(shl(0xa0, 0x01), 0x01)\n        /* \"TinTinCourse/AMM/amm.sol\":6728:6748  tokenIn.transferFrom */\n      dup8\n      and\n      swap1\n      0x23b872dd\n      swap1\n        /* \"TinTinCourse/AMM/amm.sol\":6728:6785  tokenIn.transferFrom(msg.sender, address(this), amountIn) */\n      tag_169\n      swap1\n        /* \"TinTinCourse/AMM/amm.sol\":6749:6759  msg.sender */\n      caller\n      swap1\n        /* \"TinTinCourse/AMM/amm.sol\":6769:6773  this */\n      address\n      swap1\n        /* \"TinTinCourse/AMM/amm.sol\":6776:6784  amountIn */\n      dup13\n      swap1\n        /* \"TinTinCourse/AMM/amm.sol\":6728:6785  tokenIn.transferFrom(msg.sender, address(this), amountIn) */\n      0x04\n      add\n      tag_155\n      jump\t// in\n    tag_169:\n      0x20\n      mload(0x40)\n      dup1\n      dup4\n      sub\n      dup2\n      0x00\n      dup8\n      gas\n      call\n      iszero\n      dup1\n      iszero\n      tag_171\n      jumpi\n      returndatacopy(0x00, 0x00, returndatasize)\n      revert(0x00, returndatasize)\n    tag_171:\n      pop\n      pop\n      pop\n      pop\n      mload(0x40)\n      returndatasize\n      not(0x1f)\n      0x1f\n      dup3\n      add\n      and\n      dup3\n      add\n      dup1\n      0x40\n      mstore\n      pop\n      dup2\n      add\n      swap1\n      tag_172\n      swap2\n      swap1\n      tag_159\n      jump\t// in\n    tag_172:\n      pop\n        /* \"TinTinCourse/AMM/amm.sol\":6800:6840  tokenOut.transfer(msg.sender, amountOut) */\n      mload(0x40)\n      shl(0xe0, 0xa9059cbb)\n      dup2\n      mstore\n        /* \"TinTinCourse/AMM/amm.sol\":6818:6828  msg.sender */\n      caller\n        /* \"TinTinCourse/AMM/amm.sol\":6800:6840  tokenOut.transfer(msg.sender, amountOut) */\n      0x04\n      dup3\n      add\n        /* \"#utility.yul\":8660:8711   */\n      mstore\n        /* \"#utility.yul\":8727:8745   */\n      0x24\n      dup2\n      add\n        /* \"#utility.yul\":8720:8754   */\n      dup6\n      swap1\n      mstore\n      sub(shl(0xa0, 0x01), 0x01)\n        /* \"TinTinCourse/AMM/amm.sol\":6800:6817  tokenOut.transfer */\n      dup5\n      and\n      swap1\n      0xa9059cbb\n      swap1\n        /* \"#utility.yul\":8633:8651   */\n      0x44\n      add\n        /* \"TinTinCourse/AMM/amm.sol\":6800:6840  tokenOut.transfer(msg.sender, amountOut) */\n      0x20\n      mload(0x40)\n      dup1\n      dup4\n      sub\n      dup2\n      0x00\n      dup8\n      gas\n      call\n      iszero\n      dup1\n      iszero\n      tag_175\n      jumpi\n      returndatacopy(0x00, 0x00, returndatasize)\n      revert(0x00, returndatasize)\n    tag_175:\n      pop\n      pop\n      pop\n      pop\n      mload(0x40)\n      returndatasize\n      not(0x1f)\n      0x1f\n      dup3\n      add\n      and\n      dup3\n      add\n      dup1\n      0x40\n      mstore\n      pop\n      dup2\n      add\n      swap1\n      tag_176\n      swap2\n      swap1\n      tag_159\n      jump\t// in\n    tag_176:\n      pop\n        /* \"TinTinCourse/AMM/amm.sol\":5945:6852  if(tokenIn == token0){... */\n    tag_165:\n        /* \"TinTinCourse/AMM/amm.sol\":6903:6909  token0 */\n      sload(0x05)\n        /* \"TinTinCourse/AMM/amm.sol\":6903:6934  token0.balanceOf(address(this)) */\n      mload(0x40)\n      shl(0xe0, 0x70a08231)\n      dup2\n      mstore\n        /* \"TinTinCourse/AMM/amm.sol\":6928:6932  this */\n      address\n        /* \"TinTinCourse/AMM/amm.sol\":6903:6934  token0.balanceOf(address(this)) */\n      0x04\n      dup3\n      add\n        /* \"#utility.yul\":1950:2001   */\n      mstore\n      sub(shl(0xa0, 0x01), 0x01)\n        /* \"TinTinCourse/AMM/amm.sol\":6903:6909  token0 */\n      swap1\n      swap2\n      and\n      swap1\n        /* \"TinTinCourse/AMM/amm.sol\":6903:6919  token0.balanceOf */\n      0x70a08231\n      swap1\n        /* \"#utility.yul\":1923:1941   */\n      0x24\n      add\n        /* \"TinTinCourse/AMM/amm.sol\":6903:6934  token0.balanceOf(address(this)) */\n      0x20\n      mload(0x40)\n      dup1\n      dup4\n      sub\n      dup2\n      dup7\n      gas\n      staticcall\n      iszero\n      dup1\n      iszero\n      tag_179\n      jumpi\n      returndatacopy(0x00, 0x00, returndatasize)\n      revert(0x00, returndatasize)\n    tag_179:\n      pop\n      pop\n      pop\n      pop\n      mload(0x40)\n      returndatasize\n      not(0x1f)\n      0x1f\n      dup3\n      add\n      and\n      dup3\n      add\n      dup1\n      0x40\n      mstore\n      pop\n      dup2\n      add\n      swap1\n      tag_180\n      swap2\n      swap1\n      tag_145\n      jump\t// in\n    tag_180:\n        /* \"TinTinCourse/AMM/amm.sol\":6892:6900  reserve0 */\n      0x07\n        /* \"TinTinCourse/AMM/amm.sol\":6892:6934  reserve0 = token0.balanceOf(address(this)) */\n      sstore\n        /* \"TinTinCourse/AMM/amm.sol\":6956:6962  token1 */\n      sload(0x06)\n        /* \"TinTinCourse/AMM/amm.sol\":6956:6987  token1.balanceOf(address(this)) */\n      mload(0x40)\n      shl(0xe0, 0x70a08231)\n      dup2\n      mstore\n        /* \"TinTinCourse/AMM/amm.sol\":6981:6985  this */\n      address\n        /* \"TinTinCourse/AMM/amm.sol\":6956:6987  token1.balanceOf(address(this)) */\n      0x04\n      dup3\n      add\n        /* \"#utility.yul\":1950:2001   */\n      mstore\n      sub(shl(0xa0, 0x01), 0x01)\n        /* \"TinTinCourse/AMM/amm.sol\":6956:6962  token1 */\n      swap1\n      swap2\n      and\n      swap1\n        /* \"TinTinCourse/AMM/amm.sol\":6956:6972  token1.balanceOf */\n      0x70a08231\n      swap1\n        /* \"#utility.yul\":1923:1941   */\n      0x24\n      add\n        /* \"TinTinCourse/AMM/amm.sol\":6956:6987  token1.balanceOf(address(this)) */\n      0x20\n      mload(0x40)\n      dup1\n      dup4\n      sub\n      dup2\n      dup7\n      gas\n      staticcall\n      iszero\n      dup1\n      iszero\n      tag_183\n      jumpi\n      returndatacopy(0x00, 0x00, returndatasize)\n      revert(0x00, returndatasize)\n    tag_183:\n      pop\n      pop\n      pop\n      pop\n      mload(0x40)\n      returndatasize\n      not(0x1f)\n      0x1f\n      dup3\n      add\n      and\n      dup3\n      add\n      dup1\n      0x40\n      mstore\n      pop\n      dup2\n      add\n      swap1\n      tag_184\n      swap2\n      swap1\n      tag_145\n      jump\t// in\n    tag_184:\n        /* \"TinTinCourse/AMM/amm.sol\":6945:6953  reserve1 */\n      0x08\n        /* \"TinTinCourse/AMM/amm.sol\":6945:6987  reserve1 = token1.balanceOf(address(this)) */\n      sstore\n        /* \"TinTinCourse/AMM/amm.sol\":7005:7079  Swap(msg.sender, amountIn, address(tokenIn), amountOut, address(tokenOut)) */\n      0x40\n      dup1\n      mload\n        /* \"#utility.yul\":8996:9021   */\n      dup9\n      dup2\n      mstore\n      sub(shl(0xa0, 0x01), 0x01)\n        /* \"#utility.yul\":9057:9089   */\n      dup1\n      dup10\n      and\n        /* \"#utility.yul\":9052:9054   */\n      0x20\n        /* \"#utility.yul\":9037:9055   */\n      dup4\n      add\n        /* \"#utility.yul\":9030:9090   */\n      mstore\n        /* \"#utility.yul\":9106:9124   */\n      swap2\n      dup2\n      add\n        /* \"#utility.yul\":9099:9133   */\n      dup7\n      swap1\n      mstore\n        /* \"#utility.yul\":9169:9201   */\n      swap1\n      dup5\n      and\n        /* \"#utility.yul\":9164:9166   */\n      0x60\n        /* \"#utility.yul\":9149:9167   */\n      dup3\n      add\n        /* \"#utility.yul\":9142:9202   */\n      mstore\n        /* \"TinTinCourse/AMM/amm.sol\":7010:7020  msg.sender */\n      caller\n      swap1\n        /* \"TinTinCourse/AMM/amm.sol\":7005:7079  Swap(msg.sender, amountIn, address(tokenIn), amountOut, address(tokenOut)) */\n      0x24043855bfbfea0ccea141e5a73d7116bf0bfe083ea900a791f4b407ff03e525\n      swap1\n        /* \"#utility.yul\":8983:8986   */\n      0x80\n        /* \"#utility.yul\":8968:8987   */\n      add\n        /* \"TinTinCourse/AMM/amm.sol\":7005:7079  Swap(msg.sender, amountIn, address(tokenIn), amountOut, address(tokenOut)) */\n      mload(0x40)\n      dup1\n      swap2\n      sub\n      swap1\n      log2\n        /* \"TinTinCourse/AMM/amm.sol\":5669:7087  {... */\n      pop\n      pop\n        /* \"TinTinCourse/AMM/amm.sol\":5555:7087  function swap(uint amountIn, IERC20 tokenIn, uint amountOutMin) external returns (uint amountOut, IERC20 tokenOut){... */\n      swap4\n      pop\n      swap4\n      swap2\n      pop\n      pop\n      jump\t// out\n        /* \"@openzeppelin/contracts/token/ERC20/ERC20.sol\":2276:2369  function symbol() public view virtual returns (string memory) {... */\n    tag_73:\n        /* \"@openzeppelin/contracts/token/ERC20/ERC20.sol\":2323:2336  string memory */\n      0x60\n        /* \"@openzeppelin/contracts/token/ERC20/ERC20.sol\":2355:2362  _symbol */\n      0x04\n        /* \"@openzeppelin/contracts/token/ERC20/ERC20.sol\":2348:2362  return _symbol */\n      dup1\n      sload\n      tag_113\n      swap1\n      tag_114\n      jump\t// in\n        /* \"TinTinCourse/AMM/amm.sol\":3805:4729  function removeLiquidity(uint liquidity) external returns (uint amount0, uint amount1) {... */\n    tag_78:\n        /* \"TinTinCourse/AMM/amm.sol\":3944:3950  token0 */\n      sload(0x05)\n        /* \"TinTinCourse/AMM/amm.sol\":3944:3975  token0.balanceOf(address(this)) */\n      mload(0x40)\n      shl(0xe0, 0x70a08231)\n      dup2\n      mstore\n        /* \"TinTinCourse/AMM/amm.sol\":3969:3973  this */\n      address\n        /* \"TinTinCourse/AMM/amm.sol\":3944:3975  token0.balanceOf(address(this)) */\n      0x04\n      dup3\n      add\n        /* \"#utility.yul\":1950:2001   */\n      mstore\n        /* \"TinTinCourse/AMM/amm.sol\":3864:3876  uint amount0 */\n      0x00\n      swap2\n      dup3\n      swap2\n      dup3\n      swap2\n      sub(shl(0xa0, 0x01), 0x01)\n        /* \"TinTinCourse/AMM/amm.sol\":3944:3950  token0 */\n      and\n      swap1\n        /* \"TinTinCourse/AMM/amm.sol\":3944:3960  token0.balanceOf */\n      0x70a08231\n      swap1\n        /* \"#utility.yul\":1923:1941   */\n      0x24\n      add\n        /* \"TinTinCourse/AMM/amm.sol\":3944:3975  token0.balanceOf(address(this)) */\n      0x20\n      mload(0x40)\n      dup1\n      dup4\n      sub\n      dup2\n      dup7\n      gas\n      staticcall\n      iszero\n      dup1\n      iszero\n      tag_197\n      jumpi\n      returndatacopy(0x00, 0x00, returndatasize)\n      revert(0x00, returndatasize)\n    tag_197:\n      pop\n      pop\n      pop\n      pop\n      mload(0x40)\n      returndatasize\n      not(0x1f)\n      0x1f\n      dup3\n      add\n      and\n      dup3\n      add\n      dup1\n      0x40\n      mstore\n      pop\n      dup2\n      add\n      swap1\n      tag_198\n      swap2\n      swap1\n      tag_145\n      jump\t// in\n    tag_198:\n        /* \"TinTinCourse/AMM/amm.sol\":4002:4008  token1 */\n      sload(0x06)\n        /* \"TinTinCourse/AMM/amm.sol\":4002:4033  token1.balanceOf(address(this)) */\n      mload(0x40)\n      shl(0xe0, 0x70a08231)\n      dup2\n      mstore\n        /* \"TinTinCourse/AMM/amm.sol\":4027:4031  this */\n      address\n        /* \"TinTinCourse/AMM/amm.sol\":4002:4033  token1.balanceOf(address(this)) */\n      0x04\n      dup3\n      add\n        /* \"#utility.yul\":1950:2001   */\n      mstore\n        /* \"TinTinCourse/AMM/amm.sol\":3928:3975  uint balance0 = token0.balanceOf(address(this)) */\n      swap2\n      swap3\n      pop\n        /* \"TinTinCourse/AMM/amm.sol\":3986:3999  uint balance1 */\n      0x00\n      swap2\n      sub(shl(0xa0, 0x01), 0x01)\n        /* \"TinTinCourse/AMM/amm.sol\":4002:4008  token1 */\n      swap1\n      swap2\n      and\n      swap1\n        /* \"TinTinCourse/AMM/amm.sol\":4002:4018  token1.balanceOf */\n      0x70a08231\n      swap1\n        /* \"#utility.yul\":1923:1941   */\n      0x24\n      add\n        /* \"TinTinCourse/AMM/amm.sol\":4002:4033  token1.balanceOf(address(this)) */\n      0x20\n      mload(0x40)\n      dup1\n      dup4\n      sub\n      dup2\n      dup7\n      gas\n      staticcall\n      iszero\n      dup1\n      iszero\n      tag_201\n      jumpi\n      returndatacopy(0x00, 0x00, returndatasize)\n      revert(0x00, returndatasize)\n    tag_201:\n      pop\n      pop\n      pop\n      pop\n      mload(0x40)\n      returndatasize\n      not(0x1f)\n      0x1f\n      dup3\n      add\n      and\n      dup3\n      add\n      dup1\n      0x40\n      mstore\n      pop\n      dup2\n      add\n      swap1\n      tag_202\n      swap2\n      swap1\n      tag_145\n      jump\t// in\n    tag_202:\n        /* \"TinTinCourse/AMM/amm.sol\":3986:4033  uint balance1 = token1.balanceOf(address(this)) */\n      swap1\n      pop\n        /* \"TinTinCourse/AMM/amm.sol\":4101:4118  uint _totalSupply */\n      0x00\n        /* \"TinTinCourse/AMM/amm.sol\":4121:4134  totalSupply() */\n      tag_203\n        /* \"@openzeppelin/contracts/token/ERC20/ERC20.sol\":3222:3234  _totalSupply */\n      sload(0x02)\n      swap1\n        /* \"@openzeppelin/contracts/token/ERC20/ERC20.sol\":3144:3241  function totalSupply() public view virtual returns (uint256) {... */\n      jump\n        /* \"TinTinCourse/AMM/amm.sol\":4121:4134  totalSupply() */\n    tag_203:\n        /* \"TinTinCourse/AMM/amm.sol\":4101:4134  uint _totalSupply = totalSupply() */\n      swap1\n      pop\n      dup1\n        /* \"TinTinCourse/AMM/amm.sol\":4155:4175  liquidity * balance0 */\n      tag_204\n        /* \"TinTinCourse/AMM/amm.sol\":4167:4175  balance0 */\n      dup5\n        /* \"TinTinCourse/AMM/amm.sol\":4155:4164  liquidity */\n      dup9\n        /* \"TinTinCourse/AMM/amm.sol\":4155:4175  liquidity * balance0 */\n      tag_109\n      jump\t// in\n    tag_204:\n        /* \"TinTinCourse/AMM/amm.sol\":4155:4190  liquidity * balance0 / _totalSupply */\n      tag_205\n      swap2\n      swap1\n      tag_111\n      jump\t// in\n    tag_205:\n        /* \"TinTinCourse/AMM/amm.sol\":4145:4190  amount0 = liquidity * balance0 / _totalSupply */\n      swap5\n      pop\n        /* \"TinTinCourse/AMM/amm.sol\":4234:4246  _totalSupply */\n      dup1\n        /* \"TinTinCourse/AMM/amm.sol\":4211:4231  liquidity * balance1 */\n      tag_206\n        /* \"TinTinCourse/AMM/amm.sol\":4223:4231  balance1 */\n      dup4\n        /* \"TinTinCourse/AMM/amm.sol\":4211:4220  liquidity */\n      dup9\n        /* \"TinTinCourse/AMM/amm.sol\":4211:4231  liquidity * balance1 */\n      tag_109\n      jump\t// in\n    tag_206:\n        /* \"TinTinCourse/AMM/amm.sol\":4211:4246  liquidity * balance1 / _totalSupply */\n      tag_207\n      swap2\n      swap1\n      tag_111\n      jump\t// in\n    tag_207:\n        /* \"TinTinCourse/AMM/amm.sol\":4201:4246  amount1 = liquidity * balance1 / _totalSupply */\n      swap4\n      pop\n        /* \"TinTinCourse/AMM/amm.sol\":4306:4307  0 */\n      0x00\n        /* \"TinTinCourse/AMM/amm.sol\":4296:4303  amount0 */\n      dup6\n        /* \"TinTinCourse/AMM/amm.sol\":4296:4307  amount0 > 0 */\n      gt\n        /* \"TinTinCourse/AMM/amm.sol\":4296:4322  amount0 > 0 && amount1 > 0 */\n      dup1\n      iszero\n      tag_208\n      jumpi\n      pop\n        /* \"TinTinCourse/AMM/amm.sol\":4321:4322  0 */\n      0x00\n        /* \"TinTinCourse/AMM/amm.sol\":4311:4318  amount1 */\n      dup5\n        /* \"TinTinCourse/AMM/amm.sol\":4311:4322  amount1 > 0 */\n      gt\n        /* \"TinTinCourse/AMM/amm.sol\":4296:4322  amount0 > 0 && amount1 > 0 */\n    tag_208:\n        /* \"TinTinCourse/AMM/amm.sol\":4288:4356  require(amount0 > 0 && amount1 > 0, 'INSUFFICIENT_LIQUIDITY_BURNED') */\n      tag_209\n      jumpi\n      mload(0x40)\n      shl(0xe5, 0x461bcd)\n      dup2\n      mstore\n        /* \"#utility.yul\":9415:9417   */\n      0x20\n        /* \"TinTinCourse/AMM/amm.sol\":4288:4356  require(amount0 > 0 && amount1 > 0, 'INSUFFICIENT_LIQUIDITY_BURNED') */\n      0x04\n      dup3\n      add\n        /* \"#utility.yul\":9397:9418   */\n      mstore\n        /* \"#utility.yul\":9454:9456   */\n      0x1d\n        /* \"#utility.yul\":9434:9452   */\n      0x24\n      dup3\n      add\n        /* \"#utility.yul\":9427:9457   */\n      mstore\n        /* \"#utility.yul\":9493:9524   */\n      0x494e53554646494349454e545f4c49515549444954595f4255524e4544000000\n        /* \"#utility.yul\":9473:9491   */\n      0x44\n      dup3\n      add\n        /* \"#utility.yul\":9466:9525   */\n      mstore\n        /* \"#utility.yul\":9542:9560   */\n      0x64\n      add\n        /* \"TinTinCourse/AMM/amm.sol\":4288:4356  require(amount0 > 0 && amount1 > 0, 'INSUFFICIENT_LIQUIDITY_BURNED') */\n      tag_100\n        /* \"#utility.yul\":9213:9566   */\n      jump\n        /* \"TinTinCourse/AMM/amm.sol\":4288:4356  require(amount0 > 0 && amount1 > 0, 'INSUFFICIENT_LIQUIDITY_BURNED') */\n    tag_209:\n        /* \"TinTinCourse/AMM/amm.sol\":4388:4416  _burn(msg.sender, liquidity) */\n      tag_212\n        /* \"TinTinCourse/AMM/amm.sol\":4394:4404  msg.sender */\n      caller\n        /* \"TinTinCourse/AMM/amm.sol\":4406:4415  liquidity */\n      dup8\n        /* \"TinTinCourse/AMM/amm.sol\":4388:4393  _burn */\n      tag_213\n        /* \"TinTinCourse/AMM/amm.sol\":4388:4416  _burn(msg.sender, liquidity) */\n      jump\t// in\n    tag_212:\n        /* \"TinTinCourse/AMM/amm.sol\":4452:4458  token0 */\n      sload(0x05)\n        /* \"TinTinCourse/AMM/amm.sol\":4452:4488  token0.transfer(msg.sender, amount0) */\n      mload(0x40)\n      shl(0xe0, 0xa9059cbb)\n      dup2\n      mstore\n        /* \"TinTinCourse/AMM/amm.sol\":4468:4478  msg.sender */\n      caller\n        /* \"TinTinCourse/AMM/amm.sol\":4452:4488  token0.transfer(msg.sender, amount0) */\n      0x04\n      dup3\n      add\n        /* \"#utility.yul\":8660:8711   */\n      mstore\n        /* \"#utility.yul\":8727:8745   */\n      0x24\n      dup2\n      add\n        /* \"#utility.yul\":8720:8754   */\n      dup8\n      swap1\n      mstore\n      sub(shl(0xa0, 0x01), 0x01)\n        /* \"TinTinCourse/AMM/amm.sol\":4452:4458  token0 */\n      swap1\n      swap2\n      and\n      swap1\n        /* \"TinTinCourse/AMM/amm.sol\":4452:4467  token0.transfer */\n      0xa9059cbb\n      swap1\n        /* \"#utility.yul\":8633:8651   */\n      0x44\n      add\n        /* \"TinTinCourse/AMM/amm.sol\":4452:4488  token0.transfer(msg.sender, amount0) */\n      0x20\n      mload(0x40)\n      dup1\n      dup4\n      sub\n      dup2\n      0x00\n      dup8\n      gas\n      call\n      iszero\n      dup1\n      iszero\n      tag_216\n      jumpi\n      returndatacopy(0x00, 0x00, returndatasize)\n      revert(0x00, returndatasize)\n    tag_216:\n      pop\n      pop\n      pop\n      pop\n      mload(0x40)\n      returndatasize\n      not(0x1f)\n      0x1f\n      dup3\n      add\n      and\n      dup3\n      add\n      dup1\n      0x40\n      mstore\n      pop\n      dup2\n      add\n      swap1\n      tag_217\n      swap2\n      swap1\n      tag_159\n      jump\t// in\n    tag_217:\n      pop\n        /* \"TinTinCourse/AMM/amm.sol\":4499:4505  token1 */\n      sload(0x06)\n        /* \"TinTinCourse/AMM/amm.sol\":4499:4535  token1.transfer(msg.sender, amount1) */\n      mload(0x40)\n      shl(0xe0, 0xa9059cbb)\n      dup2\n      mstore\n        /* \"TinTinCourse/AMM/amm.sol\":4515:4525  msg.sender */\n      caller\n        /* \"TinTinCourse/AMM/amm.sol\":4499:4535  token1.transfer(msg.sender, amount1) */\n      0x04\n      dup3\n      add\n        /* \"#utility.yul\":8660:8711   */\n      mstore\n        /* \"#utility.yul\":8727:8745   */\n      0x24\n      dup2\n      add\n        /* \"#utility.yul\":8720:8754   */\n      dup7\n      swap1\n      mstore\n      sub(shl(0xa0, 0x01), 0x01)\n        /* \"TinTinCourse/AMM/amm.sol\":4499:4505  token1 */\n      swap1\n      swap2\n      and\n      swap1\n        /* \"TinTinCourse/AMM/amm.sol\":4499:4514  token1.transfer */\n      0xa9059cbb\n      swap1\n        /* \"#utility.yul\":8633:8651   */\n      0x44\n      add\n        /* \"TinTinCourse/AMM/amm.sol\":4499:4535  token1.transfer(msg.sender, amount1) */\n      0x20\n      mload(0x40)\n      dup1\n      dup4\n      sub\n      dup2\n      0x00\n      dup8\n      gas\n      call\n      iszero\n      dup1\n      iszero\n      tag_220\n      jumpi\n      returndatacopy(0x00, 0x00, returndatasize)\n      revert(0x00, returndatasize)\n    tag_220:\n      pop\n      pop\n      pop\n      pop\n      mload(0x40)\n      returndatasize\n      not(0x1f)\n      0x1f\n      dup3\n      add\n      and\n      dup3\n      add\n      dup1\n      0x40\n      mstore\n      pop\n      dup2\n      add\n      swap1\n      tag_221\n      swap2\n      swap1\n      tag_159\n      jump\t// in\n    tag_221:\n      pop\n        /* \"TinTinCourse/AMM/amm.sol\":4585:4591  token0 */\n      sload(0x05)\n        /* \"TinTinCourse/AMM/amm.sol\":4585:4616  token0.balanceOf(address(this)) */\n      mload(0x40)\n      shl(0xe0, 0x70a08231)\n      dup2\n      mstore\n        /* \"TinTinCourse/AMM/amm.sol\":4610:4614  this */\n      address\n        /* \"TinTinCourse/AMM/amm.sol\":4585:4616  token0.balanceOf(address(this)) */\n      0x04\n      dup3\n      add\n        /* \"#utility.yul\":1950:2001   */\n      mstore\n      sub(shl(0xa0, 0x01), 0x01)\n        /* \"TinTinCourse/AMM/amm.sol\":4585:4591  token0 */\n      swap1\n      swap2\n      and\n      swap1\n        /* \"TinTinCourse/AMM/amm.sol\":4585:4601  token0.balanceOf */\n      0x70a08231\n      swap1\n        /* \"#utility.yul\":1923:1941   */\n      0x24\n      add\n        /* \"TinTinCourse/AMM/amm.sol\":4585:4616  token0.balanceOf(address(this)) */\n      0x20\n      mload(0x40)\n      dup1\n      dup4\n      sub\n      dup2\n      dup7\n      gas\n      staticcall\n      iszero\n      dup1\n      iszero\n      tag_224\n      jumpi\n      returndatacopy(0x00, 0x00, returndatasize)\n      revert(0x00, returndatasize)\n    tag_224:\n      pop\n      pop\n      pop\n      pop\n      mload(0x40)\n      returndatasize\n      not(0x1f)\n      0x1f\n      dup3\n      add\n      and\n      dup3\n      add\n      dup1\n      0x40\n      mstore\n      pop\n      dup2\n      add\n      swap1\n      tag_225\n      swap2\n      swap1\n      tag_145\n      jump\t// in\n    tag_225:\n        /* \"TinTinCourse/AMM/amm.sol\":4574:4582  reserve0 */\n      0x07\n        /* \"TinTinCourse/AMM/amm.sol\":4574:4616  reserve0 = token0.balanceOf(address(this)) */\n      sstore\n        /* \"TinTinCourse/AMM/amm.sol\":4638:4644  token1 */\n      sload(0x06)\n        /* \"TinTinCourse/AMM/amm.sol\":4638:4669  token1.balanceOf(address(this)) */\n      mload(0x40)\n      shl(0xe0, 0x70a08231)\n      dup2\n      mstore\n        /* \"TinTinCourse/AMM/amm.sol\":4663:4667  this */\n      address\n        /* \"TinTinCourse/AMM/amm.sol\":4638:4669  token1.balanceOf(address(this)) */\n      0x04\n      dup3\n      add\n        /* \"#utility.yul\":1950:2001   */\n      mstore\n      sub(shl(0xa0, 0x01), 0x01)\n        /* \"TinTinCourse/AMM/amm.sol\":4638:4644  token1 */\n      swap1\n      swap2\n      and\n      swap1\n        /* \"TinTinCourse/AMM/amm.sol\":4638:4654  token1.balanceOf */\n      0x70a08231\n      swap1\n        /* \"#utility.yul\":1923:1941   */\n      0x24\n      add\n        /* \"TinTinCourse/AMM/amm.sol\":4638:4669  token1.balanceOf(address(this)) */\n      0x20\n      mload(0x40)\n      dup1\n      dup4\n      sub\n      dup2\n      dup7\n      gas\n      staticcall\n      iszero\n      dup1\n      iszero\n      tag_228\n      jumpi\n      returndatacopy(0x00, 0x00, returndatasize)\n      revert(0x00, returndatasize)\n    tag_228:\n      pop\n      pop\n      pop\n      pop\n      mload(0x40)\n      returndatasize\n      not(0x1f)\n      0x1f\n      dup3\n      add\n      and\n      dup3\n      add\n      dup1\n      0x40\n      mstore\n      pop\n      dup2\n      add\n      swap1\n      tag_229\n      swap2\n      swap1\n      tag_145\n      jump\t// in\n    tag_229:\n        /* \"TinTinCourse/AMM/amm.sol\":4627:4635  reserve1 */\n      0x08\n        /* \"TinTinCourse/AMM/amm.sol\":4627:4669  reserve1 = token1.balanceOf(address(this)) */\n      sstore\n        /* \"TinTinCourse/AMM/amm.sol\":4687:4721  Burn(msg.sender, amount0, amount1) */\n      0x40\n      dup1\n      mload\n        /* \"#utility.yul\":4170:4195   */\n      dup7\n      dup2\n      mstore\n        /* \"#utility.yul\":4226:4228   */\n      0x20\n        /* \"#utility.yul\":4211:4229   */\n      dup2\n      add\n        /* \"#utility.yul\":4204:4238   */\n      dup7\n      swap1\n      mstore\n        /* \"TinTinCourse/AMM/amm.sol\":4692:4702  msg.sender */\n      caller\n      swap2\n        /* \"TinTinCourse/AMM/amm.sol\":4687:4721  Burn(msg.sender, amount0, amount1) */\n      0x49995e5dd6158cf69ad3e9777c46755a1a826a446c6416992167462dad033b2a\n      swap2\n        /* \"#utility.yul\":4143:4161   */\n      add\n        /* \"TinTinCourse/AMM/amm.sol\":4687:4721  Burn(msg.sender, amount0, amount1) */\n      mload(0x40)\n      dup1\n      swap2\n      sub\n      swap1\n      log2\n        /* \"TinTinCourse/AMM/amm.sol\":3892:4729  {... */\n      pop\n      pop\n      pop\n        /* \"TinTinCourse/AMM/amm.sol\":3805:4729  function removeLiquidity(uint liquidity) external returns (uint amount0, uint amount1) {... */\n      swap2\n      pop\n      swap2\n      jump\t// out\n        /* \"TinTinCourse/AMM/amm.sol\":2299:3635  function addLiquidity(uint amount0Desired, uint amount1Desired) public returns(uint liquidity){... */\n    tag_84:\n        /* \"TinTinCourse/AMM/amm.sol\":2485:2491  token0 */\n      sload(0x05)\n        /* \"TinTinCourse/AMM/amm.sol\":2485:2547  token0.transferFrom(msg.sender, address(this), amount0Desired) */\n      mload(0x40)\n      shl(0xe0, 0x23b872dd)\n      dup2\n      mstore\n        /* \"TinTinCourse/AMM/amm.sol\":2378:2392  uint liquidity */\n      0x00\n      swap2\n      sub(shl(0xa0, 0x01), 0x01)\n        /* \"TinTinCourse/AMM/amm.sol\":2485:2491  token0 */\n      and\n      swap1\n        /* \"TinTinCourse/AMM/amm.sol\":2485:2504  token0.transferFrom */\n      0x23b872dd\n      swap1\n        /* \"TinTinCourse/AMM/amm.sol\":2485:2547  token0.transferFrom(msg.sender, address(this), amount0Desired) */\n      tag_232\n      swap1\n        /* \"TinTinCourse/AMM/amm.sol\":2505:2515  msg.sender */\n      caller\n      swap1\n        /* \"TinTinCourse/AMM/amm.sol\":2525:2529  this */\n      address\n      swap1\n        /* \"TinTinCourse/AMM/amm.sol\":2532:2546  amount0Desired */\n      dup9\n      swap1\n        /* \"TinTinCourse/AMM/amm.sol\":2485:2547  token0.transferFrom(msg.sender, address(this), amount0Desired) */\n      0x04\n      add\n      tag_155\n      jump\t// in\n    tag_232:\n      0x20\n      mload(0x40)\n      dup1\n      dup4\n      sub\n      dup2\n      0x00\n      dup8\n      gas\n      call\n      iszero\n      dup1\n      iszero\n      tag_234\n      jumpi\n      returndatacopy(0x00, 0x00, returndatasize)\n      revert(0x00, returndatasize)\n    tag_234:\n      pop\n      pop\n      pop\n      pop\n      mload(0x40)\n      returndatasize\n      not(0x1f)\n      0x1f\n      dup3\n      add\n      and\n      dup3\n      add\n      dup1\n      0x40\n      mstore\n      pop\n      dup2\n      add\n      swap1\n      tag_235\n      swap2\n      swap1\n      tag_159\n      jump\t// in\n    tag_235:\n      pop\n        /* \"TinTinCourse/AMM/amm.sol\":2558:2564  token1 */\n      sload(0x06)\n        /* \"TinTinCourse/AMM/amm.sol\":2558:2620  token1.transferFrom(msg.sender, address(this), amount1Desired) */\n      mload(0x40)\n      shl(0xe0, 0x23b872dd)\n      dup2\n      mstore\n      sub(shl(0xa0, 0x01), 0x01)\n        /* \"TinTinCourse/AMM/amm.sol\":2558:2564  token1 */\n      swap1\n      swap2\n      and\n      swap1\n        /* \"TinTinCourse/AMM/amm.sol\":2558:2577  token1.transferFrom */\n      0x23b872dd\n      swap1\n        /* \"TinTinCourse/AMM/amm.sol\":2558:2620  token1.transferFrom(msg.sender, address(this), amount1Desired) */\n      tag_236\n      swap1\n        /* \"TinTinCourse/AMM/amm.sol\":2578:2588  msg.sender */\n      caller\n      swap1\n        /* \"TinTinCourse/AMM/amm.sol\":2598:2602  this */\n      address\n      swap1\n        /* \"TinTinCourse/AMM/amm.sol\":2605:2619  amount1Desired */\n      dup8\n      swap1\n        /* \"TinTinCourse/AMM/amm.sol\":2558:2620  token1.transferFrom(msg.sender, address(this), amount1Desired) */\n      0x04\n      add\n      tag_155\n      jump\t// in\n    tag_236:\n      0x20\n      mload(0x40)\n      dup1\n      dup4\n      sub\n      dup2\n      0x00\n      dup8\n      gas\n      call\n      iszero\n      dup1\n      iszero\n      tag_238\n      jumpi\n      returndatacopy(0x00, 0x00, returndatasize)\n      revert(0x00, returndatasize)\n    tag_238:\n      pop\n      pop\n      pop\n      pop\n      mload(0x40)\n      returndatasize\n      not(0x1f)\n      0x1f\n      dup3\n      add\n      and\n      dup3\n      add\n      dup1\n      0x40\n      mstore\n      pop\n      dup2\n      add\n      swap1\n      tag_239\n      swap2\n      swap1\n      tag_159\n      jump\t// in\n    tag_239:\n      pop\n        /* \"TinTinCourse/AMM/amm.sol\":2668:2685  uint _totalSupply */\n      0x00\n        /* \"TinTinCourse/AMM/amm.sol\":2688:2701  totalSupply() */\n      tag_240\n        /* \"@openzeppelin/contracts/token/ERC20/ERC20.sol\":3222:3234  _totalSupply */\n      sload(0x02)\n      swap1\n        /* \"@openzeppelin/contracts/token/ERC20/ERC20.sol\":3144:3241  function totalSupply() public view virtual returns (uint256) {... */\n      jump\n        /* \"TinTinCourse/AMM/amm.sol\":2688:2701  totalSupply() */\n    tag_240:\n        /* \"TinTinCourse/AMM/amm.sol\":2668:2701  uint _totalSupply = totalSupply() */\n      swap1\n      pop\n        /* \"TinTinCourse/AMM/amm.sol\":2716:2728  _totalSupply */\n      dup1\n        /* \"TinTinCourse/AMM/amm.sol\":2732:2733  0 */\n      0x00\n        /* \"TinTinCourse/AMM/amm.sol\":2716:2733  _totalSupply == 0 */\n      sub\n        /* \"TinTinCourse/AMM/amm.sol\":2712:3192  if (_totalSupply == 0) {... */\n      tag_241\n      jumpi\n        /* \"TinTinCourse/AMM/amm.sol\":2879:2916  sqrt(amount0Desired * amount1Desired) */\n      tag_242\n        /* \"TinTinCourse/AMM/amm.sol\":2884:2915  amount0Desired * amount1Desired */\n      tag_243\n        /* \"TinTinCourse/AMM/amm.sol\":2901:2915  amount1Desired */\n      dup5\n        /* \"TinTinCourse/AMM/amm.sol\":2884:2898  amount0Desired */\n      dup7\n        /* \"TinTinCourse/AMM/amm.sol\":2884:2915  amount0Desired * amount1Desired */\n      tag_109\n      jump\t// in\n    tag_243:\n        /* \"TinTinCourse/AMM/amm.sol\":2879:2883  sqrt */\n      tag_244\n        /* \"TinTinCourse/AMM/amm.sol\":2879:2916  sqrt(amount0Desired * amount1Desired) */\n      jump\t// in\n    tag_242:\n        /* \"TinTinCourse/AMM/amm.sol\":2867:2916  liquidity = sqrt(amount0Desired * amount1Desired) */\n      swap2\n      pop\n        /* \"TinTinCourse/AMM/amm.sol\":2712:3192  if (_totalSupply == 0) {... */\n      jump(tag_245)\n    tag_241:\n        /* \"TinTinCourse/AMM/amm.sol\":3130:3138  reserve0 */\n      sload(0x07)\n        /* \"TinTinCourse/AMM/amm.sol\":3094:3180  min(amount0Desired * _totalSupply / reserve0, amount1Desired * _totalSupply /reserve1) */\n      tag_246\n      swap1\n        /* \"TinTinCourse/AMM/amm.sol\":3098:3127  amount0Desired * _totalSupply */\n      tag_247\n        /* \"TinTinCourse/AMM/amm.sol\":3115:3127  _totalSupply */\n      dup4\n        /* \"TinTinCourse/AMM/amm.sol\":3098:3112  amount0Desired */\n      dup8\n        /* \"TinTinCourse/AMM/amm.sol\":3098:3127  amount0Desired * _totalSupply */\n      tag_109\n      jump\t// in\n    tag_247:\n        /* \"TinTinCourse/AMM/amm.sol\":3098:3138  amount0Desired * _totalSupply / reserve0 */\n      tag_248\n      swap2\n      swap1\n      tag_111\n      jump\t// in\n    tag_248:\n        /* \"TinTinCourse/AMM/amm.sol\":3171:3179  reserve1 */\n      sload(0x08)\n        /* \"TinTinCourse/AMM/amm.sol\":3140:3169  amount1Desired * _totalSupply */\n      tag_249\n        /* \"TinTinCourse/AMM/amm.sol\":3157:3169  _totalSupply */\n      dup5\n        /* \"TinTinCourse/AMM/amm.sol\":3140:3154  amount1Desired */\n      dup8\n        /* \"TinTinCourse/AMM/amm.sol\":3140:3169  amount1Desired * _totalSupply */\n      tag_109\n      jump\t// in\n    tag_249:\n        /* \"TinTinCourse/AMM/amm.sol\":3140:3179  amount1Desired * _totalSupply /reserve1 */\n      tag_250\n      swap2\n      swap1\n      tag_111\n      jump\t// in\n    tag_250:\n        /* \"TinTinCourse/AMM/amm.sol\":3094:3097  min */\n      tag_251\n        /* \"TinTinCourse/AMM/amm.sol\":3094:3180  min(amount0Desired * _totalSupply / reserve0, amount1Desired * _totalSupply /reserve1) */\n      jump\t// in\n    tag_246:\n        /* \"TinTinCourse/AMM/amm.sol\":3082:3180  liquidity = min(amount0Desired * _totalSupply / reserve0, amount1Desired * _totalSupply /reserve1) */\n      swap2\n      pop\n        /* \"TinTinCourse/AMM/amm.sol\":2712:3192  if (_totalSupply == 0) {... */\n    tag_245:\n        /* \"TinTinCourse/AMM/amm.sol\":3260:3261  0 */\n      0x00\n        /* \"TinTinCourse/AMM/amm.sol\":3248:3257  liquidity */\n      dup3\n        /* \"TinTinCourse/AMM/amm.sol\":3248:3261  liquidity > 0 */\n      gt\n        /* \"TinTinCourse/AMM/amm.sol\":3240:3295  require(liquidity > 0, 'INSUFFICIENT_LIQUIDITY_MINTED') */\n      tag_252\n      jumpi\n      mload(0x40)\n      shl(0xe5, 0x461bcd)\n      dup2\n      mstore\n        /* \"#utility.yul\":9773:9775   */\n      0x20\n        /* \"TinTinCourse/AMM/amm.sol\":3240:3295  require(liquidity > 0, 'INSUFFICIENT_LIQUIDITY_MINTED') */\n      0x04\n      dup3\n      add\n        /* \"#utility.yul\":9755:9776   */\n      mstore\n        /* \"#utility.yul\":9812:9814   */\n      0x1d\n        /* \"#utility.yul\":9792:9810   */\n      0x24\n      dup3\n      add\n        /* \"#utility.yul\":9785:9815   */\n      mstore\n        /* \"#utility.yul\":9851:9882   */\n      0x494e53554646494349454e545f4c49515549444954595f4d494e544544000000\n        /* \"#utility.yul\":9831:9849   */\n      0x44\n      dup3\n      add\n        /* \"#utility.yul\":9824:9883   */\n      mstore\n        /* \"#utility.yul\":9900:9918   */\n      0x64\n      add\n        /* \"TinTinCourse/AMM/amm.sol\":3240:3295  require(liquidity > 0, 'INSUFFICIENT_LIQUIDITY_MINTED') */\n      tag_100\n        /* \"#utility.yul\":9571:9924   */\n      jump\n        /* \"TinTinCourse/AMM/amm.sol\":3240:3295  require(liquidity > 0, 'INSUFFICIENT_LIQUIDITY_MINTED') */\n    tag_252:\n        /* \"TinTinCourse/AMM/amm.sol\":3347:3353  token0 */\n      sload(0x05)\n        /* \"TinTinCourse/AMM/amm.sol\":3347:3378  token0.balanceOf(address(this)) */\n      mload(0x40)\n      shl(0xe0, 0x70a08231)\n      dup2\n      mstore\n        /* \"TinTinCourse/AMM/amm.sol\":3372:3376  this */\n      address\n        /* \"TinTinCourse/AMM/amm.sol\":3347:3378  token0.balanceOf(address(this)) */\n      0x04\n      dup3\n      add\n        /* \"#utility.yul\":1950:2001   */\n      mstore\n      sub(shl(0xa0, 0x01), 0x01)\n        /* \"TinTinCourse/AMM/amm.sol\":3347:3353  token0 */\n      swap1\n      swap2\n      and\n      swap1\n        /* \"TinTinCourse/AMM/amm.sol\":3347:3363  token0.balanceOf */\n      0x70a08231\n      swap1\n        /* \"#utility.yul\":1923:1941   */\n      0x24\n      add\n        /* \"TinTinCourse/AMM/amm.sol\":3347:3378  token0.balanceOf(address(this)) */\n      0x20\n      mload(0x40)\n      dup1\n      dup4\n      sub\n      dup2\n      dup7\n      gas\n      staticcall\n      iszero\n      dup1\n      iszero\n      tag_257\n      jumpi\n      returndatacopy(0x00, 0x00, returndatasize)\n      revert(0x00, returndatasize)\n    tag_257:\n      pop\n      pop\n      pop\n      pop\n      mload(0x40)\n      returndatasize\n      not(0x1f)\n      0x1f\n      dup3\n      add\n      and\n      dup3\n      add\n      dup1\n      0x40\n      mstore\n      pop\n      dup2\n      add\n      swap1\n      tag_258\n      swap2\n      swap1\n      tag_145\n      jump\t// in\n    tag_258:\n        /* \"TinTinCourse/AMM/amm.sol\":3336:3344  reserve0 */\n      0x07\n        /* \"TinTinCourse/AMM/amm.sol\":3336:3378  reserve0 = token0.balanceOf(address(this)) */\n      sstore\n        /* \"TinTinCourse/AMM/amm.sol\":3400:3406  token1 */\n      sload(0x06)\n        /* \"TinTinCourse/AMM/amm.sol\":3400:3431  token1.balanceOf(address(this)) */\n      mload(0x40)\n      shl(0xe0, 0x70a08231)\n      dup2\n      mstore\n        /* \"TinTinCourse/AMM/amm.sol\":3425:3429  this */\n      address\n        /* \"TinTinCourse/AMM/amm.sol\":3400:3431  token1.balanceOf(address(this)) */\n      0x04\n      dup3\n      add\n        /* \"#utility.yul\":1950:2001   */\n      mstore\n      sub(shl(0xa0, 0x01), 0x01)\n        /* \"TinTinCourse/AMM/amm.sol\":3400:3406  token1 */\n      swap1\n      swap2\n      and\n      swap1\n        /* \"TinTinCourse/AMM/amm.sol\":3400:3416  token1.balanceOf */\n      0x70a08231\n      swap1\n        /* \"#utility.yul\":1923:1941   */\n      0x24\n      add\n        /* \"TinTinCourse/AMM/amm.sol\":3400:3431  token1.balanceOf(address(this)) */\n      0x20\n      mload(0x40)\n      dup1\n      dup4\n      sub\n      dup2\n      dup7\n      gas\n      staticcall\n      iszero\n      dup1\n      iszero\n      tag_261\n      jumpi\n      returndatacopy(0x00, 0x00, returndatasize)\n      revert(0x00, returndatasize)\n    tag_261:\n      pop\n      pop\n      pop\n      pop\n      mload(0x40)\n      returndatasize\n      not(0x1f)\n      0x1f\n      dup3\n      add\n      and\n      dup3\n      add\n      dup1\n      0x40\n      mstore\n      pop\n      dup2\n      add\n      swap1\n      tag_262\n      swap2\n      swap1\n      tag_145\n      jump\t// in\n    tag_262:\n        /* \"TinTinCourse/AMM/amm.sol\":3389:3397  reserve1 */\n      0x08\n        /* \"TinTinCourse/AMM/amm.sol\":3389:3431  reserve1 = token1.balanceOf(address(this)) */\n      sstore\n        /* \"TinTinCourse/AMM/amm.sol\":3525:3553  _mint(msg.sender, liquidity) */\n      tag_263\n        /* \"TinTinCourse/AMM/amm.sol\":3531:3541  msg.sender */\n      caller\n        /* \"TinTinCourse/AMM/amm.sol\":3543:3552  liquidity */\n      dup4\n        /* \"TinTinCourse/AMM/amm.sol\":3525:3530  _mint */\n      tag_264\n        /* \"TinTinCourse/AMM/amm.sol\":3525:3553  _mint(msg.sender, liquidity) */\n      jump\t// in\n    tag_263:\n        /* \"TinTinCourse/AMM/amm.sol\":3579:3627  Mint(msg.sender, amount0Desired, amount1Desired) */\n      0x40\n      dup1\n      mload\n        /* \"#utility.yul\":4170:4195   */\n      dup6\n      dup2\n      mstore\n        /* \"#utility.yul\":4226:4228   */\n      0x20\n        /* \"#utility.yul\":4211:4229   */\n      dup2\n      add\n        /* \"#utility.yul\":4204:4238   */\n      dup6\n      swap1\n      mstore\n        /* \"TinTinCourse/AMM/amm.sol\":3584:3594  msg.sender */\n      caller\n      swap2\n        /* \"TinTinCourse/AMM/amm.sol\":3579:3627  Mint(msg.sender, amount0Desired, amount1Desired) */\n      0x4c209b5fc8ad50758f13e2e1088ba56a560dff690a1c6fef26394f4c03821c4f\n      swap2\n        /* \"#utility.yul\":4143:4161   */\n      add\n        /* \"TinTinCourse/AMM/amm.sol\":3579:3627  Mint(msg.sender, amount0Desired, amount1Desired) */\n      mload(0x40)\n      dup1\n      swap2\n      sub\n      swap1\n      log2\n        /* \"TinTinCourse/AMM/amm.sol\":2393:3635  {... */\n      pop\n        /* \"TinTinCourse/AMM/amm.sol\":2299:3635  function addLiquidity(uint amount0Desired, uint amount1Desired) public returns(uint liquidity){... */\n      swap3\n      swap2\n      pop\n      pop\n      jump\t// out\n        /* \"@openzeppelin/contracts/token/ERC20/ERC20.sol\":3610:3788  function transfer(address to, uint256 value) public virtual returns (bool) {... */\n    tag_88:\n        /* \"@openzeppelin/contracts/token/ERC20/ERC20.sol\":3679:3683  bool */\n      0x00\n        /* \"@openzeppelin/contracts/utils/Context.sol\":735:745  msg.sender */\n      caller\n        /* \"@openzeppelin/contracts/token/ERC20/ERC20.sol\":3733:3760  _transfer(owner, to, value) */\n      tag_122\n        /* \"@openzeppelin/contracts/utils/Context.sol\":735:745  msg.sender */\n      dup2\n        /* \"@openzeppelin/contracts/token/ERC20/ERC20.sol\":3750:3752  to */\n      dup6\n        /* \"@openzeppelin/contracts/token/ERC20/ERC20.sol\":3754:3759  value */\n      dup6\n        /* \"@openzeppelin/contracts/token/ERC20/ERC20.sol\":3733:3742  _transfer */\n      tag_130\n        /* \"@openzeppelin/contracts/token/ERC20/ERC20.sol\":3733:3760  _transfer(owner, to, value) */\n      jump\t// in\n        /* \"@openzeppelin/contracts/token/ERC20/ERC20.sol\":8989:9117  function _approve(address owner, address spender, uint256 value) internal {... */\n    tag_123:\n        /* \"@openzeppelin/contracts/token/ERC20/ERC20.sol\":9073:9110  _approve(owner, spender, value, true) */\n      tag_272\n        /* \"@openzeppelin/contracts/token/ERC20/ERC20.sol\":9082:9087  owner */\n      dup4\n        /* \"@openzeppelin/contracts/token/ERC20/ERC20.sol\":9089:9096  spender */\n      dup4\n        /* \"@openzeppelin/contracts/token/ERC20/ERC20.sol\":9098:9103  value */\n      dup4\n        /* \"@openzeppelin/contracts/token/ERC20/ERC20.sol\":9105:9109  true */\n      0x01\n        /* \"@openzeppelin/contracts/token/ERC20/ERC20.sol\":9073:9081  _approve */\n      tag_273\n        /* \"@openzeppelin/contracts/token/ERC20/ERC20.sol\":9073:9110  _approve(owner, spender, value, true) */\n      jump\t// in\n    tag_272:\n        /* \"@openzeppelin/contracts/token/ERC20/ERC20.sol\":8989:9117  function _approve(address owner, address spender, uint256 value) internal {... */\n      pop\n      pop\n      pop\n      jump\t// out\n        /* \"@openzeppelin/contracts/token/ERC20/ERC20.sol\":10663:11140  function _spendAllowance(address owner, address spender, uint256 value) internal virtual {... */\n    tag_128:\n      sub(shl(0xa0, 0x01), 0x01)\n        /* \"@openzeppelin/contracts/token/ERC20/ERC20.sol\":3952:3970  _allowances[owner] */\n      dup4\n      dup2\n      and\n        /* \"@openzeppelin/contracts/token/ERC20/ERC20.sol\":10762:10786  uint256 currentAllowance */\n      0x00\n        /* \"@openzeppelin/contracts/token/ERC20/ERC20.sol\":3952:3970  _allowances[owner] */\n      swap1\n      dup2\n      mstore\n        /* \"@openzeppelin/contracts/token/ERC20/ERC20.sol\":3952:3963  _allowances */\n      0x01\n        /* \"@openzeppelin/contracts/token/ERC20/ERC20.sol\":3952:3970  _allowances[owner] */\n      0x20\n      swap1\n      dup2\n      mstore\n      0x40\n      dup1\n      dup4\n      keccak256\n        /* \"@openzeppelin/contracts/token/ERC20/ERC20.sol\":3952:3979  _allowances[owner][spender] */\n      swap4\n      dup7\n      and\n      dup4\n      mstore\n      swap3\n      swap1\n      mstore\n      keccak256\n      sload\n      not(0x00)\n        /* \"@openzeppelin/contracts/token/ERC20/ERC20.sol\":10828:10865  currentAllowance != type(uint256).max */\n      dup2\n      eq\n        /* \"@openzeppelin/contracts/token/ERC20/ERC20.sol\":10824:11134  if (currentAllowance != type(uint256).max) {... */\n      tag_280\n      jumpi\n        /* \"@openzeppelin/contracts/token/ERC20/ERC20.sol\":10904:10909  value */\n      dup2\n        /* \"@openzeppelin/contracts/token/ERC20/ERC20.sol\":10885:10901  currentAllowance */\n      dup2\n        /* \"@openzeppelin/contracts/token/ERC20/ERC20.sol\":10885:10909  currentAllowance < value */\n      lt\n        /* \"@openzeppelin/contracts/token/ERC20/ERC20.sol\":10881:11011  if (currentAllowance < value) {... */\n      iszero\n      tag_277\n      jumpi\n        /* \"@openzeppelin/contracts/token/ERC20/ERC20.sol\":10936:10996  ERC20InsufficientAllowance(spender, currentAllowance, value) */\n      mload(0x40)\n      shl(0xe1, 0x7dc7a0d9)\n      dup2\n      mstore\n      sub(shl(0xa0, 0x01), 0x01)\n        /* \"#utility.yul\":10149:10181   */\n      dup5\n      and\n        /* \"@openzeppelin/contracts/token/ERC20/ERC20.sol\":10936:10996  ERC20InsufficientAllowance(spender, currentAllowance, value) */\n      0x04\n      dup3\n      add\n        /* \"#utility.yul\":10131:10182   */\n      mstore\n        /* \"#utility.yul\":10198:10216   */\n      0x24\n      dup2\n      add\n        /* \"#utility.yul\":10191:10225   */\n      dup3\n      swap1\n      mstore\n        /* \"#utility.yul\":10241:10259   */\n      0x44\n      dup2\n      add\n        /* \"#utility.yul\":10234:10268   */\n      dup4\n      swap1\n      mstore\n        /* \"#utility.yul\":10104:10122   */\n      0x64\n      add\n        /* \"@openzeppelin/contracts/token/ERC20/ERC20.sol\":10936:10996  ERC20InsufficientAllowance(spender, currentAllowance, value) */\n      tag_100\n        /* \"#utility.yul\":9929:10274   */\n      jump\n        /* \"@openzeppelin/contracts/token/ERC20/ERC20.sol\":10881:11011  if (currentAllowance < value) {... */\n    tag_277:\n        /* \"@openzeppelin/contracts/token/ERC20/ERC20.sol\":11052:11109  _approve(owner, spender, currentAllowance - value, false) */\n      tag_280\n        /* \"@openzeppelin/contracts/token/ERC20/ERC20.sol\":11061:11066  owner */\n      dup5\n        /* \"@openzeppelin/contracts/token/ERC20/ERC20.sol\":11068:11075  spender */\n      dup5\n        /* \"@openzeppelin/contracts/token/ERC20/ERC20.sol\":11096:11101  value */\n      dup5\n        /* \"@openzeppelin/contracts/token/ERC20/ERC20.sol\":11077:11093  currentAllowance */\n      dup5\n        /* \"@openzeppelin/contracts/token/ERC20/ERC20.sol\":11077:11101  currentAllowance - value */\n      sub\n        /* \"@openzeppelin/contracts/token/ERC20/ERC20.sol\":11103:11108  false */\n      0x00\n        /* \"@openzeppelin/contracts/token/ERC20/ERC20.sol\":11052:11060  _approve */\n      tag_273\n        /* \"@openzeppelin/contracts/token/ERC20/ERC20.sol\":11052:11109  _approve(owner, spender, currentAllowance - value, false) */\n      jump\t// in\n    tag_280:\n        /* \"@openzeppelin/contracts/token/ERC20/ERC20.sol\":10752:11140  {... */\n      pop\n        /* \"@openzeppelin/contracts/token/ERC20/ERC20.sol\":10663:11140  function _spendAllowance(address owner, address spender, uint256 value) internal virtual {... */\n      pop\n      pop\n      pop\n      jump\t// out\n        /* \"@openzeppelin/contracts/token/ERC20/ERC20.sol\":5656:5956  function _transfer(address from, address to, uint256 value) internal {... */\n    tag_130:\n      sub(shl(0xa0, 0x01), 0x01)\n        /* \"@openzeppelin/contracts/token/ERC20/ERC20.sol\":5739:5757  from == address(0) */\n      dup4\n      and\n        /* \"@openzeppelin/contracts/token/ERC20/ERC20.sol\":5735:5821  if (from == address(0)) {... */\n      tag_282\n      jumpi\n        /* \"@openzeppelin/contracts/token/ERC20/ERC20.sol\":5780:5810  ERC20InvalidSender(address(0)) */\n      mload(0x40)\n      shl(0xe1, 0x4b637e8f)\n      dup2\n      mstore\n        /* \"@openzeppelin/contracts/token/ERC20/ERC20.sol\":5807:5808  0 */\n      0x00\n        /* \"@openzeppelin/contracts/token/ERC20/ERC20.sol\":5780:5810  ERC20InvalidSender(address(0)) */\n      0x04\n      dup3\n      add\n        /* \"#utility.yul\":1950:2001   */\n      mstore\n        /* \"#utility.yul\":1923:1941   */\n      0x24\n      add\n        /* \"@openzeppelin/contracts/token/ERC20/ERC20.sol\":5780:5810  ERC20InvalidSender(address(0)) */\n      tag_100\n        /* \"#utility.yul\":1790:2007   */\n      jump\n        /* \"@openzeppelin/contracts/token/ERC20/ERC20.sol\":5735:5821  if (from == address(0)) {... */\n    tag_282:\n      sub(shl(0xa0, 0x01), 0x01)\n        /* \"@openzeppelin/contracts/token/ERC20/ERC20.sol\":5834:5850  to == address(0) */\n      dup3\n      and\n        /* \"@openzeppelin/contracts/token/ERC20/ERC20.sol\":5830:5916  if (to == address(0)) {... */\n      tag_284\n      jumpi\n        /* \"@openzeppelin/contracts/token/ERC20/ERC20.sol\":5873:5905  ERC20InvalidReceiver(address(0)) */\n      mload(0x40)\n      shl(0xe0, 0xec442f05)\n      dup2\n      mstore\n        /* \"@openzeppelin/contracts/token/ERC20/ERC20.sol\":5902:5903  0 */\n      0x00\n        /* \"@openzeppelin/contracts/token/ERC20/ERC20.sol\":5873:5905  ERC20InvalidReceiver(address(0)) */\n      0x04\n      dup3\n      add\n        /* \"#utility.yul\":1950:2001   */\n      mstore\n        /* \"#utility.yul\":1923:1941   */\n      0x24\n      add\n        /* \"@openzeppelin/contracts/token/ERC20/ERC20.sol\":5873:5905  ERC20InvalidReceiver(address(0)) */\n      tag_100\n        /* \"#utility.yul\":1790:2007   */\n      jump\n        /* \"@openzeppelin/contracts/token/ERC20/ERC20.sol\":5830:5916  if (to == address(0)) {... */\n    tag_284:\n        /* \"@openzeppelin/contracts/token/ERC20/ERC20.sol\":5925:5949  _update(from, to, value) */\n      tag_272\n        /* \"@openzeppelin/contracts/token/ERC20/ERC20.sol\":5933:5937  from */\n      dup4\n        /* \"@openzeppelin/contracts/token/ERC20/ERC20.sol\":5939:5941  to */\n      dup4\n        /* \"@openzeppelin/contracts/token/ERC20/ERC20.sol\":5943:5948  value */\n      dup4\n        /* \"@openzeppelin/contracts/token/ERC20/ERC20.sol\":5925:5932  _update */\n      tag_287\n        /* \"@openzeppelin/contracts/token/ERC20/ERC20.sol\":5925:5949  _update(from, to, value) */\n      jump\t// in\n        /* \"@openzeppelin/contracts/token/ERC20/ERC20.sol\":8247:8453  function _burn(address account, uint256 value) internal {... */\n    tag_213:\n      sub(shl(0xa0, 0x01), 0x01)\n        /* \"@openzeppelin/contracts/token/ERC20/ERC20.sol\":8317:8338  account == address(0) */\n      dup3\n      and\n        /* \"@openzeppelin/contracts/token/ERC20/ERC20.sol\":8313:8402  if (account == address(0)) {... */\n      tag_289\n      jumpi\n        /* \"@openzeppelin/contracts/token/ERC20/ERC20.sol\":8361:8391  ERC20InvalidSender(address(0)) */\n      mload(0x40)\n      shl(0xe1, 0x4b637e8f)\n      dup2\n      mstore\n        /* \"@openzeppelin/contracts/token/ERC20/ERC20.sol\":8388:8389  0 */\n      0x00\n        /* \"@openzeppelin/contracts/token/ERC20/ERC20.sol\":8361:8391  ERC20InvalidSender(address(0)) */\n      0x04\n      dup3\n      add\n        /* \"#utility.yul\":1950:2001   */\n      mstore\n        /* \"#utility.yul\":1923:1941   */\n      0x24\n      add\n        /* \"@openzeppelin/contracts/token/ERC20/ERC20.sol\":8361:8391  ERC20InvalidSender(address(0)) */\n      tag_100\n        /* \"#utility.yul\":1790:2007   */\n      jump\n        /* \"@openzeppelin/contracts/token/ERC20/ERC20.sol\":8313:8402  if (account == address(0)) {... */\n    tag_289:\n        /* \"@openzeppelin/contracts/token/ERC20/ERC20.sol\":8411:8446  _update(account, address(0), value) */\n      tag_291\n        /* \"@openzeppelin/contracts/token/ERC20/ERC20.sol\":8419:8426  account */\n      dup3\n        /* \"@openzeppelin/contracts/token/ERC20/ERC20.sol\":8436:8437  0 */\n      0x00\n        /* \"@openzeppelin/contracts/token/ERC20/ERC20.sol\":8440:8445  value */\n      dup4\n        /* \"@openzeppelin/contracts/token/ERC20/ERC20.sol\":8411:8418  _update */\n      tag_287\n        /* \"@openzeppelin/contracts/token/ERC20/ERC20.sol\":8411:8446  _update(account, address(0), value) */\n      jump\t// in\n    tag_291:\n        /* \"@openzeppelin/contracts/token/ERC20/ERC20.sol\":8247:8453  function _burn(address account, uint256 value) internal {... */\n      pop\n      pop\n      jump\t// out\n        /* \"TinTinCourse/AMM/amm.sol\":1659:1962  function sqrt(uint y) internal pure returns (uint z) {... */\n    tag_244:\n        /* \"TinTinCourse/AMM/amm.sol\":1704:1710  uint z */\n      0x00\n        /* \"TinTinCourse/AMM/amm.sol\":1731:1732  3 */\n      0x03\n        /* \"TinTinCourse/AMM/amm.sol\":1727:1728  y */\n      dup3\n        /* \"TinTinCourse/AMM/amm.sol\":1727:1732  y > 3 */\n      gt\n        /* \"TinTinCourse/AMM/amm.sol\":1723:1955  if (y > 3) {... */\n      iszero\n      tag_293\n      jumpi\n      pop\n        /* \"TinTinCourse/AMM/amm.sol\":1753:1754  y */\n      dup1\n        /* \"TinTinCourse/AMM/amm.sol\":1769:1775  uint x */\n      0x00\n        /* \"TinTinCourse/AMM/amm.sol\":1778:1783  y / 2 */\n      tag_294\n        /* \"TinTinCourse/AMM/amm.sol\":1782:1783  2 */\n      0x02\n        /* \"TinTinCourse/AMM/amm.sol\":1753:1754  y */\n      dup4\n        /* \"TinTinCourse/AMM/amm.sol\":1778:1783  y / 2 */\n      tag_111\n      jump\t// in\n    tag_294:\n        /* \"TinTinCourse/AMM/amm.sol\":1778:1787  y / 2 + 1 */\n      tag_295\n      swap1\n        /* \"TinTinCourse/AMM/amm.sol\":1786:1787  1 */\n      0x01\n        /* \"TinTinCourse/AMM/amm.sol\":1778:1787  y / 2 + 1 */\n      tag_107\n      jump\t// in\n    tag_295:\n        /* \"TinTinCourse/AMM/amm.sol\":1769:1787  uint x = y / 2 + 1 */\n      swap1\n      pop\n        /* \"TinTinCourse/AMM/amm.sol\":1802:1894  while (x < z) {... */\n    tag_296:\n        /* \"TinTinCourse/AMM/amm.sol\":1813:1814  z */\n      dup2\n        /* \"TinTinCourse/AMM/amm.sol\":1809:1810  x */\n      dup2\n        /* \"TinTinCourse/AMM/amm.sol\":1809:1814  x < z */\n      lt\n        /* \"TinTinCourse/AMM/amm.sol\":1802:1894  while (x < z) {... */\n      iszero\n      tag_297\n      jumpi\n        /* \"TinTinCourse/AMM/amm.sol\":1839:1840  x */\n      swap1\n      pop\n      dup1\n        /* \"TinTinCourse/AMM/amm.sol\":1877:1878  2 */\n      0x02\n        /* \"TinTinCourse/AMM/amm.sol\":1839:1840  x */\n      dup2\n        /* \"TinTinCourse/AMM/amm.sol\":1864:1869  y / x */\n      tag_298\n        /* \"TinTinCourse/AMM/amm.sol\":1839:1840  x */\n      dup2\n        /* \"TinTinCourse/AMM/amm.sol\":1864:1865  y */\n      dup7\n        /* \"TinTinCourse/AMM/amm.sol\":1864:1869  y / x */\n      tag_111\n      jump\t// in\n    tag_298:\n        /* \"TinTinCourse/AMM/amm.sol\":1864:1873  y / x + x */\n      tag_299\n      swap2\n      swap1\n      tag_107\n      jump\t// in\n    tag_299:\n        /* \"TinTinCourse/AMM/amm.sol\":1863:1878  (y / x + x) / 2 */\n      tag_300\n      swap2\n      swap1\n      tag_111\n      jump\t// in\n    tag_300:\n        /* \"TinTinCourse/AMM/amm.sol\":1859:1878  x = (y / x + x) / 2 */\n      swap1\n      pop\n        /* \"TinTinCourse/AMM/amm.sol\":1802:1894  while (x < z) {... */\n      jump(tag_296)\n    tag_297:\n        /* \"TinTinCourse/AMM/amm.sol\":1734:1905  {... */\n      pop\n        /* \"TinTinCourse/AMM/amm.sol\":1659:1962  function sqrt(uint y) internal pure returns (uint z) {... */\n      swap2\n      swap1\n      pop\n      jump\t// out\n        /* \"TinTinCourse/AMM/amm.sol\":1723:1955  if (y > 3) {... */\n    tag_293:\n        /* \"TinTinCourse/AMM/amm.sol\":1915:1921  y != 0 */\n      dup2\n      iszero\n        /* \"TinTinCourse/AMM/amm.sol\":1911:1955  if (y != 0) {... */\n      tag_302\n      jumpi\n      pop\n        /* \"TinTinCourse/AMM/amm.sol\":1942:1943  1 */\n      0x01\n        /* \"TinTinCourse/AMM/amm.sol\":1911:1955  if (y != 0) {... */\n    tag_302:\n        /* \"TinTinCourse/AMM/amm.sol\":1659:1962  function sqrt(uint y) internal pure returns (uint z) {... */\n      swap2\n      swap1\n      pop\n      jump\t// out\n        /* \"TinTinCourse/AMM/amm.sol\":1429:1525  function min(uint x, uint y) internal pure returns (uint z) {... */\n    tag_251:\n        /* \"TinTinCourse/AMM/amm.sol\":1481:1487  uint z */\n      0x00\n        /* \"TinTinCourse/AMM/amm.sol\":1508:1509  y */\n      dup2\n        /* \"TinTinCourse/AMM/amm.sol\":1504:1505  x */\n      dup4\n        /* \"TinTinCourse/AMM/amm.sol\":1504:1509  x < y */\n      lt\n        /* \"TinTinCourse/AMM/amm.sol\":1504:1517  x < y ? x : y */\n      tag_304\n      jumpi\n        /* \"TinTinCourse/AMM/amm.sol\":1516:1517  y */\n      dup2\n        /* \"TinTinCourse/AMM/amm.sol\":1504:1517  x < y ? x : y */\n      jump(tag_305)\n    tag_304:\n        /* \"TinTinCourse/AMM/amm.sol\":1512:1513  x */\n      dup3\n        /* \"TinTinCourse/AMM/amm.sol\":1504:1517  x < y ? x : y */\n    tag_305:\n        /* \"TinTinCourse/AMM/amm.sol\":1500:1517  z = x < y ? x : y */\n      swap4\n        /* \"TinTinCourse/AMM/amm.sol\":1429:1525  function min(uint x, uint y) internal pure returns (uint z) {... */\n      swap3\n      pop\n      pop\n      pop\n      jump\t// out\n        /* \"@openzeppelin/contracts/token/ERC20/ERC20.sol\":7721:7929  function _mint(address account, uint256 value) internal {... */\n    tag_264:\n      sub(shl(0xa0, 0x01), 0x01)\n        /* \"@openzeppelin/contracts/token/ERC20/ERC20.sol\":7791:7812  account == address(0) */\n      dup3\n      and\n        /* \"@openzeppelin/contracts/token/ERC20/ERC20.sol\":7787:7878  if (account == address(0)) {... */\n      tag_307\n      jumpi\n        /* \"@openzeppelin/contracts/token/ERC20/ERC20.sol\":7835:7867  ERC20InvalidReceiver(address(0)) */\n      mload(0x40)\n      shl(0xe0, 0xec442f05)\n      dup2\n      mstore\n        /* \"@openzeppelin/contracts/token/ERC20/ERC20.sol\":7864:7865  0 */\n      0x00\n        /* \"@openzeppelin/contracts/token/ERC20/ERC20.sol\":7835:7867  ERC20InvalidReceiver(address(0)) */\n      0x04\n      dup3\n      add\n        /* \"#utility.yul\":1950:2001   */\n      mstore\n        /* \"#utility.yul\":1923:1941   */\n      0x24\n      add\n        /* \"@openzeppelin/contracts/token/ERC20/ERC20.sol\":7835:7867  ERC20InvalidReceiver(address(0)) */\n      tag_100\n        /* \"#utility.yul\":1790:2007   */\n      jump\n        /* \"@openzeppelin/contracts/token/ERC20/ERC20.sol\":7787:7878  if (account == address(0)) {... */\n    tag_307:\n        /* \"@openzeppelin/contracts/token/ERC20/ERC20.sol\":7887:7922  _update(address(0), account, value) */\n      tag_291\n        /* \"@openzeppelin/contracts/token/ERC20/ERC20.sol\":7903:7904  0 */\n      0x00\n        /* \"@openzeppelin/contracts/token/ERC20/ERC20.sol\":7907:7914  account */\n      dup4\n        /* \"@openzeppelin/contracts/token/ERC20/ERC20.sol\":7916:7921  value */\n      dup4\n        /* \"@openzeppelin/contracts/token/ERC20/ERC20.sol\":7887:7894  _update */\n      tag_287\n        /* \"@openzeppelin/contracts/token/ERC20/ERC20.sol\":7887:7922  _update(address(0), account, value) */\n      jump\t// in\n        /* \"@openzeppelin/contracts/token/ERC20/ERC20.sol\":9949:10381  function _approve(address owner, address spender, uint256 value, bool emitEvent) internal virtual {... */\n    tag_273:\n      sub(shl(0xa0, 0x01), 0x01)\n        /* \"@openzeppelin/contracts/token/ERC20/ERC20.sol\":10061:10080  owner == address(0) */\n      dup5\n      and\n        /* \"@openzeppelin/contracts/token/ERC20/ERC20.sol\":10057:10146  if (owner == address(0)) {... */\n      tag_311\n      jumpi\n        /* \"@openzeppelin/contracts/token/ERC20/ERC20.sol\":10103:10135  ERC20InvalidApprover(address(0)) */\n      mload(0x40)\n      shl(0xe0, 0xe602df05)\n      dup2\n      mstore\n        /* \"@openzeppelin/contracts/token/ERC20/ERC20.sol\":10132:10133  0 */\n      0x00\n        /* \"@openzeppelin/contracts/token/ERC20/ERC20.sol\":10103:10135  ERC20InvalidApprover(address(0)) */\n      0x04\n      dup3\n      add\n        /* \"#utility.yul\":1950:2001   */\n      mstore\n        /* \"#utility.yul\":1923:1941   */\n      0x24\n      add\n        /* \"@openzeppelin/contracts/token/ERC20/ERC20.sol\":10103:10135  ERC20InvalidApprover(address(0)) */\n      tag_100\n        /* \"#utility.yul\":1790:2007   */\n      jump\n        /* \"@openzeppelin/contracts/token/ERC20/ERC20.sol\":10057:10146  if (owner == address(0)) {... */\n    tag_311:\n      sub(shl(0xa0, 0x01), 0x01)\n        /* \"@openzeppelin/contracts/token/ERC20/ERC20.sol\":10159:10180  spender == address(0) */\n      dup4\n      and\n        /* \"@openzeppelin/contracts/token/ERC20/ERC20.sol\":10155:10245  if (spender == address(0)) {... */\n      tag_313\n      jumpi\n        /* \"@openzeppelin/contracts/token/ERC20/ERC20.sol\":10203:10234  ERC20InvalidSpender(address(0)) */\n      mload(0x40)\n      shl(0xe1, 0x4a1406b1)\n      dup2\n      mstore\n        /* \"@openzeppelin/contracts/token/ERC20/ERC20.sol\":10231:10232  0 */\n      0x00\n        /* \"@openzeppelin/contracts/token/ERC20/ERC20.sol\":10203:10234  ERC20InvalidSpender(address(0)) */\n      0x04\n      dup3\n      add\n        /* \"#utility.yul\":1950:2001   */\n      mstore\n        /* \"#utility.yul\":1923:1941   */\n      0x24\n      add\n        /* \"@openzeppelin/contracts/token/ERC20/ERC20.sol\":10203:10234  ERC20InvalidSpender(address(0)) */\n      tag_100\n        /* \"#utility.yul\":1790:2007   */\n      jump\n        /* \"@openzeppelin/contracts/token/ERC20/ERC20.sol\":10155:10245  if (spender == address(0)) {... */\n    tag_313:\n      sub(shl(0xa0, 0x01), 0x01)\n        /* \"@openzeppelin/contracts/token/ERC20/ERC20.sol\":10254:10272  _allowances[owner] */\n      dup1\n      dup6\n      and\n      0x00\n      swap1\n      dup2\n      mstore\n        /* \"@openzeppelin/contracts/token/ERC20/ERC20.sol\":10254:10265  _allowances */\n      0x01\n        /* \"@openzeppelin/contracts/token/ERC20/ERC20.sol\":10254:10272  _allowances[owner] */\n      0x20\n      swap1\n      dup2\n      mstore\n      0x40\n      dup1\n      dup4\n      keccak256\n        /* \"@openzeppelin/contracts/token/ERC20/ERC20.sol\":10254:10281  _allowances[owner][spender] */\n      swap4\n      dup8\n      and\n      dup4\n      mstore\n      swap3\n      swap1\n      mstore\n      keccak256\n        /* \"@openzeppelin/contracts/token/ERC20/ERC20.sol\":10254:10289  _allowances[owner][spender] = value */\n      dup3\n      swap1\n      sstore\n        /* \"@openzeppelin/contracts/token/ERC20/ERC20.sol\":10299:10375  if (emitEvent) {... */\n      dup1\n      iszero\n      tag_280\n      jumpi\n        /* \"@openzeppelin/contracts/token/ERC20/ERC20.sol\":10349:10356  spender */\n      dup3\n      sub(shl(0xa0, 0x01), 0x01)\n        /* \"@openzeppelin/contracts/token/ERC20/ERC20.sol\":10333:10364  Approval(owner, spender, value) */\n      and\n        /* \"@openzeppelin/contracts/token/ERC20/ERC20.sol\":10342:10347  owner */\n      dup5\n      sub(shl(0xa0, 0x01), 0x01)\n        /* \"@openzeppelin/contracts/token/ERC20/ERC20.sol\":10333:10364  Approval(owner, spender, value) */\n      and\n      0x8c5be1e5ebec7d5bd14f71427d1e84f3dd0314c0f7b2291e5b200ac8c7c3b925\n        /* \"@openzeppelin/contracts/token/ERC20/ERC20.sol\":10358:10363  value */\n      dup5\n        /* \"@openzeppelin/contracts/token/ERC20/ERC20.sol\":10333:10364  Approval(owner, spender, value) */\n      mload(0x40)\n      tag_316\n      swap2\n        /* \"#utility.yul\":631:656   */\n      dup2\n      mstore\n        /* \"#utility.yul\":619:621   */\n      0x20\n        /* \"#utility.yul\":604:622   */\n      add\n      swap1\n        /* \"#utility.yul\":485:662   */\n      jump\n        /* \"@openzeppelin/contracts/token/ERC20/ERC20.sol\":10333:10364  Approval(owner, spender, value) */\n    tag_316:\n      mload(0x40)\n      dup1\n      swap2\n      sub\n      swap1\n      log3\n        /* \"@openzeppelin/contracts/token/ERC20/ERC20.sol\":9949:10381  function _approve(address owner, address spender, uint256 value, bool emitEvent) internal virtual {... */\n      pop\n      pop\n      pop\n      pop\n      jump\t// out\n        /* \"@openzeppelin/contracts/token/ERC20/ERC20.sol\":6271:7378  function _update(address from, address to, uint256 value) internal virtual {... */\n    tag_287:\n      sub(shl(0xa0, 0x01), 0x01)\n        /* \"@openzeppelin/contracts/token/ERC20/ERC20.sol\":6360:6378  from == address(0) */\n      dup4\n      and\n        /* \"@openzeppelin/contracts/token/ERC20/ERC20.sol\":6356:6896  if (from == address(0)) {... */\n      tag_318\n      jumpi\n        /* \"@openzeppelin/contracts/token/ERC20/ERC20.sol\":6512:6517  value */\n      dup1\n        /* \"@openzeppelin/contracts/token/ERC20/ERC20.sol\":6496:6508  _totalSupply */\n      0x02\n      0x00\n        /* \"@openzeppelin/contracts/token/ERC20/ERC20.sol\":6496:6517  _totalSupply += value */\n      dup3\n      dup3\n      sload\n      tag_319\n      swap2\n      swap1\n      tag_107\n      jump\t// in\n    tag_319:\n      swap1\n      swap2\n      sstore\n      pop\n        /* \"@openzeppelin/contracts/token/ERC20/ERC20.sol\":6356:6896  if (from == address(0)) {... */\n      tag_320\n      swap1\n      pop\n      jump\n    tag_318:\n      sub(shl(0xa0, 0x01), 0x01)\n        /* \"@openzeppelin/contracts/token/ERC20/ERC20.sol\":6570:6585  _balances[from] */\n      dup4\n      and\n        /* \"@openzeppelin/contracts/token/ERC20/ERC20.sol\":6548:6567  uint256 fromBalance */\n      0x00\n        /* \"@openzeppelin/contracts/token/ERC20/ERC20.sol\":6570:6585  _balances[from] */\n      swap1\n      dup2\n      mstore\n      0x20\n      dup2\n      swap1\n      mstore\n      0x40\n      swap1\n      keccak256\n      sload\n        /* \"@openzeppelin/contracts/token/ERC20/ERC20.sol\":6603:6622  fromBalance < value */\n      dup2\n      dup2\n      lt\n        /* \"@openzeppelin/contracts/token/ERC20/ERC20.sol\":6599:6714  if (fromBalance < value) {... */\n      iszero\n      tag_321\n      jumpi\n        /* \"@openzeppelin/contracts/token/ERC20/ERC20.sol\":6649:6699  ERC20InsufficientBalance(from, fromBalance, value) */\n      mload(0x40)\n      shl(0xe2, 0x391434e3)\n      dup2\n      mstore\n      sub(shl(0xa0, 0x01), 0x01)\n        /* \"#utility.yul\":10149:10181   */\n      dup6\n      and\n        /* \"@openzeppelin/contracts/token/ERC20/ERC20.sol\":6649:6699  ERC20InsufficientBalance(from, fromBalance, value) */\n      0x04\n      dup3\n      add\n        /* \"#utility.yul\":10131:10182   */\n      mstore\n        /* \"#utility.yul\":10198:10216   */\n      0x24\n      dup2\n      add\n        /* \"#utility.yul\":10191:10225   */\n      dup3\n      swap1\n      mstore\n        /* \"#utility.yul\":10241:10259   */\n      0x44\n      dup2\n      add\n        /* \"#utility.yul\":10234:10268   */\n      dup4\n      swap1\n      mstore\n        /* \"#utility.yul\":10104:10122   */\n      0x64\n      add\n        /* \"@openzeppelin/contracts/token/ERC20/ERC20.sol\":6649:6699  ERC20InsufficientBalance(from, fromBalance, value) */\n      tag_100\n        /* \"#utility.yul\":9929:10274   */\n      jump\n        /* \"@openzeppelin/contracts/token/ERC20/ERC20.sol\":6599:6714  if (fromBalance < value) {... */\n    tag_321:\n      sub(shl(0xa0, 0x01), 0x01)\n        /* \"@openzeppelin/contracts/token/ERC20/ERC20.sol\":6834:6849  _balances[from] */\n      dup5\n      and\n        /* \"@openzeppelin/contracts/token/ERC20/ERC20.sol\":6834:6843  _balances */\n      0x00\n        /* \"@openzeppelin/contracts/token/ERC20/ERC20.sol\":6834:6849  _balances[from] */\n      swap1\n      dup2\n      mstore\n      0x20\n      dup2\n      swap1\n      mstore\n      0x40\n      swap1\n      keccak256\n        /* \"@openzeppelin/contracts/token/ERC20/ERC20.sol\":6852:6871  fromBalance - value */\n      swap1\n      dup3\n      swap1\n      sub\n        /* \"@openzeppelin/contracts/token/ERC20/ERC20.sol\":6834:6871  _balances[from] = fromBalance - value */\n      swap1\n      sstore\n        /* \"@openzeppelin/contracts/token/ERC20/ERC20.sol\":6356:6896  if (from == address(0)) {... */\n    tag_320:\n      sub(shl(0xa0, 0x01), 0x01)\n        /* \"@openzeppelin/contracts/token/ERC20/ERC20.sol\":6910:6926  to == address(0) */\n      dup3\n      and\n        /* \"@openzeppelin/contracts/token/ERC20/ERC20.sol\":6906:7331  if (to == address(0)) {... */\n      tag_323\n      jumpi\n        /* \"@openzeppelin/contracts/token/ERC20/ERC20.sol\":7073:7085  _totalSupply */\n      0x02\n        /* \"@openzeppelin/contracts/token/ERC20/ERC20.sol\":7073:7094  _totalSupply -= value */\n      dup1\n      sload\n      dup3\n      swap1\n      sub\n      swap1\n      sstore\n        /* \"@openzeppelin/contracts/token/ERC20/ERC20.sol\":6906:7331  if (to == address(0)) {... */\n      jump(tag_324)\n    tag_323:\n      sub(shl(0xa0, 0x01), 0x01)\n        /* \"@openzeppelin/contracts/token/ERC20/ERC20.sol\":7284:7297  _balances[to] */\n      dup3\n      and\n        /* \"@openzeppelin/contracts/token/ERC20/ERC20.sol\":7284:7293  _balances */\n      0x00\n        /* \"@openzeppelin/contracts/token/ERC20/ERC20.sol\":7284:7297  _balances[to] */\n      swap1\n      dup2\n      mstore\n      0x20\n      dup2\n      swap1\n      mstore\n      0x40\n      swap1\n      keccak256\n        /* \"@openzeppelin/contracts/token/ERC20/ERC20.sol\":7284:7306  _balances[to] += value */\n      dup1\n      sload\n      dup3\n      add\n      swap1\n      sstore\n        /* \"@openzeppelin/contracts/token/ERC20/ERC20.sol\":6906:7331  if (to == address(0)) {... */\n    tag_324:\n        /* \"@openzeppelin/contracts/token/ERC20/ERC20.sol\":7361:7363  to */\n      dup2\n      sub(shl(0xa0, 0x01), 0x01)\n        /* \"@openzeppelin/contracts/token/ERC20/ERC20.sol\":7346:7371  Transfer(from, to, value) */\n      and\n        /* \"@openzeppelin/contracts/token/ERC20/ERC20.sol\":7355:7359  from */\n      dup4\n      sub(shl(0xa0, 0x01), 0x01)\n        /* \"@openzeppelin/contracts/token/ERC20/ERC20.sol\":7346:7371  Transfer(from, to, value) */\n      and\n      0xddf252ad1be2c89b69c2b068fc378daa952ba7f163c4a11628f55a4df523b3ef\n        /* \"@openzeppelin/contracts/token/ERC20/ERC20.sol\":7365:7370  value */\n      dup4\n        /* \"@openzeppelin/contracts/token/ERC20/ERC20.sol\":7346:7371  Transfer(from, to, value) */\n      mload(0x40)\n      tag_325\n      swap2\n        /* \"#utility.yul\":631:656   */\n      dup2\n      mstore\n        /* \"#utility.yul\":619:621   */\n      0x20\n        /* \"#utility.yul\":604:622   */\n      add\n      swap1\n        /* \"#utility.yul\":485:662   */\n      jump\n        /* \"@openzeppelin/contracts/token/ERC20/ERC20.sol\":7346:7371  Transfer(from, to, value) */\n    tag_325:\n      mload(0x40)\n      dup1\n      swap2\n      sub\n      swap1\n      log3\n        /* \"@openzeppelin/contracts/token/ERC20/ERC20.sol\":6271:7378  function _update(address from, address to, uint256 value) internal virtual {... */\n      pop\n      pop\n      pop\n      jump\t// out\n        /* \"#utility.yul\":14:480   */\n    tag_25:\n        /* \"#utility.yul\":91:97   */\n      0x00\n        /* \"#utility.yul\":99:105   */\n      0x00\n        /* \"#utility.yul\":107:113   */\n      0x00\n        /* \"#utility.yul\":160:162   */\n      0x60\n        /* \"#utility.yul\":148:157   */\n      dup5\n        /* \"#utility.yul\":139:146   */\n      dup7\n        /* \"#utility.yul\":135:158   */\n      sub\n        /* \"#utility.yul\":131:163   */\n      slt\n        /* \"#utility.yul\":128:180   */\n      iszero\n      tag_330\n      jumpi\n        /* \"#utility.yul\":176:177   */\n      0x00\n        /* \"#utility.yul\":173:174   */\n      0x00\n        /* \"#utility.yul\":166:178   */\n      revert\n        /* \"#utility.yul\":128:180   */\n    tag_330:\n      pop\n      pop\n        /* \"#utility.yul\":221:244   */\n      dup2\n      calldataload\n      swap4\n        /* \"#utility.yul\":341:343   */\n      0x20\n        /* \"#utility.yul\":326:344   */\n      dup4\n      add\n        /* \"#utility.yul\":313:345   */\n      calldataload\n      swap4\n      pop\n        /* \"#utility.yul\":444:446   */\n      0x40\n        /* \"#utility.yul\":429:447   */\n      swap1\n      swap3\n      add\n        /* \"#utility.yul\":416:448   */\n      calldataload\n      swap2\n        /* \"#utility.yul\":14:480   */\n      swap1\n      pop\n      jump\t// out\n        /* \"#utility.yul\":667:1085   */\n    tag_32:\n        /* \"#utility.yul\":816:818   */\n      0x20\n        /* \"#utility.yul\":805:814   */\n      dup2\n        /* \"#utility.yul\":798:819   */\n      mstore\n        /* \"#utility.yul\":779:783   */\n      0x00\n        /* \"#utility.yul\":848:854   */\n      dup3\n        /* \"#utility.yul\":842:855   */\n      mload\n        /* \"#utility.yul\":891:897   */\n      dup1\n        /* \"#utility.yul\":886:888   */\n      0x20\n        /* \"#utility.yul\":875:884   */\n      dup5\n        /* \"#utility.yul\":871:889   */\n      add\n        /* \"#utility.yul\":864:898   */\n      mstore\n        /* \"#utility.yul\":950:956   */\n      dup1\n        /* \"#utility.yul\":945:947   */\n      0x20\n        /* \"#utility.yul\":937:943   */\n      dup6\n        /* \"#utility.yul\":933:948   */\n      add\n        /* \"#utility.yul\":928:930   */\n      0x40\n        /* \"#utility.yul\":917:926   */\n      dup6\n        /* \"#utility.yul\":913:931   */\n      add\n        /* \"#utility.yul\":907:957   */\n      mcopy\n        /* \"#utility.yul\":1006:1007   */\n      0x00\n        /* \"#utility.yul\":1001:1003   */\n      0x40\n        /* \"#utility.yul\":992:998   */\n      dup3\n        /* \"#utility.yul\":981:990   */\n      dup6\n        /* \"#utility.yul\":977:999   */\n      add\n        /* \"#utility.yul\":973:1004   */\n      add\n        /* \"#utility.yul\":966:1008   */\n      mstore\n        /* \"#utility.yul\":1076:1078   */\n      0x40\n        /* \"#utility.yul\":1069:1071   */\n      0x1f\n        /* \"#utility.yul\":1065:1072   */\n      not\n        /* \"#utility.yul\":1060:1062   */\n      0x1f\n        /* \"#utility.yul\":1052:1058   */\n      dup4\n        /* \"#utility.yul\":1048:1063   */\n      add\n        /* \"#utility.yul\":1044:1073   */\n      and\n        /* \"#utility.yul\":1033:1042   */\n      dup5\n        /* \"#utility.yul\":1029:1074   */\n      add\n        /* \"#utility.yul\":1025:1079   */\n      add\n        /* \"#utility.yul\":1017:1079   */\n      swap2\n      pop\n      pop\n        /* \"#utility.yul\":667:1085   */\n      swap3\n      swap2\n      pop\n      pop\n      jump\t// out\n        /* \"#utility.yul\":1090:1221   */\n    tag_326:\n      sub(shl(0xa0, 0x01), 0x01)\n        /* \"#utility.yul\":1165:1196   */\n      dup2\n      and\n        /* \"#utility.yul\":1155:1197   */\n      dup2\n      eq\n        /* \"#utility.yul\":1145:1215   */\n      tag_334\n      jumpi\n        /* \"#utility.yul\":1211:1212   */\n      0x00\n        /* \"#utility.yul\":1208:1209   */\n      0x00\n        /* \"#utility.yul\":1201:1213   */\n      revert\n        /* \"#utility.yul\":1145:1215   */\n    tag_334:\n        /* \"#utility.yul\":1090:1221   */\n      pop\n      jump\t// out\n        /* \"#utility.yul\":1226:1593   */\n    tag_35:\n        /* \"#utility.yul\":1294:1300   */\n      0x00\n        /* \"#utility.yul\":1302:1308   */\n      0x00\n        /* \"#utility.yul\":1355:1357   */\n      0x40\n        /* \"#utility.yul\":1343:1352   */\n      dup4\n        /* \"#utility.yul\":1334:1341   */\n      dup6\n        /* \"#utility.yul\":1330:1353   */\n      sub\n        /* \"#utility.yul\":1326:1358   */\n      slt\n        /* \"#utility.yul\":1323:1375   */\n      iszero\n      tag_336\n      jumpi\n        /* \"#utility.yul\":1371:1372   */\n      0x00\n        /* \"#utility.yul\":1368:1369   */\n      0x00\n        /* \"#utility.yul\":1361:1373   */\n      revert\n        /* \"#utility.yul\":1323:1375   */\n    tag_336:\n        /* \"#utility.yul\":1410:1419   */\n      dup3\n        /* \"#utility.yul\":1397:1420   */\n      calldataload\n        /* \"#utility.yul\":1429:1460   */\n      tag_337\n        /* \"#utility.yul\":1454:1459   */\n      dup2\n        /* \"#utility.yul\":1429:1460   */\n      tag_326\n      jump\t// in\n    tag_337:\n        /* \"#utility.yul\":1479:1484   */\n      swap5\n        /* \"#utility.yul\":1557:1559   */\n      0x20\n        /* \"#utility.yul\":1542:1560   */\n      swap4\n      swap1\n      swap4\n      add\n        /* \"#utility.yul\":1529:1561   */\n      calldataload\n      swap4\n      pop\n      pop\n      pop\n        /* \"#utility.yul\":1226:1593   */\n      jump\t// out\n        /* \"#utility.yul\":2012:2520   */\n    tag_48:\n        /* \"#utility.yul\":2089:2095   */\n      0x00\n        /* \"#utility.yul\":2097:2103   */\n      0x00\n        /* \"#utility.yul\":2105:2111   */\n      0x00\n        /* \"#utility.yul\":2158:2160   */\n      0x60\n        /* \"#utility.yul\":2146:2155   */\n      dup5\n        /* \"#utility.yul\":2137:2144   */\n      dup7\n        /* \"#utility.yul\":2133:2156   */\n      sub\n        /* \"#utility.yul\":2129:2161   */\n      slt\n        /* \"#utility.yul\":2126:2178   */\n      iszero\n      tag_341\n      jumpi\n        /* \"#utility.yul\":2174:2175   */\n      0x00\n        /* \"#utility.yul\":2171:2172   */\n      0x00\n        /* \"#utility.yul\":2164:2176   */\n      revert\n        /* \"#utility.yul\":2126:2178   */\n    tag_341:\n        /* \"#utility.yul\":2213:2222   */\n      dup4\n        /* \"#utility.yul\":2200:2223   */\n      calldataload\n        /* \"#utility.yul\":2232:2263   */\n      tag_342\n        /* \"#utility.yul\":2257:2262   */\n      dup2\n        /* \"#utility.yul\":2232:2263   */\n      tag_326\n      jump\t// in\n    tag_342:\n        /* \"#utility.yul\":2282:2287   */\n      swap3\n      pop\n        /* \"#utility.yul\":2339:2341   */\n      0x20\n        /* \"#utility.yul\":2324:2342   */\n      dup5\n      add\n        /* \"#utility.yul\":2311:2343   */\n      calldataload\n        /* \"#utility.yul\":2352:2385   */\n      tag_343\n        /* \"#utility.yul\":2311:2343   */\n      dup2\n        /* \"#utility.yul\":2352:2385   */\n      tag_326\n      jump\t// in\n    tag_343:\n        /* \"#utility.yul\":2012:2520   */\n      swap3\n      swap6\n        /* \"#utility.yul\":2404:2411   */\n      swap3\n      swap5\n      pop\n      pop\n      pop\n        /* \"#utility.yul\":2484:2486   */\n      0x40\n        /* \"#utility.yul\":2469:2487   */\n      swap2\n      swap1\n      swap2\n      add\n        /* \"#utility.yul\":2456:2488   */\n      calldataload\n      swap1\n        /* \"#utility.yul\":2012:2520   */\n      jump\t// out\n        /* \"#utility.yul\":2714:3215   */\n    tag_57:\n        /* \"#utility.yul\":2805:2811   */\n      0x00\n        /* \"#utility.yul\":2813:2819   */\n      0x00\n        /* \"#utility.yul\":2821:2827   */\n      0x00\n        /* \"#utility.yul\":2874:2876   */\n      0x60\n        /* \"#utility.yul\":2862:2871   */\n      dup5\n        /* \"#utility.yul\":2853:2860   */\n      dup7\n        /* \"#utility.yul\":2849:2872   */\n      sub\n        /* \"#utility.yul\":2845:2877   */\n      slt\n        /* \"#utility.yul\":2842:2894   */\n      iszero\n      tag_346\n      jumpi\n        /* \"#utility.yul\":2890:2891   */\n      0x00\n        /* \"#utility.yul\":2887:2888   */\n      0x00\n        /* \"#utility.yul\":2880:2892   */\n      revert\n        /* \"#utility.yul\":2842:2894   */\n    tag_346:\n        /* \"#utility.yul\":2935:2958   */\n      dup4\n      calldataload\n      swap3\n      pop\n        /* \"#utility.yul\":3034:3036   */\n      0x20\n        /* \"#utility.yul\":3019:3037   */\n      dup5\n      add\n        /* \"#utility.yul\":3006:3038   */\n      calldataload\n        /* \"#utility.yul\":3047:3080   */\n      tag_343\n        /* \"#utility.yul\":3006:3038   */\n      dup2\n        /* \"#utility.yul\":3047:3080   */\n      tag_326\n      jump\t// in\n        /* \"#utility.yul\":3513:3760   */\n    tag_69:\n        /* \"#utility.yul\":3572:3578   */\n      0x00\n        /* \"#utility.yul\":3625:3627   */\n      0x20\n        /* \"#utility.yul\":3613:3622   */\n      dup3\n        /* \"#utility.yul\":3604:3611   */\n      dup5\n        /* \"#utility.yul\":3600:3623   */\n      sub\n        /* \"#utility.yul\":3596:3628   */\n      slt\n        /* \"#utility.yul\":3593:3645   */\n      iszero\n      tag_350\n      jumpi\n        /* \"#utility.yul\":3641:3642   */\n      0x00\n        /* \"#utility.yul\":3638:3639   */\n      0x00\n        /* \"#utility.yul\":3631:3643   */\n      revert\n        /* \"#utility.yul\":3593:3645   */\n    tag_350:\n        /* \"#utility.yul\":3680:3689   */\n      dup2\n        /* \"#utility.yul\":3667:3690   */\n      calldataload\n        /* \"#utility.yul\":3699:3730   */\n      tag_305\n        /* \"#utility.yul\":3724:3729   */\n      dup2\n        /* \"#utility.yul\":3699:3730   */\n      tag_326\n      jump\t// in\n        /* \"#utility.yul\":3765:3991   */\n    tag_77:\n        /* \"#utility.yul\":3824:3830   */\n      0x00\n        /* \"#utility.yul\":3877:3879   */\n      0x20\n        /* \"#utility.yul\":3865:3874   */\n      dup3\n        /* \"#utility.yul\":3856:3863   */\n      dup5\n        /* \"#utility.yul\":3852:3875   */\n      sub\n        /* \"#utility.yul\":3848:3880   */\n      slt\n        /* \"#utility.yul\":3845:3897   */\n      iszero\n      tag_353\n      jumpi\n        /* \"#utility.yul\":3893:3894   */\n      0x00\n        /* \"#utility.yul\":3890:3891   */\n      0x00\n        /* \"#utility.yul\":3883:3895   */\n      revert\n        /* \"#utility.yul\":3845:3897   */\n    tag_353:\n      pop\n        /* \"#utility.yul\":3938:3961   */\n      calldataload\n      swap2\n        /* \"#utility.yul\":3765:3991   */\n      swap1\n      pop\n      jump\t// out\n        /* \"#utility.yul\":4249:4595   */\n    tag_83:\n        /* \"#utility.yul\":4317:4323   */\n      0x00\n        /* \"#utility.yul\":4325:4331   */\n      0x00\n        /* \"#utility.yul\":4378:4380   */\n      0x40\n        /* \"#utility.yul\":4366:4375   */\n      dup4\n        /* \"#utility.yul\":4357:4364   */\n      dup6\n        /* \"#utility.yul\":4353:4376   */\n      sub\n        /* \"#utility.yul\":4349:4381   */\n      slt\n        /* \"#utility.yul\":4346:4398   */\n      iszero\n      tag_356\n      jumpi\n        /* \"#utility.yul\":4394:4395   */\n      0x00\n        /* \"#utility.yul\":4391:4392   */\n      0x00\n        /* \"#utility.yul\":4384:4396   */\n      revert\n        /* \"#utility.yul\":4346:4398   */\n    tag_356:\n      pop\n      pop\n        /* \"#utility.yul\":4439:4462   */\n      dup1\n      calldataload\n      swap3\n        /* \"#utility.yul\":4559:4561   */\n      0x20\n        /* \"#utility.yul\":4544:4562   */\n      swap1\n      swap2\n      add\n        /* \"#utility.yul\":4531:4563   */\n      calldataload\n      swap2\n      pop\n        /* \"#utility.yul\":4249:4595   */\n      jump\t// out\n        /* \"#utility.yul\":4600:4988   */\n    tag_95:\n        /* \"#utility.yul\":4668:4674   */\n      0x00\n        /* \"#utility.yul\":4676:4682   */\n      0x00\n        /* \"#utility.yul\":4729:4731   */\n      0x40\n        /* \"#utility.yul\":4717:4726   */\n      dup4\n        /* \"#utility.yul\":4708:4715   */\n      dup6\n        /* \"#utility.yul\":4704:4727   */\n      sub\n        /* \"#utility.yul\":4700:4732   */\n      slt\n        /* \"#utility.yul\":4697:4749   */\n      iszero\n      tag_358\n      jumpi\n        /* \"#utility.yul\":4745:4746   */\n      0x00\n        /* \"#utility.yul\":4742:4743   */\n      0x00\n        /* \"#utility.yul\":4735:4747   */\n      revert\n        /* \"#utility.yul\":4697:4749   */\n    tag_358:\n        /* \"#utility.yul\":4784:4793   */\n      dup3\n        /* \"#utility.yul\":4771:4794   */\n      calldataload\n        /* \"#utility.yul\":4803:4834   */\n      tag_359\n        /* \"#utility.yul\":4828:4833   */\n      dup2\n        /* \"#utility.yul\":4803:4834   */\n      tag_326\n      jump\t// in\n    tag_359:\n        /* \"#utility.yul\":4853:4858   */\n      swap2\n      pop\n        /* \"#utility.yul\":4910:4912   */\n      0x20\n        /* \"#utility.yul\":4895:4913   */\n      dup4\n      add\n        /* \"#utility.yul\":4882:4914   */\n      calldataload\n        /* \"#utility.yul\":4923:4956   */\n      tag_360\n        /* \"#utility.yul\":4882:4914   */\n      dup2\n        /* \"#utility.yul\":4923:4956   */\n      tag_326\n      jump\t// in\n    tag_360:\n        /* \"#utility.yul\":4975:4982   */\n      dup1\n        /* \"#utility.yul\":4965:4982   */\n      swap2\n      pop\n      pop\n        /* \"#utility.yul\":4600:4988   */\n      swap3\n      pop\n      swap3\n      swap1\n      pop\n      jump\t// out\n        /* \"#utility.yul\":5692:5819   */\n    tag_327:\n        /* \"#utility.yul\":5753:5763   */\n      0x4e487b71\n        /* \"#utility.yul\":5748:5751   */\n      0xe0\n        /* \"#utility.yul\":5744:5764   */\n      shl\n        /* \"#utility.yul\":5741:5742   */\n      0x00\n        /* \"#utility.yul\":5734:5765   */\n      mstore\n        /* \"#utility.yul\":5784:5788   */\n      0x11\n        /* \"#utility.yul\":5781:5782   */\n      0x04\n        /* \"#utility.yul\":5774:5789   */\n      mstore\n        /* \"#utility.yul\":5808:5812   */\n      0x24\n        /* \"#utility.yul\":5805:5806   */\n      0x00\n        /* \"#utility.yul\":5798:5813   */\n      revert\n        /* \"#utility.yul\":5824:5949   */\n    tag_107:\n        /* \"#utility.yul\":5889:5898   */\n      dup1\n      dup3\n      add\n        /* \"#utility.yul\":5910:5920   */\n      dup1\n      dup3\n      gt\n        /* \"#utility.yul\":5907:5943   */\n      iszero\n      tag_119\n      jumpi\n        /* \"#utility.yul\":5923:5941   */\n      tag_119\n      tag_327\n      jump\t// in\n        /* \"#utility.yul\":5954:6122   */\n    tag_109:\n        /* \"#utility.yul\":6027:6036   */\n      dup1\n      dup3\n      mul\n        /* \"#utility.yul\":6058:6067   */\n      dup2\n      iszero\n        /* \"#utility.yul\":6075:6090   */\n      dup3\n      dup3\n      div\n        /* \"#utility.yul\":6069:6091   */\n      dup5\n      eq\n        /* \"#utility.yul\":6055:6092   */\n      or\n        /* \"#utility.yul\":6045:6116   */\n      tag_119\n      jumpi\n        /* \"#utility.yul\":6096:6114   */\n      tag_119\n      tag_327\n      jump\t// in\n        /* \"#utility.yul\":6127:6344   */\n    tag_111:\n        /* \"#utility.yul\":6167:6168   */\n      0x00\n        /* \"#utility.yul\":6193:6194   */\n      dup3\n        /* \"#utility.yul\":6183:6315   */\n      tag_371\n      jumpi\n        /* \"#utility.yul\":6237:6247   */\n      0x4e487b71\n        /* \"#utility.yul\":6232:6235   */\n      0xe0\n        /* \"#utility.yul\":6228:6248   */\n      shl\n        /* \"#utility.yul\":6225:6226   */\n      0x00\n        /* \"#utility.yul\":6218:6249   */\n      mstore\n        /* \"#utility.yul\":6272:6276   */\n      0x12\n        /* \"#utility.yul\":6269:6270   */\n      0x04\n        /* \"#utility.yul\":6262:6277   */\n      mstore\n        /* \"#utility.yul\":6300:6304   */\n      0x24\n        /* \"#utility.yul\":6297:6298   */\n      0x00\n        /* \"#utility.yul\":6290:6305   */\n      revert\n        /* \"#utility.yul\":6183:6315   */\n    tag_371:\n      pop\n        /* \"#utility.yul\":6329:6338   */\n      div\n      swap1\n        /* \"#utility.yul\":6127:6344   */\n      jump\t// out\n        /* \"#utility.yul\":6349:6729   */\n    tag_114:\n        /* \"#utility.yul\":6428:6429   */\n      0x01\n        /* \"#utility.yul\":6424:6436   */\n      dup2\n      dup2\n      shr\n      swap1\n        /* \"#utility.yul\":6471:6483   */\n      dup3\n      and\n      dup1\n        /* \"#utility.yul\":6492:6553   */\n      tag_373\n      jumpi\n        /* \"#utility.yul\":6546:6550   */\n      0x7f\n        /* \"#utility.yul\":6538:6544   */\n      dup3\n        /* \"#utility.yul\":6534:6551   */\n      and\n        /* \"#utility.yul\":6524:6551   */\n      swap2\n      pop\n        /* \"#utility.yul\":6492:6553   */\n    tag_373:\n        /* \"#utility.yul\":6599:6601   */\n      0x20\n        /* \"#utility.yul\":6591:6597   */\n      dup3\n        /* \"#utility.yul\":6588:6602   */\n      lt\n        /* \"#utility.yul\":6568:6586   */\n      dup2\n        /* \"#utility.yul\":6565:6603   */\n      sub\n        /* \"#utility.yul\":6562:6723   */\n      tag_297\n      jumpi\n        /* \"#utility.yul\":6645:6655   */\n      0x4e487b71\n        /* \"#utility.yul\":6640:6643   */\n      0xe0\n        /* \"#utility.yul\":6636:6656   */\n      shl\n        /* \"#utility.yul\":6633:6634   */\n      0x00\n        /* \"#utility.yul\":6626:6657   */\n      mstore\n        /* \"#utility.yul\":6680:6684   */\n      0x22\n        /* \"#utility.yul\":6677:6678   */\n      0x04\n        /* \"#utility.yul\":6670:6685   */\n      mstore\n        /* \"#utility.yul\":6708:6712   */\n      0x24\n        /* \"#utility.yul\":6705:6706   */\n      0x00\n        /* \"#utility.yul\":6698:6713   */\n      revert\n        /* \"#utility.yul\":6734:7084   */\n    tag_135:\n        /* \"#utility.yul\":6936:6938   */\n      0x20\n        /* \"#utility.yul\":6918:6939   */\n      dup1\n      dup3\n      mstore\n        /* \"#utility.yul\":6975:6977   */\n      0x1a\n        /* \"#utility.yul\":6955:6973   */\n      swap1\n      dup3\n      add\n        /* \"#utility.yul\":6948:6978   */\n      mstore\n        /* \"#utility.yul\":7014:7042   */\n      0x494e53554646494349454e545f4f55545055545f414d4f554e54000000000000\n        /* \"#utility.yul\":7009:7011   */\n      0x40\n        /* \"#utility.yul\":6994:7012   */\n      dup3\n      add\n        /* \"#utility.yul\":6987:7043   */\n      mstore\n        /* \"#utility.yul\":7075:7077   */\n      0x60\n        /* \"#utility.yul\":7060:7078   */\n      add\n      swap1\n        /* \"#utility.yul\":6734:7084   */\n      jump\t// out\n        /* \"#utility.yul\":7639:7823   */\n    tag_145:\n        /* \"#utility.yul\":7709:7715   */\n      0x00\n        /* \"#utility.yul\":7762:7764   */\n      0x20\n        /* \"#utility.yul\":7750:7759   */\n      dup3\n        /* \"#utility.yul\":7741:7748   */\n      dup5\n        /* \"#utility.yul\":7737:7760   */\n      sub\n        /* \"#utility.yul\":7733:7765   */\n      slt\n        /* \"#utility.yul\":7730:7782   */\n      iszero\n      tag_379\n      jumpi\n        /* \"#utility.yul\":7778:7779   */\n      0x00\n        /* \"#utility.yul\":7775:7776   */\n      0x00\n        /* \"#utility.yul\":7768:7780   */\n      revert\n        /* \"#utility.yul\":7730:7782   */\n    tag_379:\n      pop\n        /* \"#utility.yul\":7801:7817   */\n      mload\n      swap2\n        /* \"#utility.yul\":7639:7823   */\n      swap1\n      pop\n      jump\t// out\n        /* \"#utility.yul\":7828:8199   */\n    tag_155:\n      sub(shl(0xa0, 0x01), 0x01)\n        /* \"#utility.yul\":8048:8080   */\n      swap4\n      dup5\n      and\n        /* \"#utility.yul\":8030:8081   */\n      dup2\n      mstore\n        /* \"#utility.yul\":8117:8149   */\n      swap2\n      swap1\n      swap3\n      and\n        /* \"#utility.yul\":8112:8114   */\n      0x20\n        /* \"#utility.yul\":8097:8115   */\n      dup3\n      add\n        /* \"#utility.yul\":8090:8150   */\n      mstore\n        /* \"#utility.yul\":8181:8183   */\n      0x40\n        /* \"#utility.yul\":8166:8184   */\n      dup2\n      add\n        /* \"#utility.yul\":8159:8193   */\n      swap2\n      swap1\n      swap2\n      mstore\n        /* \"#utility.yul\":8018:8020   */\n      0x60\n        /* \"#utility.yul\":8003:8021   */\n      add\n      swap1\n        /* \"#utility.yul\":7828:8199   */\n      jump\t// out\n        /* \"#utility.yul\":8204:8481   */\n    tag_159:\n        /* \"#utility.yul\":8271:8277   */\n      0x00\n        /* \"#utility.yul\":8324:8326   */\n      0x20\n        /* \"#utility.yul\":8312:8321   */\n      dup3\n        /* \"#utility.yul\":8303:8310   */\n      dup5\n        /* \"#utility.yul\":8299:8322   */\n      sub\n        /* \"#utility.yul\":8295:8327   */\n      slt\n        /* \"#utility.yul\":8292:8344   */\n      iszero\n      tag_382\n      jumpi\n        /* \"#utility.yul\":8340:8341   */\n      0x00\n        /* \"#utility.yul\":8337:8338   */\n      0x00\n        /* \"#utility.yul\":8330:8342   */\n      revert\n        /* \"#utility.yul\":8292:8344   */\n    tag_382:\n        /* \"#utility.yul\":8372:8381   */\n      dup2\n        /* \"#utility.yul\":8366:8382   */\n      mload\n        /* \"#utility.yul\":8425:8430   */\n      dup1\n        /* \"#utility.yul\":8418:8431   */\n      iszero\n        /* \"#utility.yul\":8411:8432   */\n      iszero\n        /* \"#utility.yul\":8404:8409   */\n      dup2\n        /* \"#utility.yul\":8401:8433   */\n      eq\n        /* \"#utility.yul\":8391:8451   */\n      tag_305\n      jumpi\n        /* \"#utility.yul\":8447:8448   */\n      0x00\n        /* \"#utility.yul\":8444:8445   */\n      0x00\n        /* \"#utility.yul\":8437:8449   */\n      revert\n\n    auxdata: 0xa264697066735822122072c8ca44da9b9415eaac567ca24e1061546afef935c7b424d196eaf8bdc0ada464736f6c634300081b0033\n}\n",
				"bytecode": {
					"linkReferences": {},
					"object": "608060405234801561000f575f5ffd5b506040516118c13803806118c183398101604081905261002e916100db565b6040518060400160405280600a815260200169053696d706c65537761760b41b81525060405180604001604052806002815260200161535360f01b815250816003908161007b91906101a4565b50600461008882826101a4565b5050600580546001600160a01b039485166001600160a01b03199182161790915560068054939094169216919091179091555061025e565b80516001600160a01b03811681146100d6575f5ffd5b919050565b5f5f604083850312156100ec575f5ffd5b6100f5836100c0565b9150610103602084016100c0565b90509250929050565b634e487b7160e01b5f52604160045260245ffd5b600181811c9082168061013457607f821691505b60208210810361015257634e487b7160e01b5f52602260045260245ffd5b50919050565b601f82111561019f57805f5260205f20601f840160051c8101602085101561017d5750805b601f840160051c820191505b8181101561019c575f8155600101610189565b50505b505050565b81516001600160401b038111156101bd576101bd61010c565b6101d1816101cb8454610120565b84610158565b6020601f821160018114610203575f83156101ec5750848201515b5f19600385901b1c1916600184901b17845561019c565b5f84815260208120601f198516915b828110156102325787850151825560209485019460019092019101610212565b508482101561024f57868401515f19600387901b60f8161c191681555b50505050600190811b01905550565b6116568061026b5f395ff3fe608060405234801561000f575f5ffd5b5060043610610106575f3560e01c8063443cb4bc1161009e5780639c8f9f231161006e5780639c8f9f231461022f5780639cd441da14610257578063a9059cbb1461026a578063d21220a71461027d578063dd62ed3e14610290575f5ffd5b8063443cb4bc146101ed5780635a76f25e146101f657806370a08231146101ff57806395d89b4114610227575f5ffd5b806318160ddd116100d957806318160ddd1461019357806323b872dd1461019b578063313ce567146101ae57806343264349146101bd575f5ffd5b8063054d50d41461010a57806306fdde0314610130578063095ea7b3146101455780630dfe168114610168575b5f5ffd5b61011d610118366004611376565b6102c8565b6040519081526020015b60405180910390f35b61013861038c565b604051610127919061139f565b6101586101533660046113eb565b61041c565b6040519015158152602001610127565b60055461017b906001600160a01b031681565b6040516001600160a01b039091168152602001610127565b60025461011d565b6101586101a9366004611415565b610435565b60405160128152602001610127565b6101d06101cb366004611453565b610458565b604080519283526001600160a01b03909116602083015201610127565b61011d60075481565b61011d60085481565b61011d61020d366004611477565b6001600160a01b03165f9081526020819052604090205490565b610138610942565b61024261023d366004611492565b610951565b60408051928352602083019190915201610127565b61011d6102653660046114a9565b610cd1565b6101586102783660046113eb565b610f96565b60065461017b906001600160a01b031681565b61011d61029e3660046114c9565b6001600160a01b039182165f90815260016020908152604080832093909416825291909152205490565b5f5f84116103135760405162461bcd60e51b8152602060048201526013602482015272125394d551919250d251539517d05353d55395606a1b60448201526064015b60405180910390fd5b5f8311801561032157505f82115b6103665760405162461bcd60e51b8152602060048201526016602482015275494e53554646494349454e545f4c495155494449545960501b604482015260640161030a565b6103708484611514565b61037a8386611527565b610384919061153e565b949350505050565b60606003805461039b9061155d565b80601f01602080910402602001604051908101604052809291908181526020018280546103c79061155d565b80156104125780601f106103e957610100808354040283529160200191610412565b820191905f5260205f20905b8154815290600101906020018083116103f557829003601f168201915b5050505050905090565b5f33610429818585610fa3565b60019150505b92915050565b5f33610442858285610fb5565b61044d858585611030565b506001949350505050565b5f5f5f85116104795760405162461bcd60e51b815260040161030a9061158f565b6005546001600160a01b03858116911614806104a257506006546001600160a01b038581169116145b6104de5760405162461bcd60e51b815260206004820152600d60248201526c24a72b20a624a22faa27a5a2a760991b604482015260640161030a565b6005546040516370a0823160e01b81523060048201525f916001600160a01b0316906370a0823190602401602060405180830381865afa158015610524573d5f5f3e3d5ffd5b505050506040513d601f19601f8201168201806040525081019061054891906115c6565b6006546040516370a0823160e01b81523060048201529192505f916001600160a01b03909116906370a0823190602401602060405180830381865afa158015610593573d5f5f3e3d5ffd5b505050506040513d601f19601f820116820180604052508101906105b791906115c6565b6005549091506001600160a01b03908116908716036106ef576006546001600160a01b031692506105e98783836102c8565b935084841161060a5760405162461bcd60e51b815260040161030a9061158f565b6040516323b872dd60e01b81526001600160a01b038716906323b872dd9061063a90339030908c906004016115dd565b6020604051808303815f875af1158015610656573d5f5f3e3d5ffd5b505050506040513d601f19601f8201168201806040525081019061067a9190611601565b5060405163a9059cbb60e01b8152336004820152602481018590526001600160a01b0384169063a9059cbb906044016020604051808303815f875af11580156106c5573d5f5f3e3d5ffd5b505050506040513d601f19601f820116820180604052508101906106e99190611601565b5061080a565b6005546001600160a01b031692506107088782846102c8565b93508484116107295760405162461bcd60e51b815260040161030a9061158f565b6040516323b872dd60e01b81526001600160a01b038716906323b872dd9061075990339030908c906004016115dd565b6020604051808303815f875af1158015610775573d5f5f3e3d5ffd5b505050506040513d601f19601f820116820180604052508101906107999190611601565b5060405163a9059cbb60e01b8152336004820152602481018590526001600160a01b0384169063a9059cbb906044016020604051808303815f875af11580156107e4573d5f5f3e3d5ffd5b505050506040513d601f19601f820116820180604052508101906108089190611601565b505b6005546040516370a0823160e01b81523060048201526001600160a01b03909116906370a0823190602401602060405180830381865afa158015610850573d5f5f3e3d5ffd5b505050506040513d601f19601f8201168201806040525081019061087491906115c6565b6007556006546040516370a0823160e01b81523060048201526001600160a01b03909116906370a0823190602401602060405180830381865afa1580156108bd573d5f5f3e3d5ffd5b505050506040513d601f19601f820116820180604052508101906108e191906115c6565b600855604080518881526001600160a01b038089166020830152918101869052908416606082015233907f24043855bfbfea0ccea141e5a73d7116bf0bfe083ea900a791f4b407ff03e5259060800160405180910390a25050935093915050565b60606004805461039b9061155d565b6005546040516370a0823160e01b81523060048201525f91829182916001600160a01b0316906370a0823190602401602060405180830381865afa15801561099b573d5f5f3e3d5ffd5b505050506040513d601f19601f820116820180604052508101906109bf91906115c6565b6006546040516370a0823160e01b81523060048201529192505f916001600160a01b03909116906370a0823190602401602060405180830381865afa158015610a0a573d5f5f3e3d5ffd5b505050506040513d601f19601f82011682018060405250810190610a2e91906115c6565b90505f610a3a60025490565b905080610a478488611527565b610a51919061153e565b945080610a5e8388611527565b610a68919061153e565b93505f85118015610a7857505f84115b610ac45760405162461bcd60e51b815260206004820152601d60248201527f494e53554646494349454e545f4c49515549444954595f4255524e4544000000604482015260640161030a565b610ace338761108d565b60055460405163a9059cbb60e01b8152336004820152602481018790526001600160a01b039091169063a9059cbb906044016020604051808303815f875af1158015610b1c573d5f5f3e3d5ffd5b505050506040513d601f19601f82011682018060405250810190610b409190611601565b5060065460405163a9059cbb60e01b8152336004820152602481018690526001600160a01b039091169063a9059cbb906044016020604051808303815f875af1158015610b8f573d5f5f3e3d5ffd5b505050506040513d601f19601f82011682018060405250810190610bb39190611601565b506005546040516370a0823160e01b81523060048201526001600160a01b03909116906370a0823190602401602060405180830381865afa158015610bfa573d5f5f3e3d5ffd5b505050506040513d601f19601f82011682018060405250810190610c1e91906115c6565b6007556006546040516370a0823160e01b81523060048201526001600160a01b03909116906370a0823190602401602060405180830381865afa158015610c67573d5f5f3e3d5ffd5b505050506040513d601f19601f82011682018060405250810190610c8b91906115c6565b600855604080518681526020810186905233917f49995e5dd6158cf69ad3e9777c46755a1a826a446c6416992167462dad033b2a910160405180910390a2505050915091565b6005546040516323b872dd60e01b81525f916001600160a01b0316906323b872dd90610d05903390309088906004016115dd565b6020604051808303815f875af1158015610d21573d5f5f3e3d5ffd5b505050506040513d601f19601f82011682018060405250810190610d459190611601565b506006546040516323b872dd60e01b81526001600160a01b03909116906323b872dd90610d7a903390309087906004016115dd565b6020604051808303815f875af1158015610d96573d5f5f3e3d5ffd5b505050506040513d601f19601f82011682018060405250810190610dba9190611601565b505f610dc560025490565b9050805f03610de757610de0610ddb8486611527565b6110c5565b9150610e21565b600754610e1e90610df88387611527565b610e02919061153e565b600854610e0f8487611527565b610e19919061153e565b611133565b91505b5f8211610e705760405162461bcd60e51b815260206004820152601d60248201527f494e53554646494349454e545f4c49515549444954595f4d494e544544000000604482015260640161030a565b6005546040516370a0823160e01b81523060048201526001600160a01b03909116906370a0823190602401602060405180830381865afa158015610eb6573d5f5f3e3d5ffd5b505050506040513d601f19601f82011682018060405250810190610eda91906115c6565b6007556006546040516370a0823160e01b81523060048201526001600160a01b03909116906370a0823190602401602060405180830381865afa158015610f23573d5f5f3e3d5ffd5b505050506040513d601f19601f82011682018060405250810190610f4791906115c6565b600855610f54338361114a565b604080518581526020810185905233917f4c209b5fc8ad50758f13e2e1088ba56a560dff690a1c6fef26394f4c03821c4f910160405180910390a25092915050565b5f33610429818585611030565b610fb0838383600161117e565b505050565b6001600160a01b038381165f908152600160209081526040808320938616835292905220545f19811461102a578181101561101c57604051637dc7a0d960e11b81526001600160a01b0384166004820152602481018290526044810183905260640161030a565b61102a84848484035f61117e565b50505050565b6001600160a01b03831661105957604051634b637e8f60e11b81525f600482015260240161030a565b6001600160a01b0382166110825760405163ec442f0560e01b81525f600482015260240161030a565b610fb0838383611250565b6001600160a01b0382166110b657604051634b637e8f60e11b81525f600482015260240161030a565b6110c1825f83611250565b5050565b5f60038211156111245750805f6110dd60028361153e565b6110e8906001611514565b90505b8181101561111e57905080600281611103818661153e565b61110d9190611514565b611117919061153e565b90506110eb565b50919050565b811561112e575060015b919050565b5f8183106111415781611143565b825b9392505050565b6001600160a01b0382166111735760405163ec442f0560e01b81525f600482015260240161030a565b6110c15f8383611250565b6001600160a01b0384166111a75760405163e602df0560e01b81525f600482015260240161030a565b6001600160a01b0383166111d057604051634a1406b160e11b81525f600482015260240161030a565b6001600160a01b038085165f908152600160209081526040808320938716835292905220829055801561102a57826001600160a01b0316846001600160a01b03167f8c5be1e5ebec7d5bd14f71427d1e84f3dd0314c0f7b2291e5b200ac8c7c3b9258460405161124291815260200190565b60405180910390a350505050565b6001600160a01b03831661127a578060025f82825461126f9190611514565b909155506112ea9050565b6001600160a01b0383165f90815260208190526040902054818110156112cc5760405163391434e360e21b81526001600160a01b0385166004820152602481018290526044810183905260640161030a565b6001600160a01b0384165f9081526020819052604090209082900390555b6001600160a01b03821661130657600280548290039055611324565b6001600160a01b0382165f9081526020819052604090208054820190555b816001600160a01b0316836001600160a01b03167fddf252ad1be2c89b69c2b068fc378daa952ba7f163c4a11628f55a4df523b3ef8360405161136991815260200190565b60405180910390a3505050565b5f5f5f60608486031215611388575f5ffd5b505081359360208301359350604090920135919050565b602081525f82518060208401528060208501604085015e5f604082850101526040601f19601f83011684010191505092915050565b6001600160a01b03811681146113e8575f5ffd5b50565b5f5f604083850312156113fc575f5ffd5b8235611407816113d4565b946020939093013593505050565b5f5f5f60608486031215611427575f5ffd5b8335611432816113d4565b92506020840135611442816113d4565b929592945050506040919091013590565b5f5f5f60608486031215611465575f5ffd5b833592506020840135611442816113d4565b5f60208284031215611487575f5ffd5b8135611143816113d4565b5f602082840312156114a2575f5ffd5b5035919050565b5f5f604083850312156114ba575f5ffd5b50508035926020909101359150565b5f5f604083850312156114da575f5ffd5b82356114e5816113d4565b915060208301356114f5816113d4565b809150509250929050565b634e487b7160e01b5f52601160045260245ffd5b8082018082111561042f5761042f611500565b808202811582820484141761042f5761042f611500565b5f8261155857634e487b7160e01b5f52601260045260245ffd5b500490565b600181811c9082168061157157607f821691505b60208210810361111e57634e487b7160e01b5f52602260045260245ffd5b6020808252601a908201527f494e53554646494349454e545f4f55545055545f414d4f554e54000000000000604082015260600190565b5f602082840312156115d6575f5ffd5b5051919050565b6001600160a01b039384168152919092166020820152604081019190915260600190565b5f60208284031215611611575f5ffd5b81518015158114611143575f5ffdfea264697066735822122072c8ca44da9b9415eaac567ca24e1061546afef935c7b424d196eaf8bdc0ada464736f6c634300081b0033",
					"opcodes": "PUSH1 0x80 PUSH1 0x40 MSTORE CALLVALUE DUP1 ISZERO PUSH2 0xF JUMPI PUSH0 PUSH0 REVERT JUMPDEST POP PUSH1 0x40 MLOAD PUSH2 0x18C1 CODESIZE SUB DUP1 PUSH2 0x18C1 DUP4 CODECOPY DUP2 ADD PUSH1 0x40 DUP2 SWAP1 MSTORE PUSH2 0x2E SWAP2 PUSH2 0xDB JUMP JUMPDEST PUSH1 0x40 MLOAD DUP1 PUSH1 0x40 ADD PUSH1 0x40 MSTORE DUP1 PUSH1 0xA DUP2 MSTORE PUSH1 0x20 ADD PUSH10 0x53696D706C655377617 PUSH1 0xB4 SHL DUP2 MSTORE POP PUSH1 0x40 MLOAD DUP1 PUSH1 0x40 ADD PUSH1 0x40 MSTORE DUP1 PUSH1 0x2 DUP2 MSTORE PUSH1 0x20 ADD PUSH2 0x5353 PUSH1 0xF0 SHL DUP2 MSTORE POP DUP2 PUSH1 0x3 SWAP1 DUP2 PUSH2 0x7B SWAP2 SWAP1 PUSH2 0x1A4 JUMP JUMPDEST POP PUSH1 0x4 PUSH2 0x88 DUP3 DUP3 PUSH2 0x1A4 JUMP JUMPDEST POP POP PUSH1 0x5 DUP1 SLOAD PUSH1 0x1 PUSH1 0x1 PUSH1 0xA0 SHL SUB SWAP5 DUP6 AND PUSH1 0x1 PUSH1 0x1 PUSH1 0xA0 SHL SUB NOT SWAP2 DUP3 AND OR SWAP1 SWAP2 SSTORE PUSH1 0x6 DUP1 SLOAD SWAP4 SWAP1 SWAP5 AND SWAP3 AND SWAP2 SWAP1 SWAP2 OR SWAP1 SWAP2 SSTORE POP PUSH2 0x25E JUMP JUMPDEST DUP1 MLOAD PUSH1 0x1 PUSH1 0x1 PUSH1 0xA0 SHL SUB DUP2 AND DUP2 EQ PUSH2 0xD6 JUMPI PUSH0 PUSH0 REVERT JUMPDEST SWAP2 SWAP1 POP JUMP JUMPDEST PUSH0 PUSH0 PUSH1 0x40 DUP4 DUP6 SUB SLT ISZERO PUSH2 0xEC JUMPI PUSH0 PUSH0 REVERT JUMPDEST PUSH2 0xF5 DUP4 PUSH2 0xC0 JUMP JUMPDEST SWAP2 POP PUSH2 0x103 PUSH1 0x20 DUP5 ADD PUSH2 0xC0 JUMP JUMPDEST SWAP1 POP SWAP3 POP SWAP3 SWAP1 POP JUMP JUMPDEST PUSH4 0x4E487B71 PUSH1 0xE0 SHL PUSH0 MSTORE PUSH1 0x41 PUSH1 0x4 MSTORE PUSH1 0x24 PUSH0 REVERT JUMPDEST PUSH1 0x1 DUP2 DUP2 SHR SWAP1 DUP3 AND DUP1 PUSH2 0x134 JUMPI PUSH1 0x7F DUP3 AND SWAP2 POP JUMPDEST PUSH1 0x20 DUP3 LT DUP2 SUB PUSH2 0x152 JUMPI PUSH4 0x4E487B71 PUSH1 0xE0 SHL PUSH0 MSTORE PUSH1 0x22 PUSH1 0x4 MSTORE PUSH1 0x24 PUSH0 REVERT JUMPDEST POP SWAP2 SWAP1 POP JUMP JUMPDEST PUSH1 0x1F DUP3 GT ISZERO PUSH2 0x19F JUMPI DUP1 PUSH0 MSTORE PUSH1 0x20 PUSH0 KECCAK256 PUSH1 0x1F DUP5 ADD PUSH1 0x5 SHR DUP2 ADD PUSH1 0x20 DUP6 LT ISZERO PUSH2 0x17D JUMPI POP DUP1 JUMPDEST PUSH1 0x1F DUP5 ADD PUSH1 0x5 SHR DUP3 ADD SWAP2 POP JUMPDEST DUP2 DUP2 LT ISZERO PUSH2 0x19C JUMPI PUSH0 DUP2 SSTORE PUSH1 0x1 ADD PUSH2 0x189 JUMP JUMPDEST POP POP JUMPDEST POP POP POP JUMP JUMPDEST DUP2 MLOAD PUSH1 0x1 PUSH1 0x1 PUSH1 0x40 SHL SUB DUP2 GT ISZERO PUSH2 0x1BD JUMPI PUSH2 0x1BD PUSH2 0x10C JUMP JUMPDEST PUSH2 0x1D1 DUP2 PUSH2 0x1CB DUP5 SLOAD PUSH2 0x120 JUMP JUMPDEST DUP5 PUSH2 0x158 JUMP JUMPDEST PUSH1 0x20 PUSH1 0x1F DUP3 GT PUSH1 0x1 DUP2 EQ PUSH2 0x203 JUMPI PUSH0 DUP4 ISZERO PUSH2 0x1EC JUMPI POP DUP5 DUP3 ADD MLOAD JUMPDEST PUSH0 NOT PUSH1 0x3 DUP6 SWAP1 SHL SHR NOT AND PUSH1 0x1 DUP5 SWAP1 SHL OR DUP5 SSTORE PUSH2 0x19C JUMP JUMPDEST PUSH0 DUP5 DUP2 MSTORE PUSH1 0x20 DUP2 KECCAK256 PUSH1 0x1F NOT DUP6 AND SWAP2 JUMPDEST DUP3 DUP2 LT ISZERO PUSH2 0x232 JUMPI DUP8 DUP6 ADD MLOAD DUP3 SSTORE PUSH1 0x20 SWAP5 DUP6 ADD SWAP5 PUSH1 0x1 SWAP1 SWAP3 ADD SWAP2 ADD PUSH2 0x212 JUMP JUMPDEST POP DUP5 DUP3 LT ISZERO PUSH2 0x24F JUMPI DUP7 DUP5 ADD MLOAD PUSH0 NOT PUSH1 0x3 DUP8 SWAP1 SHL PUSH1 0xF8 AND SHR NOT AND DUP2 SSTORE JUMPDEST POP POP POP POP PUSH1 0x1 SWAP1 DUP2 SHL ADD SWAP1 SSTORE POP JUMP JUMPDEST PUSH2 0x1656 DUP1 PUSH2 0x26B PUSH0 CODECOPY PUSH0 RETURN INVALID PUSH1 0x80 PUSH1 0x40 MSTORE CALLVALUE DUP1 ISZERO PUSH2 0xF JUMPI PUSH0 PUSH0 REVERT JUMPDEST POP PUSH1 0x4 CALLDATASIZE LT PUSH2 0x106 JUMPI PUSH0 CALLDATALOAD PUSH1 0xE0 SHR DUP1 PUSH4 0x443CB4BC GT PUSH2 0x9E JUMPI DUP1 PUSH4 0x9C8F9F23 GT PUSH2 0x6E JUMPI DUP1 PUSH4 0x9C8F9F23 EQ PUSH2 0x22F JUMPI DUP1 PUSH4 0x9CD441DA EQ PUSH2 0x257 JUMPI DUP1 PUSH4 0xA9059CBB EQ PUSH2 0x26A JUMPI DUP1 PUSH4 0xD21220A7 EQ PUSH2 0x27D JUMPI DUP1 PUSH4 0xDD62ED3E EQ PUSH2 0x290 JUMPI PUSH0 PUSH0 REVERT JUMPDEST DUP1 PUSH4 0x443CB4BC EQ PUSH2 0x1ED JUMPI DUP1 PUSH4 0x5A76F25E EQ PUSH2 0x1F6 JUMPI DUP1 PUSH4 0x70A08231 EQ PUSH2 0x1FF JUMPI DUP1 PUSH4 0x95D89B41 EQ PUSH2 0x227 JUMPI PUSH0 PUSH0 REVERT JUMPDEST DUP1 PUSH4 0x18160DDD GT PUSH2 0xD9 JUMPI DUP1 PUSH4 0x18160DDD EQ PUSH2 0x193 JUMPI DUP1 PUSH4 0x23B872DD EQ PUSH2 0x19B JUMPI DUP1 PUSH4 0x313CE567 EQ PUSH2 0x1AE JUMPI DUP1 PUSH4 0x43264349 EQ PUSH2 0x1BD JUMPI PUSH0 PUSH0 REVERT JUMPDEST DUP1 PUSH4 0x54D50D4 EQ PUSH2 0x10A JUMPI DUP1 PUSH4 0x6FDDE03 EQ PUSH2 0x130 JUMPI DUP1 PUSH4 0x95EA7B3 EQ PUSH2 0x145 JUMPI DUP1 PUSH4 0xDFE1681 EQ PUSH2 0x168 JUMPI JUMPDEST PUSH0 PUSH0 REVERT JUMPDEST PUSH2 0x11D PUSH2 0x118 CALLDATASIZE PUSH1 0x4 PUSH2 0x1376 JUMP JUMPDEST PUSH2 0x2C8 JUMP JUMPDEST PUSH1 0x40 MLOAD SWAP1 DUP2 MSTORE PUSH1 0x20 ADD JUMPDEST PUSH1 0x40 MLOAD DUP1 SWAP2 SUB SWAP1 RETURN JUMPDEST PUSH2 0x138 PUSH2 0x38C JUMP JUMPDEST PUSH1 0x40 MLOAD PUSH2 0x127 SWAP2 SWAP1 PUSH2 0x139F JUMP JUMPDEST PUSH2 0x158 PUSH2 0x153 CALLDATASIZE PUSH1 0x4 PUSH2 0x13EB JUMP JUMPDEST PUSH2 0x41C JUMP JUMPDEST PUSH1 0x40 MLOAD SWAP1 ISZERO ISZERO DUP2 MSTORE PUSH1 0x20 ADD PUSH2 0x127 JUMP JUMPDEST PUSH1 0x5 SLOAD PUSH2 0x17B SWAP1 PUSH1 0x1 PUSH1 0x1 PUSH1 0xA0 SHL SUB AND DUP2 JUMP JUMPDEST PUSH1 0x40 MLOAD PUSH1 0x1 PUSH1 0x1 PUSH1 0xA0 SHL SUB SWAP1 SWAP2 AND DUP2 MSTORE PUSH1 0x20 ADD PUSH2 0x127 JUMP JUMPDEST PUSH1 0x2 SLOAD PUSH2 0x11D JUMP JUMPDEST PUSH2 0x158 PUSH2 0x1A9 CALLDATASIZE PUSH1 0x4 PUSH2 0x1415 JUMP JUMPDEST PUSH2 0x435 JUMP JUMPDEST PUSH1 0x40 MLOAD PUSH1 0x12 DUP2 MSTORE PUSH1 0x20 ADD PUSH2 0x127 JUMP JUMPDEST PUSH2 0x1D0 PUSH2 0x1CB CALLDATASIZE PUSH1 0x4 PUSH2 0x1453 JUMP JUMPDEST PUSH2 0x458 JUMP JUMPDEST PUSH1 0x40 DUP1 MLOAD SWAP3 DUP4 MSTORE PUSH1 0x1 PUSH1 0x1 PUSH1 0xA0 SHL SUB SWAP1 SWAP2 AND PUSH1 0x20 DUP4 ADD MSTORE ADD PUSH2 0x127 JUMP JUMPDEST PUSH2 0x11D PUSH1 0x7 SLOAD DUP2 JUMP JUMPDEST PUSH2 0x11D PUSH1 0x8 SLOAD DUP2 JUMP JUMPDEST PUSH2 0x11D PUSH2 0x20D CALLDATASIZE PUSH1 0x4 PUSH2 0x1477 JUMP JUMPDEST PUSH1 0x1 PUSH1 0x1 PUSH1 0xA0 SHL SUB AND PUSH0 SWAP1 DUP2 MSTORE PUSH1 0x20 DUP2 SWAP1 MSTORE PUSH1 0x40 SWAP1 KECCAK256 SLOAD SWAP1 JUMP JUMPDEST PUSH2 0x138 PUSH2 0x942 JUMP JUMPDEST PUSH2 0x242 PUSH2 0x23D CALLDATASIZE PUSH1 0x4 PUSH2 0x1492 JUMP JUMPDEST PUSH2 0x951 JUMP JUMPDEST PUSH1 0x40 DUP1 MLOAD SWAP3 DUP4 MSTORE PUSH1 0x20 DUP4 ADD SWAP2 SWAP1 SWAP2 MSTORE ADD PUSH2 0x127 JUMP JUMPDEST PUSH2 0x11D PUSH2 0x265 CALLDATASIZE PUSH1 0x4 PUSH2 0x14A9 JUMP JUMPDEST PUSH2 0xCD1 JUMP JUMPDEST PUSH2 0x158 PUSH2 0x278 CALLDATASIZE PUSH1 0x4 PUSH2 0x13EB JUMP JUMPDEST PUSH2 0xF96 JUMP JUMPDEST PUSH1 0x6 SLOAD PUSH2 0x17B SWAP1 PUSH1 0x1 PUSH1 0x1 PUSH1 0xA0 SHL SUB AND DUP2 JUMP JUMPDEST PUSH2 0x11D PUSH2 0x29E CALLDATASIZE PUSH1 0x4 PUSH2 0x14C9 JUMP JUMPDEST PUSH1 0x1 PUSH1 0x1 PUSH1 0xA0 SHL SUB SWAP2 DUP3 AND PUSH0 SWAP1 DUP2 MSTORE PUSH1 0x1 PUSH1 0x20 SWAP1 DUP2 MSTORE PUSH1 0x40 DUP1 DUP4 KECCAK256 SWAP4 SWAP1 SWAP5 AND DUP3 MSTORE SWAP2 SWAP1 SWAP2 MSTORE KECCAK256 SLOAD SWAP1 JUMP JUMPDEST PUSH0 PUSH0 DUP5 GT PUSH2 0x313 JUMPI PUSH1 0x40 MLOAD PUSH3 0x461BCD PUSH1 0xE5 SHL DUP2 MSTORE PUSH1 0x20 PUSH1 0x4 DUP3 ADD MSTORE PUSH1 0x13 PUSH1 0x24 DUP3 ADD MSTORE PUSH19 0x125394D551919250D251539517D05353D55395 PUSH1 0x6A SHL PUSH1 0x44 DUP3 ADD MSTORE PUSH1 0x64 ADD JUMPDEST PUSH1 0x40 MLOAD DUP1 SWAP2 SUB SWAP1 REVERT JUMPDEST PUSH0 DUP4 GT DUP1 ISZERO PUSH2 0x321 JUMPI POP PUSH0 DUP3 GT JUMPDEST PUSH2 0x366 JUMPI PUSH1 0x40 MLOAD PUSH3 0x461BCD PUSH1 0xE5 SHL DUP2 MSTORE PUSH1 0x20 PUSH1 0x4 DUP3 ADD MSTORE PUSH1 0x16 PUSH1 0x24 DUP3 ADD MSTORE PUSH22 0x494E53554646494349454E545F4C4951554944495459 PUSH1 0x50 SHL PUSH1 0x44 DUP3 ADD MSTORE PUSH1 0x64 ADD PUSH2 0x30A JUMP JUMPDEST PUSH2 0x370 DUP5 DUP5 PUSH2 0x1514 JUMP JUMPDEST PUSH2 0x37A DUP4 DUP7 PUSH2 0x1527 JUMP JUMPDEST PUSH2 0x384 SWAP2 SWAP1 PUSH2 0x153E JUMP JUMPDEST SWAP5 SWAP4 POP POP POP POP JUMP JUMPDEST PUSH1 0x60 PUSH1 0x3 DUP1 SLOAD PUSH2 0x39B SWAP1 PUSH2 0x155D JUMP JUMPDEST DUP1 PUSH1 0x1F ADD PUSH1 0x20 DUP1 SWAP2 DIV MUL PUSH1 0x20 ADD PUSH1 0x40 MLOAD SWAP1 DUP2 ADD PUSH1 0x40 MSTORE DUP1 SWAP3 SWAP2 SWAP1 DUP2 DUP2 MSTORE PUSH1 0x20 ADD DUP3 DUP1 SLOAD PUSH2 0x3C7 SWAP1 PUSH2 0x155D JUMP JUMPDEST DUP1 ISZERO PUSH2 0x412 JUMPI DUP1 PUSH1 0x1F LT PUSH2 0x3E9 JUMPI PUSH2 0x100 DUP1 DUP4 SLOAD DIV MUL DUP4 MSTORE SWAP2 PUSH1 0x20 ADD SWAP2 PUSH2 0x412 JUMP JUMPDEST DUP3 ADD SWAP2 SWAP1 PUSH0 MSTORE PUSH1 0x20 PUSH0 KECCAK256 SWAP1 JUMPDEST DUP2 SLOAD DUP2 MSTORE SWAP1 PUSH1 0x1 ADD SWAP1 PUSH1 0x20 ADD DUP1 DUP4 GT PUSH2 0x3F5 JUMPI DUP3 SWAP1 SUB PUSH1 0x1F AND DUP3 ADD SWAP2 JUMPDEST POP POP POP POP POP SWAP1 POP SWAP1 JUMP JUMPDEST PUSH0 CALLER PUSH2 0x429 DUP2 DUP6 DUP6 PUSH2 0xFA3 JUMP JUMPDEST PUSH1 0x1 SWAP2 POP POP JUMPDEST SWAP3 SWAP2 POP POP JUMP JUMPDEST PUSH0 CALLER PUSH2 0x442 DUP6 DUP3 DUP6 PUSH2 0xFB5 JUMP JUMPDEST PUSH2 0x44D DUP6 DUP6 DUP6 PUSH2 0x1030 JUMP JUMPDEST POP PUSH1 0x1 SWAP5 SWAP4 POP POP POP POP JUMP JUMPDEST PUSH0 PUSH0 PUSH0 DUP6 GT PUSH2 0x479 JUMPI PUSH1 0x40 MLOAD PUSH3 0x461BCD PUSH1 0xE5 SHL DUP2 MSTORE PUSH1 0x4 ADD PUSH2 0x30A SWAP1 PUSH2 0x158F JUMP JUMPDEST PUSH1 0x5 SLOAD PUSH1 0x1 PUSH1 0x1 PUSH1 0xA0 SHL SUB DUP6 DUP2 AND SWAP2 AND EQ DUP1 PUSH2 0x4A2 JUMPI POP PUSH1 0x6 SLOAD PUSH1 0x1 PUSH1 0x1 PUSH1 0xA0 SHL SUB DUP6 DUP2 AND SWAP2 AND EQ JUMPDEST PUSH2 0x4DE JUMPI PUSH1 0x40 MLOAD PUSH3 0x461BCD PUSH1 0xE5 SHL DUP2 MSTORE PUSH1 0x20 PUSH1 0x4 DUP3 ADD MSTORE PUSH1 0xD PUSH1 0x24 DUP3 ADD MSTORE PUSH13 0x24A72B20A624A22FAA27A5A2A7 PUSH1 0x99 SHL PUSH1 0x44 DUP3 ADD MSTORE PUSH1 0x64 ADD PUSH2 0x30A JUMP JUMPDEST PUSH1 0x5 SLOAD PUSH1 0x40 MLOAD PUSH4 0x70A08231 PUSH1 0xE0 SHL DUP2 MSTORE ADDRESS PUSH1 0x4 DUP3 ADD MSTORE PUSH0 SWAP2 PUSH1 0x1 PUSH1 0x1 PUSH1 0xA0 SHL SUB AND SWAP1 PUSH4 0x70A08231 SWAP1 PUSH1 0x24 ADD PUSH1 0x20 PUSH1 0x40 MLOAD DUP1 DUP4 SUB DUP2 DUP7 GAS STATICCALL ISZERO DUP1 ISZERO PUSH2 0x524 JUMPI RETURNDATASIZE PUSH0 PUSH0 RETURNDATACOPY RETURNDATASIZE PUSH0 REVERT JUMPDEST POP POP POP POP PUSH1 0x40 MLOAD RETURNDATASIZE PUSH1 0x1F NOT PUSH1 0x1F DUP3 ADD AND DUP3 ADD DUP1 PUSH1 0x40 MSTORE POP DUP2 ADD SWAP1 PUSH2 0x548 SWAP2 SWAP1 PUSH2 0x15C6 JUMP JUMPDEST PUSH1 0x6 SLOAD PUSH1 0x40 MLOAD PUSH4 0x70A08231 PUSH1 0xE0 SHL DUP2 MSTORE ADDRESS PUSH1 0x4 DUP3 ADD MSTORE SWAP2 SWAP3 POP PUSH0 SWAP2 PUSH1 0x1 PUSH1 0x1 PUSH1 0xA0 SHL SUB SWAP1 SWAP2 AND SWAP1 PUSH4 0x70A08231 SWAP1 PUSH1 0x24 ADD PUSH1 0x20 PUSH1 0x40 MLOAD DUP1 DUP4 SUB DUP2 DUP7 GAS STATICCALL ISZERO DUP1 ISZERO PUSH2 0x593 JUMPI RETURNDATASIZE PUSH0 PUSH0 RETURNDATACOPY RETURNDATASIZE PUSH0 REVERT JUMPDEST POP POP POP POP PUSH1 0x40 MLOAD RETURNDATASIZE PUSH1 0x1F NOT PUSH1 0x1F DUP3 ADD AND DUP3 ADD DUP1 PUSH1 0x40 MSTORE POP DUP2 ADD SWAP1 PUSH2 0x5B7 SWAP2 SWAP1 PUSH2 0x15C6 JUMP JUMPDEST PUSH1 0x5 SLOAD SWAP1 SWAP2 POP PUSH1 0x1 PUSH1 0x1 PUSH1 0xA0 SHL SUB SWAP1 DUP2 AND SWAP1 DUP8 AND SUB PUSH2 0x6EF JUMPI PUSH1 0x6 SLOAD PUSH1 0x1 PUSH1 0x1 PUSH1 0xA0 SHL SUB AND SWAP3 POP PUSH2 0x5E9 DUP8 DUP4 DUP4 PUSH2 0x2C8 JUMP JUMPDEST SWAP4 POP DUP5 DUP5 GT PUSH2 0x60A JUMPI PUSH1 0x40 MLOAD PUSH3 0x461BCD PUSH1 0xE5 SHL DUP2 MSTORE PUSH1 0x4 ADD PUSH2 0x30A SWAP1 PUSH2 0x158F JUMP JUMPDEST PUSH1 0x40 MLOAD PUSH4 0x23B872DD PUSH1 0xE0 SHL DUP2 MSTORE PUSH1 0x1 PUSH1 0x1 PUSH1 0xA0 SHL SUB DUP8 AND SWAP1 PUSH4 0x23B872DD SWAP1 PUSH2 0x63A SWAP1 CALLER SWAP1 ADDRESS SWAP1 DUP13 SWAP1 PUSH1 0x4 ADD PUSH2 0x15DD JUMP JUMPDEST PUSH1 0x20 PUSH1 0x40 MLOAD DUP1 DUP4 SUB DUP2 PUSH0 DUP8 GAS CALL ISZERO DUP1 ISZERO PUSH2 0x656 JUMPI RETURNDATASIZE PUSH0 PUSH0 RETURNDATACOPY RETURNDATASIZE PUSH0 REVERT JUMPDEST POP POP POP POP PUSH1 0x40 MLOAD RETURNDATASIZE PUSH1 0x1F NOT PUSH1 0x1F DUP3 ADD AND DUP3 ADD DUP1 PUSH1 0x40 MSTORE POP DUP2 ADD SWAP1 PUSH2 0x67A SWAP2 SWAP1 PUSH2 0x1601 JUMP JUMPDEST POP PUSH1 0x40 MLOAD PUSH4 0xA9059CBB PUSH1 0xE0 SHL DUP2 MSTORE CALLER PUSH1 0x4 DUP3 ADD MSTORE PUSH1 0x24 DUP2 ADD DUP6 SWAP1 MSTORE PUSH1 0x1 PUSH1 0x1 PUSH1 0xA0 SHL SUB DUP5 AND SWAP1 PUSH4 0xA9059CBB SWAP1 PUSH1 0x44 ADD PUSH1 0x20 PUSH1 0x40 MLOAD DUP1 DUP4 SUB DUP2 PUSH0 DUP8 GAS CALL ISZERO DUP1 ISZERO PUSH2 0x6C5 JUMPI RETURNDATASIZE PUSH0 PUSH0 RETURNDATACOPY RETURNDATASIZE PUSH0 REVERT JUMPDEST POP POP POP POP PUSH1 0x40 MLOAD RETURNDATASIZE PUSH1 0x1F NOT PUSH1 0x1F DUP3 ADD AND DUP3 ADD DUP1 PUSH1 0x40 MSTORE POP DUP2 ADD SWAP1 PUSH2 0x6E9 SWAP2 SWAP1 PUSH2 0x1601 JUMP JUMPDEST POP PUSH2 0x80A JUMP JUMPDEST PUSH1 0x5 SLOAD PUSH1 0x1 PUSH1 0x1 PUSH1 0xA0 SHL SUB AND SWAP3 POP PUSH2 0x708 DUP8 DUP3 DUP5 PUSH2 0x2C8 JUMP JUMPDEST SWAP4 POP DUP5 DUP5 GT PUSH2 0x729 JUMPI PUSH1 0x40 MLOAD PUSH3 0x461BCD PUSH1 0xE5 SHL DUP2 MSTORE PUSH1 0x4 ADD PUSH2 0x30A SWAP1 PUSH2 0x158F JUMP JUMPDEST PUSH1 0x40 MLOAD PUSH4 0x23B872DD PUSH1 0xE0 SHL DUP2 MSTORE PUSH1 0x1 PUSH1 0x1 PUSH1 0xA0 SHL SUB DUP8 AND SWAP1 PUSH4 0x23B872DD SWAP1 PUSH2 0x759 SWAP1 CALLER SWAP1 ADDRESS SWAP1 DUP13 SWAP1 PUSH1 0x4 ADD PUSH2 0x15DD JUMP JUMPDEST PUSH1 0x20 PUSH1 0x40 MLOAD DUP1 DUP4 SUB DUP2 PUSH0 DUP8 GAS CALL ISZERO DUP1 ISZERO PUSH2 0x775 JUMPI RETURNDATASIZE PUSH0 PUSH0 RETURNDATACOPY RETURNDATASIZE PUSH0 REVERT JUMPDEST POP POP POP POP PUSH1 0x40 MLOAD RETURNDATASIZE PUSH1 0x1F NOT PUSH1 0x1F DUP3 ADD AND DUP3 ADD DUP1 PUSH1 0x40 MSTORE POP DUP2 ADD SWAP1 PUSH2 0x799 SWAP2 SWAP1 PUSH2 0x1601 JUMP JUMPDEST POP PUSH1 0x40 MLOAD PUSH4 0xA9059CBB PUSH1 0xE0 SHL DUP2 MSTORE CALLER PUSH1 0x4 DUP3 ADD MSTORE PUSH1 0x24 DUP2 ADD DUP6 SWAP1 MSTORE PUSH1 0x1 PUSH1 0x1 PUSH1 0xA0 SHL SUB DUP5 AND SWAP1 PUSH4 0xA9059CBB SWAP1 PUSH1 0x44 ADD PUSH1 0x20 PUSH1 0x40 MLOAD DUP1 DUP4 SUB DUP2 PUSH0 DUP8 GAS CALL ISZERO DUP1 ISZERO PUSH2 0x7E4 JUMPI RETURNDATASIZE PUSH0 PUSH0 RETURNDATACOPY RETURNDATASIZE PUSH0 REVERT JUMPDEST POP POP POP POP PUSH1 0x40 MLOAD RETURNDATASIZE PUSH1 0x1F NOT PUSH1 0x1F DUP3 ADD AND DUP3 ADD DUP1 PUSH1 0x40 MSTORE POP DUP2 ADD SWAP1 PUSH2 0x808 SWAP2 SWAP1 PUSH2 0x1601 JUMP JUMPDEST POP JUMPDEST PUSH1 0x5 SLOAD PUSH1 0x40 MLOAD PUSH4 0x70A08231 PUSH1 0xE0 SHL DUP2 MSTORE ADDRESS PUSH1 0x4 DUP3 ADD MSTORE PUSH1 0x1 PUSH1 0x1 PUSH1 0xA0 SHL SUB SWAP1 SWAP2 AND SWAP1 PUSH4 0x70A08231 SWAP1 PUSH1 0x24 ADD PUSH1 0x20 PUSH1 0x40 MLOAD DUP1 DUP4 SUB DUP2 DUP7 GAS STATICCALL ISZERO DUP1 ISZERO PUSH2 0x850 JUMPI RETURNDATASIZE PUSH0 PUSH0 RETURNDATACOPY RETURNDATASIZE PUSH0 REVERT JUMPDEST POP POP POP POP PUSH1 0x40 MLOAD RETURNDATASIZE PUSH1 0x1F NOT PUSH1 0x1F DUP3 ADD AND DUP3 ADD DUP1 PUSH1 0x40 MSTORE POP DUP2 ADD SWAP1 PUSH2 0x874 SWAP2 SWAP1 PUSH2 0x15C6 JUMP JUMPDEST PUSH1 0x7 SSTORE PUSH1 0x6 SLOAD PUSH1 0x40 MLOAD PUSH4 0x70A08231 PUSH1 0xE0 SHL DUP2 MSTORE ADDRESS PUSH1 0x4 DUP3 ADD MSTORE PUSH1 0x1 PUSH1 0x1 PUSH1 0xA0 SHL SUB SWAP1 SWAP2 AND SWAP1 PUSH4 0x70A08231 SWAP1 PUSH1 0x24 ADD PUSH1 0x20 PUSH1 0x40 MLOAD DUP1 DUP4 SUB DUP2 DUP7 GAS STATICCALL ISZERO DUP1 ISZERO PUSH2 0x8BD JUMPI RETURNDATASIZE PUSH0 PUSH0 RETURNDATACOPY RETURNDATASIZE PUSH0 REVERT JUMPDEST POP POP POP POP PUSH1 0x40 MLOAD RETURNDATASIZE PUSH1 0x1F NOT PUSH1 0x1F DUP3 ADD AND DUP3 ADD DUP1 PUSH1 0x40 MSTORE POP DUP2 ADD SWAP1 PUSH2 0x8E1 SWAP2 SWAP1 PUSH2 0x15C6 JUMP JUMPDEST PUSH1 0x8 SSTORE PUSH1 0x40 DUP1 MLOAD DUP9 DUP2 MSTORE PUSH1 0x1 PUSH1 0x1 PUSH1 0xA0 SHL SUB DUP1 DUP10 AND PUSH1 0x20 DUP4 ADD MSTORE SWAP2 DUP2 ADD DUP7 SWAP1 MSTORE SWAP1 DUP5 AND PUSH1 0x60 DUP3 ADD MSTORE CALLER SWAP1 PUSH32 0x24043855BFBFEA0CCEA141E5A73D7116BF0BFE083EA900A791F4B407FF03E525 SWAP1 PUSH1 0x80 ADD PUSH1 0x40 MLOAD DUP1 SWAP2 SUB SWAP1 LOG2 POP POP SWAP4 POP SWAP4 SWAP2 POP POP JUMP JUMPDEST PUSH1 0x60 PUSH1 0x4 DUP1 SLOAD PUSH2 0x39B SWAP1 PUSH2 0x155D JUMP JUMPDEST PUSH1 0x5 SLOAD PUSH1 0x40 MLOAD PUSH4 0x70A08231 PUSH1 0xE0 SHL DUP2 MSTORE ADDRESS PUSH1 0x4 DUP3 ADD MSTORE PUSH0 SWAP2 DUP3 SWAP2 DUP3 SWAP2 PUSH1 0x1 PUSH1 0x1 PUSH1 0xA0 SHL SUB AND SWAP1 PUSH4 0x70A08231 SWAP1 PUSH1 0x24 ADD PUSH1 0x20 PUSH1 0x40 MLOAD DUP1 DUP4 SUB DUP2 DUP7 GAS STATICCALL ISZERO DUP1 ISZERO PUSH2 0x99B JUMPI RETURNDATASIZE PUSH0 PUSH0 RETURNDATACOPY RETURNDATASIZE PUSH0 REVERT JUMPDEST POP POP POP POP PUSH1 0x40 MLOAD RETURNDATASIZE PUSH1 0x1F NOT PUSH1 0x1F DUP3 ADD AND DUP3 ADD DUP1 PUSH1 0x40 MSTORE POP DUP2 ADD SWAP1 PUSH2 0x9BF SWAP2 SWAP1 PUSH2 0x15C6 JUMP JUMPDEST PUSH1 0x6 SLOAD PUSH1 0x40 MLOAD PUSH4 0x70A08231 PUSH1 0xE0 SHL DUP2 MSTORE ADDRESS PUSH1 0x4 DUP3 ADD MSTORE SWAP2 SWAP3 POP PUSH0 SWAP2 PUSH1 0x1 PUSH1 0x1 PUSH1 0xA0 SHL SUB SWAP1 SWAP2 AND SWAP1 PUSH4 0x70A08231 SWAP1 PUSH1 0x24 ADD PUSH1 0x20 PUSH1 0x40 MLOAD DUP1 DUP4 SUB DUP2 DUP7 GAS STATICCALL ISZERO DUP1 ISZERO PUSH2 0xA0A JUMPI RETURNDATASIZE PUSH0 PUSH0 RETURNDATACOPY RETURNDATASIZE PUSH0 REVERT JUMPDEST POP POP POP POP PUSH1 0x40 MLOAD RETURNDATASIZE PUSH1 0x1F NOT PUSH1 0x1F DUP3 ADD AND DUP3 ADD DUP1 PUSH1 0x40 MSTORE POP DUP2 ADD SWAP1 PUSH2 0xA2E SWAP2 SWAP1 PUSH2 0x15C6 JUMP JUMPDEST SWAP1 POP PUSH0 PUSH2 0xA3A PUSH1 0x2 SLOAD SWAP1 JUMP JUMPDEST SWAP1 POP DUP1 PUSH2 0xA47 DUP5 DUP9 PUSH2 0x1527 JUMP JUMPDEST PUSH2 0xA51 SWAP2 SWAP1 PUSH2 0x153E JUMP JUMPDEST SWAP5 POP DUP1 PUSH2 0xA5E DUP4 DUP9 PUSH2 0x1527 JUMP JUMPDEST PUSH2 0xA68 SWAP2 SWAP1 PUSH2 0x153E JUMP JUMPDEST SWAP4 POP PUSH0 DUP6 GT DUP1 ISZERO PUSH2 0xA78 JUMPI POP PUSH0 DUP5 GT JUMPDEST PUSH2 0xAC4 JUMPI PUSH1 0x40 MLOAD PUSH3 0x461BCD PUSH1 0xE5 SHL DUP2 MSTORE PUSH1 0x20 PUSH1 0x4 DUP3 ADD MSTORE PUSH1 0x1D PUSH1 0x24 DUP3 ADD MSTORE PUSH32 0x494E53554646494349454E545F4C49515549444954595F4255524E4544000000 PUSH1 0x44 DUP3 ADD MSTORE PUSH1 0x64 ADD PUSH2 0x30A JUMP JUMPDEST PUSH2 0xACE CALLER DUP8 PUSH2 0x108D JUMP JUMPDEST PUSH1 0x5 SLOAD PUSH1 0x40 MLOAD PUSH4 0xA9059CBB PUSH1 0xE0 SHL DUP2 MSTORE CALLER PUSH1 0x4 DUP3 ADD MSTORE PUSH1 0x24 DUP2 ADD DUP8 SWAP1 MSTORE PUSH1 0x1 PUSH1 0x1 PUSH1 0xA0 SHL SUB SWAP1 SWAP2 AND SWAP1 PUSH4 0xA9059CBB SWAP1 PUSH1 0x44 ADD PUSH1 0x20 PUSH1 0x40 MLOAD DUP1 DUP4 SUB DUP2 PUSH0 DUP8 GAS CALL ISZERO DUP1 ISZERO PUSH2 0xB1C JUMPI RETURNDATASIZE PUSH0 PUSH0 RETURNDATACOPY RETURNDATASIZE PUSH0 REVERT JUMPDEST POP POP POP POP PUSH1 0x40 MLOAD RETURNDATASIZE PUSH1 0x1F NOT PUSH1 0x1F DUP3 ADD AND DUP3 ADD DUP1 PUSH1 0x40 MSTORE POP DUP2 ADD SWAP1 PUSH2 0xB40 SWAP2 SWAP1 PUSH2 0x1601 JUMP JUMPDEST POP PUSH1 0x6 SLOAD PUSH1 0x40 MLOAD PUSH4 0xA9059CBB PUSH1 0xE0 SHL DUP2 MSTORE CALLER PUSH1 0x4 DUP3 ADD MSTORE PUSH1 0x24 DUP2 ADD DUP7 SWAP1 MSTORE PUSH1 0x1 PUSH1 0x1 PUSH1 0xA0 SHL SUB SWAP1 SWAP2 AND SWAP1 PUSH4 0xA9059CBB SWAP1 PUSH1 0x44 ADD PUSH1 0x20 PUSH1 0x40 MLOAD DUP1 DUP4 SUB DUP2 PUSH0 DUP8 GAS CALL ISZERO DUP1 ISZERO PUSH2 0xB8F JUMPI RETURNDATASIZE PUSH0 PUSH0 RETURNDATACOPY RETURNDATASIZE PUSH0 REVERT JUMPDEST POP POP POP POP PUSH1 0x40 MLOAD RETURNDATASIZE PUSH1 0x1F NOT PUSH1 0x1F DUP3 ADD AND DUP3 ADD DUP1 PUSH1 0x40 MSTORE POP DUP2 ADD SWAP1 PUSH2 0xBB3 SWAP2 SWAP1 PUSH2 0x1601 JUMP JUMPDEST POP PUSH1 0x5 SLOAD PUSH1 0x40 MLOAD PUSH4 0x70A08231 PUSH1 0xE0 SHL DUP2 MSTORE ADDRESS PUSH1 0x4 DUP3 ADD MSTORE PUSH1 0x1 PUSH1 0x1 PUSH1 0xA0 SHL SUB SWAP1 SWAP2 AND SWAP1 PUSH4 0x70A08231 SWAP1 PUSH1 0x24 ADD PUSH1 0x20 PUSH1 0x40 MLOAD DUP1 DUP4 SUB DUP2 DUP7 GAS STATICCALL ISZERO DUP1 ISZERO PUSH2 0xBFA JUMPI RETURNDATASIZE PUSH0 PUSH0 RETURNDATACOPY RETURNDATASIZE PUSH0 REVERT JUMPDEST POP POP POP POP PUSH1 0x40 MLOAD RETURNDATASIZE PUSH1 0x1F NOT PUSH1 0x1F DUP3 ADD AND DUP3 ADD DUP1 PUSH1 0x40 MSTORE POP DUP2 ADD SWAP1 PUSH2 0xC1E SWAP2 SWAP1 PUSH2 0x15C6 JUMP JUMPDEST PUSH1 0x7 SSTORE PUSH1 0x6 SLOAD PUSH1 0x40 MLOAD PUSH4 0x70A08231 PUSH1 0xE0 SHL DUP2 MSTORE ADDRESS PUSH1 0x4 DUP3 ADD MSTORE PUSH1 0x1 PUSH1 0x1 PUSH1 0xA0 SHL SUB SWAP1 SWAP2 AND SWAP1 PUSH4 0x70A08231 SWAP1 PUSH1 0x24 ADD PUSH1 0x20 PUSH1 0x40 MLOAD DUP1 DUP4 SUB DUP2 DUP7 GAS STATICCALL ISZERO DUP1 ISZERO PUSH2 0xC67 JUMPI RETURNDATASIZE PUSH0 PUSH0 RETURNDATACOPY RETURNDATASIZE PUSH0 REVERT JUMPDEST POP POP POP POP PUSH1 0x40 MLOAD RETURNDATASIZE PUSH1 0x1F NOT PUSH1 0x1F DUP3 ADD AND DUP3 ADD DUP1 PUSH1 0x40 MSTORE POP DUP2 ADD SWAP1 PUSH2 0xC8B SWAP2 SWAP1 PUSH2 0x15C6 JUMP JUMPDEST PUSH1 0x8 SSTORE PUSH1 0x40 DUP1 MLOAD DUP7 DUP2 MSTORE PUSH1 0x20 DUP2 ADD DUP7 SWAP1 MSTORE CALLER SWAP2 PUSH32 0x49995E5DD6158CF69AD3E9777C46755A1A826A446C6416992167462DAD033B2A SWAP2 ADD PUSH1 0x40 MLOAD DUP1 SWAP2 SUB SWAP1 LOG2 POP POP POP SWAP2 POP SWAP2 JUMP JUMPDEST PUSH1 0x5 SLOAD PUSH1 0x40 MLOAD PUSH4 0x23B872DD PUSH1 0xE0 SHL DUP2 MSTORE PUSH0 SWAP2 PUSH1 0x1 PUSH1 0x1 PUSH1 0xA0 SHL SUB AND SWAP1 PUSH4 0x23B872DD SWAP1 PUSH2 0xD05 SWAP1 CALLER SWAP1 ADDRESS SWAP1 DUP9 SWAP1 PUSH1 0x4 ADD PUSH2 0x15DD JUMP JUMPDEST PUSH1 0x20 PUSH1 0x40 MLOAD DUP1 DUP4 SUB DUP2 PUSH0 DUP8 GAS CALL ISZERO DUP1 ISZERO PUSH2 0xD21 JUMPI RETURNDATASIZE PUSH0 PUSH0 RETURNDATACOPY RETURNDATASIZE PUSH0 REVERT JUMPDEST POP POP POP POP PUSH1 0x40 MLOAD RETURNDATASIZE PUSH1 0x1F NOT PUSH1 0x1F DUP3 ADD AND DUP3 ADD DUP1 PUSH1 0x40 MSTORE POP DUP2 ADD SWAP1 PUSH2 0xD45 SWAP2 SWAP1 PUSH2 0x1601 JUMP JUMPDEST POP PUSH1 0x6 SLOAD PUSH1 0x40 MLOAD PUSH4 0x23B872DD PUSH1 0xE0 SHL DUP2 MSTORE PUSH1 0x1 PUSH1 0x1 PUSH1 0xA0 SHL SUB SWAP1 SWAP2 AND SWAP1 PUSH4 0x23B872DD SWAP1 PUSH2 0xD7A SWAP1 CALLER SWAP1 ADDRESS SWAP1 DUP8 SWAP1 PUSH1 0x4 ADD PUSH2 0x15DD JUMP JUMPDEST PUSH1 0x20 PUSH1 0x40 MLOAD DUP1 DUP4 SUB DUP2 PUSH0 DUP8 GAS CALL ISZERO DUP1 ISZERO PUSH2 0xD96 JUMPI RETURNDATASIZE PUSH0 PUSH0 RETURNDATACOPY RETURNDATASIZE PUSH0 REVERT JUMPDEST POP POP POP POP PUSH1 0x40 MLOAD RETURNDATASIZE PUSH1 0x1F NOT PUSH1 0x1F DUP3 ADD AND DUP3 ADD DUP1 PUSH1 0x40 MSTORE POP DUP2 ADD SWAP1 PUSH2 0xDBA SWAP2 SWAP1 PUSH2 0x1601 JUMP JUMPDEST POP PUSH0 PUSH2 0xDC5 PUSH1 0x2 SLOAD SWAP1 JUMP JUMPDEST SWAP1 POP DUP1 PUSH0 SUB PUSH2 0xDE7 JUMPI PUSH2 0xDE0 PUSH2 0xDDB DUP5 DUP7 PUSH2 0x1527 JUMP JUMPDEST PUSH2 0x10C5 JUMP JUMPDEST SWAP2 POP PUSH2 0xE21 JUMP JUMPDEST PUSH1 0x7 SLOAD PUSH2 0xE1E SWAP1 PUSH2 0xDF8 DUP4 DUP8 PUSH2 0x1527 JUMP JUMPDEST PUSH2 0xE02 SWAP2 SWAP1 PUSH2 0x153E JUMP JUMPDEST PUSH1 0x8 SLOAD PUSH2 0xE0F DUP5 DUP8 PUSH2 0x1527 JUMP JUMPDEST PUSH2 0xE19 SWAP2 SWAP1 PUSH2 0x153E JUMP JUMPDEST PUSH2 0x1133 JUMP JUMPDEST SWAP2 POP JUMPDEST PUSH0 DUP3 GT PUSH2 0xE70 JUMPI PUSH1 0x40 MLOAD PUSH3 0x461BCD PUSH1 0xE5 SHL DUP2 MSTORE PUSH1 0x20 PUSH1 0x4 DUP3 ADD MSTORE PUSH1 0x1D PUSH1 0x24 DUP3 ADD MSTORE PUSH32 0x494E53554646494349454E545F4C49515549444954595F4D494E544544000000 PUSH1 0x44 DUP3 ADD MSTORE PUSH1 0x64 ADD PUSH2 0x30A JUMP JUMPDEST PUSH1 0x5 SLOAD PUSH1 0x40 MLOAD PUSH4 0x70A08231 PUSH1 0xE0 SHL DUP2 MSTORE ADDRESS PUSH1 0x4 DUP3 ADD MSTORE PUSH1 0x1 PUSH1 0x1 PUSH1 0xA0 SHL SUB SWAP1 SWAP2 AND SWAP1 PUSH4 0x70A08231 SWAP1 PUSH1 0x24 ADD PUSH1 0x20 PUSH1 0x40 MLOAD DUP1 DUP4 SUB DUP2 DUP7 GAS STATICCALL ISZERO DUP1 ISZERO PUSH2 0xEB6 JUMPI RETURNDATASIZE PUSH0 PUSH0 RETURNDATACOPY RETURNDATASIZE PUSH0 REVERT JUMPDEST POP POP POP POP PUSH1 0x40 MLOAD RETURNDATASIZE PUSH1 0x1F NOT PUSH1 0x1F DUP3 ADD AND DUP3 ADD DUP1 PUSH1 0x40 MSTORE POP DUP2 ADD SWAP1 PUSH2 0xEDA SWAP2 SWAP1 PUSH2 0x15C6 JUMP JUMPDEST PUSH1 0x7 SSTORE PUSH1 0x6 SLOAD PUSH1 0x40 MLOAD PUSH4 0x70A08231 PUSH1 0xE0 SHL DUP2 MSTORE ADDRESS PUSH1 0x4 DUP3 ADD MSTORE PUSH1 0x1 PUSH1 0x1 PUSH1 0xA0 SHL SUB SWAP1 SWAP2 AND SWAP1 PUSH4 0x70A08231 SWAP1 PUSH1 0x24 ADD PUSH1 0x20 PUSH1 0x40 MLOAD DUP1 DUP4 SUB DUP2 DUP7 GAS STATICCALL ISZERO DUP1 ISZERO PUSH2 0xF23 JUMPI RETURNDATASIZE PUSH0 PUSH0 RETURNDATACOPY RETURNDATASIZE PUSH0 REVERT JUMPDEST POP POP POP POP PUSH1 0x40 MLOAD RETURNDATASIZE PUSH1 0x1F NOT PUSH1 0x1F DUP3 ADD AND DUP3 ADD DUP1 PUSH1 0x40 MSTORE POP DUP2 ADD SWAP1 PUSH2 0xF47 SWAP2 SWAP1 PUSH2 0x15C6 JUMP JUMPDEST PUSH1 0x8 SSTORE PUSH2 0xF54 CALLER DUP4 PUSH2 0x114A JUMP JUMPDEST PUSH1 0x40 DUP1 MLOAD DUP6 DUP2 MSTORE PUSH1 0x20 DUP2 ADD DUP6 SWAP1 MSTORE CALLER SWAP2 PUSH32 0x4C209B5FC8AD50758F13E2E1088BA56A560DFF690A1C6FEF26394F4C03821C4F SWAP2 ADD PUSH1 0x40 MLOAD DUP1 SWAP2 SUB SWAP1 LOG2 POP SWAP3 SWAP2 POP POP JUMP JUMPDEST PUSH0 CALLER PUSH2 0x429 DUP2 DUP6 DUP6 PUSH2 0x1030 JUMP JUMPDEST PUSH2 0xFB0 DUP4 DUP4 DUP4 PUSH1 0x1 PUSH2 0x117E JUMP JUMPDEST POP POP POP JUMP JUMPDEST PUSH1 0x1 PUSH1 0x1 PUSH1 0xA0 SHL SUB DUP4 DUP2 AND PUSH0 SWAP1 DUP2 MSTORE PUSH1 0x1 PUSH1 0x20 SWAP1 DUP2 MSTORE PUSH1 0x40 DUP1 DUP4 KECCAK256 SWAP4 DUP7 AND DUP4 MSTORE SWAP3 SWAP1 MSTORE KECCAK256 SLOAD PUSH0 NOT DUP2 EQ PUSH2 0x102A JUMPI DUP2 DUP2 LT ISZERO PUSH2 0x101C JUMPI PUSH1 0x40 MLOAD PUSH4 0x7DC7A0D9 PUSH1 0xE1 SHL DUP2 MSTORE PUSH1 0x1 PUSH1 0x1 PUSH1 0xA0 SHL SUB DUP5 AND PUSH1 0x4 DUP3 ADD MSTORE PUSH1 0x24 DUP2 ADD DUP3 SWAP1 MSTORE PUSH1 0x44 DUP2 ADD DUP4 SWAP1 MSTORE PUSH1 0x64 ADD PUSH2 0x30A JUMP JUMPDEST PUSH2 0x102A DUP5 DUP5 DUP5 DUP5 SUB PUSH0 PUSH2 0x117E JUMP JUMPDEST POP POP POP POP JUMP JUMPDEST PUSH1 0x1 PUSH1 0x1 PUSH1 0xA0 SHL SUB DUP4 AND PUSH2 0x1059 JUMPI PUSH1 0x40 MLOAD PUSH4 0x4B637E8F PUSH1 0xE1 SHL DUP2 MSTORE PUSH0 PUSH1 0x4 DUP3 ADD MSTORE PUSH1 0x24 ADD PUSH2 0x30A JUMP JUMPDEST PUSH1 0x1 PUSH1 0x1 PUSH1 0xA0 SHL SUB DUP3 AND PUSH2 0x1082 JUMPI PUSH1 0x40 MLOAD PUSH4 0xEC442F05 PUSH1 0xE0 SHL DUP2 MSTORE PUSH0 PUSH1 0x4 DUP3 ADD MSTORE PUSH1 0x24 ADD PUSH2 0x30A JUMP JUMPDEST PUSH2 0xFB0 DUP4 DUP4 DUP4 PUSH2 0x1250 JUMP JUMPDEST PUSH1 0x1 PUSH1 0x1 PUSH1 0xA0 SHL SUB DUP3 AND PUSH2 0x10B6 JUMPI PUSH1 0x40 MLOAD PUSH4 0x4B637E8F PUSH1 0xE1 SHL DUP2 MSTORE PUSH0 PUSH1 0x4 DUP3 ADD MSTORE PUSH1 0x24 ADD PUSH2 0x30A JUMP JUMPDEST PUSH2 0x10C1 DUP3 PUSH0 DUP4 PUSH2 0x1250 JUMP JUMPDEST POP POP JUMP JUMPDEST PUSH0 PUSH1 0x3 DUP3 GT ISZERO PUSH2 0x1124 JUMPI POP DUP1 PUSH0 PUSH2 0x10DD PUSH1 0x2 DUP4 PUSH2 0x153E JUMP JUMPDEST PUSH2 0x10E8 SWAP1 PUSH1 0x1 PUSH2 0x1514 JUMP JUMPDEST SWAP1 POP JUMPDEST DUP2 DUP2 LT ISZERO PUSH2 0x111E JUMPI SWAP1 POP DUP1 PUSH1 0x2 DUP2 PUSH2 0x1103 DUP2 DUP7 PUSH2 0x153E JUMP JUMPDEST PUSH2 0x110D SWAP2 SWAP1 PUSH2 0x1514 JUMP JUMPDEST PUSH2 0x1117 SWAP2 SWAP1 PUSH2 0x153E JUMP JUMPDEST SWAP1 POP PUSH2 0x10EB JUMP JUMPDEST POP SWAP2 SWAP1 POP JUMP JUMPDEST DUP2 ISZERO PUSH2 0x112E JUMPI POP PUSH1 0x1 JUMPDEST SWAP2 SWAP1 POP JUMP JUMPDEST PUSH0 DUP2 DUP4 LT PUSH2 0x1141 JUMPI DUP2 PUSH2 0x1143 JUMP JUMPDEST DUP3 JUMPDEST SWAP4 SWAP3 POP POP POP JUMP JUMPDEST PUSH1 0x1 PUSH1 0x1 PUSH1 0xA0 SHL SUB DUP3 AND PUSH2 0x1173 JUMPI PUSH1 0x40 MLOAD PUSH4 0xEC442F05 PUSH1 0xE0 SHL DUP2 MSTORE PUSH0 PUSH1 0x4 DUP3 ADD MSTORE PUSH1 0x24 ADD PUSH2 0x30A JUMP JUMPDEST PUSH2 0x10C1 PUSH0 DUP4 DUP4 PUSH2 0x1250 JUMP JUMPDEST PUSH1 0x1 PUSH1 0x1 PUSH1 0xA0 SHL SUB DUP5 AND PUSH2 0x11A7 JUMPI PUSH1 0x40 MLOAD PUSH4 0xE602DF05 PUSH1 0xE0 SHL DUP2 MSTORE PUSH0 PUSH1 0x4 DUP3 ADD MSTORE PUSH1 0x24 ADD PUSH2 0x30A JUMP JUMPDEST PUSH1 0x1 PUSH1 0x1 PUSH1 0xA0 SHL SUB DUP4 AND PUSH2 0x11D0 JUMPI PUSH1 0x40 MLOAD PUSH4 0x4A1406B1 PUSH1 0xE1 SHL DUP2 MSTORE PUSH0 PUSH1 0x4 DUP3 ADD MSTORE PUSH1 0x24 ADD PUSH2 0x30A JUMP JUMPDEST PUSH1 0x1 PUSH1 0x1 PUSH1 0xA0 SHL SUB DUP1 DUP6 AND PUSH0 SWAP1 DUP2 MSTORE PUSH1 0x1 PUSH1 0x20 SWAP1 DUP2 MSTORE PUSH1 0x40 DUP1 DUP4 KECCAK256 SWAP4 DUP8 AND DUP4 MSTORE SWAP3 SWAP1 MSTORE KECCAK256 DUP3 SWAP1 SSTORE DUP1 ISZERO PUSH2 0x102A JUMPI DUP3 PUSH1 0x1 PUSH1 0x1 PUSH1 0xA0 SHL SUB AND DUP5 PUSH1 0x1 PUSH1 0x1 PUSH1 0xA0 SHL SUB AND PUSH32 0x8C5BE1E5EBEC7D5BD14F71427D1E84F3DD0314C0F7B2291E5B200AC8C7C3B925 DUP5 PUSH1 0x40 MLOAD PUSH2 0x1242 SWAP2 DUP2 MSTORE PUSH1 0x20 ADD SWAP1 JUMP JUMPDEST PUSH1 0x40 MLOAD DUP1 SWAP2 SUB SWAP1 LOG3 POP POP POP POP JUMP JUMPDEST PUSH1 0x1 PUSH1 0x1 PUSH1 0xA0 SHL SUB DUP4 AND PUSH2 0x127A JUMPI DUP1 PUSH1 0x2 PUSH0 DUP3 DUP3 SLOAD PUSH2 0x126F SWAP2 SWAP1 PUSH2 0x1514 JUMP JUMPDEST SWAP1 SWAP2 SSTORE POP PUSH2 0x12EA SWAP1 POP JUMP JUMPDEST PUSH1 0x1 PUSH1 0x1 PUSH1 0xA0 SHL SUB DUP4 AND PUSH0 SWAP1 DUP2 MSTORE PUSH1 0x20 DUP2 SWAP1 MSTORE PUSH1 0x40 SWAP1 KECCAK256 SLOAD DUP2 DUP2 LT ISZERO PUSH2 0x12CC JUMPI PUSH1 0x40 MLOAD PUSH4 0x391434E3 PUSH1 0xE2 SHL DUP2 MSTORE PUSH1 0x1 PUSH1 0x1 PUSH1 0xA0 SHL SUB DUP6 AND PUSH1 0x4 DUP3 ADD MSTORE PUSH1 0x24 DUP2 ADD DUP3 SWAP1 MSTORE PUSH1 0x44 DUP2 ADD DUP4 SWAP1 MSTORE PUSH1 0x64 ADD PUSH2 0x30A JUMP JUMPDEST PUSH1 0x1 PUSH1 0x1 PUSH1 0xA0 SHL SUB DUP5 AND PUSH0 SWAP1 DUP2 MSTORE PUSH1 0x20 DUP2 SWAP1 MSTORE PUSH1 0x40 SWAP1 KECCAK256 SWAP1 DUP3 SWAP1 SUB SWAP1 SSTORE JUMPDEST PUSH1 0x1 PUSH1 0x1 PUSH1 0xA0 SHL SUB DUP3 AND PUSH2 0x1306 JUMPI PUSH1 0x2 DUP1 SLOAD DUP3 SWAP1 SUB SWAP1 SSTORE PUSH2 0x1324 JUMP JUMPDEST PUSH1 0x1 PUSH1 0x1 PUSH1 0xA0 SHL SUB DUP3 AND PUSH0 SWAP1 DUP2 MSTORE PUSH1 0x20 DUP2 SWAP1 MSTORE PUSH1 0x40 SWAP1 KECCAK256 DUP1 SLOAD DUP3 ADD SWAP1 SSTORE JUMPDEST DUP2 PUSH1 0x1 PUSH1 0x1 PUSH1 0xA0 SHL SUB AND DUP4 PUSH1 0x1 PUSH1 0x1 PUSH1 0xA0 SHL SUB AND PUSH32 0xDDF252AD1BE2C89B69C2B068FC378DAA952BA7F163C4A11628F55A4DF523B3EF DUP4 PUSH1 0x40 MLOAD PUSH2 0x1369 SWAP2 DUP2 MSTORE PUSH1 0x20 ADD SWAP1 JUMP JUMPDEST PUSH1 0x40 MLOAD DUP1 SWAP2 SUB SWAP1 LOG3 POP POP POP JUMP JUMPDEST PUSH0 PUSH0 PUSH0 PUSH1 0x60 DUP5 DUP7 SUB SLT ISZERO PUSH2 0x1388 JUMPI PUSH0 PUSH0 REVERT JUMPDEST POP POP DUP2 CALLDATALOAD SWAP4 PUSH1 0x20 DUP4 ADD CALLDATALOAD SWAP4 POP PUSH1 0x40 SWAP1 SWAP3 ADD CALLDATALOAD SWAP2 SWAP1 POP JUMP JUMPDEST PUSH1 0x20 DUP2 MSTORE PUSH0 DUP3 MLOAD DUP1 PUSH1 0x20 DUP5 ADD MSTORE DUP1 PUSH1 0x20 DUP6 ADD PUSH1 0x40 DUP6 ADD MCOPY PUSH0 PUSH1 0x40 DUP3 DUP6 ADD ADD MSTORE PUSH1 0x40 PUSH1 0x1F NOT PUSH1 0x1F DUP4 ADD AND DUP5 ADD ADD SWAP2 POP POP SWAP3 SWAP2 POP POP JUMP JUMPDEST PUSH1 0x1 PUSH1 0x1 PUSH1 0xA0 SHL SUB DUP2 AND DUP2 EQ PUSH2 0x13E8 JUMPI PUSH0 PUSH0 REVERT JUMPDEST POP JUMP JUMPDEST PUSH0 PUSH0 PUSH1 0x40 DUP4 DUP6 SUB SLT ISZERO PUSH2 0x13FC JUMPI PUSH0 PUSH0 REVERT JUMPDEST DUP3 CALLDATALOAD PUSH2 0x1407 DUP2 PUSH2 0x13D4 JUMP JUMPDEST SWAP5 PUSH1 0x20 SWAP4 SWAP1 SWAP4 ADD CALLDATALOAD SWAP4 POP POP POP JUMP JUMPDEST PUSH0 PUSH0 PUSH0 PUSH1 0x60 DUP5 DUP7 SUB SLT ISZERO PUSH2 0x1427 JUMPI PUSH0 PUSH0 REVERT JUMPDEST DUP4 CALLDATALOAD PUSH2 0x1432 DUP2 PUSH2 0x13D4 JUMP JUMPDEST SWAP3 POP PUSH1 0x20 DUP5 ADD CALLDATALOAD PUSH2 0x1442 DUP2 PUSH2 0x13D4 JUMP JUMPDEST SWAP3 SWAP6 SWAP3 SWAP5 POP POP POP PUSH1 0x40 SWAP2 SWAP1 SWAP2 ADD CALLDATALOAD SWAP1 JUMP JUMPDEST PUSH0 PUSH0 PUSH0 PUSH1 0x60 DUP5 DUP7 SUB SLT ISZERO PUSH2 0x1465 JUMPI PUSH0 PUSH0 REVERT JUMPDEST DUP4 CALLDATALOAD SWAP3 POP PUSH1 0x20 DUP5 ADD CALLDATALOAD PUSH2 0x1442 DUP2 PUSH2 0x13D4 JUMP JUMPDEST PUSH0 PUSH1 0x20 DUP3 DUP5 SUB SLT ISZERO PUSH2 0x1487 JUMPI PUSH0 PUSH0 REVERT JUMPDEST DUP2 CALLDATALOAD PUSH2 0x1143 DUP2 PUSH2 0x13D4 JUMP JUMPDEST PUSH0 PUSH1 0x20 DUP3 DUP5 SUB SLT ISZERO PUSH2 0x14A2 JUMPI PUSH0 PUSH0 REVERT JUMPDEST POP CALLDATALOAD SWAP2 SWAP1 POP JUMP JUMPDEST PUSH0 PUSH0 PUSH1 0x40 DUP4 DUP6 SUB SLT ISZERO PUSH2 0x14BA JUMPI PUSH0 PUSH0 REVERT JUMPDEST POP POP DUP1 CALLDATALOAD SWAP3 PUSH1 0x20 SWAP1 SWAP2 ADD CALLDATALOAD SWAP2 POP JUMP JUMPDEST PUSH0 PUSH0 PUSH1 0x40 DUP4 DUP6 SUB SLT ISZERO PUSH2 0x14DA JUMPI PUSH0 PUSH0 REVERT JUMPDEST DUP3 CALLDATALOAD PUSH2 0x14E5 DUP2 PUSH2 0x13D4 JUMP JUMPDEST SWAP2 POP PUSH1 0x20 DUP4 ADD CALLDATALOAD PUSH2 0x14F5 DUP2 PUSH2 0x13D4 JUMP JUMPDEST DUP1 SWAP2 POP POP SWAP3 POP SWAP3 SWAP1 POP JUMP JUMPDEST PUSH4 0x4E487B71 PUSH1 0xE0 SHL PUSH0 MSTORE PUSH1 0x11 PUSH1 0x4 MSTORE PUSH1 0x24 PUSH0 REVERT JUMPDEST DUP1 DUP3 ADD DUP1 DUP3 GT ISZERO PUSH2 0x42F JUMPI PUSH2 0x42F PUSH2 0x1500 JUMP JUMPDEST DUP1 DUP3 MUL DUP2 ISZERO DUP3 DUP3 DIV DUP5 EQ OR PUSH2 0x42F JUMPI PUSH2 0x42F PUSH2 0x1500 JUMP JUMPDEST PUSH0 DUP3 PUSH2 0x1558 JUMPI PUSH4 0x4E487B71 PUSH1 0xE0 SHL PUSH0 MSTORE PUSH1 0x12 PUSH1 0x4 MSTORE PUSH1 0x24 PUSH0 REVERT JUMPDEST POP DIV SWAP1 JUMP JUMPDEST PUSH1 0x1 DUP2 DUP2 SHR SWAP1 DUP3 AND DUP1 PUSH2 0x1571 JUMPI PUSH1 0x7F DUP3 AND SWAP2 POP JUMPDEST PUSH1 0x20 DUP3 LT DUP2 SUB PUSH2 0x111E JUMPI PUSH4 0x4E487B71 PUSH1 0xE0 SHL PUSH0 MSTORE PUSH1 0x22 PUSH1 0x4 MSTORE PUSH1 0x24 PUSH0 REVERT JUMPDEST PUSH1 0x20 DUP1 DUP3 MSTORE PUSH1 0x1A SWAP1 DUP3 ADD MSTORE PUSH32 0x494E53554646494349454E545F4F55545055545F414D4F554E54000000000000 PUSH1 0x40 DUP3 ADD MSTORE PUSH1 0x60 ADD SWAP1 JUMP JUMPDEST PUSH0 PUSH1 0x20 DUP3 DUP5 SUB SLT ISZERO PUSH2 0x15D6 JUMPI PUSH0 PUSH0 REVERT JUMPDEST POP MLOAD SWAP2 SWAP1 POP JUMP JUMPDEST PUSH1 0x1 PUSH1 0x1 PUSH1 0xA0 SHL SUB SWAP4 DUP5 AND DUP2 MSTORE SWAP2 SWAP1 SWAP3 AND PUSH1 0x20 DUP3 ADD MSTORE PUSH1 0x40 DUP2 ADD SWAP2 SWAP1 SWAP2 MSTORE PUSH1 0x60 ADD SWAP1 JUMP JUMPDEST PUSH0 PUSH1 0x20 DUP3 DUP5 SUB SLT ISZERO PUSH2 0x1611 JUMPI PUSH0 PUSH0 REVERT JUMPDEST DUP2 MLOAD DUP1 ISZERO ISZERO DUP2 EQ PUSH2 0x1143 JUMPI PUSH0 PUSH0 REVERT INVALID LOG2 PUSH5 0x6970667358 0x22 SLT KECCAK256 PUSH19 0xC8CA44DA9B9415EAAC567CA24E1061546AFEF9 CALLDATALOAD 0xC7 0xB4 0x24 0xD1 SWAP7 0xEA 0xF8 0xBD 0xC0 0xAD LOG4 PUSH5 0x736F6C6343 STOP ADDMOD SHL STOP CALLER "
				},
				"gasEstimates": {
					"creation": {
						"codeDepositCost": "1143600",
						"executionCost": "infinite",
						"totalCost": "infinite"
					},
					"external": {
						"addLiquidity(uint256,uint256)": "infinite",
						"allowance(address,address)": "infinite",
						"approve(address,uint256)": "24773",
						"balanceOf(address)": "2587",
						"decimals()": "243",
						"getAmountOut(uint256,uint256,uint256)": "infinite",
						"name()": "infinite",
						"removeLiquidity(uint256)": "infinite",
						"reserve0()": "2306",
						"reserve1()": "2328",
						"swap(uint256,address,uint256)": "infinite",
						"symbol()": "infinite",
						"token0()": "2426",
						"token1()": "2424",
						"totalSupply()": "2303",
						"transfer(address,uint256)": "51275",
						"transferFrom(address,address,uint256)": "infinite"
					},
					"internal": {
						"min(uint256,uint256)": "60",
						"sqrt(uint256)": "infinite"
					}
				},
				"methodIdentifiers": {
					"addLiquidity(uint256,uint256)": "9cd441da",
					"allowance(address,address)": "dd62ed3e",
					"approve(address,uint256)": "095ea7b3",
					"balanceOf(address)": "70a08231",
					"decimals()": "313ce567",
					"getAmountOut(uint256,uint256,uint256)": "054d50d4",
					"name()": "06fdde03",
					"removeLiquidity(uint256)": "9c8f9f23",
					"reserve0()": "443cb4bc",
					"reserve1()": "5a76f25e",
					"swap(uint256,address,uint256)": "43264349",
					"symbol()": "95d89b41",
					"token0()": "0dfe1681",
					"token1()": "d21220a7",
					"totalSupply()": "18160ddd",
					"transfer(address,uint256)": "a9059cbb",
					"transferFrom(address,address,uint256)": "23b872dd"
				}
			},
			"storageLayout": {
				"storage": [
					{
						"astId": 159,
						"contract": "TinTinCourse/AMM/amm.sol:AMM",
						"label": "_balances",
						"offset": 0,
						"slot": "0",
						"type": "t_mapping(t_address,t_uint256)"
					},
					{
						"astId": 165,
						"contract": "TinTinCourse/AMM/amm.sol:AMM",
						"label": "_allowances",
						"offset": 0,
						"slot": "1",
						"type": "t_mapping(t_address,t_mapping(t_address,t_uint256))"
					},
					{
						"astId": 167,
						"contract": "TinTinCourse/AMM/amm.sol:AMM",
						"label": "_totalSupply",
						"offset": 0,
						"slot": "2",
						"type": "t_uint256"
					},
					{
						"astId": 169,
						"contract": "TinTinCourse/AMM/amm.sol:AMM",
						"label": "_name",
						"offset": 0,
						"slot": "3",
						"type": "t_string_storage"
					},
					{
						"astId": 171,
						"contract": "TinTinCourse/AMM/amm.sol:AMM",
						"label": "_symbol",
						"offset": 0,
						"slot": "4",
						"type": "t_string_storage"
					},
					{
						"astId": 793,
						"contract": "TinTinCourse/AMM/amm.sol:AMM",
						"label": "token0",
						"offset": 0,
						"slot": "5",
						"type": "t_contract(IERC20)729"
					},
					{
						"astId": 796,
						"contract": "TinTinCourse/AMM/amm.sol:AMM",
						"label": "token1",
						"offset": 0,
						"slot": "6",
						"type": "t_contract(IERC20)729"
					},
					{
						"astId": 798,
						"contract": "TinTinCourse/AMM/amm.sol:AMM",
						"label": "reserve0",
						"offset": 0,
						"slot": "7",
						"type": "t_uint256"
					},
					{
						"astId": 800,
						"contract": "TinTinCourse/AMM/amm.sol:AMM",
						"label": "reserve1",
						"offset": 0,
						"slot": "8",
						"type": "t_uint256"
					}
				],
				"types": {
					"t_address": {
						"encoding": "inplace",
						"label": "address",
						"numberOfBytes": "20"
					},
					"t_contract(IERC20)729": {
						"encoding": "inplace",
						"label": "contract IERC20",
						"numberOfBytes": "20"
					},
					"t_mapping(t_address,t_mapping(t_address,t_uint256))": {
						"encoding": "mapping",
						"key": "t_address",
						"label": "mapping(address => mapping(address => uint256))",
						"numberOfBytes": "32",
						"value": "t_mapping(t_address,t_uint256)"
					},
					"t_mapping(t_address,t_uint256)": {
						"encoding": "mapping",
						"key": "t_address",
						"label": "mapping(address => uint256)",
						"numberOfBytes": "32",
						"value": "t_uint256"
					},
					"t_string_storage": {
						"encoding": "bytes",
						"label": "string",
						"numberOfBytes": "32"
					},
					"t_uint256": {
						"encoding": "inplace",
						"label": "uint256",
						"numberOfBytes": "32"
					}
				}
			},
			"userdoc": {
				"kind": "user",
				"methods": {},
				"version": 1
			}
		}
	}
}