{
	"Ballot/Ballot_02.sol": {
		"Ballot": {
			"abi": [
				{
					"inputs": [
						{
							"internalType": "bytes32[]",
							"name": "proposalNames",
							"type": "bytes32[]"
						},
						{
							"internalType": "uint256",
							"name": "startTimeDelay",
							"type": "uint256"
						},
						{
							"internalType": "uint256",
							"name": "duration",
							"type": "uint256"
						}
					],
					"stateMutability": "nonpayable",
					"type": "constructor"
				},
				{
					"inputs": [],
					"name": "chairperson",
					"outputs": [
						{
							"internalType": "address",
							"name": "",
							"type": "address"
						}
					],
					"stateMutability": "view",
					"type": "function"
				},
				{
					"inputs": [
						{
							"internalType": "address",
							"name": "to",
							"type": "address"
						}
					],
					"name": "delegate",
					"outputs": [],
					"stateMutability": "nonpayable",
					"type": "function"
				},
				{
					"inputs": [
						{
							"internalType": "address",
							"name": "voter",
							"type": "address"
						}
					],
					"name": "giveRightToVote",
					"outputs": [],
					"stateMutability": "nonpayable",
					"type": "function"
				},
				{
					"inputs": [
						{
							"internalType": "uint256",
							"name": "",
							"type": "uint256"
						}
					],
					"name": "proposals",
					"outputs": [
						{
							"internalType": "bytes32",
							"name": "name",
							"type": "bytes32"
						},
						{
							"internalType": "uint256",
							"name": "voteCount",
							"type": "uint256"
						}
					],
					"stateMutability": "view",
					"type": "function"
				},
				{
					"inputs": [
						{
							"internalType": "address",
							"name": "voter",
							"type": "address"
						},
						{
							"internalType": "uint256",
							"name": "weight",
							"type": "uint256"
						}
					],
					"name": "setVoterWeight",
					"outputs": [],
					"stateMutability": "nonpayable",
					"type": "function"
				},
				{
					"inputs": [
						{
							"internalType": "uint256",
							"name": "proposal",
							"type": "uint256"
						}
					],
					"name": "vote",
					"outputs": [],
					"stateMutability": "nonpayable",
					"type": "function"
				},
				{
					"inputs": [
						{
							"internalType": "address",
							"name": "",
							"type": "address"
						}
					],
					"name": "voters",
					"outputs": [
						{
							"internalType": "uint256",
							"name": "weight",
							"type": "uint256"
						},
						{
							"internalType": "bool",
							"name": "voted",
							"type": "bool"
						},
						{
							"internalType": "address",
							"name": "delegate",
							"type": "address"
						},
						{
							"internalType": "uint256",
							"name": "vote",
							"type": "uint256"
						}
					],
					"stateMutability": "view",
					"type": "function"
				},
				{
					"inputs": [],
					"name": "weightSettingEndTime",
					"outputs": [
						{
							"internalType": "uint256",
							"name": "",
							"type": "uint256"
						}
					],
					"stateMutability": "view",
					"type": "function"
				},
				{
					"inputs": [],
					"name": "weightSettingStartTime",
					"outputs": [
						{
							"internalType": "uint256",
							"name": "",
							"type": "uint256"
						}
					],
					"stateMutability": "view",
					"type": "function"
				},
				{
					"inputs": [],
					"name": "winnerName",
					"outputs": [
						{
							"internalType": "bytes32",
							"name": "winnerName_",
							"type": "bytes32"
						}
					],
					"stateMutability": "view",
					"type": "function"
				},
				{
					"inputs": [],
					"name": "winningProposal",
					"outputs": [
						{
							"internalType": "uint256",
							"name": "winningProposal_",
							"type": "uint256"
						}
					],
					"stateMutability": "view",
					"type": "function"
				}
			],
			"devdoc": {
				"kind": "dev",
				"methods": {},
				"version": 1
			},
			"evm": {
				"assembly": "    /* \"Ballot/Ballot_02.sol\":561:4450  contract Ballot {... */\n  mstore(0x40, 0x80)\n    /* \"Ballot/Ballot_02.sol\":1064:1707  constructor(... */\n  callvalue\n  dup1\n  iszero\n  tag_1\n  jumpi\n  0x00\n  dup1\n  revert\ntag_1:\n  pop\n  mload(0x40)\n  sub(codesize, bytecodeSize)\n  dup1\n  bytecodeSize\n  dup4\n  codecopy\n  dup2\n  add\n  0x40\n  dup2\n  swap1\n  mstore\n  tag_2\n  swap2\n  tag_3\n  jump\t// in\ntag_2:\n    /* \"Ballot/Ballot_02.sol\":1195:1206  chairperson */\n  0x00\n    /* \"Ballot/Ballot_02.sol\":1195:1219  chairperson = msg.sender */\n  dup1\n  sload\n  not(sub(shl(0xa0, 0x01), 0x01))\n  and\n    /* \"Ballot/Ballot_02.sol\":1209:1219  msg.sender */\n  caller\n    /* \"Ballot/Ballot_02.sol\":1195:1219  chairperson = msg.sender */\n  swap1\n  dup2\n  or\n  dup3\n  sstore\n    /* \"Ballot/Ballot_02.sol\":1230:1249  voters[chairperson] */\n  dup2\n  mstore\n    /* \"Ballot/Ballot_02.sol\":1195:1219  chairperson = msg.sender */\n  0x01\n    /* \"Ballot/Ballot_02.sol\":1230:1249  voters[chairperson] */\n  0x20\n  dup2\n  swap1\n  mstore\n  0x40\n  dup3\n  keccak256\n    /* \"Ballot/Ballot_02.sol\":1230:1260  voters[chairperson].weight = 1 */\n  sstore\n    /* \"Ballot/Ballot_02.sol\":1306:1448  for (uint256 i = 0; i < proposalNames.length; i++) {... */\ntag_6:\n    /* \"Ballot/Ballot_02.sol\":1330:1343  proposalNames */\n  dup4\n    /* \"Ballot/Ballot_02.sol\":1330:1350  proposalNames.length */\n  mload\n    /* \"Ballot/Ballot_02.sol\":1326:1327  i */\n  dup2\n    /* \"Ballot/Ballot_02.sol\":1326:1350  i < proposalNames.length */\n  lt\n    /* \"Ballot/Ballot_02.sol\":1306:1448  for (uint256 i = 0; i < proposalNames.length; i++) {... */\n  iszero\n  tag_7\n  jumpi\n    /* \"Ballot/Ballot_02.sol\":1372:1381  proposals */\n  0x02\n    /* \"Ballot/Ballot_02.sol\":1387:1435  Proposal({name: proposalNames[i], voteCount: 0}) */\n  mload(0x40)\n  dup1\n  0x40\n  add\n  0x40\n  mstore\n  dup1\n    /* \"Ballot/Ballot_02.sol\":1403:1416  proposalNames */\n  dup7\n    /* \"Ballot/Ballot_02.sol\":1417:1418  i */\n  dup5\n    /* \"Ballot/Ballot_02.sol\":1403:1419  proposalNames[i] */\n  dup2\n  mload\n  dup2\n  lt\n  tag_10\n  jumpi\n  tag_10\n  tag_11\n  jump\t// in\ntag_10:\n  0x20\n  swap1\n  dup2\n  mul\n  swap2\n  swap1\n  swap2\n  add\n  dup2\n  add\n  mload\n    /* \"Ballot/Ballot_02.sol\":1387:1435  Proposal({name: proposalNames[i], voteCount: 0}) */\n  dup3\n  mstore\n    /* \"Ballot/Ballot_02.sol\":1432:1433  0 */\n  0x00\n    /* \"Ballot/Ballot_02.sol\":1387:1435  Proposal({name: proposalNames[i], voteCount: 0}) */\n  swap2\n  dup2\n  add\n  dup3\n  swap1\n  mstore\n    /* \"Ballot/Ballot_02.sol\":1372:1436  proposals.push(Proposal({name: proposalNames[i], voteCount: 0})) */\n  dup4\n  sload\n  0x01\n  dup2\n  dup2\n  add\n  dup7\n  sstore\n  swap5\n  dup4\n  mstore\n  swap2\n  dup2\n  swap1\n  keccak256\n  dup4\n  mload\n  0x02\n  swap1\n  swap4\n  mul\n  add\n  swap2\n  dup3\n  sstore\n  swap2\n  swap1\n  swap2\n  add\n  mload\n  swap1\n  dup3\n  add\n  sstore\n    /* \"Ballot/Ballot_02.sol\":1352:1355  i++ */\n  add\n    /* \"Ballot/Ballot_02.sol\":1306:1448  for (uint256 i = 0; i < proposalNames.length; i++) {... */\n  jump(tag_6)\ntag_7:\n  pop\n    /* \"Ballot/Ballot_02.sol\":1539:1571  block.timestamp + startTimeDelay */\n  tag_13\n    /* \"Ballot/Ballot_02.sol\":1557:1571  startTimeDelay */\n  dup3\n    /* \"Ballot/Ballot_02.sol\":1539:1554  block.timestamp */\n  timestamp\n    /* \"Ballot/Ballot_02.sol\":1539:1571  block.timestamp + startTimeDelay */\n  tag_14\n  jump\t// in\ntag_13:\n    /* \"Ballot/Ballot_02.sol\":1514:1536  weightSettingStartTime */\n  0x03\n    /* \"Ballot/Ballot_02.sol\":1514:1571  weightSettingStartTime = block.timestamp + startTimeDelay */\n  sstore\n    /* \"Ballot/Ballot_02.sol\":1636:1662  block.timestamp + duration */\n  tag_15\n    /* \"Ballot/Ballot_02.sol\":1654:1662  duration */\n  dup2\n    /* \"Ballot/Ballot_02.sol\":1636:1651  block.timestamp */\n  timestamp\n    /* \"Ballot/Ballot_02.sol\":1636:1662  block.timestamp + duration */\n  tag_14\n  jump\t// in\ntag_15:\n    /* \"Ballot/Ballot_02.sol\":1613:1633  weightSettingEndTime */\n  0x04\n    /* \"Ballot/Ballot_02.sol\":1613:1662  weightSettingEndTime = block.timestamp + duration */\n  sstore\n  pop\n    /* \"Ballot/Ballot_02.sol\":561:4450  contract Ballot {... */\n  tag_18\n  swap2\n  pop\n  pop\n  jump\n    /* \"#utility.yul\":14:141   */\ntag_17:\n    /* \"#utility.yul\":75:85   */\n  0x4e487b71\n    /* \"#utility.yul\":70:73   */\n  0xe0\n    /* \"#utility.yul\":66:86   */\n  shl\n    /* \"#utility.yul\":63:64   */\n  0x00\n    /* \"#utility.yul\":56:87   */\n  mstore\n    /* \"#utility.yul\":106:110   */\n  0x41\n    /* \"#utility.yul\":103:104   */\n  0x04\n    /* \"#utility.yul\":96:111   */\n  mstore\n    /* \"#utility.yul\":130:134   */\n  0x24\n    /* \"#utility.yul\":127:128   */\n  0x00\n    /* \"#utility.yul\":120:135   */\n  revert\n    /* \"#utility.yul\":146:1375   */\ntag_3:\n    /* \"#utility.yul\":259:265   */\n  0x00\n    /* \"#utility.yul\":267:273   */\n  dup1\n    /* \"#utility.yul\":275:281   */\n  0x00\n    /* \"#utility.yul\":328:330   */\n  0x60\n    /* \"#utility.yul\":316:325   */\n  dup5\n    /* \"#utility.yul\":307:314   */\n  dup7\n    /* \"#utility.yul\":303:326   */\n  sub\n    /* \"#utility.yul\":299:331   */\n  slt\n    /* \"#utility.yul\":296:348   */\n  iszero\n  tag_21\n  jumpi\n    /* \"#utility.yul\":344:345   */\n  0x00\n    /* \"#utility.yul\":341:342   */\n  dup1\n    /* \"#utility.yul\":334:346   */\n  revert\n    /* \"#utility.yul\":296:348   */\ntag_21:\n    /* \"#utility.yul\":371:387   */\n  dup4\n  mload\n  sub(shl(0x40, 0x01), 0x01)\n    /* \"#utility.yul\":436:450   */\n  dup1\n  dup3\n  gt\n    /* \"#utility.yul\":433:467   */\n  iszero\n  tag_22\n  jumpi\n    /* \"#utility.yul\":463:464   */\n  0x00\n    /* \"#utility.yul\":460:461   */\n  dup1\n    /* \"#utility.yul\":453:465   */\n  revert\n    /* \"#utility.yul\":433:467   */\ntag_22:\n    /* \"#utility.yul\":501:507   */\n  dup2\n    /* \"#utility.yul\":490:499   */\n  dup7\n    /* \"#utility.yul\":486:508   */\n  add\n    /* \"#utility.yul\":476:508   */\n  swap2\n  pop\n    /* \"#utility.yul\":546:553   */\n  dup7\n    /* \"#utility.yul\":539:543   */\n  0x1f\n    /* \"#utility.yul\":535:537   */\n  dup4\n    /* \"#utility.yul\":531:544   */\n  add\n    /* \"#utility.yul\":527:554   */\n  slt\n    /* \"#utility.yul\":517:572   */\n  tag_23\n  jumpi\n    /* \"#utility.yul\":568:569   */\n  0x00\n    /* \"#utility.yul\":565:566   */\n  dup1\n    /* \"#utility.yul\":558:570   */\n  revert\n    /* \"#utility.yul\":517:572   */\ntag_23:\n    /* \"#utility.yul\":597:599   */\n  dup2\n    /* \"#utility.yul\":591:600   */\n  mload\n    /* \"#utility.yul\":619:623   */\n  0x20\n    /* \"#utility.yul\":642:644   */\n  dup3\n    /* \"#utility.yul\":638:640   */\n  dup3\n    /* \"#utility.yul\":635:645   */\n  gt\n    /* \"#utility.yul\":632:668   */\n  iszero\n  tag_25\n  jumpi\n    /* \"#utility.yul\":648:666   */\n  tag_25\n  tag_17\n  jump\t// in\ntag_25:\n    /* \"#utility.yul\":694:696   */\n  dup2\n    /* \"#utility.yul\":691:692   */\n  0x05\n    /* \"#utility.yul\":687:697   */\n  shl\n    /* \"#utility.yul\":726:728   */\n  0x40\n    /* \"#utility.yul\":720:729   */\n  mload\n    /* \"#utility.yul\":789:791   */\n  0x1f\n    /* \"#utility.yul\":785:792   */\n  not\n    /* \"#utility.yul\":780:782   */\n  0x3f\n    /* \"#utility.yul\":776:778   */\n  dup4\n    /* \"#utility.yul\":772:783   */\n  add\n    /* \"#utility.yul\":768:793   */\n  and\n    /* \"#utility.yul\":760:766   */\n  dup2\n    /* \"#utility.yul\":756:794   */\n  add\n    /* \"#utility.yul\":844:850   */\n  dup2\n    /* \"#utility.yul\":832:842   */\n  dup2\n    /* \"#utility.yul\":829:851   */\n  lt\n    /* \"#utility.yul\":824:826   */\n  dup7\n    /* \"#utility.yul\":812:822   */\n  dup3\n    /* \"#utility.yul\":809:827   */\n  gt\n    /* \"#utility.yul\":806:852   */\n  or\n    /* \"#utility.yul\":803:875   */\n  iszero\n  tag_27\n  jumpi\n    /* \"#utility.yul\":855:873   */\n  tag_27\n  tag_17\n  jump\t// in\ntag_27:\n    /* \"#utility.yul\":891:893   */\n  0x40\n    /* \"#utility.yul\":884:906   */\n  mstore\n    /* \"#utility.yul\":941:959   */\n  swap3\n  dup4\n  mstore\n    /* \"#utility.yul\":975:990   */\n  dup2\n  dup4\n  add\n  swap4\n  pop\n    /* \"#utility.yul\":1017:1028   */\n  dup5\n  dup2\n  add\n    /* \"#utility.yul\":1013:1033   */\n  dup3\n  add\n  swap3\n    /* \"#utility.yul\":1045:1064   */\n  dup11\n  dup5\n  gt\n    /* \"#utility.yul\":1042:1081   */\n  iszero\n  tag_28\n  jumpi\n    /* \"#utility.yul\":1077:1078   */\n  0x00\n    /* \"#utility.yul\":1074:1075   */\n  dup1\n    /* \"#utility.yul\":1067:1079   */\n  revert\n    /* \"#utility.yul\":1042:1081   */\ntag_28:\n    /* \"#utility.yul\":1101:1112   */\n  swap5\n  dup3\n  add\n  swap5\n    /* \"#utility.yul\":1121:1256   */\ntag_29:\n    /* \"#utility.yul\":1137:1143   */\n  dup4\n    /* \"#utility.yul\":1132:1135   */\n  dup7\n    /* \"#utility.yul\":1129:1144   */\n  lt\n    /* \"#utility.yul\":1121:1256   */\n  iszero\n  tag_31\n  jumpi\n    /* \"#utility.yul\":1203:1213   */\n  dup6\n  mload\n    /* \"#utility.yul\":1191:1214   */\n  dup6\n  mstore\n    /* \"#utility.yul\":1154:1166   */\n  swap5\n  dup3\n  add\n  swap5\n    /* \"#utility.yul\":1234:1246   */\n  swap4\n  dup3\n  add\n  swap4\n    /* \"#utility.yul\":1121:1256   */\n  jump(tag_29)\ntag_31:\n    /* \"#utility.yul\":1306:1324   */\n  swap2\n  dup10\n  add\n    /* \"#utility.yul\":1300:1325   */\n  mload\n    /* \"#utility.yul\":1365:1367   */\n  0x40\n    /* \"#utility.yul\":1350:1368   */\n  swap1\n  swap10\n  add\n    /* \"#utility.yul\":1344:1369   */\n  mload\n    /* \"#utility.yul\":1275:1281   */\n  swap2\n  swap11\n    /* \"#utility.yul\":1300:1325   */\n  swap9\n  swap10\n  pop\n    /* \"#utility.yul\":1344:1369   */\n  swap1\n  swap8\n    /* \"#utility.yul\":146:1375   */\n  swap7\n  pop\n  pop\n  pop\n  pop\n  pop\n  pop\n  pop\n  jump\t// out\n    /* \"#utility.yul\":1380:1507   */\ntag_11:\n    /* \"#utility.yul\":1441:1451   */\n  0x4e487b71\n    /* \"#utility.yul\":1436:1439   */\n  0xe0\n    /* \"#utility.yul\":1432:1452   */\n  shl\n    /* \"#utility.yul\":1429:1430   */\n  0x00\n    /* \"#utility.yul\":1422:1453   */\n  mstore\n    /* \"#utility.yul\":1472:1476   */\n  0x32\n    /* \"#utility.yul\":1469:1470   */\n  0x04\n    /* \"#utility.yul\":1462:1477   */\n  mstore\n    /* \"#utility.yul\":1496:1500   */\n  0x24\n    /* \"#utility.yul\":1493:1494   */\n  0x00\n    /* \"#utility.yul\":1486:1501   */\n  revert\n    /* \"#utility.yul\":1512:1734   */\ntag_14:\n    /* \"#utility.yul\":1577:1586   */\n  dup1\n  dup3\n  add\n    /* \"#utility.yul\":1598:1608   */\n  dup1\n  dup3\n  gt\n    /* \"#utility.yul\":1595:1728   */\n  iszero\n  tag_34\n  jumpi\n    /* \"#utility.yul\":1650:1660   */\n  0x4e487b71\n    /* \"#utility.yul\":1645:1648   */\n  0xe0\n    /* \"#utility.yul\":1641:1661   */\n  shl\n    /* \"#utility.yul\":1638:1639   */\n  0x00\n    /* \"#utility.yul\":1631:1662   */\n  mstore\n    /* \"#utility.yul\":1685:1689   */\n  0x11\n    /* \"#utility.yul\":1682:1683   */\n  0x04\n    /* \"#utility.yul\":1675:1690   */\n  mstore\n    /* \"#utility.yul\":1713:1717   */\n  0x24\n    /* \"#utility.yul\":1710:1711   */\n  0x00\n    /* \"#utility.yul\":1703:1718   */\n  revert\n    /* \"#utility.yul\":1595:1728   */\ntag_34:\n    /* \"#utility.yul\":1512:1734   */\n  swap3\n  swap2\n  pop\n  pop\n  jump\t// out\ntag_18:\n    /* \"Ballot/Ballot_02.sol\":561:4450  contract Ballot {... */\n  dataSize(sub_0)\n  dup1\n  dataOffset(sub_0)\n  0x00\n  codecopy\n  0x00\n  return\nstop\n\nsub_0: assembly {\n        /* \"Ballot/Ballot_02.sol\":561:4450  contract Ballot {... */\n      mstore(0x40, 0x80)\n      callvalue\n      dup1\n      iszero\n      tag_1\n      jumpi\n      0x00\n      dup1\n      revert\n    tag_1:\n      pop\n      jumpi(tag_2, lt(calldatasize, 0x04))\n      shr(0xe0, calldataload(0x00))\n      dup1\n      0x9e7b8d61\n      gt\n      tag_14\n      jumpi\n      dup1\n      0x9e7b8d61\n      eq\n      tag_8\n      jumpi\n      dup1\n      0xa3ec138d\n      eq\n      tag_9\n      jumpi\n      dup1\n      0xda7bc0ec\n      eq\n      tag_10\n      jumpi\n      dup1\n      0xe2ba53f0\n      eq\n      tag_11\n      jumpi\n      dup1\n      0xe7052895\n      eq\n      tag_12\n      jumpi\n      dup1\n      0xef5807e9\n      eq\n      tag_13\n      jumpi\n      0x00\n      dup1\n      revert\n    tag_14:\n      dup1\n      0x0121b93f\n      eq\n      tag_3\n      jumpi\n      dup1\n      0x013cf08b\n      eq\n      tag_4\n      jumpi\n      dup1\n      0x2e4176cf\n      eq\n      tag_5\n      jumpi\n      dup1\n      0x5c19a95c\n      eq\n      tag_6\n      jumpi\n      dup1\n      0x609ff1bd\n      eq\n      tag_7\n      jumpi\n    tag_2:\n      0x00\n      dup1\n      revert\n        /* \"Ballot/Ballot_02.sol\":3598:3933  function vote(uint256 proposal) external {... */\n    tag_3:\n      tag_15\n      tag_16\n      calldatasize\n      0x04\n      tag_17\n      jump\t// in\n    tag_16:\n      tag_18\n      jump\t// in\n    tag_15:\n      stop\n        /* \"Ballot/Ballot_02.sol\":871:898  Proposal[] public proposals */\n    tag_4:\n      tag_19\n      tag_20\n      calldatasize\n      0x04\n      tag_17\n      jump\t// in\n    tag_20:\n      tag_21\n      jump\t// in\n    tag_19:\n      0x40\n      dup1\n      mload\n        /* \"#utility.yul\":373:398   */\n      swap3\n      dup4\n      mstore\n        /* \"#utility.yul\":429:431   */\n      0x20\n        /* \"#utility.yul\":414:432   */\n      dup4\n      add\n        /* \"#utility.yul\":407:441   */\n      swap2\n      swap1\n      swap2\n      mstore\n        /* \"#utility.yul\":346:364   */\n      add\n        /* \"Ballot/Ballot_02.sol\":871:898  Proposal[] public proposals */\n    tag_22:\n      mload(0x40)\n      dup1\n      swap2\n      sub\n      swap1\n      return\n        /* \"Ballot/Ballot_02.sol\":792:818  address public chairperson */\n    tag_5:\n      sload(0x00)\n      tag_24\n      swap1\n      sub(shl(0xa0, 0x01), 0x01)\n      and\n      dup2\n      jump\n    tag_24:\n      mload(0x40)\n      sub(shl(0xa0, 0x01), 0x01)\n        /* \"#utility.yul\":616:648   */\n      swap1\n      swap2\n      and\n        /* \"#utility.yul\":598:649   */\n      dup2\n      mstore\n        /* \"#utility.yul\":586:588   */\n      0x20\n        /* \"#utility.yul\":571:589   */\n      add\n        /* \"Ballot/Ballot_02.sol\":792:818  address public chairperson */\n      tag_22\n        /* \"#utility.yul\":452:655   */\n      jump\n        /* \"Ballot/Ballot_02.sol\":2710:3590  function delegate(address to) external {... */\n    tag_6:\n      tag_15\n      tag_29\n      calldatasize\n      0x04\n      tag_30\n      jump\t// in\n    tag_29:\n      tag_31\n      jump\t// in\n        /* \"Ballot/Ballot_02.sol\":3941:4307  function winningProposal() public view returns (uint256 winningProposal_) {... */\n    tag_7:\n      tag_32\n      tag_33\n      jump\t// in\n    tag_32:\n      mload(0x40)\n        /* \"#utility.yul\":1175:1200   */\n      swap1\n      dup2\n      mstore\n        /* \"#utility.yul\":1163:1165   */\n      0x20\n        /* \"#utility.yul\":1148:1166   */\n      add\n        /* \"Ballot/Ballot_02.sol\":3941:4307  function winningProposal() public view returns (uint256 winningProposal_) {... */\n      tag_22\n        /* \"#utility.yul\":1029:1206   */\n      jump\n        /* \"Ballot/Ballot_02.sol\":1715:2125  function giveRightToVote(address voter) external {... */\n    tag_8:\n      tag_15\n      tag_37\n      calldatasize\n      0x04\n      tag_30\n      jump\t// in\n    tag_37:\n      tag_38\n      jump\t// in\n        /* \"Ballot/Ballot_02.sol\":825:864  mapping(address => Voter) public voters */\n    tag_9:\n      tag_39\n      tag_40\n      calldatasize\n      0x04\n      tag_30\n      jump\t// in\n    tag_40:\n      0x01\n      0x20\n      dup2\n      swap1\n      mstore\n      0x00\n      swap2\n      dup3\n      mstore\n      0x40\n      swap1\n      swap2\n      keccak256\n      dup1\n      sload\n      swap2\n      dup2\n      add\n      sload\n      0x02\n      swap1\n      swap2\n      add\n      sload\n      0xff\n      dup3\n      and\n      swap2\n      0x0100\n      swap1\n      div\n      sub(shl(0xa0, 0x01), 0x01)\n      and\n      swap1\n      dup5\n      jump\n    tag_39:\n      mload(0x40)\n      tag_22\n      swap5\n      swap4\n      swap3\n      swap2\n      swap1\n        /* \"#utility.yul\":1436:1461   */\n      swap4\n      dup5\n      mstore\n        /* \"#utility.yul\":1504:1518   */\n      swap2\n      iszero\n        /* \"#utility.yul\":1497:1519   */\n      iszero\n        /* \"#utility.yul\":1492:1494   */\n      0x20\n        /* \"#utility.yul\":1477:1495   */\n      dup5\n      add\n        /* \"#utility.yul\":1470:1520   */\n      mstore\n      sub(shl(0xa0, 0x01), 0x01)\n        /* \"#utility.yul\":1556:1588   */\n      and\n        /* \"#utility.yul\":1551:1553   */\n      0x40\n        /* \"#utility.yul\":1536:1554   */\n      dup4\n      add\n        /* \"#utility.yul\":1529:1589   */\n      mstore\n        /* \"#utility.yul\":1620:1622   */\n      0x60\n        /* \"#utility.yul\":1605:1623   */\n      dup3\n      add\n        /* \"#utility.yul\":1598:1632   */\n      mstore\n        /* \"#utility.yul\":1423:1426   */\n      0x80\n        /* \"#utility.yul\":1408:1427   */\n      add\n      swap1\n        /* \"#utility.yul\":1211:1638   */\n      jump\n        /* \"Ballot/Ballot_02.sol\":1020:1055  uint256 public weightSettingEndTime */\n    tag_10:\n      tag_32\n      sload(0x04)\n      dup2\n      jump\n        /* \"Ballot/Ballot_02.sol\":4315:4447  function winnerName() external view returns (bytes32 winnerName_) {... */\n    tag_11:\n      tag_32\n      tag_48\n      jump\t// in\n        /* \"Ballot/Ballot_02.sol\":2133:2702  function setVoterWeight(address voter, uint256 weight) external {... */\n    tag_12:\n      tag_15\n      tag_52\n      calldatasize\n      0x04\n      tag_53\n      jump\t// in\n    tag_52:\n      tag_54\n      jump\t// in\n        /* \"Ballot/Ballot_02.sol\":976:1013  uint256 public weightSettingStartTime */\n    tag_13:\n      tag_32\n      sload(0x03)\n      dup2\n      jump\n        /* \"Ballot/Ballot_02.sol\":3598:3933  function vote(uint256 proposal) external {... */\n    tag_18:\n        /* \"Ballot/Ballot_02.sol\":3680:3690  msg.sender */\n      caller\n        /* \"Ballot/Ballot_02.sol\":3650:3670  Voter storage sender */\n      0x00\n        /* \"Ballot/Ballot_02.sol\":3673:3691  voters[msg.sender] */\n      swap1\n      dup2\n      mstore\n        /* \"Ballot/Ballot_02.sol\":3673:3679  voters */\n      0x01\n        /* \"Ballot/Ballot_02.sol\":3673:3691  voters[msg.sender] */\n      0x20\n      mstore\n      0x40\n      dup2\n      keccak256\n        /* \"Ballot/Ballot_02.sol\":3710:3723  sender.weight */\n      dup1\n      sload\n        /* \"Ballot/Ballot_02.sol\":3673:3691  voters[msg.sender] */\n      swap1\n      swap2\n        /* \"Ballot/Ballot_02.sol\":3710:3728  sender.weight != 0 */\n      sub\n        /* \"Ballot/Ballot_02.sol\":3702:3754  require(sender.weight != 0, \"Has no right to vote.\") */\n      tag_59\n      jumpi\n      mload(0x40)\n      shl(0xe5, 0x461bcd)\n      dup2\n      mstore\n        /* \"#utility.yul\":2286:2288   */\n      0x20\n        /* \"Ballot/Ballot_02.sol\":3702:3754  require(sender.weight != 0, \"Has no right to vote.\") */\n      0x04\n      dup3\n      add\n        /* \"#utility.yul\":2268:2289   */\n      mstore\n        /* \"#utility.yul\":2325:2327   */\n      0x15\n        /* \"#utility.yul\":2305:2323   */\n      0x24\n      dup3\n      add\n        /* \"#utility.yul\":2298:2328   */\n      mstore\n      shl(0x59, 0x2430b9903737903934b3b43a103a37903b37ba3297)\n        /* \"#utility.yul\":2344:2362   */\n      0x44\n      dup3\n      add\n        /* \"#utility.yul\":2337:2388   */\n      mstore\n        /* \"#utility.yul\":2405:2423   */\n      0x64\n      add\n        /* \"Ballot/Ballot_02.sol\":3702:3754  require(sender.weight != 0, \"Has no right to vote.\") */\n    tag_60:\n      mload(0x40)\n      dup1\n      swap2\n      sub\n      swap1\n      revert\n    tag_59:\n        /* \"Ballot/Ballot_02.sol\":3774:3786  sender.voted */\n      0x01\n      dup2\n      add\n      sload\n      0xff\n      and\n        /* \"Ballot/Ballot_02.sol\":3773:3786  !sender.voted */\n      iszero\n        /* \"Ballot/Ballot_02.sol\":3765:3805  require(!sender.voted, \"Already voted.\") */\n      tag_62\n      jumpi\n      mload(0x40)\n      shl(0xe5, 0x461bcd)\n      dup2\n      mstore\n        /* \"#utility.yul\":2636:2638   */\n      0x20\n        /* \"Ballot/Ballot_02.sol\":3765:3805  require(!sender.voted, \"Already voted.\") */\n      0x04\n      dup3\n      add\n        /* \"#utility.yul\":2618:2639   */\n      mstore\n        /* \"#utility.yul\":2675:2677   */\n      0x0e\n        /* \"#utility.yul\":2655:2673   */\n      0x24\n      dup3\n      add\n        /* \"#utility.yul\":2648:2678   */\n      mstore\n      shl(0x91, 0x20b63932b0b23c903b37ba32b217)\n        /* \"#utility.yul\":2694:2712   */\n      0x44\n      dup3\n      add\n        /* \"#utility.yul\":2687:2731   */\n      mstore\n        /* \"#utility.yul\":2748:2766   */\n      0x64\n      add\n        /* \"Ballot/Ballot_02.sol\":3765:3805  require(!sender.voted, \"Already voted.\") */\n      tag_60\n        /* \"#utility.yul\":2434:2772   */\n      jump\n        /* \"Ballot/Ballot_02.sol\":3765:3805  require(!sender.voted, \"Already voted.\") */\n    tag_62:\n        /* \"Ballot/Ballot_02.sol\":3831:3835  true */\n      0x01\n        /* \"Ballot/Ballot_02.sol\":3816:3828  sender.voted */\n      dup2\n      dup2\n      add\n        /* \"Ballot/Ballot_02.sol\":3816:3835  sender.voted = true */\n      dup1\n      sload\n      not(0xff)\n      and\n      swap1\n      swap2\n      or\n      swap1\n      sstore\n        /* \"Ballot/Ballot_02.sol\":3846:3857  sender.vote */\n      0x02\n      dup1\n      dup3\n      add\n        /* \"Ballot/Ballot_02.sol\":3846:3868  sender.vote = proposal */\n      dup4\n      swap1\n      sstore\n        /* \"Ballot/Ballot_02.sol\":3912:3925  sender.weight */\n      dup2\n      sload\n        /* \"Ballot/Ballot_02.sol\":3879:3898  proposals[proposal] */\n      dup2\n      sload\n        /* \"Ballot/Ballot_02.sol\":3912:3925  sender.weight */\n      swap1\n      swap2\n        /* \"Ballot/Ballot_02.sol\":3846:3857  sender.vote */\n      swap1\n        /* \"Ballot/Ballot_02.sol\":3860:3868  proposal */\n      dup5\n      swap1\n        /* \"Ballot/Ballot_02.sol\":3879:3898  proposals[proposal] */\n      dup2\n      lt\n      tag_66\n      jumpi\n      tag_66\n      tag_67\n      jump\t// in\n    tag_66:\n      swap1\n      0x00\n      mstore\n      keccak256(0x00, 0x20)\n      swap1\n      0x02\n      mul\n      add\n        /* \"Ballot/Ballot_02.sol\":3879:3908  proposals[proposal].voteCount */\n      0x01\n      add\n      0x00\n        /* \"Ballot/Ballot_02.sol\":3879:3925  proposals[proposal].voteCount += sender.weight */\n      dup3\n      dup3\n      sload\n      tag_69\n      swap2\n      swap1\n      tag_70\n      jump\t// in\n    tag_69:\n      swap1\n      swap2\n      sstore\n      pop\n      pop\n      pop\n      pop\n        /* \"Ballot/Ballot_02.sol\":3598:3933  function vote(uint256 proposal) external {... */\n      jump\t// out\n        /* \"Ballot/Ballot_02.sol\":871:898  Proposal[] public proposals */\n    tag_21:\n      0x02\n      dup2\n      dup2\n      sload\n      dup2\n      lt\n      tag_71\n      jumpi\n      0x00\n      dup1\n      revert\n    tag_71:\n      0x00\n      swap2\n      dup3\n      mstore\n      0x20\n      swap1\n      swap2\n      keccak256\n      0x02\n      swap1\n      swap2\n      mul\n      add\n      dup1\n      sload\n      0x01\n      swap1\n      swap2\n      add\n      sload\n      swap1\n      swap2\n      pop\n      dup3\n      jump\t// out\n        /* \"Ballot/Ballot_02.sol\":2710:3590  function delegate(address to) external {... */\n    tag_31:\n        /* \"Ballot/Ballot_02.sol\":2790:2800  msg.sender */\n      caller\n        /* \"Ballot/Ballot_02.sol\":2760:2780  Voter storage sender */\n      0x00\n        /* \"Ballot/Ballot_02.sol\":2783:2801  voters[msg.sender] */\n      swap1\n      dup2\n      mstore\n        /* \"Ballot/Ballot_02.sol\":2783:2789  voters */\n      0x01\n        /* \"Ballot/Ballot_02.sol\":2783:2801  voters[msg.sender] */\n      0x20\n      mstore\n      0x40\n      dup2\n      keccak256\n        /* \"Ballot/Ballot_02.sol\":2820:2833  sender.weight */\n      dup1\n      sload\n        /* \"Ballot/Ballot_02.sol\":2783:2801  voters[msg.sender] */\n      swap1\n      swap2\n        /* \"Ballot/Ballot_02.sol\":2820:2838  sender.weight != 0 */\n      sub\n        /* \"Ballot/Ballot_02.sol\":2812:2869  require(sender.weight != 0, \"You have no right to vote.\") */\n      tag_74\n      jumpi\n      mload(0x40)\n      shl(0xe5, 0x461bcd)\n      dup2\n      mstore\n        /* \"#utility.yul\":3338:3340   */\n      0x20\n        /* \"Ballot/Ballot_02.sol\":2812:2869  require(sender.weight != 0, \"You have no right to vote.\") */\n      0x04\n      dup3\n      add\n        /* \"#utility.yul\":3320:3341   */\n      mstore\n        /* \"#utility.yul\":3377:3379   */\n      0x1a\n        /* \"#utility.yul\":3357:3375   */\n      0x24\n      dup3\n      add\n        /* \"#utility.yul\":3350:3380   */\n      mstore\n        /* \"#utility.yul\":3416:3444   */\n      0x596f752068617665206e6f20726967687420746f20766f74652e000000000000\n        /* \"#utility.yul\":3396:3414   */\n      0x44\n      dup3\n      add\n        /* \"#utility.yul\":3389:3445   */\n      mstore\n        /* \"#utility.yul\":3462:3480   */\n      0x64\n      add\n        /* \"Ballot/Ballot_02.sol\":2812:2869  require(sender.weight != 0, \"You have no right to vote.\") */\n      tag_60\n        /* \"#utility.yul\":3136:3486   */\n      jump\n        /* \"Ballot/Ballot_02.sol\":2812:2869  require(sender.weight != 0, \"You have no right to vote.\") */\n    tag_74:\n        /* \"Ballot/Ballot_02.sol\":2889:2901  sender.voted */\n      0x01\n      dup2\n      add\n      sload\n      0xff\n      and\n        /* \"Ballot/Ballot_02.sol\":2888:2901  !sender.voted */\n      iszero\n        /* \"Ballot/Ballot_02.sol\":2880:2924  require(!sender.voted, \"You already voted.\") */\n      tag_77\n      jumpi\n      mload(0x40)\n      shl(0xe5, 0x461bcd)\n      dup2\n      mstore\n        /* \"#utility.yul\":3693:3695   */\n      0x20\n        /* \"Ballot/Ballot_02.sol\":2880:2924  require(!sender.voted, \"You already voted.\") */\n      0x04\n      dup3\n      add\n        /* \"#utility.yul\":3675:3696   */\n      mstore\n        /* \"#utility.yul\":3732:3734   */\n      0x12\n        /* \"#utility.yul\":3712:3730   */\n      0x24\n      dup3\n      add\n        /* \"#utility.yul\":3705:3735   */\n      mstore\n      shl(0x71, 0x2cb7ba9030b63932b0b23c903b37ba32b217)\n        /* \"#utility.yul\":3751:3769   */\n      0x44\n      dup3\n      add\n        /* \"#utility.yul\":3744:3792   */\n      mstore\n        /* \"#utility.yul\":3809:3827   */\n      0x64\n      add\n        /* \"Ballot/Ballot_02.sol\":2880:2924  require(!sender.voted, \"You already voted.\") */\n      tag_60\n        /* \"#utility.yul\":3491:3833   */\n      jump\n        /* \"Ballot/Ballot_02.sol\":2880:2924  require(!sender.voted, \"You already voted.\") */\n    tag_77:\n        /* \"Ballot/Ballot_02.sol\":2949:2959  msg.sender */\n      caller\n      sub(shl(0xa0, 0x01), 0x01)\n        /* \"Ballot/Ballot_02.sol\":2943:2959  to != msg.sender */\n      dup4\n      and\n      sub\n        /* \"Ballot/Ballot_02.sol\":2935:2994  require(to != msg.sender, \"Self-delegation is disallowed.\") */\n      tag_80\n      jumpi\n      mload(0x40)\n      shl(0xe5, 0x461bcd)\n      dup2\n      mstore\n        /* \"#utility.yul\":4040:4042   */\n      0x20\n        /* \"Ballot/Ballot_02.sol\":2935:2994  require(to != msg.sender, \"Self-delegation is disallowed.\") */\n      0x04\n      dup3\n      add\n        /* \"#utility.yul\":4022:4043   */\n      mstore\n        /* \"#utility.yul\":4079:4081   */\n      0x1e\n        /* \"#utility.yul\":4059:4077   */\n      0x24\n      dup3\n      add\n        /* \"#utility.yul\":4052:4082   */\n      mstore\n        /* \"#utility.yul\":4118:4150   */\n      0x53656c662d64656c65676174696f6e20697320646973616c6c6f7765642e0000\n        /* \"#utility.yul\":4098:4116   */\n      0x44\n      dup3\n      add\n        /* \"#utility.yul\":4091:4151   */\n      mstore\n        /* \"#utility.yul\":4168:4186   */\n      0x64\n      add\n        /* \"Ballot/Ballot_02.sol\":2935:2994  require(to != msg.sender, \"Self-delegation is disallowed.\") */\n      tag_60\n        /* \"#utility.yul\":3838:4192   */\n      jump\n        /* \"Ballot/Ballot_02.sol\":2935:2994  require(to != msg.sender, \"Self-delegation is disallowed.\") */\n    tag_80:\n      sub(shl(0xa0, 0x01), 0x01)\n        /* \"Ballot/Ballot_02.sol\":3014:3024  voters[to] */\n      dup3\n      dup2\n      and\n        /* \"Ballot/Ballot_02.sol\":3045:3046  0 */\n      0x00\n        /* \"Ballot/Ballot_02.sol\":3014:3024  voters[to] */\n      swap1\n      dup2\n      mstore\n        /* \"Ballot/Ballot_02.sol\":3014:3020  voters */\n      0x01\n        /* \"Ballot/Ballot_02.sol\":3014:3024  voters[to] */\n      0x20\n      dup2\n      swap1\n      mstore\n      0x40\n      swap1\n      swap2\n      keccak256\n        /* \"Ballot/Ballot_02.sol\":3014:3033  voters[to].delegate */\n      add\n      sload\n      0x0100\n      swap1\n      div\n      and\n        /* \"Ballot/Ballot_02.sol\":3014:3047  voters[to].delegate != address(0) */\n      iszero\n        /* \"Ballot/Ballot_02.sol\":3007:3169  while (voters[to].delegate != address(0)) {... */\n      tag_84\n      jumpi\n      sub(shl(0xa0, 0x01), 0x01)\n        /* \"Ballot/Ballot_02.sol\":3069:3079  voters[to] */\n      swap2\n      dup3\n      and\n      0x00\n      swap1\n      dup2\n      mstore\n        /* \"Ballot/Ballot_02.sol\":3069:3075  voters */\n      0x01\n        /* \"Ballot/Ballot_02.sol\":3069:3079  voters[to] */\n      0x20\n      dup2\n      swap1\n      mstore\n      0x40\n      swap1\n      swap2\n      keccak256\n        /* \"Ballot/Ballot_02.sol\":3069:3088  voters[to].delegate */\n      add\n      sload\n      0x0100\n      swap1\n      div\n      swap1\n      swap2\n      and\n      swap1\n        /* \"Ballot/Ballot_02.sol\":3117:3127  msg.sender */\n      caller\n        /* \"Ballot/Ballot_02.sol\":3111:3127  to != msg.sender */\n      dup3\n      sub\n        /* \"Ballot/Ballot_02.sol\":3103:3157  require(to != msg.sender, \"Found loop in delegation.\") */\n      tag_85\n      jumpi\n      mload(0x40)\n      shl(0xe5, 0x461bcd)\n      dup2\n      mstore\n        /* \"#utility.yul\":4399:4401   */\n      0x20\n        /* \"Ballot/Ballot_02.sol\":3103:3157  require(to != msg.sender, \"Found loop in delegation.\") */\n      0x04\n      dup3\n      add\n        /* \"#utility.yul\":4381:4402   */\n      mstore\n        /* \"#utility.yul\":4438:4440   */\n      0x19\n        /* \"#utility.yul\":4418:4436   */\n      0x24\n      dup3\n      add\n        /* \"#utility.yul\":4411:4441   */\n      mstore\n        /* \"#utility.yul\":4477:4504   */\n      0x466f756e64206c6f6f7020696e2064656c65676174696f6e2e00000000000000\n        /* \"#utility.yul\":4457:4475   */\n      0x44\n      dup3\n      add\n        /* \"#utility.yul\":4450:4505   */\n      mstore\n        /* \"#utility.yul\":4522:4540   */\n      0x64\n      add\n        /* \"Ballot/Ballot_02.sol\":3103:3157  require(to != msg.sender, \"Found loop in delegation.\") */\n      tag_60\n        /* \"#utility.yul\":4197:4546   */\n      jump\n        /* \"Ballot/Ballot_02.sol\":3103:3157  require(to != msg.sender, \"Found loop in delegation.\") */\n    tag_85:\n        /* \"Ballot/Ballot_02.sol\":3007:3169  while (voters[to].delegate != address(0)) {... */\n      jump(tag_80)\n    tag_84:\n      sub(shl(0xa0, 0x01), 0x01)\n        /* \"Ballot/Ballot_02.sol\":3207:3217  voters[to] */\n      dup3\n      and\n        /* \"Ballot/Ballot_02.sol\":3181:3204  Voter storage delegate_ */\n      0x00\n        /* \"Ballot/Ballot_02.sol\":3207:3217  voters[to] */\n      swap1\n      dup2\n      mstore\n        /* \"Ballot/Ballot_02.sol\":3207:3213  voters */\n      0x01\n        /* \"Ballot/Ballot_02.sol\":3207:3217  voters[to] */\n      0x20\n      dup2\n      swap1\n      mstore\n      0x40\n      swap1\n      swap2\n      keccak256\n        /* \"Ballot/Ballot_02.sol\":3250:3266  delegate_.weight */\n      dup1\n      sload\n        /* \"Ballot/Ballot_02.sol\":3207:3217  voters[to] */\n      swap1\n      swap2\n      gt\n        /* \"Ballot/Ballot_02.sol\":3250:3271  delegate_.weight >= 1 */\n      iszero\n        /* \"Ballot/Ballot_02.sol\":3228:3345  require(... */\n      tag_88\n      jumpi\n      mload(0x40)\n      shl(0xe5, 0x461bcd)\n      dup2\n      mstore\n        /* \"#utility.yul\":4753:4755   */\n      0x20\n        /* \"Ballot/Ballot_02.sol\":3228:3345  require(... */\n      0x04\n      dup3\n      add\n        /* \"#utility.yul\":4735:4756   */\n      mstore\n        /* \"#utility.yul\":4792:4794   */\n      0x2e\n        /* \"#utility.yul\":4772:4790   */\n      0x24\n      dup3\n      add\n        /* \"#utility.yul\":4765:4795   */\n      mstore\n        /* \"#utility.yul\":4831:4865   */\n      0x53656c65637465642064656c656761746520646f6573206e6f74206861766520\n        /* \"#utility.yul\":4811:4829   */\n      0x44\n      dup3\n      add\n        /* \"#utility.yul\":4804:4866   */\n      mstore\n      shl(0x91, 0x3b37ba34b733903934b3b43a3997)\n        /* \"#utility.yul\":4882:4900   */\n      0x64\n      dup3\n      add\n        /* \"#utility.yul\":4875:4919   */\n      mstore\n        /* \"#utility.yul\":4936:4955   */\n      0x84\n      add\n        /* \"Ballot/Ballot_02.sol\":3228:3345  require(... */\n      tag_60\n        /* \"#utility.yul\":4551:4961   */\n      jump\n        /* \"Ballot/Ballot_02.sol\":3228:3345  require(... */\n    tag_88:\n        /* \"Ballot/Ballot_02.sol\":3371:3375  true */\n      0x01\n        /* \"Ballot/Ballot_02.sol\":3356:3368  sender.voted */\n      dup3\n      dup2\n      add\n        /* \"Ballot/Ballot_02.sol\":3356:3375  sender.voted = true */\n      dup1\n      sload\n      not(sub(shl(0xa8, 0x01), 0x01))\n        /* \"Ballot/Ballot_02.sol\":3386:3406  sender.delegate = to */\n      and\n        /* \"Ballot/Ballot_02.sol\":3356:3375  sender.voted = true */\n      0x0100\n      sub(shl(0xa0, 0x01), 0x01)\n        /* \"Ballot/Ballot_02.sol\":3386:3406  sender.delegate = to */\n      dup8\n      and\n      mul\n      or\n      dup3\n      or\n      swap1\n      sstore\n        /* \"Ballot/Ballot_02.sol\":3421:3436  delegate_.voted */\n      dup2\n      add\n      sload\n        /* \"Ballot/Ballot_02.sol\":3356:3375  sender.voted = true */\n      0xff\n        /* \"Ballot/Ballot_02.sol\":3421:3436  delegate_.voted */\n      and\n        /* \"Ballot/Ballot_02.sol\":3417:3583  if (delegate_.voted) {... */\n      iszero\n      tag_91\n      jumpi\n        /* \"Ballot/Ballot_02.sol\":3492:3505  sender.weight */\n      dup2\n      sload\n        /* \"Ballot/Ballot_02.sol\":3453:3462  proposals */\n      0x02\n        /* \"Ballot/Ballot_02.sol\":3463:3477  delegate_.vote */\n      dup3\n      dup2\n      add\n      sload\n        /* \"Ballot/Ballot_02.sol\":3453:3478  proposals[delegate_.vote] */\n      dup2\n      sload\n      dup2\n      lt\n      tag_93\n      jumpi\n      tag_93\n      tag_67\n      jump\t// in\n    tag_93:\n      swap1\n      0x00\n      mstore\n      keccak256(0x00, 0x20)\n      swap1\n      0x02\n      mul\n      add\n        /* \"Ballot/Ballot_02.sol\":3453:3488  proposals[delegate_.vote].voteCount */\n      0x01\n      add\n      0x00\n        /* \"Ballot/Ballot_02.sol\":3453:3505  proposals[delegate_.vote].voteCount += sender.weight */\n      dup3\n      dup3\n      sload\n      tag_95\n      swap2\n      swap1\n      tag_70\n      jump\t// in\n    tag_95:\n      swap1\n      swap2\n      sstore\n      pop\n        /* \"Ballot/Ballot_02.sol\":3417:3583  if (delegate_.voted) {... */\n      tag_96\n      swap1\n      pop\n      jump\n    tag_91:\n        /* \"Ballot/Ballot_02.sol\":3558:3571  sender.weight */\n      dup2\n      sload\n        /* \"Ballot/Ballot_02.sol\":3538:3571  delegate_.weight += sender.weight */\n      dup2\n      sload\n        /* \"Ballot/Ballot_02.sol\":3538:3547  delegate_ */\n      dup3\n      swap1\n        /* \"Ballot/Ballot_02.sol\":3558:3571  sender.weight */\n      0x00\n      swap1\n        /* \"Ballot/Ballot_02.sol\":3538:3571  delegate_.weight += sender.weight */\n      tag_97\n      swap1\n        /* \"Ballot/Ballot_02.sol\":3558:3571  sender.weight */\n      dup5\n      swap1\n        /* \"Ballot/Ballot_02.sol\":3538:3571  delegate_.weight += sender.weight */\n      tag_70\n      jump\t// in\n    tag_97:\n      swap1\n      swap2\n      sstore\n      pop\n      pop\n        /* \"Ballot/Ballot_02.sol\":3417:3583  if (delegate_.voted) {... */\n    tag_96:\n        /* \"Ballot/Ballot_02.sol\":2749:3590  {... */\n      pop\n      pop\n        /* \"Ballot/Ballot_02.sol\":2710:3590  function delegate(address to) external {... */\n      pop\n      jump\t// out\n        /* \"Ballot/Ballot_02.sol\":3941:4307  function winningProposal() public view returns (uint256 winningProposal_) {... */\n    tag_33:\n        /* \"Ballot/Ballot_02.sol\":3989:4013  uint256 winningProposal_ */\n      0x00\n      dup1\n      dup1\n        /* \"Ballot/Ballot_02.sol\":4065:4300  for (uint256 p = 0; p < proposals.length; p++) {... */\n    tag_99:\n        /* \"Ballot/Ballot_02.sol\":4089:4098  proposals */\n      0x02\n        /* \"Ballot/Ballot_02.sol\":4089:4105  proposals.length */\n      sload\n        /* \"Ballot/Ballot_02.sol\":4085:4105  p < proposals.length */\n      dup2\n      lt\n        /* \"Ballot/Ballot_02.sol\":4065:4300  for (uint256 p = 0; p < proposals.length; p++) {... */\n      iszero\n      tag_100\n      jumpi\n        /* \"Ballot/Ballot_02.sol\":4156:4172  winningVoteCount */\n      dup2\n        /* \"Ballot/Ballot_02.sol\":4131:4140  proposals */\n      0x02\n        /* \"Ballot/Ballot_02.sol\":4141:4142  p */\n      dup3\n        /* \"Ballot/Ballot_02.sol\":4131:4143  proposals[p] */\n      dup2\n      sload\n      dup2\n      lt\n      tag_103\n      jumpi\n      tag_103\n      tag_67\n      jump\t// in\n    tag_103:\n      swap1\n      0x00\n      mstore\n      keccak256(0x00, 0x20)\n      swap1\n      0x02\n      mul\n      add\n        /* \"Ballot/Ballot_02.sol\":4131:4153  proposals[p].voteCount */\n      0x01\n      add\n      sload\n        /* \"Ballot/Ballot_02.sol\":4131:4172  proposals[p].voteCount > winningVoteCount */\n      gt\n        /* \"Ballot/Ballot_02.sol\":4127:4289  if (proposals[p].voteCount > winningVoteCount) {... */\n      iszero\n      tag_105\n      jumpi\n        /* \"Ballot/Ballot_02.sol\":4212:4221  proposals */\n      0x02\n        /* \"Ballot/Ballot_02.sol\":4222:4223  p */\n      dup2\n        /* \"Ballot/Ballot_02.sol\":4212:4224  proposals[p] */\n      dup2\n      sload\n      dup2\n      lt\n      tag_107\n      jumpi\n      tag_107\n      tag_67\n      jump\t// in\n    tag_107:\n      swap1\n      0x00\n      mstore\n      keccak256(0x00, 0x20)\n      swap1\n      0x02\n      mul\n      add\n        /* \"Ballot/Ballot_02.sol\":4212:4234  proposals[p].voteCount */\n      0x01\n      add\n      sload\n        /* \"Ballot/Ballot_02.sol\":4193:4234  winningVoteCount = proposals[p].voteCount */\n      swap2\n      pop\n        /* \"Ballot/Ballot_02.sol\":4272:4273  p */\n      dup1\n        /* \"Ballot/Ballot_02.sol\":4253:4273  winningProposal_ = p */\n      swap3\n      pop\n        /* \"Ballot/Ballot_02.sol\":4127:4289  if (proposals[p].voteCount > winningVoteCount) {... */\n    tag_105:\n        /* \"Ballot/Ballot_02.sol\":4107:4110  p++ */\n      0x01\n      add\n        /* \"Ballot/Ballot_02.sol\":4065:4300  for (uint256 p = 0; p < proposals.length; p++) {... */\n      jump(tag_99)\n    tag_100:\n      pop\n        /* \"Ballot/Ballot_02.sol\":4015:4307  {... */\n      pop\n        /* \"Ballot/Ballot_02.sol\":3941:4307  function winningProposal() public view returns (uint256 winningProposal_) {... */\n      swap1\n      jump\t// out\n        /* \"Ballot/Ballot_02.sol\":1715:2125  function giveRightToVote(address voter) external {... */\n    tag_38:\n        /* \"Ballot/Ballot_02.sol\":1811:1822  chairperson */\n      and(sub(shl(0xa0, 0x01), 0x01), sload(0x00))\n        /* \"Ballot/Ballot_02.sol\":1797:1807  msg.sender */\n      caller\n        /* \"Ballot/Ballot_02.sol\":1797:1822  msg.sender == chairperson */\n      eq\n        /* \"Ballot/Ballot_02.sol\":1775:1890  require(... */\n      tag_110\n      jumpi\n      mload(0x40)\n      shl(0xe5, 0x461bcd)\n      dup2\n      mstore\n        /* \"#utility.yul\":5168:5170   */\n      0x20\n        /* \"Ballot/Ballot_02.sol\":1775:1890  require(... */\n      0x04\n      dup3\n      add\n        /* \"#utility.yul\":5150:5171   */\n      mstore\n        /* \"#utility.yul\":5207:5209   */\n      0x28\n        /* \"#utility.yul\":5187:5205   */\n      0x24\n      dup3\n      add\n        /* \"#utility.yul\":5180:5210   */\n      mstore\n        /* \"#utility.yul\":5246:5280   */\n      0x4f6e6c79206368616972706572736f6e2063616e206769766520726967687420\n        /* \"#utility.yul\":5226:5244   */\n      0x44\n      dup3\n      add\n        /* \"#utility.yul\":5219:5281   */\n      mstore\n      shl(0xc1, 0x3a37903b37ba3297)\n        /* \"#utility.yul\":5297:5315   */\n      0x64\n      dup3\n      add\n        /* \"#utility.yul\":5290:5328   */\n      mstore\n        /* \"#utility.yul\":5345:5364   */\n      0x84\n      add\n        /* \"Ballot/Ballot_02.sol\":1775:1890  require(... */\n      tag_60\n        /* \"#utility.yul\":4966:5370   */\n      jump\n        /* \"Ballot/Ballot_02.sol\":1775:1890  require(... */\n    tag_110:\n      sub(shl(0xa0, 0x01), 0x01)\n        /* \"Ballot/Ballot_02.sol\":1910:1923  voters[voter] */\n      dup2\n      and\n      0x00\n      swap1\n      dup2\n      mstore\n        /* \"Ballot/Ballot_02.sol\":1910:1916  voters */\n      0x01\n        /* \"Ballot/Ballot_02.sol\":1910:1923  voters[voter] */\n      0x20\n      dup2\n      swap1\n      mstore\n      0x40\n      swap1\n      swap2\n      keccak256\n        /* \"Ballot/Ballot_02.sol\":1910:1929  voters[voter].voted */\n      add\n      sload\n      0xff\n      and\n        /* \"Ballot/Ballot_02.sol\":1909:1929  !voters[voter].voted */\n      iszero\n        /* \"Ballot/Ballot_02.sol\":1901:1958  require(!voters[voter].voted, \"The voter already voted.\") */\n      tag_113\n      jumpi\n      mload(0x40)\n      shl(0xe5, 0x461bcd)\n      dup2\n      mstore\n        /* \"#utility.yul\":5577:5579   */\n      0x20\n        /* \"Ballot/Ballot_02.sol\":1901:1958  require(!voters[voter].voted, \"The voter already voted.\") */\n      0x04\n      dup3\n      add\n        /* \"#utility.yul\":5559:5580   */\n      mstore\n        /* \"#utility.yul\":5616:5618   */\n      0x18\n        /* \"#utility.yul\":5596:5614   */\n      0x24\n      dup3\n      add\n        /* \"#utility.yul\":5589:5619   */\n      mstore\n        /* \"#utility.yul\":5655:5681   */\n      0x54686520766f74657220616c726561647920766f7465642e0000000000000000\n        /* \"#utility.yul\":5635:5653   */\n      0x44\n      dup3\n      add\n        /* \"#utility.yul\":5628:5682   */\n      mstore\n        /* \"#utility.yul\":5699:5717   */\n      0x64\n      add\n        /* \"Ballot/Ballot_02.sol\":1901:1958  require(!voters[voter].voted, \"The voter already voted.\") */\n      tag_60\n        /* \"#utility.yul\":5375:5723   */\n      jump\n        /* \"Ballot/Ballot_02.sol\":1901:1958  require(!voters[voter].voted, \"The voter already voted.\") */\n    tag_113:\n      sub(shl(0xa0, 0x01), 0x01)\n        /* \"Ballot/Ballot_02.sol\":1991:2004  voters[voter] */\n      dup2\n      and\n      0x00\n      swap1\n      dup2\n      mstore\n        /* \"Ballot/Ballot_02.sol\":1991:1997  voters */\n      0x01\n        /* \"Ballot/Ballot_02.sol\":1991:2004  voters[voter] */\n      0x20\n      mstore\n      0x40\n      swap1\n      keccak256\n        /* \"Ballot/Ballot_02.sol\":1991:2011  voters[voter].weight */\n      sload\n        /* \"Ballot/Ballot_02.sol\":1991:2016  voters[voter].weight == 0 */\n      iszero\n        /* \"Ballot/Ballot_02.sol\":1969:2080  require(... */\n      tag_116\n      jumpi\n      mload(0x40)\n      shl(0xe5, 0x461bcd)\n      dup2\n      mstore\n        /* \"#utility.yul\":5930:5932   */\n      0x20\n        /* \"Ballot/Ballot_02.sol\":1969:2080  require(... */\n      0x04\n      dup3\n      add\n        /* \"#utility.yul\":5912:5933   */\n      mstore\n        /* \"#utility.yul\":5969:5971   */\n      0x24\n        /* \"#utility.yul\":5949:5967   */\n      dup1\n      dup3\n      add\n        /* \"#utility.yul\":5942:5972   */\n      mstore\n        /* \"#utility.yul\":6008:6042   */\n      0x54686520766f74657220616c72656164792068617320766f74696e6720726967\n        /* \"#utility.yul\":5988:6006   */\n      0x44\n      dup3\n      add\n        /* \"#utility.yul\":5981:6043   */\n      mstore\n      shl(0xe1, 0x343a3997)\n        /* \"#utility.yul\":6059:6077   */\n      0x64\n      dup3\n      add\n        /* \"#utility.yul\":6052:6086   */\n      mstore\n        /* \"#utility.yul\":6103:6122   */\n      0x84\n      add\n        /* \"Ballot/Ballot_02.sol\":1969:2080  require(... */\n      tag_60\n        /* \"#utility.yul\":5728:6128   */\n      jump\n        /* \"Ballot/Ballot_02.sol\":1969:2080  require(... */\n    tag_116:\n      sub(shl(0xa0, 0x01), 0x01)\n        /* \"Ballot/Ballot_02.sol\":2093:2106  voters[voter] */\n      and\n      0x00\n      swap1\n      dup2\n      mstore\n        /* \"Ballot/Ballot_02.sol\":2116:2117  1 */\n      0x01\n        /* \"Ballot/Ballot_02.sol\":2093:2106  voters[voter] */\n      0x20\n      dup2\n      swap1\n      mstore\n      0x40\n      swap1\n      swap2\n      keccak256\n        /* \"Ballot/Ballot_02.sol\":2093:2117  voters[voter].weight = 1 */\n      sstore\n        /* \"Ballot/Ballot_02.sol\":1715:2125  function giveRightToVote(address voter) external {... */\n      jump\t// out\n        /* \"Ballot/Ballot_02.sol\":4315:4447  function winnerName() external view returns (bytes32 winnerName_) {... */\n    tag_48:\n        /* \"Ballot/Ballot_02.sol\":4360:4379  bytes32 winnerName_ */\n      0x00\n        /* \"Ballot/Ballot_02.sol\":4406:4415  proposals */\n      0x02\n        /* \"Ballot/Ballot_02.sol\":4416:4433  winningProposal() */\n      tag_120\n        /* \"Ballot/Ballot_02.sol\":4416:4431  winningProposal */\n      tag_33\n        /* \"Ballot/Ballot_02.sol\":4416:4433  winningProposal() */\n      jump\t// in\n    tag_120:\n        /* \"Ballot/Ballot_02.sol\":4406:4434  proposals[winningProposal()] */\n      dup2\n      sload\n      dup2\n      lt\n      tag_122\n      jumpi\n      tag_122\n      tag_67\n      jump\t// in\n    tag_122:\n      swap1\n      0x00\n      mstore\n      keccak256(0x00, 0x20)\n      swap1\n      0x02\n      mul\n      add\n        /* \"Ballot/Ballot_02.sol\":4406:4439  proposals[winningProposal()].name */\n      0x00\n      add\n      sload\n        /* \"Ballot/Ballot_02.sol\":4392:4439  winnerName_ = proposals[winningProposal()].name */\n      swap1\n      pop\n        /* \"Ballot/Ballot_02.sol\":4315:4447  function winnerName() external view returns (bytes32 winnerName_) {... */\n      swap1\n      jump\t// out\n        /* \"Ballot/Ballot_02.sol\":2133:2702  function setVoterWeight(address voter, uint256 weight) external {... */\n    tag_54:\n        /* \"Ballot/Ballot_02.sol\":2244:2255  chairperson */\n      and(sub(shl(0xa0, 0x01), 0x01), sload(0x00))\n        /* \"Ballot/Ballot_02.sol\":2230:2240  msg.sender */\n      caller\n        /* \"Ballot/Ballot_02.sol\":2230:2255  msg.sender == chairperson */\n      eq\n        /* \"Ballot/Ballot_02.sol\":2208:2321  require(... */\n      tag_125\n      jumpi\n      mload(0x40)\n      shl(0xe5, 0x461bcd)\n      dup2\n      mstore\n        /* \"#utility.yul\":6335:6337   */\n      0x20\n        /* \"Ballot/Ballot_02.sol\":2208:2321  require(... */\n      0x04\n      dup3\n      add\n        /* \"#utility.yul\":6317:6338   */\n      mstore\n        /* \"#utility.yul\":6374:6376   */\n      0x26\n        /* \"#utility.yul\":6354:6372   */\n      0x24\n      dup3\n      add\n        /* \"#utility.yul\":6347:6377   */\n      mstore\n        /* \"#utility.yul\":6413:6447   */\n      0x4f6e6c79206368616972706572736f6e2063616e2073657420766f7465722077\n        /* \"#utility.yul\":6393:6411   */\n      0x44\n      dup3\n      add\n        /* \"#utility.yul\":6386:6448   */\n      mstore\n      shl(0xd1, 0x32b4b3b43a17)\n        /* \"#utility.yul\":6464:6482   */\n      0x64\n      dup3\n      add\n        /* \"#utility.yul\":6457:6493   */\n      mstore\n        /* \"#utility.yul\":6510:6529   */\n      0x84\n      add\n        /* \"Ballot/Ballot_02.sol\":2208:2321  require(... */\n      tag_60\n        /* \"#utility.yul\":6133:6535   */\n      jump\n        /* \"Ballot/Ballot_02.sol\":2208:2321  require(... */\n    tag_125:\n        /* \"Ballot/Ballot_02.sol\":2373:2395  weightSettingStartTime */\n      sload(0x03)\n        /* \"Ballot/Ballot_02.sol\":2354:2369  block.timestamp */\n      timestamp\n        /* \"Ballot/Ballot_02.sol\":2354:2395  block.timestamp >= weightSettingStartTime */\n      lt\n      iszero\n        /* \"Ballot/Ballot_02.sol\":2354:2455  block.timestamp >= weightSettingStartTime &&... */\n      dup1\n      iszero\n      tag_128\n      jumpi\n      pop\n        /* \"Ballot/Ballot_02.sol\":2435:2455  weightSettingEndTime */\n      sload(0x04)\n        /* \"Ballot/Ballot_02.sol\":2416:2431  block.timestamp */\n      timestamp\n        /* \"Ballot/Ballot_02.sol\":2416:2455  block.timestamp <= weightSettingEndTime */\n      gt\n      iszero\n        /* \"Ballot/Ballot_02.sol\":2354:2455  block.timestamp >= weightSettingStartTime &&... */\n    tag_128:\n        /* \"Ballot/Ballot_02.sol\":2332:2526  require(... */\n      tag_129\n      jumpi\n      mload(0x40)\n      shl(0xe5, 0x461bcd)\n      dup2\n      mstore\n        /* \"#utility.yul\":6742:6744   */\n      0x20\n        /* \"Ballot/Ballot_02.sol\":2332:2526  require(... */\n      0x04\n      dup3\n      add\n        /* \"#utility.yul\":6724:6745   */\n      mstore\n        /* \"#utility.yul\":6781:6783   */\n      0x2b\n        /* \"#utility.yul\":6761:6779   */\n      0x24\n      dup3\n      add\n        /* \"#utility.yul\":6754:6784   */\n      mstore\n        /* \"#utility.yul\":6820:6854   */\n      0x5765696768742073657474696e67206973206e6f7420616c6c6f776564206174\n        /* \"#utility.yul\":6800:6818   */\n      0x44\n      dup3\n      add\n        /* \"#utility.yul\":6793:6855   */\n      mstore\n      shl(0xa9, 0x103a3434b9903a34b6b297)\n        /* \"#utility.yul\":6871:6889   */\n      0x64\n      dup3\n      add\n        /* \"#utility.yul\":6864:6905   */\n      mstore\n        /* \"#utility.yul\":6922:6941   */\n      0x84\n      add\n        /* \"Ballot/Ballot_02.sol\":2332:2526  require(... */\n      tag_60\n        /* \"#utility.yul\":6540:6947   */\n      jump\n        /* \"Ballot/Ballot_02.sol\":2332:2526  require(... */\n    tag_129:\n      sub(shl(0xa0, 0x01), 0x01)\n        /* \"Ballot/Ballot_02.sol\":2561:2574  voters[voter] */\n      dup3\n      and\n      0x00\n      swap1\n      dup2\n      mstore\n        /* \"Ballot/Ballot_02.sol\":2561:2567  voters */\n      0x01\n        /* \"Ballot/Ballot_02.sol\":2561:2574  voters[voter] */\n      0x20\n      mstore\n      0x40\n      dup2\n      keccak256\n        /* \"Ballot/Ballot_02.sol\":2561:2581  voters[voter].weight */\n      sload\n        /* \"Ballot/Ballot_02.sol\":2561:2586  voters[voter].weight != 0 */\n      swap1\n      sub\n        /* \"Ballot/Ballot_02.sol\":2539:2652  require(... */\n      tag_132\n      jumpi\n      mload(0x40)\n      shl(0xe5, 0x461bcd)\n      dup2\n      mstore\n        /* \"#utility.yul\":7154:7156   */\n      0x20\n        /* \"Ballot/Ballot_02.sol\":2539:2652  require(... */\n      0x04\n      dup3\n      add\n        /* \"#utility.yul\":7136:7157   */\n      mstore\n        /* \"#utility.yul\":7193:7195   */\n      0x26\n        /* \"#utility.yul\":7173:7191   */\n      0x24\n      dup3\n      add\n        /* \"#utility.yul\":7166:7196   */\n      mstore\n        /* \"#utility.yul\":7232:7266   */\n      0x54686520766f74657220646f6573206e6f74206861766520766f74696e672072\n        /* \"#utility.yul\":7212:7230   */\n      0x44\n      dup3\n      add\n        /* \"#utility.yul\":7205:7267   */\n      mstore\n      shl(0xd1, 0x34b3b43a3997)\n        /* \"#utility.yul\":7283:7301   */\n      0x64\n      dup3\n      add\n        /* \"#utility.yul\":7276:7312   */\n      mstore\n        /* \"#utility.yul\":7329:7348   */\n      0x84\n      add\n        /* \"Ballot/Ballot_02.sol\":2539:2652  require(... */\n      tag_60\n        /* \"#utility.yul\":6952:7354   */\n      jump\n        /* \"Ballot/Ballot_02.sol\":2539:2652  require(... */\n    tag_132:\n      sub(shl(0xa0, 0x01), 0x01)\n        /* \"Ballot/Ballot_02.sol\":2665:2678  voters[voter] */\n      swap1\n      swap2\n      and\n      0x00\n      swap1\n      dup2\n      mstore\n        /* \"Ballot/Ballot_02.sol\":2665:2671  voters */\n      0x01\n        /* \"Ballot/Ballot_02.sol\":2665:2678  voters[voter] */\n      0x20\n      mstore\n      0x40\n      swap1\n      keccak256\n        /* \"Ballot/Ballot_02.sol\":2665:2694  voters[voter].weight = weight */\n      sstore\n        /* \"Ballot/Ballot_02.sol\":2133:2702  function setVoterWeight(address voter, uint256 weight) external {... */\n      jump\t// out\n        /* \"#utility.yul\":14:194   */\n    tag_17:\n        /* \"#utility.yul\":73:79   */\n      0x00\n        /* \"#utility.yul\":126:128   */\n      0x20\n        /* \"#utility.yul\":114:123   */\n      dup3\n        /* \"#utility.yul\":105:112   */\n      dup5\n        /* \"#utility.yul\":101:124   */\n      sub\n        /* \"#utility.yul\":97:129   */\n      slt\n        /* \"#utility.yul\":94:146   */\n      iszero\n      tag_138\n      jumpi\n        /* \"#utility.yul\":142:143   */\n      0x00\n        /* \"#utility.yul\":139:140   */\n      dup1\n        /* \"#utility.yul\":132:144   */\n      revert\n        /* \"#utility.yul\":94:146   */\n    tag_138:\n      pop\n        /* \"#utility.yul\":165:188   */\n      calldataload\n      swap2\n        /* \"#utility.yul\":14:194   */\n      swap1\n      pop\n      jump\t// out\n        /* \"#utility.yul\":660:833   */\n    tag_135:\n        /* \"#utility.yul\":728:748   */\n      dup1\n      calldataload\n      sub(shl(0xa0, 0x01), 0x01)\n        /* \"#utility.yul\":777:808   */\n      dup2\n      and\n        /* \"#utility.yul\":767:809   */\n      dup2\n      eq\n        /* \"#utility.yul\":757:827   */\n      tag_142\n      jumpi\n        /* \"#utility.yul\":823:824   */\n      0x00\n        /* \"#utility.yul\":820:821   */\n      dup1\n        /* \"#utility.yul\":813:825   */\n      revert\n        /* \"#utility.yul\":757:827   */\n    tag_142:\n        /* \"#utility.yul\":660:833   */\n      swap2\n      swap1\n      pop\n      jump\t// out\n        /* \"#utility.yul\":838:1024   */\n    tag_30:\n        /* \"#utility.yul\":897:903   */\n      0x00\n        /* \"#utility.yul\":950:952   */\n      0x20\n        /* \"#utility.yul\":938:947   */\n      dup3\n        /* \"#utility.yul\":929:936   */\n      dup5\n        /* \"#utility.yul\":925:948   */\n      sub\n        /* \"#utility.yul\":921:953   */\n      slt\n        /* \"#utility.yul\":918:970   */\n      iszero\n      tag_144\n      jumpi\n        /* \"#utility.yul\":966:967   */\n      0x00\n        /* \"#utility.yul\":963:964   */\n      dup1\n        /* \"#utility.yul\":956:968   */\n      revert\n        /* \"#utility.yul\":918:970   */\n    tag_144:\n        /* \"#utility.yul\":989:1018   */\n      tag_145\n        /* \"#utility.yul\":1008:1017   */\n      dup3\n        /* \"#utility.yul\":989:1018   */\n      tag_135\n      jump\t// in\n    tag_145:\n        /* \"#utility.yul\":979:1018   */\n      swap4\n        /* \"#utility.yul\":838:1024   */\n      swap3\n      pop\n      pop\n      pop\n      jump\t// out\n        /* \"#utility.yul\":1825:2079   */\n    tag_53:\n        /* \"#utility.yul\":1893:1899   */\n      0x00\n        /* \"#utility.yul\":1901:1907   */\n      dup1\n        /* \"#utility.yul\":1954:1956   */\n      0x40\n        /* \"#utility.yul\":1942:1951   */\n      dup4\n        /* \"#utility.yul\":1933:1940   */\n      dup6\n        /* \"#utility.yul\":1929:1952   */\n      sub\n        /* \"#utility.yul\":1925:1957   */\n      slt\n        /* \"#utility.yul\":1922:1974   */\n      iszero\n      tag_150\n      jumpi\n        /* \"#utility.yul\":1970:1971   */\n      0x00\n        /* \"#utility.yul\":1967:1968   */\n      dup1\n        /* \"#utility.yul\":1960:1972   */\n      revert\n        /* \"#utility.yul\":1922:1974   */\n    tag_150:\n        /* \"#utility.yul\":1993:2022   */\n      tag_151\n        /* \"#utility.yul\":2012:2021   */\n      dup4\n        /* \"#utility.yul\":1993:2022   */\n      tag_135\n      jump\t// in\n    tag_151:\n        /* \"#utility.yul\":1983:2022   */\n      swap5\n        /* \"#utility.yul\":2069:2071   */\n      0x20\n        /* \"#utility.yul\":2054:2072   */\n      swap4\n      swap1\n      swap4\n      add\n        /* \"#utility.yul\":2041:2073   */\n      calldataload\n      swap4\n      pop\n      pop\n      pop\n        /* \"#utility.yul\":1825:2079   */\n      jump\t// out\n        /* \"#utility.yul\":2777:2904   */\n    tag_67:\n        /* \"#utility.yul\":2838:2848   */\n      0x4e487b71\n        /* \"#utility.yul\":2833:2836   */\n      0xe0\n        /* \"#utility.yul\":2829:2849   */\n      shl\n        /* \"#utility.yul\":2826:2827   */\n      0x00\n        /* \"#utility.yul\":2819:2850   */\n      mstore\n        /* \"#utility.yul\":2869:2873   */\n      0x32\n        /* \"#utility.yul\":2866:2867   */\n      0x04\n        /* \"#utility.yul\":2859:2874   */\n      mstore\n        /* \"#utility.yul\":2893:2897   */\n      0x24\n        /* \"#utility.yul\":2890:2891   */\n      0x00\n        /* \"#utility.yul\":2883:2898   */\n      revert\n        /* \"#utility.yul\":2909:3131   */\n    tag_70:\n        /* \"#utility.yul\":2974:2983   */\n      dup1\n      dup3\n      add\n        /* \"#utility.yul\":2995:3005   */\n      dup1\n      dup3\n      gt\n        /* \"#utility.yul\":2992:3125   */\n      iszero\n      tag_156\n      jumpi\n        /* \"#utility.yul\":3047:3057   */\n      0x4e487b71\n        /* \"#utility.yul\":3042:3045   */\n      0xe0\n        /* \"#utility.yul\":3038:3058   */\n      shl\n        /* \"#utility.yul\":3035:3036   */\n      0x00\n        /* \"#utility.yul\":3028:3059   */\n      mstore\n        /* \"#utility.yul\":3082:3086   */\n      0x11\n        /* \"#utility.yul\":3079:3080   */\n      0x04\n        /* \"#utility.yul\":3072:3087   */\n      mstore\n        /* \"#utility.yul\":3110:3114   */\n      0x24\n        /* \"#utility.yul\":3107:3108   */\n      0x00\n        /* \"#utility.yul\":3100:3115   */\n      revert\n        /* \"#utility.yul\":2992:3125   */\n    tag_156:\n        /* \"#utility.yul\":2909:3131   */\n      swap3\n      swap2\n      pop\n      pop\n      jump\t// out\n\n    auxdata: 0xa264697066735822122088e4cd9453e1762df82ac1311541d8fd5302be685db575c995edc3262972257164736f6c63430008180033\n}\n",
				"bytecode": {
					"linkReferences": {},
					"object": "608060405234801562000010575f80fd5b5060405162000c3638038062000c368339810160408190526200003391620000fe565b5f80546001600160a01b03191633908117825581526001602081905260408220555b8351811015620000c15760026040518060400160405280868481518110620000815762000081620001d4565b60209081029190910181015182525f9181018290528354600181810186559483529181902083516002909302019182559190910151908201550162000055565b50620000ce8242620001e8565b600355620000dd8142620001e8565b600455506200020e915050565b634e487b7160e01b5f52604160045260245ffd5b5f805f6060848603121562000111575f80fd5b83516001600160401b038082111562000128575f80fd5b818601915086601f8301126200013c575f80fd5b8151602082821115620001535762000153620000ea565b8160051b604051601f19603f830116810181811086821117156200017b576200017b620000ea565b60405292835281830193508481018201928a84111562000199575f80fd5b948201945b83861015620001b9578551855294820194938201936200019e565b91890151604090990151919a98995090979650505050505050565b634e487b7160e01b5f52603260045260245ffd5b808201808211156200020857634e487b7160e01b5f52601160045260245ffd5b92915050565b610a1a806200021c5f395ff3fe608060405234801561000f575f80fd5b50600436106100a6575f3560e01c80639e7b8d611161006e5780639e7b8d611461013f578063a3ec138d14610152578063da7bc0ec146101c2578063e2ba53f0146101cb578063e7052895146101d3578063ef5807e9146101e6575f80fd5b80630121b93f146100aa578063013cf08b146100bf5780632e4176cf146100ec5780635c19a95c14610116578063609ff1bd14610129575b5f80fd5b6100bd6100b8366004610931565b6101ef565b005b6100d26100cd366004610931565b6102e6565b604080519283526020830191909152015b60405180910390f35b5f546100fe906001600160a01b031681565b6040516001600160a01b0390911681526020016100e3565b6100bd610124366004610963565b610312565b6101316105c5565b6040519081526020016100e3565b6100bd61014d366004610963565b610633565b610193610160366004610963565b600160208190525f918252604090912080549181015460029091015460ff82169161010090046001600160a01b03169084565b6040516100e3949392919093845291151560208401526001600160a01b03166040830152606082015260800190565b61013160045481565b610131610796565b6100bd6101e1366004610983565b6107c5565b61013160035481565b335f908152600160205260408120805490910361024b5760405162461bcd60e51b81526020600482015260156024820152742430b9903737903934b3b43a103a37903b37ba329760591b60448201526064015b60405180910390fd5b600181015460ff16156102915760405162461bcd60e51b815260206004820152600e60248201526d20b63932b0b23c903b37ba32b21760911b6044820152606401610242565b6001818101805460ff19169091179055600280820183905581548154909190849081106102c0576102c06109ab565b905f5260205f2090600202016001015f8282546102dd91906109bf565b90915550505050565b600281815481106102f5575f80fd5b5f9182526020909120600290910201805460019091015490915082565b335f90815260016020526040812080549091036103715760405162461bcd60e51b815260206004820152601a60248201527f596f752068617665206e6f20726967687420746f20766f74652e0000000000006044820152606401610242565b600181015460ff16156103bb5760405162461bcd60e51b81526020600482015260126024820152712cb7ba9030b63932b0b23c903b37ba32b21760711b6044820152606401610242565b336001600160a01b038316036104135760405162461bcd60e51b815260206004820152601e60248201527f53656c662d64656c65676174696f6e20697320646973616c6c6f7765642e00006044820152606401610242565b6001600160a01b038281165f9081526001602081905260409091200154610100900416156104b5576001600160a01b039182165f90815260016020819052604090912001546101009004909116903382036104b05760405162461bcd60e51b815260206004820152601960248201527f466f756e64206c6f6f7020696e2064656c65676174696f6e2e000000000000006044820152606401610242565b610413565b6001600160a01b0382165f9081526001602081905260409091208054909111156105385760405162461bcd60e51b815260206004820152602e60248201527f53656c65637465642064656c656761746520646f6573206e6f7420686176652060448201526d3b37ba34b733903934b3b43a399760911b6064820152608401610242565b600182810180546001600160a81b0319166101006001600160a01b03871602178217905581015460ff16156105a75781546002828101548154811061057f5761057f6109ab565b905f5260205f2090600202016001015f82825461059c91906109bf565b909155506105c09050565b8154815482905f906105ba9084906109bf565b90915550505b505050565b5f80805b60025481101561062e5781600282815481106105e7576105e76109ab565b905f5260205f2090600202016001015411156106265760028181548110610610576106106109ab565b905f5260205f2090600202016001015491508092505b6001016105c9565b505090565b5f546001600160a01b0316331461069d5760405162461bcd60e51b815260206004820152602860248201527f4f6e6c79206368616972706572736f6e2063616e2067697665207269676874206044820152673a37903b37ba329760c11b6064820152608401610242565b6001600160a01b0381165f908152600160208190526040909120015460ff16156107095760405162461bcd60e51b815260206004820152601860248201527f54686520766f74657220616c726561647920766f7465642e00000000000000006044820152606401610242565b6001600160a01b0381165f908152600160205260409020541561077a5760405162461bcd60e51b8152602060048201526024808201527f54686520766f74657220616c72656164792068617320766f74696e6720726967604482015263343a399760e11b6064820152608401610242565b6001600160a01b03165f90815260016020819052604090912055565b5f60026107a16105c5565b815481106107b1576107b16109ab565b905f5260205f2090600202015f0154905090565b5f546001600160a01b0316331461082d5760405162461bcd60e51b815260206004820152602660248201527f4f6e6c79206368616972706572736f6e2063616e2073657420766f746572207760448201526532b4b3b43a1760d11b6064820152608401610242565b600354421015801561084157506004544211155b6108a15760405162461bcd60e51b815260206004820152602b60248201527f5765696768742073657474696e67206973206e6f7420616c6c6f77656420617460448201526a103a3434b9903a34b6b29760a91b6064820152608401610242565b6001600160a01b0382165f9081526001602052604081205490036109165760405162461bcd60e51b815260206004820152602660248201527f54686520766f74657220646f6573206e6f74206861766520766f74696e67207260448201526534b3b43a399760d11b6064820152608401610242565b6001600160a01b039091165f90815260016020526040902055565b5f60208284031215610941575f80fd5b5035919050565b80356001600160a01b038116811461095e575f80fd5b919050565b5f60208284031215610973575f80fd5b61097c82610948565b9392505050565b5f8060408385031215610994575f80fd5b61099d83610948565b946020939093013593505050565b634e487b7160e01b5f52603260045260245ffd5b808201808211156109de57634e487b7160e01b5f52601160045260245ffd5b9291505056fea264697066735822122088e4cd9453e1762df82ac1311541d8fd5302be685db575c995edc3262972257164736f6c63430008180033",
					"opcodes": "PUSH1 0x80 PUSH1 0x40 MSTORE CALLVALUE DUP1 ISZERO PUSH3 0x10 JUMPI PUSH0 DUP1 REVERT JUMPDEST POP PUSH1 0x40 MLOAD PUSH3 0xC36 CODESIZE SUB DUP1 PUSH3 0xC36 DUP4 CODECOPY DUP2 ADD PUSH1 0x40 DUP2 SWAP1 MSTORE PUSH3 0x33 SWAP2 PUSH3 0xFE JUMP JUMPDEST PUSH0 DUP1 SLOAD PUSH1 0x1 PUSH1 0x1 PUSH1 0xA0 SHL SUB NOT AND CALLER SWAP1 DUP2 OR DUP3 SSTORE DUP2 MSTORE PUSH1 0x1 PUSH1 0x20 DUP2 SWAP1 MSTORE PUSH1 0x40 DUP3 KECCAK256 SSTORE JUMPDEST DUP4 MLOAD DUP2 LT ISZERO PUSH3 0xC1 JUMPI PUSH1 0x2 PUSH1 0x40 MLOAD DUP1 PUSH1 0x40 ADD PUSH1 0x40 MSTORE DUP1 DUP7 DUP5 DUP2 MLOAD DUP2 LT PUSH3 0x81 JUMPI PUSH3 0x81 PUSH3 0x1D4 JUMP JUMPDEST PUSH1 0x20 SWAP1 DUP2 MUL SWAP2 SWAP1 SWAP2 ADD DUP2 ADD MLOAD DUP3 MSTORE PUSH0 SWAP2 DUP2 ADD DUP3 SWAP1 MSTORE DUP4 SLOAD PUSH1 0x1 DUP2 DUP2 ADD DUP7 SSTORE SWAP5 DUP4 MSTORE SWAP2 DUP2 SWAP1 KECCAK256 DUP4 MLOAD PUSH1 0x2 SWAP1 SWAP4 MUL ADD SWAP2 DUP3 SSTORE SWAP2 SWAP1 SWAP2 ADD MLOAD SWAP1 DUP3 ADD SSTORE ADD PUSH3 0x55 JUMP JUMPDEST POP PUSH3 0xCE DUP3 TIMESTAMP PUSH3 0x1E8 JUMP JUMPDEST PUSH1 0x3 SSTORE PUSH3 0xDD DUP2 TIMESTAMP PUSH3 0x1E8 JUMP JUMPDEST PUSH1 0x4 SSTORE POP PUSH3 0x20E SWAP2 POP POP JUMP JUMPDEST PUSH4 0x4E487B71 PUSH1 0xE0 SHL PUSH0 MSTORE PUSH1 0x41 PUSH1 0x4 MSTORE PUSH1 0x24 PUSH0 REVERT JUMPDEST PUSH0 DUP1 PUSH0 PUSH1 0x60 DUP5 DUP7 SUB SLT ISZERO PUSH3 0x111 JUMPI PUSH0 DUP1 REVERT JUMPDEST DUP4 MLOAD PUSH1 0x1 PUSH1 0x1 PUSH1 0x40 SHL SUB DUP1 DUP3 GT ISZERO PUSH3 0x128 JUMPI PUSH0 DUP1 REVERT JUMPDEST DUP2 DUP7 ADD SWAP2 POP DUP7 PUSH1 0x1F DUP4 ADD SLT PUSH3 0x13C JUMPI PUSH0 DUP1 REVERT JUMPDEST DUP2 MLOAD PUSH1 0x20 DUP3 DUP3 GT ISZERO PUSH3 0x153 JUMPI PUSH3 0x153 PUSH3 0xEA JUMP JUMPDEST DUP2 PUSH1 0x5 SHL PUSH1 0x40 MLOAD PUSH1 0x1F NOT PUSH1 0x3F DUP4 ADD AND DUP2 ADD DUP2 DUP2 LT DUP7 DUP3 GT OR ISZERO PUSH3 0x17B JUMPI PUSH3 0x17B PUSH3 0xEA JUMP JUMPDEST PUSH1 0x40 MSTORE SWAP3 DUP4 MSTORE DUP2 DUP4 ADD SWAP4 POP DUP5 DUP2 ADD DUP3 ADD SWAP3 DUP11 DUP5 GT ISZERO PUSH3 0x199 JUMPI PUSH0 DUP1 REVERT JUMPDEST SWAP5 DUP3 ADD SWAP5 JUMPDEST DUP4 DUP7 LT ISZERO PUSH3 0x1B9 JUMPI DUP6 MLOAD DUP6 MSTORE SWAP5 DUP3 ADD SWAP5 SWAP4 DUP3 ADD SWAP4 PUSH3 0x19E JUMP JUMPDEST SWAP2 DUP10 ADD MLOAD PUSH1 0x40 SWAP1 SWAP10 ADD MLOAD SWAP2 SWAP11 SWAP9 SWAP10 POP SWAP1 SWAP8 SWAP7 POP POP POP POP POP POP POP JUMP JUMPDEST PUSH4 0x4E487B71 PUSH1 0xE0 SHL PUSH0 MSTORE PUSH1 0x32 PUSH1 0x4 MSTORE PUSH1 0x24 PUSH0 REVERT JUMPDEST DUP1 DUP3 ADD DUP1 DUP3 GT ISZERO PUSH3 0x208 JUMPI PUSH4 0x4E487B71 PUSH1 0xE0 SHL PUSH0 MSTORE PUSH1 0x11 PUSH1 0x4 MSTORE PUSH1 0x24 PUSH0 REVERT JUMPDEST SWAP3 SWAP2 POP POP JUMP JUMPDEST PUSH2 0xA1A DUP1 PUSH3 0x21C PUSH0 CODECOPY PUSH0 RETURN INVALID PUSH1 0x80 PUSH1 0x40 MSTORE CALLVALUE DUP1 ISZERO PUSH2 0xF JUMPI PUSH0 DUP1 REVERT JUMPDEST POP PUSH1 0x4 CALLDATASIZE LT PUSH2 0xA6 JUMPI PUSH0 CALLDATALOAD PUSH1 0xE0 SHR DUP1 PUSH4 0x9E7B8D61 GT PUSH2 0x6E JUMPI DUP1 PUSH4 0x9E7B8D61 EQ PUSH2 0x13F JUMPI DUP1 PUSH4 0xA3EC138D EQ PUSH2 0x152 JUMPI DUP1 PUSH4 0xDA7BC0EC EQ PUSH2 0x1C2 JUMPI DUP1 PUSH4 0xE2BA53F0 EQ PUSH2 0x1CB JUMPI DUP1 PUSH4 0xE7052895 EQ PUSH2 0x1D3 JUMPI DUP1 PUSH4 0xEF5807E9 EQ PUSH2 0x1E6 JUMPI PUSH0 DUP1 REVERT JUMPDEST DUP1 PUSH4 0x121B93F EQ PUSH2 0xAA JUMPI DUP1 PUSH4 0x13CF08B EQ PUSH2 0xBF JUMPI DUP1 PUSH4 0x2E4176CF EQ PUSH2 0xEC JUMPI DUP1 PUSH4 0x5C19A95C EQ PUSH2 0x116 JUMPI DUP1 PUSH4 0x609FF1BD EQ PUSH2 0x129 JUMPI JUMPDEST PUSH0 DUP1 REVERT JUMPDEST PUSH2 0xBD PUSH2 0xB8 CALLDATASIZE PUSH1 0x4 PUSH2 0x931 JUMP JUMPDEST PUSH2 0x1EF JUMP JUMPDEST STOP JUMPDEST PUSH2 0xD2 PUSH2 0xCD CALLDATASIZE PUSH1 0x4 PUSH2 0x931 JUMP JUMPDEST PUSH2 0x2E6 JUMP JUMPDEST PUSH1 0x40 DUP1 MLOAD SWAP3 DUP4 MSTORE PUSH1 0x20 DUP4 ADD SWAP2 SWAP1 SWAP2 MSTORE ADD JUMPDEST PUSH1 0x40 MLOAD DUP1 SWAP2 SUB SWAP1 RETURN JUMPDEST PUSH0 SLOAD PUSH2 0xFE SWAP1 PUSH1 0x1 PUSH1 0x1 PUSH1 0xA0 SHL SUB AND DUP2 JUMP JUMPDEST PUSH1 0x40 MLOAD PUSH1 0x1 PUSH1 0x1 PUSH1 0xA0 SHL SUB SWAP1 SWAP2 AND DUP2 MSTORE PUSH1 0x20 ADD PUSH2 0xE3 JUMP JUMPDEST PUSH2 0xBD PUSH2 0x124 CALLDATASIZE PUSH1 0x4 PUSH2 0x963 JUMP JUMPDEST PUSH2 0x312 JUMP JUMPDEST PUSH2 0x131 PUSH2 0x5C5 JUMP JUMPDEST PUSH1 0x40 MLOAD SWAP1 DUP2 MSTORE PUSH1 0x20 ADD PUSH2 0xE3 JUMP JUMPDEST PUSH2 0xBD PUSH2 0x14D CALLDATASIZE PUSH1 0x4 PUSH2 0x963 JUMP JUMPDEST PUSH2 0x633 JUMP JUMPDEST PUSH2 0x193 PUSH2 0x160 CALLDATASIZE PUSH1 0x4 PUSH2 0x963 JUMP JUMPDEST PUSH1 0x1 PUSH1 0x20 DUP2 SWAP1 MSTORE PUSH0 SWAP2 DUP3 MSTORE PUSH1 0x40 SWAP1 SWAP2 KECCAK256 DUP1 SLOAD SWAP2 DUP2 ADD SLOAD PUSH1 0x2 SWAP1 SWAP2 ADD SLOAD PUSH1 0xFF DUP3 AND SWAP2 PUSH2 0x100 SWAP1 DIV PUSH1 0x1 PUSH1 0x1 PUSH1 0xA0 SHL SUB AND SWAP1 DUP5 JUMP JUMPDEST PUSH1 0x40 MLOAD PUSH2 0xE3 SWAP5 SWAP4 SWAP3 SWAP2 SWAP1 SWAP4 DUP5 MSTORE SWAP2 ISZERO ISZERO PUSH1 0x20 DUP5 ADD MSTORE PUSH1 0x1 PUSH1 0x1 PUSH1 0xA0 SHL SUB AND PUSH1 0x40 DUP4 ADD MSTORE PUSH1 0x60 DUP3 ADD MSTORE PUSH1 0x80 ADD SWAP1 JUMP JUMPDEST PUSH2 0x131 PUSH1 0x4 SLOAD DUP2 JUMP JUMPDEST PUSH2 0x131 PUSH2 0x796 JUMP JUMPDEST PUSH2 0xBD PUSH2 0x1E1 CALLDATASIZE PUSH1 0x4 PUSH2 0x983 JUMP JUMPDEST PUSH2 0x7C5 JUMP JUMPDEST PUSH2 0x131 PUSH1 0x3 SLOAD DUP2 JUMP JUMPDEST CALLER PUSH0 SWAP1 DUP2 MSTORE PUSH1 0x1 PUSH1 0x20 MSTORE PUSH1 0x40 DUP2 KECCAK256 DUP1 SLOAD SWAP1 SWAP2 SUB PUSH2 0x24B JUMPI PUSH1 0x40 MLOAD PUSH3 0x461BCD PUSH1 0xE5 SHL DUP2 MSTORE PUSH1 0x20 PUSH1 0x4 DUP3 ADD MSTORE PUSH1 0x15 PUSH1 0x24 DUP3 ADD MSTORE PUSH21 0x2430B9903737903934B3B43A103A37903B37BA3297 PUSH1 0x59 SHL PUSH1 0x44 DUP3 ADD MSTORE PUSH1 0x64 ADD JUMPDEST PUSH1 0x40 MLOAD DUP1 SWAP2 SUB SWAP1 REVERT JUMPDEST PUSH1 0x1 DUP2 ADD SLOAD PUSH1 0xFF AND ISZERO PUSH2 0x291 JUMPI PUSH1 0x40 MLOAD PUSH3 0x461BCD PUSH1 0xE5 SHL DUP2 MSTORE PUSH1 0x20 PUSH1 0x4 DUP3 ADD MSTORE PUSH1 0xE PUSH1 0x24 DUP3 ADD MSTORE PUSH14 0x20B63932B0B23C903B37BA32B217 PUSH1 0x91 SHL PUSH1 0x44 DUP3 ADD MSTORE PUSH1 0x64 ADD PUSH2 0x242 JUMP JUMPDEST PUSH1 0x1 DUP2 DUP2 ADD DUP1 SLOAD PUSH1 0xFF NOT AND SWAP1 SWAP2 OR SWAP1 SSTORE PUSH1 0x2 DUP1 DUP3 ADD DUP4 SWAP1 SSTORE DUP2 SLOAD DUP2 SLOAD SWAP1 SWAP2 SWAP1 DUP5 SWAP1 DUP2 LT PUSH2 0x2C0 JUMPI PUSH2 0x2C0 PUSH2 0x9AB JUMP JUMPDEST SWAP1 PUSH0 MSTORE PUSH1 0x20 PUSH0 KECCAK256 SWAP1 PUSH1 0x2 MUL ADD PUSH1 0x1 ADD PUSH0 DUP3 DUP3 SLOAD PUSH2 0x2DD SWAP2 SWAP1 PUSH2 0x9BF JUMP JUMPDEST SWAP1 SWAP2 SSTORE POP POP POP POP JUMP JUMPDEST PUSH1 0x2 DUP2 DUP2 SLOAD DUP2 LT PUSH2 0x2F5 JUMPI PUSH0 DUP1 REVERT JUMPDEST PUSH0 SWAP2 DUP3 MSTORE PUSH1 0x20 SWAP1 SWAP2 KECCAK256 PUSH1 0x2 SWAP1 SWAP2 MUL ADD DUP1 SLOAD PUSH1 0x1 SWAP1 SWAP2 ADD SLOAD SWAP1 SWAP2 POP DUP3 JUMP JUMPDEST CALLER PUSH0 SWAP1 DUP2 MSTORE PUSH1 0x1 PUSH1 0x20 MSTORE PUSH1 0x40 DUP2 KECCAK256 DUP1 SLOAD SWAP1 SWAP2 SUB PUSH2 0x371 JUMPI PUSH1 0x40 MLOAD PUSH3 0x461BCD PUSH1 0xE5 SHL DUP2 MSTORE PUSH1 0x20 PUSH1 0x4 DUP3 ADD MSTORE PUSH1 0x1A PUSH1 0x24 DUP3 ADD MSTORE PUSH32 0x596F752068617665206E6F20726967687420746F20766F74652E000000000000 PUSH1 0x44 DUP3 ADD MSTORE PUSH1 0x64 ADD PUSH2 0x242 JUMP JUMPDEST PUSH1 0x1 DUP2 ADD SLOAD PUSH1 0xFF AND ISZERO PUSH2 0x3BB JUMPI PUSH1 0x40 MLOAD PUSH3 0x461BCD PUSH1 0xE5 SHL DUP2 MSTORE PUSH1 0x20 PUSH1 0x4 DUP3 ADD MSTORE PUSH1 0x12 PUSH1 0x24 DUP3 ADD MSTORE PUSH18 0x2CB7BA9030B63932B0B23C903B37BA32B217 PUSH1 0x71 SHL PUSH1 0x44 DUP3 ADD MSTORE PUSH1 0x64 ADD PUSH2 0x242 JUMP JUMPDEST CALLER PUSH1 0x1 PUSH1 0x1 PUSH1 0xA0 SHL SUB DUP4 AND SUB PUSH2 0x413 JUMPI PUSH1 0x40 MLOAD PUSH3 0x461BCD PUSH1 0xE5 SHL DUP2 MSTORE PUSH1 0x20 PUSH1 0x4 DUP3 ADD MSTORE PUSH1 0x1E PUSH1 0x24 DUP3 ADD MSTORE PUSH32 0x53656C662D64656C65676174696F6E20697320646973616C6C6F7765642E0000 PUSH1 0x44 DUP3 ADD MSTORE PUSH1 0x64 ADD PUSH2 0x242 JUMP JUMPDEST PUSH1 0x1 PUSH1 0x1 PUSH1 0xA0 SHL SUB DUP3 DUP2 AND PUSH0 SWAP1 DUP2 MSTORE PUSH1 0x1 PUSH1 0x20 DUP2 SWAP1 MSTORE PUSH1 0x40 SWAP1 SWAP2 KECCAK256 ADD SLOAD PUSH2 0x100 SWAP1 DIV AND ISZERO PUSH2 0x4B5 JUMPI PUSH1 0x1 PUSH1 0x1 PUSH1 0xA0 SHL SUB SWAP2 DUP3 AND PUSH0 SWAP1 DUP2 MSTORE PUSH1 0x1 PUSH1 0x20 DUP2 SWAP1 MSTORE PUSH1 0x40 SWAP1 SWAP2 KECCAK256 ADD SLOAD PUSH2 0x100 SWAP1 DIV SWAP1 SWAP2 AND SWAP1 CALLER DUP3 SUB PUSH2 0x4B0 JUMPI PUSH1 0x40 MLOAD PUSH3 0x461BCD PUSH1 0xE5 SHL DUP2 MSTORE PUSH1 0x20 PUSH1 0x4 DUP3 ADD MSTORE PUSH1 0x19 PUSH1 0x24 DUP3 ADD MSTORE PUSH32 0x466F756E64206C6F6F7020696E2064656C65676174696F6E2E00000000000000 PUSH1 0x44 DUP3 ADD MSTORE PUSH1 0x64 ADD PUSH2 0x242 JUMP JUMPDEST PUSH2 0x413 JUMP JUMPDEST PUSH1 0x1 PUSH1 0x1 PUSH1 0xA0 SHL SUB DUP3 AND PUSH0 SWAP1 DUP2 MSTORE PUSH1 0x1 PUSH1 0x20 DUP2 SWAP1 MSTORE PUSH1 0x40 SWAP1 SWAP2 KECCAK256 DUP1 SLOAD SWAP1 SWAP2 GT ISZERO PUSH2 0x538 JUMPI PUSH1 0x40 MLOAD PUSH3 0x461BCD PUSH1 0xE5 SHL DUP2 MSTORE PUSH1 0x20 PUSH1 0x4 DUP3 ADD MSTORE PUSH1 0x2E PUSH1 0x24 DUP3 ADD MSTORE PUSH32 0x53656C65637465642064656C656761746520646F6573206E6F74206861766520 PUSH1 0x44 DUP3 ADD MSTORE PUSH14 0x3B37BA34B733903934B3B43A3997 PUSH1 0x91 SHL PUSH1 0x64 DUP3 ADD MSTORE PUSH1 0x84 ADD PUSH2 0x242 JUMP JUMPDEST PUSH1 0x1 DUP3 DUP2 ADD DUP1 SLOAD PUSH1 0x1 PUSH1 0x1 PUSH1 0xA8 SHL SUB NOT AND PUSH2 0x100 PUSH1 0x1 PUSH1 0x1 PUSH1 0xA0 SHL SUB DUP8 AND MUL OR DUP3 OR SWAP1 SSTORE DUP2 ADD SLOAD PUSH1 0xFF AND ISZERO PUSH2 0x5A7 JUMPI DUP2 SLOAD PUSH1 0x2 DUP3 DUP2 ADD SLOAD DUP2 SLOAD DUP2 LT PUSH2 0x57F JUMPI PUSH2 0x57F PUSH2 0x9AB JUMP JUMPDEST SWAP1 PUSH0 MSTORE PUSH1 0x20 PUSH0 KECCAK256 SWAP1 PUSH1 0x2 MUL ADD PUSH1 0x1 ADD PUSH0 DUP3 DUP3 SLOAD PUSH2 0x59C SWAP2 SWAP1 PUSH2 0x9BF JUMP JUMPDEST SWAP1 SWAP2 SSTORE POP PUSH2 0x5C0 SWAP1 POP JUMP JUMPDEST DUP2 SLOAD DUP2 SLOAD DUP3 SWAP1 PUSH0 SWAP1 PUSH2 0x5BA SWAP1 DUP5 SWAP1 PUSH2 0x9BF JUMP JUMPDEST SWAP1 SWAP2 SSTORE POP POP JUMPDEST POP POP POP JUMP JUMPDEST PUSH0 DUP1 DUP1 JUMPDEST PUSH1 0x2 SLOAD DUP2 LT ISZERO PUSH2 0x62E JUMPI DUP2 PUSH1 0x2 DUP3 DUP2 SLOAD DUP2 LT PUSH2 0x5E7 JUMPI PUSH2 0x5E7 PUSH2 0x9AB JUMP JUMPDEST SWAP1 PUSH0 MSTORE PUSH1 0x20 PUSH0 KECCAK256 SWAP1 PUSH1 0x2 MUL ADD PUSH1 0x1 ADD SLOAD GT ISZERO PUSH2 0x626 JUMPI PUSH1 0x2 DUP2 DUP2 SLOAD DUP2 LT PUSH2 0x610 JUMPI PUSH2 0x610 PUSH2 0x9AB JUMP JUMPDEST SWAP1 PUSH0 MSTORE PUSH1 0x20 PUSH0 KECCAK256 SWAP1 PUSH1 0x2 MUL ADD PUSH1 0x1 ADD SLOAD SWAP2 POP DUP1 SWAP3 POP JUMPDEST PUSH1 0x1 ADD PUSH2 0x5C9 JUMP JUMPDEST POP POP SWAP1 JUMP JUMPDEST PUSH0 SLOAD PUSH1 0x1 PUSH1 0x1 PUSH1 0xA0 SHL SUB AND CALLER EQ PUSH2 0x69D JUMPI PUSH1 0x40 MLOAD PUSH3 0x461BCD PUSH1 0xE5 SHL DUP2 MSTORE PUSH1 0x20 PUSH1 0x4 DUP3 ADD MSTORE PUSH1 0x28 PUSH1 0x24 DUP3 ADD MSTORE PUSH32 0x4F6E6C79206368616972706572736F6E2063616E206769766520726967687420 PUSH1 0x44 DUP3 ADD MSTORE PUSH8 0x3A37903B37BA3297 PUSH1 0xC1 SHL PUSH1 0x64 DUP3 ADD MSTORE PUSH1 0x84 ADD PUSH2 0x242 JUMP JUMPDEST PUSH1 0x1 PUSH1 0x1 PUSH1 0xA0 SHL SUB DUP2 AND PUSH0 SWAP1 DUP2 MSTORE PUSH1 0x1 PUSH1 0x20 DUP2 SWAP1 MSTORE PUSH1 0x40 SWAP1 SWAP2 KECCAK256 ADD SLOAD PUSH1 0xFF AND ISZERO PUSH2 0x709 JUMPI PUSH1 0x40 MLOAD PUSH3 0x461BCD PUSH1 0xE5 SHL DUP2 MSTORE PUSH1 0x20 PUSH1 0x4 DUP3 ADD MSTORE PUSH1 0x18 PUSH1 0x24 DUP3 ADD MSTORE PUSH32 0x54686520766F74657220616C726561647920766F7465642E0000000000000000 PUSH1 0x44 DUP3 ADD MSTORE PUSH1 0x64 ADD PUSH2 0x242 JUMP JUMPDEST PUSH1 0x1 PUSH1 0x1 PUSH1 0xA0 SHL SUB DUP2 AND PUSH0 SWAP1 DUP2 MSTORE PUSH1 0x1 PUSH1 0x20 MSTORE PUSH1 0x40 SWAP1 KECCAK256 SLOAD ISZERO PUSH2 0x77A JUMPI PUSH1 0x40 MLOAD PUSH3 0x461BCD PUSH1 0xE5 SHL DUP2 MSTORE PUSH1 0x20 PUSH1 0x4 DUP3 ADD MSTORE PUSH1 0x24 DUP1 DUP3 ADD MSTORE PUSH32 0x54686520766F74657220616C72656164792068617320766F74696E6720726967 PUSH1 0x44 DUP3 ADD MSTORE PUSH4 0x343A3997 PUSH1 0xE1 SHL PUSH1 0x64 DUP3 ADD MSTORE PUSH1 0x84 ADD PUSH2 0x242 JUMP JUMPDEST PUSH1 0x1 PUSH1 0x1 PUSH1 0xA0 SHL SUB AND PUSH0 SWAP1 DUP2 MSTORE PUSH1 0x1 PUSH1 0x20 DUP2 SWAP1 MSTORE PUSH1 0x40 SWAP1 SWAP2 KECCAK256 SSTORE JUMP JUMPDEST PUSH0 PUSH1 0x2 PUSH2 0x7A1 PUSH2 0x5C5 JUMP JUMPDEST DUP2 SLOAD DUP2 LT PUSH2 0x7B1 JUMPI PUSH2 0x7B1 PUSH2 0x9AB JUMP JUMPDEST SWAP1 PUSH0 MSTORE PUSH1 0x20 PUSH0 KECCAK256 SWAP1 PUSH1 0x2 MUL ADD PUSH0 ADD SLOAD SWAP1 POP SWAP1 JUMP JUMPDEST PUSH0 SLOAD PUSH1 0x1 PUSH1 0x1 PUSH1 0xA0 SHL SUB AND CALLER EQ PUSH2 0x82D JUMPI PUSH1 0x40 MLOAD PUSH3 0x461BCD PUSH1 0xE5 SHL DUP2 MSTORE PUSH1 0x20 PUSH1 0x4 DUP3 ADD MSTORE PUSH1 0x26 PUSH1 0x24 DUP3 ADD MSTORE PUSH32 0x4F6E6C79206368616972706572736F6E2063616E2073657420766F7465722077 PUSH1 0x44 DUP3 ADD MSTORE PUSH6 0x32B4B3B43A17 PUSH1 0xD1 SHL PUSH1 0x64 DUP3 ADD MSTORE PUSH1 0x84 ADD PUSH2 0x242 JUMP JUMPDEST PUSH1 0x3 SLOAD TIMESTAMP LT ISZERO DUP1 ISZERO PUSH2 0x841 JUMPI POP PUSH1 0x4 SLOAD TIMESTAMP GT ISZERO JUMPDEST PUSH2 0x8A1 JUMPI PUSH1 0x40 MLOAD PUSH3 0x461BCD PUSH1 0xE5 SHL DUP2 MSTORE PUSH1 0x20 PUSH1 0x4 DUP3 ADD MSTORE PUSH1 0x2B PUSH1 0x24 DUP3 ADD MSTORE PUSH32 0x5765696768742073657474696E67206973206E6F7420616C6C6F776564206174 PUSH1 0x44 DUP3 ADD MSTORE PUSH11 0x103A3434B9903A34B6B297 PUSH1 0xA9 SHL PUSH1 0x64 DUP3 ADD MSTORE PUSH1 0x84 ADD PUSH2 0x242 JUMP JUMPDEST PUSH1 0x1 PUSH1 0x1 PUSH1 0xA0 SHL SUB DUP3 AND PUSH0 SWAP1 DUP2 MSTORE PUSH1 0x1 PUSH1 0x20 MSTORE PUSH1 0x40 DUP2 KECCAK256 SLOAD SWAP1 SUB PUSH2 0x916 JUMPI PUSH1 0x40 MLOAD PUSH3 0x461BCD PUSH1 0xE5 SHL DUP2 MSTORE PUSH1 0x20 PUSH1 0x4 DUP3 ADD MSTORE PUSH1 0x26 PUSH1 0x24 DUP3 ADD MSTORE PUSH32 0x54686520766F74657220646F6573206E6F74206861766520766F74696E672072 PUSH1 0x44 DUP3 ADD MSTORE PUSH6 0x34B3B43A3997 PUSH1 0xD1 SHL PUSH1 0x64 DUP3 ADD MSTORE PUSH1 0x84 ADD PUSH2 0x242 JUMP JUMPDEST PUSH1 0x1 PUSH1 0x1 PUSH1 0xA0 SHL SUB SWAP1 SWAP2 AND PUSH0 SWAP1 DUP2 MSTORE PUSH1 0x1 PUSH1 0x20 MSTORE PUSH1 0x40 SWAP1 KECCAK256 SSTORE JUMP JUMPDEST PUSH0 PUSH1 0x20 DUP3 DUP5 SUB SLT ISZERO PUSH2 0x941 JUMPI PUSH0 DUP1 REVERT JUMPDEST POP CALLDATALOAD SWAP2 SWAP1 POP JUMP JUMPDEST DUP1 CALLDATALOAD PUSH1 0x1 PUSH1 0x1 PUSH1 0xA0 SHL SUB DUP2 AND DUP2 EQ PUSH2 0x95E JUMPI PUSH0 DUP1 REVERT JUMPDEST SWAP2 SWAP1 POP JUMP JUMPDEST PUSH0 PUSH1 0x20 DUP3 DUP5 SUB SLT ISZERO PUSH2 0x973 JUMPI PUSH0 DUP1 REVERT JUMPDEST PUSH2 0x97C DUP3 PUSH2 0x948 JUMP JUMPDEST SWAP4 SWAP3 POP POP POP JUMP JUMPDEST PUSH0 DUP1 PUSH1 0x40 DUP4 DUP6 SUB SLT ISZERO PUSH2 0x994 JUMPI PUSH0 DUP1 REVERT JUMPDEST PUSH2 0x99D DUP4 PUSH2 0x948 JUMP JUMPDEST SWAP5 PUSH1 0x20 SWAP4 SWAP1 SWAP4 ADD CALLDATALOAD SWAP4 POP POP POP JUMP JUMPDEST PUSH4 0x4E487B71 PUSH1 0xE0 SHL PUSH0 MSTORE PUSH1 0x32 PUSH1 0x4 MSTORE PUSH1 0x24 PUSH0 REVERT JUMPDEST DUP1 DUP3 ADD DUP1 DUP3 GT ISZERO PUSH2 0x9DE JUMPI PUSH4 0x4E487B71 PUSH1 0xE0 SHL PUSH0 MSTORE PUSH1 0x11 PUSH1 0x4 MSTORE PUSH1 0x24 PUSH0 REVERT JUMPDEST SWAP3 SWAP2 POP POP JUMP INVALID LOG2 PUSH5 0x6970667358 0x22 SLT KECCAK256 DUP9 0xE4 0xCD SWAP5 MSTORE8 0xE1 PUSH23 0x2DF82AC1311541D8FD5302BE685DB575C995EDC3262972 0x25 PUSH18 0x64736F6C6343000818003300000000000000 "
				},
				"gasEstimates": {
					"creation": {
						"codeDepositCost": "517200",
						"executionCost": "infinite",
						"totalCost": "infinite"
					},
					"external": {
						"chairperson()": "2380",
						"delegate(address)": "infinite",
						"giveRightToVote(address)": "29064",
						"proposals(uint256)": "6740",
						"setVoterWeight(address,uint256)": "31207",
						"vote(uint256)": "79509",
						"voters(address)": "6905",
						"weightSettingEndTime()": "2338",
						"weightSettingStartTime()": "2404",
						"winnerName()": "infinite",
						"winningProposal()": "infinite"
					}
				},
				"methodIdentifiers": {
					"chairperson()": "2e4176cf",
					"delegate(address)": "5c19a95c",
					"giveRightToVote(address)": "9e7b8d61",
					"proposals(uint256)": "013cf08b",
					"setVoterWeight(address,uint256)": "e7052895",
					"vote(uint256)": "0121b93f",
					"voters(address)": "a3ec138d",
					"weightSettingEndTime()": "da7bc0ec",
					"weightSettingStartTime()": "ef5807e9",
					"winnerName()": "e2ba53f0",
					"winningProposal()": "609ff1bd"
				}
			},
			"storageLayout": {
				"storage": [
					{
						"astId": 17,
						"contract": "Ballot/Ballot_02.sol:Ballot",
						"label": "chairperson",
						"offset": 0,
						"slot": "0",
						"type": "t_address"
					},
					{
						"astId": 22,
						"contract": "Ballot/Ballot_02.sol:Ballot",
						"label": "voters",
						"offset": 0,
						"slot": "1",
						"type": "t_mapping(t_address,t_struct(Voter)10_storage)"
					},
					{
						"astId": 26,
						"contract": "Ballot/Ballot_02.sol:Ballot",
						"label": "proposals",
						"offset": 0,
						"slot": "2",
						"type": "t_array(t_struct(Proposal)15_storage)dyn_storage"
					},
					{
						"astId": 28,
						"contract": "Ballot/Ballot_02.sol:Ballot",
						"label": "weightSettingStartTime",
						"offset": 0,
						"slot": "3",
						"type": "t_uint256"
					},
					{
						"astId": 30,
						"contract": "Ballot/Ballot_02.sol:Ballot",
						"label": "weightSettingEndTime",
						"offset": 0,
						"slot": "4",
						"type": "t_uint256"
					}
				],
				"types": {
					"t_address": {
						"encoding": "inplace",
						"label": "address",
						"numberOfBytes": "20"
					},
					"t_array(t_struct(Proposal)15_storage)dyn_storage": {
						"base": "t_struct(Proposal)15_storage",
						"encoding": "dynamic_array",
						"label": "struct Ballot.Proposal[]",
						"numberOfBytes": "32"
					},
					"t_bool": {
						"encoding": "inplace",
						"label": "bool",
						"numberOfBytes": "1"
					},
					"t_bytes32": {
						"encoding": "inplace",
						"label": "bytes32",
						"numberOfBytes": "32"
					},
					"t_mapping(t_address,t_struct(Voter)10_storage)": {
						"encoding": "mapping",
						"key": "t_address",
						"label": "mapping(address => struct Ballot.Voter)",
						"numberOfBytes": "32",
						"value": "t_struct(Voter)10_storage"
					},
					"t_struct(Proposal)15_storage": {
						"encoding": "inplace",
						"label": "struct Ballot.Proposal",
						"members": [
							{
								"astId": 12,
								"contract": "Ballot/Ballot_02.sol:Ballot",
								"label": "name",
								"offset": 0,
								"slot": "0",
								"type": "t_bytes32"
							},
							{
								"astId": 14,
								"contract": "Ballot/Ballot_02.sol:Ballot",
								"label": "voteCount",
								"offset": 0,
								"slot": "1",
								"type": "t_uint256"
							}
						],
						"numberOfBytes": "64"
					},
					"t_struct(Voter)10_storage": {
						"encoding": "inplace",
						"label": "struct Ballot.Voter",
						"members": [
							{
								"astId": 3,
								"contract": "Ballot/Ballot_02.sol:Ballot",
								"label": "weight",
								"offset": 0,
								"slot": "0",
								"type": "t_uint256"
							},
							{
								"astId": 5,
								"contract": "Ballot/Ballot_02.sol:Ballot",
								"label": "voted",
								"offset": 0,
								"slot": "1",
								"type": "t_bool"
							},
							{
								"astId": 7,
								"contract": "Ballot/Ballot_02.sol:Ballot",
								"label": "delegate",
								"offset": 1,
								"slot": "1",
								"type": "t_address"
							},
							{
								"astId": 9,
								"contract": "Ballot/Ballot_02.sol:Ballot",
								"label": "vote",
								"offset": 0,
								"slot": "2",
								"type": "t_uint256"
							}
						],
						"numberOfBytes": "96"
					},
					"t_uint256": {
						"encoding": "inplace",
						"label": "uint256",
						"numberOfBytes": "32"
					}
				}
			},
			"userdoc": {
				"kind": "user",
				"methods": {},
				"version": 1
			}
		}
	}
}