{
	"Ballot/Ballot_01.sol": {
		"Ballot": {
			"abi": [
				{
					"inputs": [
						{
							"internalType": "bytes32[]",
							"name": "proposalNames",
							"type": "bytes32[]"
						},
						{
							"internalType": "uint256",
							"name": "startTimeDelay",
							"type": "uint256"
						},
						{
							"internalType": "uint256",
							"name": "duration",
							"type": "uint256"
						}
					],
					"stateMutability": "nonpayable",
					"type": "constructor"
				},
				{
					"inputs": [],
					"name": "chairperson",
					"outputs": [
						{
							"internalType": "address",
							"name": "",
							"type": "address"
						}
					],
					"stateMutability": "view",
					"type": "function"
				},
				{
					"inputs": [
						{
							"internalType": "address",
							"name": "to",
							"type": "address"
						}
					],
					"name": "delegate",
					"outputs": [],
					"stateMutability": "nonpayable",
					"type": "function"
				},
				{
					"inputs": [],
					"name": "endTime",
					"outputs": [
						{
							"internalType": "uint256",
							"name": "",
							"type": "uint256"
						}
					],
					"stateMutability": "view",
					"type": "function"
				},
				{
					"inputs": [
						{
							"internalType": "address",
							"name": "voter",
							"type": "address"
						}
					],
					"name": "giveRightToVote",
					"outputs": [],
					"stateMutability": "nonpayable",
					"type": "function"
				},
				{
					"inputs": [
						{
							"internalType": "uint256",
							"name": "",
							"type": "uint256"
						}
					],
					"name": "proposals",
					"outputs": [
						{
							"internalType": "bytes32",
							"name": "name",
							"type": "bytes32"
						},
						{
							"internalType": "uint256",
							"name": "voteCount",
							"type": "uint256"
						}
					],
					"stateMutability": "view",
					"type": "function"
				},
				{
					"inputs": [],
					"name": "startTime",
					"outputs": [
						{
							"internalType": "uint256",
							"name": "",
							"type": "uint256"
						}
					],
					"stateMutability": "view",
					"type": "function"
				},
				{
					"inputs": [
						{
							"internalType": "uint256",
							"name": "proposal",
							"type": "uint256"
						}
					],
					"name": "vote",
					"outputs": [],
					"stateMutability": "nonpayable",
					"type": "function"
				},
				{
					"inputs": [
						{
							"internalType": "address",
							"name": "",
							"type": "address"
						}
					],
					"name": "voters",
					"outputs": [
						{
							"internalType": "uint256",
							"name": "weight",
							"type": "uint256"
						},
						{
							"internalType": "bool",
							"name": "voted",
							"type": "bool"
						},
						{
							"internalType": "address",
							"name": "delegate",
							"type": "address"
						},
						{
							"internalType": "uint256",
							"name": "vote",
							"type": "uint256"
						}
					],
					"stateMutability": "view",
					"type": "function"
				},
				{
					"inputs": [],
					"name": "winnerName",
					"outputs": [
						{
							"internalType": "bytes32",
							"name": "winnerName_",
							"type": "bytes32"
						}
					],
					"stateMutability": "view",
					"type": "function"
				},
				{
					"inputs": [],
					"name": "winningProposal",
					"outputs": [
						{
							"internalType": "uint256",
							"name": "winningProposal_",
							"type": "uint256"
						}
					],
					"stateMutability": "view",
					"type": "function"
				}
			],
			"devdoc": {
				"kind": "dev",
				"methods": {},
				"version": 1
			},
			"evm": {
				"assembly": "    /* \"Ballot/Ballot_01.sol\":675:4111  contract Ballot {... */\n  mstore(0x40, 0x80)\n    /* \"Ballot/Ballot_01.sol\":1134:1789  constructor(... */\n  callvalue\n  dup1\n  iszero\n  tag_1\n  jumpi\n  0x00\n  dup1\n  revert\ntag_1:\n  pop\n  mload(0x40)\n  sub(codesize, bytecodeSize)\n  dup1\n  bytecodeSize\n  dup4\n  codecopy\n  dup2\n  add\n  0x40\n  dup2\n  swap1\n  mstore\n  tag_2\n  swap2\n  tag_3\n  jump\t// in\ntag_2:\n    /* \"Ballot/Ballot_01.sol\":1308:1319  chairperson */\n  0x00\n    /* \"Ballot/Ballot_01.sol\":1308:1332  chairperson = msg.sender */\n  dup1\n  sload\n  not(sub(shl(0xa0, 0x01), 0x01))\n  and\n    /* \"Ballot/Ballot_01.sol\":1322:1332  msg.sender */\n  caller\n    /* \"Ballot/Ballot_01.sol\":1308:1332  chairperson = msg.sender */\n  swap1\n  dup2\n  or\n  dup3\n  sstore\n    /* \"Ballot/Ballot_01.sol\":1343:1362  voters[chairperson] */\n  dup2\n  mstore\n    /* \"Ballot/Ballot_01.sol\":1308:1332  chairperson = msg.sender */\n  0x01\n    /* \"Ballot/Ballot_01.sol\":1343:1362  voters[chairperson] */\n  0x20\n  dup2\n  swap1\n  mstore\n  0x40\n  dup3\n  keccak256\n    /* \"Ballot/Ballot_01.sol\":1343:1373  voters[chairperson].weight = 1 */\n  sstore\n    /* \"Ballot/Ballot_01.sol\":1419:1561  for (uint256 i = 0; i < proposalNames.length; i++) {... */\ntag_6:\n    /* \"Ballot/Ballot_01.sol\":1443:1456  proposalNames */\n  dup4\n    /* \"Ballot/Ballot_01.sol\":1443:1463  proposalNames.length */\n  mload\n    /* \"Ballot/Ballot_01.sol\":1439:1440  i */\n  dup2\n    /* \"Ballot/Ballot_01.sol\":1439:1463  i < proposalNames.length */\n  lt\n    /* \"Ballot/Ballot_01.sol\":1419:1561  for (uint256 i = 0; i < proposalNames.length; i++) {... */\n  iszero\n  tag_7\n  jumpi\n    /* \"Ballot/Ballot_01.sol\":1485:1494  proposals */\n  0x02\n    /* \"Ballot/Ballot_01.sol\":1500:1548  Proposal({name: proposalNames[i], voteCount: 0}) */\n  mload(0x40)\n  dup1\n  0x40\n  add\n  0x40\n  mstore\n  dup1\n    /* \"Ballot/Ballot_01.sol\":1516:1529  proposalNames */\n  dup7\n    /* \"Ballot/Ballot_01.sol\":1530:1531  i */\n  dup5\n    /* \"Ballot/Ballot_01.sol\":1516:1532  proposalNames[i] */\n  dup2\n  mload\n  dup2\n  lt\n  tag_10\n  jumpi\n  tag_10\n  tag_11\n  jump\t// in\ntag_10:\n  0x20\n  swap1\n  dup2\n  mul\n  swap2\n  swap1\n  swap2\n  add\n  dup2\n  add\n  mload\n    /* \"Ballot/Ballot_01.sol\":1500:1548  Proposal({name: proposalNames[i], voteCount: 0}) */\n  dup3\n  mstore\n    /* \"Ballot/Ballot_01.sol\":1545:1546  0 */\n  0x00\n    /* \"Ballot/Ballot_01.sol\":1500:1548  Proposal({name: proposalNames[i], voteCount: 0}) */\n  swap2\n  dup2\n  add\n  dup3\n  swap1\n  mstore\n    /* \"Ballot/Ballot_01.sol\":1485:1549  proposals.push(Proposal({name: proposalNames[i], voteCount: 0})) */\n  dup4\n  sload\n  0x01\n  dup2\n  dup2\n  add\n  dup7\n  sstore\n  swap5\n  dup4\n  mstore\n  swap2\n  dup2\n  swap1\n  keccak256\n  dup4\n  mload\n  0x02\n  swap1\n  swap4\n  mul\n  add\n  swap2\n  dup3\n  sstore\n  swap2\n  swap1\n  swap2\n  add\n  mload\n  swap1\n  dup3\n  add\n  sstore\n    /* \"Ballot/Ballot_01.sol\":1465:1468  i++ */\n  add\n    /* \"Ballot/Ballot_01.sol\":1419:1561  for (uint256 i = 0; i < proposalNames.length; i++) {... */\n  jump(tag_6)\ntag_7:\n  pop\n    /* \"Ballot/Ballot_01.sol\":1620:1652  block.timestamp + startTimeDelay */\n  tag_13\n    /* \"Ballot/Ballot_01.sol\":1638:1652  startTimeDelay */\n  dup3\n    /* \"Ballot/Ballot_01.sol\":1620:1635  block.timestamp */\n  timestamp\n    /* \"Ballot/Ballot_01.sol\":1620:1652  block.timestamp + startTimeDelay */\n  tag_14\n  jump\t// in\ntag_13:\n    /* \"Ballot/Ballot_01.sol\":1608:1617  startTime */\n  0x03\n    /* \"Ballot/Ballot_01.sol\":1608:1652  startTime = block.timestamp + startTimeDelay */\n  sstore\n    /* \"Ballot/Ballot_01.sol\":1711:1737  block.timestamp + duration */\n  tag_15\n    /* \"Ballot/Ballot_01.sol\":1729:1737  duration */\n  dup2\n    /* \"Ballot/Ballot_01.sol\":1711:1726  block.timestamp */\n  timestamp\n    /* \"Ballot/Ballot_01.sol\":1711:1737  block.timestamp + duration */\n  tag_14\n  jump\t// in\ntag_15:\n    /* \"Ballot/Ballot_01.sol\":1701:1708  endTime */\n  0x04\n    /* \"Ballot/Ballot_01.sol\":1701:1737  endTime = block.timestamp + duration */\n  sstore\n  pop\n    /* \"Ballot/Ballot_01.sol\":675:4111  contract Ballot {... */\n  tag_18\n  swap2\n  pop\n  pop\n  jump\n    /* \"#utility.yul\":14:141   */\ntag_17:\n    /* \"#utility.yul\":75:85   */\n  0x4e487b71\n    /* \"#utility.yul\":70:73   */\n  0xe0\n    /* \"#utility.yul\":66:86   */\n  shl\n    /* \"#utility.yul\":63:64   */\n  0x00\n    /* \"#utility.yul\":56:87   */\n  mstore\n    /* \"#utility.yul\":106:110   */\n  0x41\n    /* \"#utility.yul\":103:104   */\n  0x04\n    /* \"#utility.yul\":96:111   */\n  mstore\n    /* \"#utility.yul\":130:134   */\n  0x24\n    /* \"#utility.yul\":127:128   */\n  0x00\n    /* \"#utility.yul\":120:135   */\n  revert\n    /* \"#utility.yul\":146:1375   */\ntag_3:\n    /* \"#utility.yul\":259:265   */\n  0x00\n    /* \"#utility.yul\":267:273   */\n  dup1\n    /* \"#utility.yul\":275:281   */\n  0x00\n    /* \"#utility.yul\":328:330   */\n  0x60\n    /* \"#utility.yul\":316:325   */\n  dup5\n    /* \"#utility.yul\":307:314   */\n  dup7\n    /* \"#utility.yul\":303:326   */\n  sub\n    /* \"#utility.yul\":299:331   */\n  slt\n    /* \"#utility.yul\":296:348   */\n  iszero\n  tag_21\n  jumpi\n    /* \"#utility.yul\":344:345   */\n  0x00\n    /* \"#utility.yul\":341:342   */\n  dup1\n    /* \"#utility.yul\":334:346   */\n  revert\n    /* \"#utility.yul\":296:348   */\ntag_21:\n    /* \"#utility.yul\":371:387   */\n  dup4\n  mload\n  sub(shl(0x40, 0x01), 0x01)\n    /* \"#utility.yul\":436:450   */\n  dup1\n  dup3\n  gt\n    /* \"#utility.yul\":433:467   */\n  iszero\n  tag_22\n  jumpi\n    /* \"#utility.yul\":463:464   */\n  0x00\n    /* \"#utility.yul\":460:461   */\n  dup1\n    /* \"#utility.yul\":453:465   */\n  revert\n    /* \"#utility.yul\":433:467   */\ntag_22:\n    /* \"#utility.yul\":501:507   */\n  dup2\n    /* \"#utility.yul\":490:499   */\n  dup7\n    /* \"#utility.yul\":486:508   */\n  add\n    /* \"#utility.yul\":476:508   */\n  swap2\n  pop\n    /* \"#utility.yul\":546:553   */\n  dup7\n    /* \"#utility.yul\":539:543   */\n  0x1f\n    /* \"#utility.yul\":535:537   */\n  dup4\n    /* \"#utility.yul\":531:544   */\n  add\n    /* \"#utility.yul\":527:554   */\n  slt\n    /* \"#utility.yul\":517:572   */\n  tag_23\n  jumpi\n    /* \"#utility.yul\":568:569   */\n  0x00\n    /* \"#utility.yul\":565:566   */\n  dup1\n    /* \"#utility.yul\":558:570   */\n  revert\n    /* \"#utility.yul\":517:572   */\ntag_23:\n    /* \"#utility.yul\":597:599   */\n  dup2\n    /* \"#utility.yul\":591:600   */\n  mload\n    /* \"#utility.yul\":619:623   */\n  0x20\n    /* \"#utility.yul\":642:644   */\n  dup3\n    /* \"#utility.yul\":638:640   */\n  dup3\n    /* \"#utility.yul\":635:645   */\n  gt\n    /* \"#utility.yul\":632:668   */\n  iszero\n  tag_25\n  jumpi\n    /* \"#utility.yul\":648:666   */\n  tag_25\n  tag_17\n  jump\t// in\ntag_25:\n    /* \"#utility.yul\":694:696   */\n  dup2\n    /* \"#utility.yul\":691:692   */\n  0x05\n    /* \"#utility.yul\":687:697   */\n  shl\n    /* \"#utility.yul\":726:728   */\n  0x40\n    /* \"#utility.yul\":720:729   */\n  mload\n    /* \"#utility.yul\":789:791   */\n  0x1f\n    /* \"#utility.yul\":785:792   */\n  not\n    /* \"#utility.yul\":780:782   */\n  0x3f\n    /* \"#utility.yul\":776:778   */\n  dup4\n    /* \"#utility.yul\":772:783   */\n  add\n    /* \"#utility.yul\":768:793   */\n  and\n    /* \"#utility.yul\":760:766   */\n  dup2\n    /* \"#utility.yul\":756:794   */\n  add\n    /* \"#utility.yul\":844:850   */\n  dup2\n    /* \"#utility.yul\":832:842   */\n  dup2\n    /* \"#utility.yul\":829:851   */\n  lt\n    /* \"#utility.yul\":824:826   */\n  dup7\n    /* \"#utility.yul\":812:822   */\n  dup3\n    /* \"#utility.yul\":809:827   */\n  gt\n    /* \"#utility.yul\":806:852   */\n  or\n    /* \"#utility.yul\":803:875   */\n  iszero\n  tag_27\n  jumpi\n    /* \"#utility.yul\":855:873   */\n  tag_27\n  tag_17\n  jump\t// in\ntag_27:\n    /* \"#utility.yul\":891:893   */\n  0x40\n    /* \"#utility.yul\":884:906   */\n  mstore\n    /* \"#utility.yul\":941:959   */\n  swap3\n  dup4\n  mstore\n    /* \"#utility.yul\":975:990   */\n  dup2\n  dup4\n  add\n  swap4\n  pop\n    /* \"#utility.yul\":1017:1028   */\n  dup5\n  dup2\n  add\n    /* \"#utility.yul\":1013:1033   */\n  dup3\n  add\n  swap3\n    /* \"#utility.yul\":1045:1064   */\n  dup11\n  dup5\n  gt\n    /* \"#utility.yul\":1042:1081   */\n  iszero\n  tag_28\n  jumpi\n    /* \"#utility.yul\":1077:1078   */\n  0x00\n    /* \"#utility.yul\":1074:1075   */\n  dup1\n    /* \"#utility.yul\":1067:1079   */\n  revert\n    /* \"#utility.yul\":1042:1081   */\ntag_28:\n    /* \"#utility.yul\":1101:1112   */\n  swap5\n  dup3\n  add\n  swap5\n    /* \"#utility.yul\":1121:1256   */\ntag_29:\n    /* \"#utility.yul\":1137:1143   */\n  dup4\n    /* \"#utility.yul\":1132:1135   */\n  dup7\n    /* \"#utility.yul\":1129:1144   */\n  lt\n    /* \"#utility.yul\":1121:1256   */\n  iszero\n  tag_31\n  jumpi\n    /* \"#utility.yul\":1203:1213   */\n  dup6\n  mload\n    /* \"#utility.yul\":1191:1214   */\n  dup6\n  mstore\n    /* \"#utility.yul\":1154:1166   */\n  swap5\n  dup3\n  add\n  swap5\n    /* \"#utility.yul\":1234:1246   */\n  swap4\n  dup3\n  add\n  swap4\n    /* \"#utility.yul\":1121:1256   */\n  jump(tag_29)\ntag_31:\n    /* \"#utility.yul\":1306:1324   */\n  swap2\n  dup10\n  add\n    /* \"#utility.yul\":1300:1325   */\n  mload\n    /* \"#utility.yul\":1365:1367   */\n  0x40\n    /* \"#utility.yul\":1350:1368   */\n  swap1\n  swap10\n  add\n    /* \"#utility.yul\":1344:1369   */\n  mload\n    /* \"#utility.yul\":1275:1281   */\n  swap2\n  swap11\n    /* \"#utility.yul\":1300:1325   */\n  swap9\n  swap10\n  pop\n    /* \"#utility.yul\":1344:1369   */\n  swap1\n  swap8\n    /* \"#utility.yul\":146:1375   */\n  swap7\n  pop\n  pop\n  pop\n  pop\n  pop\n  pop\n  pop\n  jump\t// out\n    /* \"#utility.yul\":1380:1507   */\ntag_11:\n    /* \"#utility.yul\":1441:1451   */\n  0x4e487b71\n    /* \"#utility.yul\":1436:1439   */\n  0xe0\n    /* \"#utility.yul\":1432:1452   */\n  shl\n    /* \"#utility.yul\":1429:1430   */\n  0x00\n    /* \"#utility.yul\":1422:1453   */\n  mstore\n    /* \"#utility.yul\":1472:1476   */\n  0x32\n    /* \"#utility.yul\":1469:1470   */\n  0x04\n    /* \"#utility.yul\":1462:1477   */\n  mstore\n    /* \"#utility.yul\":1496:1500   */\n  0x24\n    /* \"#utility.yul\":1493:1494   */\n  0x00\n    /* \"#utility.yul\":1486:1501   */\n  revert\n    /* \"#utility.yul\":1512:1734   */\ntag_14:\n    /* \"#utility.yul\":1577:1586   */\n  dup1\n  dup3\n  add\n    /* \"#utility.yul\":1598:1608   */\n  dup1\n  dup3\n  gt\n    /* \"#utility.yul\":1595:1728   */\n  iszero\n  tag_34\n  jumpi\n    /* \"#utility.yul\":1650:1660   */\n  0x4e487b71\n    /* \"#utility.yul\":1645:1648   */\n  0xe0\n    /* \"#utility.yul\":1641:1661   */\n  shl\n    /* \"#utility.yul\":1638:1639   */\n  0x00\n    /* \"#utility.yul\":1631:1662   */\n  mstore\n    /* \"#utility.yul\":1685:1689   */\n  0x11\n    /* \"#utility.yul\":1682:1683   */\n  0x04\n    /* \"#utility.yul\":1675:1690   */\n  mstore\n    /* \"#utility.yul\":1713:1717   */\n  0x24\n    /* \"#utility.yul\":1710:1711   */\n  0x00\n    /* \"#utility.yul\":1703:1718   */\n  revert\n    /* \"#utility.yul\":1595:1728   */\ntag_34:\n    /* \"#utility.yul\":1512:1734   */\n  swap3\n  swap2\n  pop\n  pop\n  jump\t// out\ntag_18:\n    /* \"Ballot/Ballot_01.sol\":675:4111  contract Ballot {... */\n  dataSize(sub_0)\n  dup1\n  dataOffset(sub_0)\n  0x00\n  codecopy\n  0x00\n  return\nstop\n\nsub_0: assembly {\n        /* \"Ballot/Ballot_01.sol\":675:4111  contract Ballot {... */\n      mstore(0x40, 0x80)\n      callvalue\n      dup1\n      iszero\n      tag_1\n      jumpi\n      0x00\n      dup1\n      revert\n    tag_1:\n      pop\n      jumpi(tag_2, lt(calldatasize, 0x04))\n      shr(0xe0, calldataload(0x00))\n      dup1\n      0x609ff1bd\n      gt\n      tag_13\n      jumpi\n      dup1\n      0x609ff1bd\n      eq\n      tag_8\n      jumpi\n      dup1\n      0x78e97925\n      eq\n      tag_9\n      jumpi\n      dup1\n      0x9e7b8d61\n      eq\n      tag_10\n      jumpi\n      dup1\n      0xa3ec138d\n      eq\n      tag_11\n      jumpi\n      dup1\n      0xe2ba53f0\n      eq\n      tag_12\n      jumpi\n      0x00\n      dup1\n      revert\n    tag_13:\n      dup1\n      0x0121b93f\n      eq\n      tag_3\n      jumpi\n      dup1\n      0x013cf08b\n      eq\n      tag_4\n      jumpi\n      dup1\n      0x2e4176cf\n      eq\n      tag_5\n      jumpi\n      dup1\n      0x3197cbb6\n      eq\n      tag_6\n      jumpi\n      dup1\n      0x5c19a95c\n      eq\n      tag_7\n      jumpi\n    tag_2:\n      0x00\n      dup1\n      revert\n        /* \"Ballot/Ballot_01.sol\":3103:3594  function vote(uint256 proposal) external {... */\n    tag_3:\n      tag_14\n      tag_15\n      calldatasize\n      0x04\n      tag_16\n      jump\t// in\n    tag_15:\n      tag_17\n      jump\t// in\n    tag_14:\n      stop\n        /* \"Ballot/Ballot_01.sol\":985:1012  Proposal[] public proposals */\n    tag_4:\n      tag_18\n      tag_19\n      calldatasize\n      0x04\n      tag_16\n      jump\t// in\n    tag_19:\n      tag_20\n      jump\t// in\n    tag_18:\n      0x40\n      dup1\n      mload\n        /* \"#utility.yul\":373:398   */\n      swap3\n      dup4\n      mstore\n        /* \"#utility.yul\":429:431   */\n      0x20\n        /* \"#utility.yul\":414:432   */\n      dup4\n      add\n        /* \"#utility.yul\":407:441   */\n      swap2\n      swap1\n      swap2\n      mstore\n        /* \"#utility.yul\":346:364   */\n      add\n        /* \"Ballot/Ballot_01.sol\":985:1012  Proposal[] public proposals */\n    tag_21:\n      mload(0x40)\n      dup1\n      swap2\n      sub\n      swap1\n      return\n        /* \"Ballot/Ballot_01.sol\":906:932  address public chairperson */\n    tag_5:\n      sload(0x00)\n      tag_23\n      swap1\n      sub(shl(0xa0, 0x01), 0x01)\n      and\n      dup2\n      jump\n    tag_23:\n      mload(0x40)\n      sub(shl(0xa0, 0x01), 0x01)\n        /* \"#utility.yul\":616:648   */\n      swap1\n      swap2\n      and\n        /* \"#utility.yul\":598:649   */\n      dup2\n      mstore\n        /* \"#utility.yul\":586:588   */\n      0x20\n        /* \"#utility.yul\":571:589   */\n      add\n        /* \"Ballot/Ballot_01.sol\":906:932  address public chairperson */\n      tag_21\n        /* \"#utility.yul\":452:655   */\n      jump\n        /* \"Ballot/Ballot_01.sol\":1103:1125  uint256 public endTime */\n    tag_6:\n      tag_27\n      sload(0x04)\n      dup2\n      jump\n    tag_27:\n      mload(0x40)\n        /* \"#utility.yul\":806:831   */\n      swap1\n      dup2\n      mstore\n        /* \"#utility.yul\":794:796   */\n      0x20\n        /* \"#utility.yul\":779:797   */\n      add\n        /* \"Ballot/Ballot_01.sol\":1103:1125  uint256 public endTime */\n      tag_21\n        /* \"#utility.yul\":660:837   */\n      jump\n        /* \"Ballot/Ballot_01.sol\":2215:3095  function delegate(address to) external {... */\n    tag_7:\n      tag_14\n      tag_32\n      calldatasize\n      0x04\n      tag_33\n      jump\t// in\n    tag_32:\n      tag_34\n      jump\t// in\n        /* \"Ballot/Ballot_01.sol\":3602:3968  function winningProposal() public view returns (uint256 winningProposal_) {... */\n    tag_8:\n      tag_27\n      tag_36\n      jump\t// in\n        /* \"Ballot/Ballot_01.sol\":1072:1096  uint256 public startTime */\n    tag_9:\n      tag_27\n      sload(0x03)\n      dup2\n      jump\n        /* \"Ballot/Ballot_01.sol\":1797:2207  function giveRightToVote(address voter) external {... */\n    tag_10:\n      tag_14\n      tag_42\n      calldatasize\n      0x04\n      tag_33\n      jump\t// in\n    tag_42:\n      tag_43\n      jump\t// in\n        /* \"Ballot/Ballot_01.sol\":939:978  mapping(address => Voter) public voters */\n    tag_11:\n      tag_44\n      tag_45\n      calldatasize\n      0x04\n      tag_33\n      jump\t// in\n    tag_45:\n      0x01\n      0x20\n      dup2\n      swap1\n      mstore\n      0x00\n      swap2\n      dup3\n      mstore\n      0x40\n      swap1\n      swap2\n      keccak256\n      dup1\n      sload\n      swap2\n      dup2\n      add\n      sload\n      0x02\n      swap1\n      swap2\n      add\n      sload\n      0xff\n      dup3\n      and\n      swap2\n      0x0100\n      swap1\n      div\n      sub(shl(0xa0, 0x01), 0x01)\n      and\n      swap1\n      dup5\n      jump\n    tag_44:\n      mload(0x40)\n      tag_21\n      swap5\n      swap4\n      swap3\n      swap2\n      swap1\n        /* \"#utility.yul\":1358:1383   */\n      swap4\n      dup5\n      mstore\n        /* \"#utility.yul\":1426:1440   */\n      swap2\n      iszero\n        /* \"#utility.yul\":1419:1441   */\n      iszero\n        /* \"#utility.yul\":1414:1416   */\n      0x20\n        /* \"#utility.yul\":1399:1417   */\n      dup5\n      add\n        /* \"#utility.yul\":1392:1442   */\n      mstore\n      sub(shl(0xa0, 0x01), 0x01)\n        /* \"#utility.yul\":1478:1510   */\n      and\n        /* \"#utility.yul\":1473:1475   */\n      0x40\n        /* \"#utility.yul\":1458:1476   */\n      dup4\n      add\n        /* \"#utility.yul\":1451:1511   */\n      mstore\n        /* \"#utility.yul\":1542:1544   */\n      0x60\n        /* \"#utility.yul\":1527:1545   */\n      dup3\n      add\n        /* \"#utility.yul\":1520:1554   */\n      mstore\n        /* \"#utility.yul\":1345:1348   */\n      0x80\n        /* \"#utility.yul\":1330:1349   */\n      add\n      swap1\n        /* \"#utility.yul\":1133:1560   */\n      jump\n        /* \"Ballot/Ballot_01.sol\":3976:4108  function winnerName() external view returns (bytes32 winnerName_) {... */\n    tag_12:\n      tag_27\n      tag_50\n      jump\t// in\n        /* \"Ballot/Ballot_01.sol\":3103:3594  function vote(uint256 proposal) external {... */\n    tag_17:\n        /* \"Ballot/Ballot_01.sol\":3196:3205  startTime */\n      sload(0x03)\n        /* \"Ballot/Ballot_01.sol\":3177:3192  block.timestamp */\n      timestamp\n        /* \"Ballot/Ballot_01.sol\":3177:3205  block.timestamp >= startTime */\n      lt\n      iszero\n        /* \"Ballot/Ballot_01.sol\":3177:3235  block.timestamp >= startTime && block.timestamp <= endTime */\n      dup1\n      iszero\n      tag_54\n      jumpi\n      pop\n        /* \"Ballot/Ballot_01.sol\":3228:3235  endTime */\n      sload(0x04)\n        /* \"Ballot/Ballot_01.sol\":3209:3224  block.timestamp */\n      timestamp\n        /* \"Ballot/Ballot_01.sol\":3209:3235  block.timestamp <= endTime */\n      gt\n      iszero\n        /* \"Ballot/Ballot_01.sol\":3177:3235  block.timestamp >= startTime && block.timestamp <= endTime */\n    tag_54:\n        /* \"Ballot/Ballot_01.sol\":3155:3298  require(... */\n      tag_55\n      jumpi\n      mload(0x40)\n      shl(0xe5, 0x461bcd)\n      dup2\n      mstore\n        /* \"#utility.yul\":1949:1951   */\n      0x20\n        /* \"Ballot/Ballot_01.sol\":3155:3298  require(... */\n      0x04\n      dup3\n      add\n        /* \"#utility.yul\":1931:1952   */\n      mstore\n        /* \"#utility.yul\":1988:1990   */\n      0x23\n        /* \"#utility.yul\":1968:1986   */\n      0x24\n      dup3\n      add\n        /* \"#utility.yul\":1961:1991   */\n      mstore\n        /* \"#utility.yul\":2027:2061   */\n      0x566f74696e67206973206e6f7420616c6c6f7765642061742074686973207469\n        /* \"#utility.yul\":2007:2025   */\n      0x44\n      dup3\n      add\n        /* \"#utility.yul\":2000:2062   */\n      mstore\n      shl(0xe9, 0x36b297)\n        /* \"#utility.yul\":2078:2096   */\n      0x64\n      dup3\n      add\n        /* \"#utility.yul\":2071:2104   */\n      mstore\n        /* \"#utility.yul\":2121:2140   */\n      0x84\n      add\n        /* \"Ballot/Ballot_01.sol\":3155:3298  require(... */\n    tag_56:\n      mload(0x40)\n      dup1\n      swap2\n      sub\n      swap1\n      revert\n    tag_55:\n        /* \"Ballot/Ballot_01.sol\":3341:3351  msg.sender */\n      caller\n        /* \"Ballot/Ballot_01.sol\":3311:3331  Voter storage sender */\n      0x00\n        /* \"Ballot/Ballot_01.sol\":3334:3352  voters[msg.sender] */\n      swap1\n      dup2\n      mstore\n        /* \"Ballot/Ballot_01.sol\":3334:3340  voters */\n      0x01\n        /* \"Ballot/Ballot_01.sol\":3334:3352  voters[msg.sender] */\n      0x20\n      mstore\n      0x40\n      dup2\n      keccak256\n        /* \"Ballot/Ballot_01.sol\":3371:3384  sender.weight */\n      dup1\n      sload\n        /* \"Ballot/Ballot_01.sol\":3334:3352  voters[msg.sender] */\n      swap1\n      swap2\n        /* \"Ballot/Ballot_01.sol\":3371:3389  sender.weight != 0 */\n      sub\n        /* \"Ballot/Ballot_01.sol\":3363:3415  require(sender.weight != 0, \"Has no right to vote.\") */\n      tag_58\n      jumpi\n      mload(0x40)\n      shl(0xe5, 0x461bcd)\n      dup2\n      mstore\n        /* \"#utility.yul\":2353:2355   */\n      0x20\n        /* \"Ballot/Ballot_01.sol\":3363:3415  require(sender.weight != 0, \"Has no right to vote.\") */\n      0x04\n      dup3\n      add\n        /* \"#utility.yul\":2335:2356   */\n      mstore\n        /* \"#utility.yul\":2392:2394   */\n      0x15\n        /* \"#utility.yul\":2372:2390   */\n      0x24\n      dup3\n      add\n        /* \"#utility.yul\":2365:2395   */\n      mstore\n      shl(0x59, 0x2430b9903737903934b3b43a103a37903b37ba3297)\n        /* \"#utility.yul\":2411:2429   */\n      0x44\n      dup3\n      add\n        /* \"#utility.yul\":2404:2455   */\n      mstore\n        /* \"#utility.yul\":2472:2490   */\n      0x64\n      add\n        /* \"Ballot/Ballot_01.sol\":3363:3415  require(sender.weight != 0, \"Has no right to vote.\") */\n      tag_56\n        /* \"#utility.yul\":2151:2496   */\n      jump\n        /* \"Ballot/Ballot_01.sol\":3363:3415  require(sender.weight != 0, \"Has no right to vote.\") */\n    tag_58:\n        /* \"Ballot/Ballot_01.sol\":3435:3447  sender.voted */\n      0x01\n      dup2\n      add\n      sload\n      0xff\n      and\n        /* \"Ballot/Ballot_01.sol\":3434:3447  !sender.voted */\n      iszero\n        /* \"Ballot/Ballot_01.sol\":3426:3466  require(!sender.voted, \"Already voted.\") */\n      tag_61\n      jumpi\n      mload(0x40)\n      shl(0xe5, 0x461bcd)\n      dup2\n      mstore\n        /* \"#utility.yul\":2703:2705   */\n      0x20\n        /* \"Ballot/Ballot_01.sol\":3426:3466  require(!sender.voted, \"Already voted.\") */\n      0x04\n      dup3\n      add\n        /* \"#utility.yul\":2685:2706   */\n      mstore\n        /* \"#utility.yul\":2742:2744   */\n      0x0e\n        /* \"#utility.yul\":2722:2740   */\n      0x24\n      dup3\n      add\n        /* \"#utility.yul\":2715:2745   */\n      mstore\n      shl(0x91, 0x20b63932b0b23c903b37ba32b217)\n        /* \"#utility.yul\":2761:2779   */\n      0x44\n      dup3\n      add\n        /* \"#utility.yul\":2754:2798   */\n      mstore\n        /* \"#utility.yul\":2815:2833   */\n      0x64\n      add\n        /* \"Ballot/Ballot_01.sol\":3426:3466  require(!sender.voted, \"Already voted.\") */\n      tag_56\n        /* \"#utility.yul\":2501:2839   */\n      jump\n        /* \"Ballot/Ballot_01.sol\":3426:3466  require(!sender.voted, \"Already voted.\") */\n    tag_61:\n        /* \"Ballot/Ballot_01.sol\":3492:3496  true */\n      0x01\n        /* \"Ballot/Ballot_01.sol\":3477:3489  sender.voted */\n      dup2\n      dup2\n      add\n        /* \"Ballot/Ballot_01.sol\":3477:3496  sender.voted = true */\n      dup1\n      sload\n      not(0xff)\n      and\n      swap1\n      swap2\n      or\n      swap1\n      sstore\n        /* \"Ballot/Ballot_01.sol\":3507:3518  sender.vote */\n      0x02\n      dup1\n      dup3\n      add\n        /* \"Ballot/Ballot_01.sol\":3507:3529  sender.vote = proposal */\n      dup4\n      swap1\n      sstore\n        /* \"Ballot/Ballot_01.sol\":3573:3586  sender.weight */\n      dup2\n      sload\n        /* \"Ballot/Ballot_01.sol\":3540:3559  proposals[proposal] */\n      dup2\n      sload\n        /* \"Ballot/Ballot_01.sol\":3573:3586  sender.weight */\n      swap1\n      swap2\n        /* \"Ballot/Ballot_01.sol\":3507:3518  sender.vote */\n      swap1\n        /* \"Ballot/Ballot_01.sol\":3521:3529  proposal */\n      dup5\n      swap1\n        /* \"Ballot/Ballot_01.sol\":3540:3559  proposals[proposal] */\n      dup2\n      lt\n      tag_65\n      jumpi\n      tag_65\n      tag_66\n      jump\t// in\n    tag_65:\n      swap1\n      0x00\n      mstore\n      keccak256(0x00, 0x20)\n      swap1\n      0x02\n      mul\n      add\n        /* \"Ballot/Ballot_01.sol\":3540:3569  proposals[proposal].voteCount */\n      0x01\n      add\n      0x00\n        /* \"Ballot/Ballot_01.sol\":3540:3586  proposals[proposal].voteCount += sender.weight */\n      dup3\n      dup3\n      sload\n      tag_68\n      swap2\n      swap1\n      tag_69\n      jump\t// in\n    tag_68:\n      swap1\n      swap2\n      sstore\n      pop\n      pop\n      pop\n      pop\n        /* \"Ballot/Ballot_01.sol\":3103:3594  function vote(uint256 proposal) external {... */\n      jump\t// out\n        /* \"Ballot/Ballot_01.sol\":985:1012  Proposal[] public proposals */\n    tag_20:\n      0x02\n      dup2\n      dup2\n      sload\n      dup2\n      lt\n      tag_70\n      jumpi\n      0x00\n      dup1\n      revert\n    tag_70:\n      0x00\n      swap2\n      dup3\n      mstore\n      0x20\n      swap1\n      swap2\n      keccak256\n      0x02\n      swap1\n      swap2\n      mul\n      add\n      dup1\n      sload\n      0x01\n      swap1\n      swap2\n      add\n      sload\n      swap1\n      swap2\n      pop\n      dup3\n      jump\t// out\n        /* \"Ballot/Ballot_01.sol\":2215:3095  function delegate(address to) external {... */\n    tag_34:\n        /* \"Ballot/Ballot_01.sol\":2295:2305  msg.sender */\n      caller\n        /* \"Ballot/Ballot_01.sol\":2265:2285  Voter storage sender */\n      0x00\n        /* \"Ballot/Ballot_01.sol\":2288:2306  voters[msg.sender] */\n      swap1\n      dup2\n      mstore\n        /* \"Ballot/Ballot_01.sol\":2288:2294  voters */\n      0x01\n        /* \"Ballot/Ballot_01.sol\":2288:2306  voters[msg.sender] */\n      0x20\n      mstore\n      0x40\n      dup2\n      keccak256\n        /* \"Ballot/Ballot_01.sol\":2325:2338  sender.weight */\n      dup1\n      sload\n        /* \"Ballot/Ballot_01.sol\":2288:2306  voters[msg.sender] */\n      swap1\n      swap2\n        /* \"Ballot/Ballot_01.sol\":2325:2343  sender.weight != 0 */\n      sub\n        /* \"Ballot/Ballot_01.sol\":2317:2374  require(sender.weight != 0, \"You have no right to vote.\") */\n      tag_73\n      jumpi\n      mload(0x40)\n      shl(0xe5, 0x461bcd)\n      dup2\n      mstore\n        /* \"#utility.yul\":3405:3407   */\n      0x20\n        /* \"Ballot/Ballot_01.sol\":2317:2374  require(sender.weight != 0, \"You have no right to vote.\") */\n      0x04\n      dup3\n      add\n        /* \"#utility.yul\":3387:3408   */\n      mstore\n        /* \"#utility.yul\":3444:3446   */\n      0x1a\n        /* \"#utility.yul\":3424:3442   */\n      0x24\n      dup3\n      add\n        /* \"#utility.yul\":3417:3447   */\n      mstore\n        /* \"#utility.yul\":3483:3511   */\n      0x596f752068617665206e6f20726967687420746f20766f74652e000000000000\n        /* \"#utility.yul\":3463:3481   */\n      0x44\n      dup3\n      add\n        /* \"#utility.yul\":3456:3512   */\n      mstore\n        /* \"#utility.yul\":3529:3547   */\n      0x64\n      add\n        /* \"Ballot/Ballot_01.sol\":2317:2374  require(sender.weight != 0, \"You have no right to vote.\") */\n      tag_56\n        /* \"#utility.yul\":3203:3553   */\n      jump\n        /* \"Ballot/Ballot_01.sol\":2317:2374  require(sender.weight != 0, \"You have no right to vote.\") */\n    tag_73:\n        /* \"Ballot/Ballot_01.sol\":2394:2406  sender.voted */\n      0x01\n      dup2\n      add\n      sload\n      0xff\n      and\n        /* \"Ballot/Ballot_01.sol\":2393:2406  !sender.voted */\n      iszero\n        /* \"Ballot/Ballot_01.sol\":2385:2429  require(!sender.voted, \"You already voted.\") */\n      tag_76\n      jumpi\n      mload(0x40)\n      shl(0xe5, 0x461bcd)\n      dup2\n      mstore\n        /* \"#utility.yul\":3760:3762   */\n      0x20\n        /* \"Ballot/Ballot_01.sol\":2385:2429  require(!sender.voted, \"You already voted.\") */\n      0x04\n      dup3\n      add\n        /* \"#utility.yul\":3742:3763   */\n      mstore\n        /* \"#utility.yul\":3799:3801   */\n      0x12\n        /* \"#utility.yul\":3779:3797   */\n      0x24\n      dup3\n      add\n        /* \"#utility.yul\":3772:3802   */\n      mstore\n      shl(0x71, 0x2cb7ba9030b63932b0b23c903b37ba32b217)\n        /* \"#utility.yul\":3818:3836   */\n      0x44\n      dup3\n      add\n        /* \"#utility.yul\":3811:3859   */\n      mstore\n        /* \"#utility.yul\":3876:3894   */\n      0x64\n      add\n        /* \"Ballot/Ballot_01.sol\":2385:2429  require(!sender.voted, \"You already voted.\") */\n      tag_56\n        /* \"#utility.yul\":3558:3900   */\n      jump\n        /* \"Ballot/Ballot_01.sol\":2385:2429  require(!sender.voted, \"You already voted.\") */\n    tag_76:\n        /* \"Ballot/Ballot_01.sol\":2454:2464  msg.sender */\n      caller\n      sub(shl(0xa0, 0x01), 0x01)\n        /* \"Ballot/Ballot_01.sol\":2448:2464  to != msg.sender */\n      dup4\n      and\n      sub\n        /* \"Ballot/Ballot_01.sol\":2440:2499  require(to != msg.sender, \"Self-delegation is disallowed.\") */\n      tag_79\n      jumpi\n      mload(0x40)\n      shl(0xe5, 0x461bcd)\n      dup2\n      mstore\n        /* \"#utility.yul\":4107:4109   */\n      0x20\n        /* \"Ballot/Ballot_01.sol\":2440:2499  require(to != msg.sender, \"Self-delegation is disallowed.\") */\n      0x04\n      dup3\n      add\n        /* \"#utility.yul\":4089:4110   */\n      mstore\n        /* \"#utility.yul\":4146:4148   */\n      0x1e\n        /* \"#utility.yul\":4126:4144   */\n      0x24\n      dup3\n      add\n        /* \"#utility.yul\":4119:4149   */\n      mstore\n        /* \"#utility.yul\":4185:4217   */\n      0x53656c662d64656c65676174696f6e20697320646973616c6c6f7765642e0000\n        /* \"#utility.yul\":4165:4183   */\n      0x44\n      dup3\n      add\n        /* \"#utility.yul\":4158:4218   */\n      mstore\n        /* \"#utility.yul\":4235:4253   */\n      0x64\n      add\n        /* \"Ballot/Ballot_01.sol\":2440:2499  require(to != msg.sender, \"Self-delegation is disallowed.\") */\n      tag_56\n        /* \"#utility.yul\":3905:4259   */\n      jump\n        /* \"Ballot/Ballot_01.sol\":2440:2499  require(to != msg.sender, \"Self-delegation is disallowed.\") */\n    tag_79:\n      sub(shl(0xa0, 0x01), 0x01)\n        /* \"Ballot/Ballot_01.sol\":2519:2529  voters[to] */\n      dup3\n      dup2\n      and\n        /* \"Ballot/Ballot_01.sol\":2550:2551  0 */\n      0x00\n        /* \"Ballot/Ballot_01.sol\":2519:2529  voters[to] */\n      swap1\n      dup2\n      mstore\n        /* \"Ballot/Ballot_01.sol\":2519:2525  voters */\n      0x01\n        /* \"Ballot/Ballot_01.sol\":2519:2529  voters[to] */\n      0x20\n      dup2\n      swap1\n      mstore\n      0x40\n      swap1\n      swap2\n      keccak256\n        /* \"Ballot/Ballot_01.sol\":2519:2538  voters[to].delegate */\n      add\n      sload\n      0x0100\n      swap1\n      div\n      and\n        /* \"Ballot/Ballot_01.sol\":2519:2552  voters[to].delegate != address(0) */\n      iszero\n        /* \"Ballot/Ballot_01.sol\":2512:2674  while (voters[to].delegate != address(0)) {... */\n      tag_83\n      jumpi\n      sub(shl(0xa0, 0x01), 0x01)\n        /* \"Ballot/Ballot_01.sol\":2574:2584  voters[to] */\n      swap2\n      dup3\n      and\n      0x00\n      swap1\n      dup2\n      mstore\n        /* \"Ballot/Ballot_01.sol\":2574:2580  voters */\n      0x01\n        /* \"Ballot/Ballot_01.sol\":2574:2584  voters[to] */\n      0x20\n      dup2\n      swap1\n      mstore\n      0x40\n      swap1\n      swap2\n      keccak256\n        /* \"Ballot/Ballot_01.sol\":2574:2593  voters[to].delegate */\n      add\n      sload\n      0x0100\n      swap1\n      div\n      swap1\n      swap2\n      and\n      swap1\n        /* \"Ballot/Ballot_01.sol\":2622:2632  msg.sender */\n      caller\n        /* \"Ballot/Ballot_01.sol\":2616:2632  to != msg.sender */\n      dup3\n      sub\n        /* \"Ballot/Ballot_01.sol\":2608:2662  require(to != msg.sender, \"Found loop in delegation.\") */\n      tag_84\n      jumpi\n      mload(0x40)\n      shl(0xe5, 0x461bcd)\n      dup2\n      mstore\n        /* \"#utility.yul\":4466:4468   */\n      0x20\n        /* \"Ballot/Ballot_01.sol\":2608:2662  require(to != msg.sender, \"Found loop in delegation.\") */\n      0x04\n      dup3\n      add\n        /* \"#utility.yul\":4448:4469   */\n      mstore\n        /* \"#utility.yul\":4505:4507   */\n      0x19\n        /* \"#utility.yul\":4485:4503   */\n      0x24\n      dup3\n      add\n        /* \"#utility.yul\":4478:4508   */\n      mstore\n        /* \"#utility.yul\":4544:4571   */\n      0x466f756e64206c6f6f7020696e2064656c65676174696f6e2e00000000000000\n        /* \"#utility.yul\":4524:4542   */\n      0x44\n      dup3\n      add\n        /* \"#utility.yul\":4517:4572   */\n      mstore\n        /* \"#utility.yul\":4589:4607   */\n      0x64\n      add\n        /* \"Ballot/Ballot_01.sol\":2608:2662  require(to != msg.sender, \"Found loop in delegation.\") */\n      tag_56\n        /* \"#utility.yul\":4264:4613   */\n      jump\n        /* \"Ballot/Ballot_01.sol\":2608:2662  require(to != msg.sender, \"Found loop in delegation.\") */\n    tag_84:\n        /* \"Ballot/Ballot_01.sol\":2512:2674  while (voters[to].delegate != address(0)) {... */\n      jump(tag_79)\n    tag_83:\n      sub(shl(0xa0, 0x01), 0x01)\n        /* \"Ballot/Ballot_01.sol\":2712:2722  voters[to] */\n      dup3\n      and\n        /* \"Ballot/Ballot_01.sol\":2686:2709  Voter storage delegate_ */\n      0x00\n        /* \"Ballot/Ballot_01.sol\":2712:2722  voters[to] */\n      swap1\n      dup2\n      mstore\n        /* \"Ballot/Ballot_01.sol\":2712:2718  voters */\n      0x01\n        /* \"Ballot/Ballot_01.sol\":2712:2722  voters[to] */\n      0x20\n      dup2\n      swap1\n      mstore\n      0x40\n      swap1\n      swap2\n      keccak256\n        /* \"Ballot/Ballot_01.sol\":2755:2771  delegate_.weight */\n      dup1\n      sload\n        /* \"Ballot/Ballot_01.sol\":2712:2722  voters[to] */\n      swap1\n      swap2\n      gt\n        /* \"Ballot/Ballot_01.sol\":2755:2776  delegate_.weight >= 1 */\n      iszero\n        /* \"Ballot/Ballot_01.sol\":2733:2850  require(... */\n      tag_87\n      jumpi\n      mload(0x40)\n      shl(0xe5, 0x461bcd)\n      dup2\n      mstore\n        /* \"#utility.yul\":4820:4822   */\n      0x20\n        /* \"Ballot/Ballot_01.sol\":2733:2850  require(... */\n      0x04\n      dup3\n      add\n        /* \"#utility.yul\":4802:4823   */\n      mstore\n        /* \"#utility.yul\":4859:4861   */\n      0x2e\n        /* \"#utility.yul\":4839:4857   */\n      0x24\n      dup3\n      add\n        /* \"#utility.yul\":4832:4862   */\n      mstore\n        /* \"#utility.yul\":4898:4932   */\n      0x53656c65637465642064656c656761746520646f6573206e6f74206861766520\n        /* \"#utility.yul\":4878:4896   */\n      0x44\n      dup3\n      add\n        /* \"#utility.yul\":4871:4933   */\n      mstore\n      shl(0x91, 0x3b37ba34b733903934b3b43a3997)\n        /* \"#utility.yul\":4949:4967   */\n      0x64\n      dup3\n      add\n        /* \"#utility.yul\":4942:4986   */\n      mstore\n        /* \"#utility.yul\":5003:5022   */\n      0x84\n      add\n        /* \"Ballot/Ballot_01.sol\":2733:2850  require(... */\n      tag_56\n        /* \"#utility.yul\":4618:5028   */\n      jump\n        /* \"Ballot/Ballot_01.sol\":2733:2850  require(... */\n    tag_87:\n        /* \"Ballot/Ballot_01.sol\":2876:2880  true */\n      0x01\n        /* \"Ballot/Ballot_01.sol\":2861:2873  sender.voted */\n      dup3\n      dup2\n      add\n        /* \"Ballot/Ballot_01.sol\":2861:2880  sender.voted = true */\n      dup1\n      sload\n      not(sub(shl(0xa8, 0x01), 0x01))\n        /* \"Ballot/Ballot_01.sol\":2891:2911  sender.delegate = to */\n      and\n        /* \"Ballot/Ballot_01.sol\":2861:2880  sender.voted = true */\n      0x0100\n      sub(shl(0xa0, 0x01), 0x01)\n        /* \"Ballot/Ballot_01.sol\":2891:2911  sender.delegate = to */\n      dup8\n      and\n      mul\n      or\n      dup3\n      or\n      swap1\n      sstore\n        /* \"Ballot/Ballot_01.sol\":2926:2941  delegate_.voted */\n      dup2\n      add\n      sload\n        /* \"Ballot/Ballot_01.sol\":2861:2880  sender.voted = true */\n      0xff\n        /* \"Ballot/Ballot_01.sol\":2926:2941  delegate_.voted */\n      and\n        /* \"Ballot/Ballot_01.sol\":2922:3088  if (delegate_.voted) {... */\n      iszero\n      tag_90\n      jumpi\n        /* \"Ballot/Ballot_01.sol\":2997:3010  sender.weight */\n      dup2\n      sload\n        /* \"Ballot/Ballot_01.sol\":2958:2967  proposals */\n      0x02\n        /* \"Ballot/Ballot_01.sol\":2968:2982  delegate_.vote */\n      dup3\n      dup2\n      add\n      sload\n        /* \"Ballot/Ballot_01.sol\":2958:2983  proposals[delegate_.vote] */\n      dup2\n      sload\n      dup2\n      lt\n      tag_92\n      jumpi\n      tag_92\n      tag_66\n      jump\t// in\n    tag_92:\n      swap1\n      0x00\n      mstore\n      keccak256(0x00, 0x20)\n      swap1\n      0x02\n      mul\n      add\n        /* \"Ballot/Ballot_01.sol\":2958:2993  proposals[delegate_.vote].voteCount */\n      0x01\n      add\n      0x00\n        /* \"Ballot/Ballot_01.sol\":2958:3010  proposals[delegate_.vote].voteCount += sender.weight */\n      dup3\n      dup3\n      sload\n      tag_94\n      swap2\n      swap1\n      tag_69\n      jump\t// in\n    tag_94:\n      swap1\n      swap2\n      sstore\n      pop\n        /* \"Ballot/Ballot_01.sol\":2922:3088  if (delegate_.voted) {... */\n      tag_95\n      swap1\n      pop\n      jump\n    tag_90:\n        /* \"Ballot/Ballot_01.sol\":3063:3076  sender.weight */\n      dup2\n      sload\n        /* \"Ballot/Ballot_01.sol\":3043:3076  delegate_.weight += sender.weight */\n      dup2\n      sload\n        /* \"Ballot/Ballot_01.sol\":3043:3052  delegate_ */\n      dup3\n      swap1\n        /* \"Ballot/Ballot_01.sol\":3063:3076  sender.weight */\n      0x00\n      swap1\n        /* \"Ballot/Ballot_01.sol\":3043:3076  delegate_.weight += sender.weight */\n      tag_96\n      swap1\n        /* \"Ballot/Ballot_01.sol\":3063:3076  sender.weight */\n      dup5\n      swap1\n        /* \"Ballot/Ballot_01.sol\":3043:3076  delegate_.weight += sender.weight */\n      tag_69\n      jump\t// in\n    tag_96:\n      swap1\n      swap2\n      sstore\n      pop\n      pop\n        /* \"Ballot/Ballot_01.sol\":2922:3088  if (delegate_.voted) {... */\n    tag_95:\n        /* \"Ballot/Ballot_01.sol\":2254:3095  {... */\n      pop\n      pop\n        /* \"Ballot/Ballot_01.sol\":2215:3095  function delegate(address to) external {... */\n      pop\n      jump\t// out\n        /* \"Ballot/Ballot_01.sol\":3602:3968  function winningProposal() public view returns (uint256 winningProposal_) {... */\n    tag_36:\n        /* \"Ballot/Ballot_01.sol\":3650:3674  uint256 winningProposal_ */\n      0x00\n      dup1\n      dup1\n        /* \"Ballot/Ballot_01.sol\":3726:3961  for (uint256 p = 0; p < proposals.length; p++) {... */\n    tag_98:\n        /* \"Ballot/Ballot_01.sol\":3750:3759  proposals */\n      0x02\n        /* \"Ballot/Ballot_01.sol\":3750:3766  proposals.length */\n      sload\n        /* \"Ballot/Ballot_01.sol\":3746:3766  p < proposals.length */\n      dup2\n      lt\n        /* \"Ballot/Ballot_01.sol\":3726:3961  for (uint256 p = 0; p < proposals.length; p++) {... */\n      iszero\n      tag_99\n      jumpi\n        /* \"Ballot/Ballot_01.sol\":3817:3833  winningVoteCount */\n      dup2\n        /* \"Ballot/Ballot_01.sol\":3792:3801  proposals */\n      0x02\n        /* \"Ballot/Ballot_01.sol\":3802:3803  p */\n      dup3\n        /* \"Ballot/Ballot_01.sol\":3792:3804  proposals[p] */\n      dup2\n      sload\n      dup2\n      lt\n      tag_102\n      jumpi\n      tag_102\n      tag_66\n      jump\t// in\n    tag_102:\n      swap1\n      0x00\n      mstore\n      keccak256(0x00, 0x20)\n      swap1\n      0x02\n      mul\n      add\n        /* \"Ballot/Ballot_01.sol\":3792:3814  proposals[p].voteCount */\n      0x01\n      add\n      sload\n        /* \"Ballot/Ballot_01.sol\":3792:3833  proposals[p].voteCount > winningVoteCount */\n      gt\n        /* \"Ballot/Ballot_01.sol\":3788:3950  if (proposals[p].voteCount > winningVoteCount) {... */\n      iszero\n      tag_104\n      jumpi\n        /* \"Ballot/Ballot_01.sol\":3873:3882  proposals */\n      0x02\n        /* \"Ballot/Ballot_01.sol\":3883:3884  p */\n      dup2\n        /* \"Ballot/Ballot_01.sol\":3873:3885  proposals[p] */\n      dup2\n      sload\n      dup2\n      lt\n      tag_106\n      jumpi\n      tag_106\n      tag_66\n      jump\t// in\n    tag_106:\n      swap1\n      0x00\n      mstore\n      keccak256(0x00, 0x20)\n      swap1\n      0x02\n      mul\n      add\n        /* \"Ballot/Ballot_01.sol\":3873:3895  proposals[p].voteCount */\n      0x01\n      add\n      sload\n        /* \"Ballot/Ballot_01.sol\":3854:3895  winningVoteCount = proposals[p].voteCount */\n      swap2\n      pop\n        /* \"Ballot/Ballot_01.sol\":3933:3934  p */\n      dup1\n        /* \"Ballot/Ballot_01.sol\":3914:3934  winningProposal_ = p */\n      swap3\n      pop\n        /* \"Ballot/Ballot_01.sol\":3788:3950  if (proposals[p].voteCount > winningVoteCount) {... */\n    tag_104:\n        /* \"Ballot/Ballot_01.sol\":3768:3771  p++ */\n      0x01\n      add\n        /* \"Ballot/Ballot_01.sol\":3726:3961  for (uint256 p = 0; p < proposals.length; p++) {... */\n      jump(tag_98)\n    tag_99:\n      pop\n        /* \"Ballot/Ballot_01.sol\":3676:3968  {... */\n      pop\n        /* \"Ballot/Ballot_01.sol\":3602:3968  function winningProposal() public view returns (uint256 winningProposal_) {... */\n      swap1\n      jump\t// out\n        /* \"Ballot/Ballot_01.sol\":1797:2207  function giveRightToVote(address voter) external {... */\n    tag_43:\n        /* \"Ballot/Ballot_01.sol\":1893:1904  chairperson */\n      and(sub(shl(0xa0, 0x01), 0x01), sload(0x00))\n        /* \"Ballot/Ballot_01.sol\":1879:1889  msg.sender */\n      caller\n        /* \"Ballot/Ballot_01.sol\":1879:1904  msg.sender == chairperson */\n      eq\n        /* \"Ballot/Ballot_01.sol\":1857:1972  require(... */\n      tag_109\n      jumpi\n      mload(0x40)\n      shl(0xe5, 0x461bcd)\n      dup2\n      mstore\n        /* \"#utility.yul\":5235:5237   */\n      0x20\n        /* \"Ballot/Ballot_01.sol\":1857:1972  require(... */\n      0x04\n      dup3\n      add\n        /* \"#utility.yul\":5217:5238   */\n      mstore\n        /* \"#utility.yul\":5274:5276   */\n      0x28\n        /* \"#utility.yul\":5254:5272   */\n      0x24\n      dup3\n      add\n        /* \"#utility.yul\":5247:5277   */\n      mstore\n        /* \"#utility.yul\":5313:5347   */\n      0x4f6e6c79206368616972706572736f6e2063616e206769766520726967687420\n        /* \"#utility.yul\":5293:5311   */\n      0x44\n      dup3\n      add\n        /* \"#utility.yul\":5286:5348   */\n      mstore\n      shl(0xc1, 0x3a37903b37ba3297)\n        /* \"#utility.yul\":5364:5382   */\n      0x64\n      dup3\n      add\n        /* \"#utility.yul\":5357:5395   */\n      mstore\n        /* \"#utility.yul\":5412:5431   */\n      0x84\n      add\n        /* \"Ballot/Ballot_01.sol\":1857:1972  require(... */\n      tag_56\n        /* \"#utility.yul\":5033:5437   */\n      jump\n        /* \"Ballot/Ballot_01.sol\":1857:1972  require(... */\n    tag_109:\n      sub(shl(0xa0, 0x01), 0x01)\n        /* \"Ballot/Ballot_01.sol\":1992:2005  voters[voter] */\n      dup2\n      and\n      0x00\n      swap1\n      dup2\n      mstore\n        /* \"Ballot/Ballot_01.sol\":1992:1998  voters */\n      0x01\n        /* \"Ballot/Ballot_01.sol\":1992:2005  voters[voter] */\n      0x20\n      dup2\n      swap1\n      mstore\n      0x40\n      swap1\n      swap2\n      keccak256\n        /* \"Ballot/Ballot_01.sol\":1992:2011  voters[voter].voted */\n      add\n      sload\n      0xff\n      and\n        /* \"Ballot/Ballot_01.sol\":1991:2011  !voters[voter].voted */\n      iszero\n        /* \"Ballot/Ballot_01.sol\":1983:2040  require(!voters[voter].voted, \"The voter already voted.\") */\n      tag_112\n      jumpi\n      mload(0x40)\n      shl(0xe5, 0x461bcd)\n      dup2\n      mstore\n        /* \"#utility.yul\":5644:5646   */\n      0x20\n        /* \"Ballot/Ballot_01.sol\":1983:2040  require(!voters[voter].voted, \"The voter already voted.\") */\n      0x04\n      dup3\n      add\n        /* \"#utility.yul\":5626:5647   */\n      mstore\n        /* \"#utility.yul\":5683:5685   */\n      0x18\n        /* \"#utility.yul\":5663:5681   */\n      0x24\n      dup3\n      add\n        /* \"#utility.yul\":5656:5686   */\n      mstore\n        /* \"#utility.yul\":5722:5748   */\n      0x54686520766f74657220616c726561647920766f7465642e0000000000000000\n        /* \"#utility.yul\":5702:5720   */\n      0x44\n      dup3\n      add\n        /* \"#utility.yul\":5695:5749   */\n      mstore\n        /* \"#utility.yul\":5766:5784   */\n      0x64\n      add\n        /* \"Ballot/Ballot_01.sol\":1983:2040  require(!voters[voter].voted, \"The voter already voted.\") */\n      tag_56\n        /* \"#utility.yul\":5442:5790   */\n      jump\n        /* \"Ballot/Ballot_01.sol\":1983:2040  require(!voters[voter].voted, \"The voter already voted.\") */\n    tag_112:\n      sub(shl(0xa0, 0x01), 0x01)\n        /* \"Ballot/Ballot_01.sol\":2073:2086  voters[voter] */\n      dup2\n      and\n      0x00\n      swap1\n      dup2\n      mstore\n        /* \"Ballot/Ballot_01.sol\":2073:2079  voters */\n      0x01\n        /* \"Ballot/Ballot_01.sol\":2073:2086  voters[voter] */\n      0x20\n      mstore\n      0x40\n      swap1\n      keccak256\n        /* \"Ballot/Ballot_01.sol\":2073:2093  voters[voter].weight */\n      sload\n        /* \"Ballot/Ballot_01.sol\":2073:2098  voters[voter].weight == 0 */\n      iszero\n        /* \"Ballot/Ballot_01.sol\":2051:2162  require(... */\n      tag_115\n      jumpi\n      mload(0x40)\n      shl(0xe5, 0x461bcd)\n      dup2\n      mstore\n        /* \"#utility.yul\":5997:5999   */\n      0x20\n        /* \"Ballot/Ballot_01.sol\":2051:2162  require(... */\n      0x04\n      dup3\n      add\n        /* \"#utility.yul\":5979:6000   */\n      mstore\n        /* \"#utility.yul\":6036:6038   */\n      0x24\n        /* \"#utility.yul\":6016:6034   */\n      dup1\n      dup3\n      add\n        /* \"#utility.yul\":6009:6039   */\n      mstore\n        /* \"#utility.yul\":6075:6109   */\n      0x54686520766f74657220616c72656164792068617320766f74696e6720726967\n        /* \"#utility.yul\":6055:6073   */\n      0x44\n      dup3\n      add\n        /* \"#utility.yul\":6048:6110   */\n      mstore\n      shl(0xe1, 0x343a3997)\n        /* \"#utility.yul\":6126:6144   */\n      0x64\n      dup3\n      add\n        /* \"#utility.yul\":6119:6153   */\n      mstore\n        /* \"#utility.yul\":6170:6189   */\n      0x84\n      add\n        /* \"Ballot/Ballot_01.sol\":2051:2162  require(... */\n      tag_56\n        /* \"#utility.yul\":5795:6195   */\n      jump\n        /* \"Ballot/Ballot_01.sol\":2051:2162  require(... */\n    tag_115:\n      sub(shl(0xa0, 0x01), 0x01)\n        /* \"Ballot/Ballot_01.sol\":2175:2188  voters[voter] */\n      and\n      0x00\n      swap1\n      dup2\n      mstore\n        /* \"Ballot/Ballot_01.sol\":2198:2199  1 */\n      0x01\n        /* \"Ballot/Ballot_01.sol\":2175:2188  voters[voter] */\n      0x20\n      dup2\n      swap1\n      mstore\n      0x40\n      swap1\n      swap2\n      keccak256\n        /* \"Ballot/Ballot_01.sol\":2175:2199  voters[voter].weight = 1 */\n      sstore\n        /* \"Ballot/Ballot_01.sol\":1797:2207  function giveRightToVote(address voter) external {... */\n      jump\t// out\n        /* \"Ballot/Ballot_01.sol\":3976:4108  function winnerName() external view returns (bytes32 winnerName_) {... */\n    tag_50:\n        /* \"Ballot/Ballot_01.sol\":4021:4040  bytes32 winnerName_ */\n      0x00\n        /* \"Ballot/Ballot_01.sol\":4067:4076  proposals */\n      0x02\n        /* \"Ballot/Ballot_01.sol\":4077:4094  winningProposal() */\n      tag_119\n        /* \"Ballot/Ballot_01.sol\":4077:4092  winningProposal */\n      tag_36\n        /* \"Ballot/Ballot_01.sol\":4077:4094  winningProposal() */\n      jump\t// in\n    tag_119:\n        /* \"Ballot/Ballot_01.sol\":4067:4095  proposals[winningProposal()] */\n      dup2\n      sload\n      dup2\n      lt\n      tag_121\n      jumpi\n      tag_121\n      tag_66\n      jump\t// in\n    tag_121:\n      swap1\n      0x00\n      mstore\n      keccak256(0x00, 0x20)\n      swap1\n      0x02\n      mul\n      add\n        /* \"Ballot/Ballot_01.sol\":4067:4100  proposals[winningProposal()].name */\n      0x00\n      add\n      sload\n        /* \"Ballot/Ballot_01.sol\":4053:4100  winnerName_ = proposals[winningProposal()].name */\n      swap1\n      pop\n        /* \"Ballot/Ballot_01.sol\":3976:4108  function winnerName() external view returns (bytes32 winnerName_) {... */\n      swap1\n      jump\t// out\n        /* \"#utility.yul\":14:194   */\n    tag_16:\n        /* \"#utility.yul\":73:79   */\n      0x00\n        /* \"#utility.yul\":126:128   */\n      0x20\n        /* \"#utility.yul\":114:123   */\n      dup3\n        /* \"#utility.yul\":105:112   */\n      dup5\n        /* \"#utility.yul\":101:124   */\n      sub\n        /* \"#utility.yul\":97:129   */\n      slt\n        /* \"#utility.yul\":94:146   */\n      iszero\n      tag_125\n      jumpi\n        /* \"#utility.yul\":142:143   */\n      0x00\n        /* \"#utility.yul\":139:140   */\n      dup1\n        /* \"#utility.yul\":132:144   */\n      revert\n        /* \"#utility.yul\":94:146   */\n    tag_125:\n      pop\n        /* \"#utility.yul\":165:188   */\n      calldataload\n      swap2\n        /* \"#utility.yul\":14:194   */\n      swap1\n      pop\n      jump\t// out\n        /* \"#utility.yul\":842:1128   */\n    tag_33:\n        /* \"#utility.yul\":901:907   */\n      0x00\n        /* \"#utility.yul\":954:956   */\n      0x20\n        /* \"#utility.yul\":942:951   */\n      dup3\n        /* \"#utility.yul\":933:940   */\n      dup5\n        /* \"#utility.yul\":929:952   */\n      sub\n        /* \"#utility.yul\":925:957   */\n      slt\n        /* \"#utility.yul\":922:974   */\n      iszero\n      tag_130\n      jumpi\n        /* \"#utility.yul\":970:971   */\n      0x00\n        /* \"#utility.yul\":967:968   */\n      dup1\n        /* \"#utility.yul\":960:972   */\n      revert\n        /* \"#utility.yul\":922:974   */\n    tag_130:\n        /* \"#utility.yul\":996:1019   */\n      dup2\n      calldataload\n      sub(shl(0xa0, 0x01), 0x01)\n        /* \"#utility.yul\":1048:1079   */\n      dup2\n      and\n        /* \"#utility.yul\":1038:1080   */\n      dup2\n      eq\n        /* \"#utility.yul\":1028:1098   */\n      tag_131\n      jumpi\n        /* \"#utility.yul\":1094:1095   */\n      0x00\n        /* \"#utility.yul\":1091:1092   */\n      dup1\n        /* \"#utility.yul\":1084:1096   */\n      revert\n        /* \"#utility.yul\":1028:1098   */\n    tag_131:\n        /* \"#utility.yul\":1117:1122   */\n      swap4\n        /* \"#utility.yul\":842:1128   */\n      swap3\n      pop\n      pop\n      pop\n      jump\t// out\n        /* \"#utility.yul\":2844:2971   */\n    tag_66:\n        /* \"#utility.yul\":2905:2915   */\n      0x4e487b71\n        /* \"#utility.yul\":2900:2903   */\n      0xe0\n        /* \"#utility.yul\":2896:2916   */\n      shl\n        /* \"#utility.yul\":2893:2894   */\n      0x00\n        /* \"#utility.yul\":2886:2917   */\n      mstore\n        /* \"#utility.yul\":2936:2940   */\n      0x32\n        /* \"#utility.yul\":2933:2934   */\n      0x04\n        /* \"#utility.yul\":2926:2941   */\n      mstore\n        /* \"#utility.yul\":2960:2964   */\n      0x24\n        /* \"#utility.yul\":2957:2958   */\n      0x00\n        /* \"#utility.yul\":2950:2965   */\n      revert\n        /* \"#utility.yul\":2976:3198   */\n    tag_69:\n        /* \"#utility.yul\":3041:3050   */\n      dup1\n      dup3\n      add\n        /* \"#utility.yul\":3062:3072   */\n      dup1\n      dup3\n      gt\n        /* \"#utility.yul\":3059:3192   */\n      iszero\n      tag_139\n      jumpi\n        /* \"#utility.yul\":3114:3124   */\n      0x4e487b71\n        /* \"#utility.yul\":3109:3112   */\n      0xe0\n        /* \"#utility.yul\":3105:3125   */\n      shl\n        /* \"#utility.yul\":3102:3103   */\n      0x00\n        /* \"#utility.yul\":3095:3126   */\n      mstore\n        /* \"#utility.yul\":3149:3153   */\n      0x11\n        /* \"#utility.yul\":3146:3147   */\n      0x04\n        /* \"#utility.yul\":3139:3154   */\n      mstore\n        /* \"#utility.yul\":3177:3181   */\n      0x24\n        /* \"#utility.yul\":3174:3175   */\n      0x00\n        /* \"#utility.yul\":3167:3182   */\n      revert\n        /* \"#utility.yul\":3059:3192   */\n    tag_139:\n        /* \"#utility.yul\":2976:3198   */\n      swap3\n      swap2\n      pop\n      pop\n      jump\t// out\n\n    auxdata: 0xa26469706673582212202b6fda434b7f47e59fcbbde5227c40b7ba309fe615195e3381b282520414b64b64736f6c63430008180033\n}\n",
				"bytecode": {
					"linkReferences": {},
					"object": "608060405234801561000f575f80fd5b50604051610ac5380380610ac583398101604081905261002e916100ef565b5f80546001600160a01b03191633908117825581526001602081905260408220555b83518110156100b75760026040518060400160405280868481518110610078576100786101b9565b60209081029190910181015182525f91810182905283546001818101865594835291819020835160029093020191825591909101519082015501610050565b506100c282426101cd565b6003556100cf81426101cd565b600455506101f2915050565b634e487b7160e01b5f52604160045260245ffd5b5f805f60608486031215610101575f80fd5b83516001600160401b0380821115610117575f80fd5b818601915086601f83011261012a575f80fd5b815160208282111561013e5761013e6100db565b8160051b604051601f19603f83011681018181108682111715610163576101636100db565b60405292835281830193508481018201928a841115610180575f80fd5b948201945b8386101561019e57855185529482019493820193610185565b91890151604090990151919a98995090979650505050505050565b634e487b7160e01b5f52603260045260245ffd5b808201808211156101ec57634e487b7160e01b5f52601160045260245ffd5b92915050565b6108c6806101ff5f395ff3fe608060405234801561000f575f80fd5b506004361061009b575f3560e01c8063609ff1bd11610063578063609ff1bd1461013557806378e979251461013d5780639e7b8d6114610146578063a3ec138d14610159578063e2ba53f0146101c9575f80fd5b80630121b93f1461009f578063013cf08b146100b45780632e4176cf146100e15780633197cbb61461010b5780635c19a95c14610122575b5f80fd5b6100b26100ad366004610813565b6101d1565b005b6100c76100c2366004610813565b610334565b604080519283526020830191909152015b60405180910390f35b5f546100f3906001600160a01b031681565b6040516001600160a01b0390911681526020016100d8565b61011460045481565b6040519081526020016100d8565b6100b261013036600461082a565b610360565b610114610613565b61011460035481565b6100b261015436600461082a565b610681565b61019a61016736600461082a565b600160208190525f918252604090912080549181015460029091015460ff82169161010090046001600160a01b03169084565b6040516100d8949392919093845291151560208401526001600160a01b03166040830152606082015260800190565b6101146107e4565b60035442101580156101e557506004544211155b6102425760405162461bcd60e51b815260206004820152602360248201527f566f74696e67206973206e6f7420616c6c6f776564206174207468697320746960448201526236b29760e91b60648201526084015b60405180910390fd5b335f90815260016020526040812080549091036102995760405162461bcd60e51b81526020600482015260156024820152742430b9903737903934b3b43a103a37903b37ba329760591b6044820152606401610239565b600181015460ff16156102df5760405162461bcd60e51b815260206004820152600e60248201526d20b63932b0b23c903b37ba32b21760911b6044820152606401610239565b6001818101805460ff191690911790556002808201839055815481549091908490811061030e5761030e610857565b905f5260205f2090600202016001015f82825461032b919061086b565b90915550505050565b60028181548110610343575f80fd5b5f9182526020909120600290910201805460019091015490915082565b335f90815260016020526040812080549091036103bf5760405162461bcd60e51b815260206004820152601a60248201527f596f752068617665206e6f20726967687420746f20766f74652e0000000000006044820152606401610239565b600181015460ff16156104095760405162461bcd60e51b81526020600482015260126024820152712cb7ba9030b63932b0b23c903b37ba32b21760711b6044820152606401610239565b336001600160a01b038316036104615760405162461bcd60e51b815260206004820152601e60248201527f53656c662d64656c65676174696f6e20697320646973616c6c6f7765642e00006044820152606401610239565b6001600160a01b038281165f908152600160208190526040909120015461010090041615610503576001600160a01b039182165f90815260016020819052604090912001546101009004909116903382036104fe5760405162461bcd60e51b815260206004820152601960248201527f466f756e64206c6f6f7020696e2064656c65676174696f6e2e000000000000006044820152606401610239565b610461565b6001600160a01b0382165f9081526001602081905260409091208054909111156105865760405162461bcd60e51b815260206004820152602e60248201527f53656c65637465642064656c656761746520646f6573206e6f7420686176652060448201526d3b37ba34b733903934b3b43a399760911b6064820152608401610239565b600182810180546001600160a81b0319166101006001600160a01b03871602178217905581015460ff16156105f5578154600282810154815481106105cd576105cd610857565b905f5260205f2090600202016001015f8282546105ea919061086b565b9091555061060e9050565b8154815482905f9061060890849061086b565b90915550505b505050565b5f80805b60025481101561067c57816002828154811061063557610635610857565b905f5260205f209060020201600101541115610674576002818154811061065e5761065e610857565b905f5260205f2090600202016001015491508092505b600101610617565b505090565b5f546001600160a01b031633146106eb5760405162461bcd60e51b815260206004820152602860248201527f4f6e6c79206368616972706572736f6e2063616e2067697665207269676874206044820152673a37903b37ba329760c11b6064820152608401610239565b6001600160a01b0381165f908152600160208190526040909120015460ff16156107575760405162461bcd60e51b815260206004820152601860248201527f54686520766f74657220616c726561647920766f7465642e00000000000000006044820152606401610239565b6001600160a01b0381165f90815260016020526040902054156107c85760405162461bcd60e51b8152602060048201526024808201527f54686520766f74657220616c72656164792068617320766f74696e6720726967604482015263343a399760e11b6064820152608401610239565b6001600160a01b03165f90815260016020819052604090912055565b5f60026107ef610613565b815481106107ff576107ff610857565b905f5260205f2090600202015f0154905090565b5f60208284031215610823575f80fd5b5035919050565b5f6020828403121561083a575f80fd5b81356001600160a01b0381168114610850575f80fd5b9392505050565b634e487b7160e01b5f52603260045260245ffd5b8082018082111561088a57634e487b7160e01b5f52601160045260245ffd5b9291505056fea26469706673582212202b6fda434b7f47e59fcbbde5227c40b7ba309fe615195e3381b282520414b64b64736f6c63430008180033",
					"opcodes": "PUSH1 0x80 PUSH1 0x40 MSTORE CALLVALUE DUP1 ISZERO PUSH2 0xF JUMPI PUSH0 DUP1 REVERT JUMPDEST POP PUSH1 0x40 MLOAD PUSH2 0xAC5 CODESIZE SUB DUP1 PUSH2 0xAC5 DUP4 CODECOPY DUP2 ADD PUSH1 0x40 DUP2 SWAP1 MSTORE PUSH2 0x2E SWAP2 PUSH2 0xEF JUMP JUMPDEST PUSH0 DUP1 SLOAD PUSH1 0x1 PUSH1 0x1 PUSH1 0xA0 SHL SUB NOT AND CALLER SWAP1 DUP2 OR DUP3 SSTORE DUP2 MSTORE PUSH1 0x1 PUSH1 0x20 DUP2 SWAP1 MSTORE PUSH1 0x40 DUP3 KECCAK256 SSTORE JUMPDEST DUP4 MLOAD DUP2 LT ISZERO PUSH2 0xB7 JUMPI PUSH1 0x2 PUSH1 0x40 MLOAD DUP1 PUSH1 0x40 ADD PUSH1 0x40 MSTORE DUP1 DUP7 DUP5 DUP2 MLOAD DUP2 LT PUSH2 0x78 JUMPI PUSH2 0x78 PUSH2 0x1B9 JUMP JUMPDEST PUSH1 0x20 SWAP1 DUP2 MUL SWAP2 SWAP1 SWAP2 ADD DUP2 ADD MLOAD DUP3 MSTORE PUSH0 SWAP2 DUP2 ADD DUP3 SWAP1 MSTORE DUP4 SLOAD PUSH1 0x1 DUP2 DUP2 ADD DUP7 SSTORE SWAP5 DUP4 MSTORE SWAP2 DUP2 SWAP1 KECCAK256 DUP4 MLOAD PUSH1 0x2 SWAP1 SWAP4 MUL ADD SWAP2 DUP3 SSTORE SWAP2 SWAP1 SWAP2 ADD MLOAD SWAP1 DUP3 ADD SSTORE ADD PUSH2 0x50 JUMP JUMPDEST POP PUSH2 0xC2 DUP3 TIMESTAMP PUSH2 0x1CD JUMP JUMPDEST PUSH1 0x3 SSTORE PUSH2 0xCF DUP2 TIMESTAMP PUSH2 0x1CD JUMP JUMPDEST PUSH1 0x4 SSTORE POP PUSH2 0x1F2 SWAP2 POP POP JUMP JUMPDEST PUSH4 0x4E487B71 PUSH1 0xE0 SHL PUSH0 MSTORE PUSH1 0x41 PUSH1 0x4 MSTORE PUSH1 0x24 PUSH0 REVERT JUMPDEST PUSH0 DUP1 PUSH0 PUSH1 0x60 DUP5 DUP7 SUB SLT ISZERO PUSH2 0x101 JUMPI PUSH0 DUP1 REVERT JUMPDEST DUP4 MLOAD PUSH1 0x1 PUSH1 0x1 PUSH1 0x40 SHL SUB DUP1 DUP3 GT ISZERO PUSH2 0x117 JUMPI PUSH0 DUP1 REVERT JUMPDEST DUP2 DUP7 ADD SWAP2 POP DUP7 PUSH1 0x1F DUP4 ADD SLT PUSH2 0x12A JUMPI PUSH0 DUP1 REVERT JUMPDEST DUP2 MLOAD PUSH1 0x20 DUP3 DUP3 GT ISZERO PUSH2 0x13E JUMPI PUSH2 0x13E PUSH2 0xDB JUMP JUMPDEST DUP2 PUSH1 0x5 SHL PUSH1 0x40 MLOAD PUSH1 0x1F NOT PUSH1 0x3F DUP4 ADD AND DUP2 ADD DUP2 DUP2 LT DUP7 DUP3 GT OR ISZERO PUSH2 0x163 JUMPI PUSH2 0x163 PUSH2 0xDB JUMP JUMPDEST PUSH1 0x40 MSTORE SWAP3 DUP4 MSTORE DUP2 DUP4 ADD SWAP4 POP DUP5 DUP2 ADD DUP3 ADD SWAP3 DUP11 DUP5 GT ISZERO PUSH2 0x180 JUMPI PUSH0 DUP1 REVERT JUMPDEST SWAP5 DUP3 ADD SWAP5 JUMPDEST DUP4 DUP7 LT ISZERO PUSH2 0x19E JUMPI DUP6 MLOAD DUP6 MSTORE SWAP5 DUP3 ADD SWAP5 SWAP4 DUP3 ADD SWAP4 PUSH2 0x185 JUMP JUMPDEST SWAP2 DUP10 ADD MLOAD PUSH1 0x40 SWAP1 SWAP10 ADD MLOAD SWAP2 SWAP11 SWAP9 SWAP10 POP SWAP1 SWAP8 SWAP7 POP POP POP POP POP POP POP JUMP JUMPDEST PUSH4 0x4E487B71 PUSH1 0xE0 SHL PUSH0 MSTORE PUSH1 0x32 PUSH1 0x4 MSTORE PUSH1 0x24 PUSH0 REVERT JUMPDEST DUP1 DUP3 ADD DUP1 DUP3 GT ISZERO PUSH2 0x1EC JUMPI PUSH4 0x4E487B71 PUSH1 0xE0 SHL PUSH0 MSTORE PUSH1 0x11 PUSH1 0x4 MSTORE PUSH1 0x24 PUSH0 REVERT JUMPDEST SWAP3 SWAP2 POP POP JUMP JUMPDEST PUSH2 0x8C6 DUP1 PUSH2 0x1FF PUSH0 CODECOPY PUSH0 RETURN INVALID PUSH1 0x80 PUSH1 0x40 MSTORE CALLVALUE DUP1 ISZERO PUSH2 0xF JUMPI PUSH0 DUP1 REVERT JUMPDEST POP PUSH1 0x4 CALLDATASIZE LT PUSH2 0x9B JUMPI PUSH0 CALLDATALOAD PUSH1 0xE0 SHR DUP1 PUSH4 0x609FF1BD GT PUSH2 0x63 JUMPI DUP1 PUSH4 0x609FF1BD EQ PUSH2 0x135 JUMPI DUP1 PUSH4 0x78E97925 EQ PUSH2 0x13D JUMPI DUP1 PUSH4 0x9E7B8D61 EQ PUSH2 0x146 JUMPI DUP1 PUSH4 0xA3EC138D EQ PUSH2 0x159 JUMPI DUP1 PUSH4 0xE2BA53F0 EQ PUSH2 0x1C9 JUMPI PUSH0 DUP1 REVERT JUMPDEST DUP1 PUSH4 0x121B93F EQ PUSH2 0x9F JUMPI DUP1 PUSH4 0x13CF08B EQ PUSH2 0xB4 JUMPI DUP1 PUSH4 0x2E4176CF EQ PUSH2 0xE1 JUMPI DUP1 PUSH4 0x3197CBB6 EQ PUSH2 0x10B JUMPI DUP1 PUSH4 0x5C19A95C EQ PUSH2 0x122 JUMPI JUMPDEST PUSH0 DUP1 REVERT JUMPDEST PUSH2 0xB2 PUSH2 0xAD CALLDATASIZE PUSH1 0x4 PUSH2 0x813 JUMP JUMPDEST PUSH2 0x1D1 JUMP JUMPDEST STOP JUMPDEST PUSH2 0xC7 PUSH2 0xC2 CALLDATASIZE PUSH1 0x4 PUSH2 0x813 JUMP JUMPDEST PUSH2 0x334 JUMP JUMPDEST PUSH1 0x40 DUP1 MLOAD SWAP3 DUP4 MSTORE PUSH1 0x20 DUP4 ADD SWAP2 SWAP1 SWAP2 MSTORE ADD JUMPDEST PUSH1 0x40 MLOAD DUP1 SWAP2 SUB SWAP1 RETURN JUMPDEST PUSH0 SLOAD PUSH2 0xF3 SWAP1 PUSH1 0x1 PUSH1 0x1 PUSH1 0xA0 SHL SUB AND DUP2 JUMP JUMPDEST PUSH1 0x40 MLOAD PUSH1 0x1 PUSH1 0x1 PUSH1 0xA0 SHL SUB SWAP1 SWAP2 AND DUP2 MSTORE PUSH1 0x20 ADD PUSH2 0xD8 JUMP JUMPDEST PUSH2 0x114 PUSH1 0x4 SLOAD DUP2 JUMP JUMPDEST PUSH1 0x40 MLOAD SWAP1 DUP2 MSTORE PUSH1 0x20 ADD PUSH2 0xD8 JUMP JUMPDEST PUSH2 0xB2 PUSH2 0x130 CALLDATASIZE PUSH1 0x4 PUSH2 0x82A JUMP JUMPDEST PUSH2 0x360 JUMP JUMPDEST PUSH2 0x114 PUSH2 0x613 JUMP JUMPDEST PUSH2 0x114 PUSH1 0x3 SLOAD DUP2 JUMP JUMPDEST PUSH2 0xB2 PUSH2 0x154 CALLDATASIZE PUSH1 0x4 PUSH2 0x82A JUMP JUMPDEST PUSH2 0x681 JUMP JUMPDEST PUSH2 0x19A PUSH2 0x167 CALLDATASIZE PUSH1 0x4 PUSH2 0x82A JUMP JUMPDEST PUSH1 0x1 PUSH1 0x20 DUP2 SWAP1 MSTORE PUSH0 SWAP2 DUP3 MSTORE PUSH1 0x40 SWAP1 SWAP2 KECCAK256 DUP1 SLOAD SWAP2 DUP2 ADD SLOAD PUSH1 0x2 SWAP1 SWAP2 ADD SLOAD PUSH1 0xFF DUP3 AND SWAP2 PUSH2 0x100 SWAP1 DIV PUSH1 0x1 PUSH1 0x1 PUSH1 0xA0 SHL SUB AND SWAP1 DUP5 JUMP JUMPDEST PUSH1 0x40 MLOAD PUSH2 0xD8 SWAP5 SWAP4 SWAP3 SWAP2 SWAP1 SWAP4 DUP5 MSTORE SWAP2 ISZERO ISZERO PUSH1 0x20 DUP5 ADD MSTORE PUSH1 0x1 PUSH1 0x1 PUSH1 0xA0 SHL SUB AND PUSH1 0x40 DUP4 ADD MSTORE PUSH1 0x60 DUP3 ADD MSTORE PUSH1 0x80 ADD SWAP1 JUMP JUMPDEST PUSH2 0x114 PUSH2 0x7E4 JUMP JUMPDEST PUSH1 0x3 SLOAD TIMESTAMP LT ISZERO DUP1 ISZERO PUSH2 0x1E5 JUMPI POP PUSH1 0x4 SLOAD TIMESTAMP GT ISZERO JUMPDEST PUSH2 0x242 JUMPI PUSH1 0x40 MLOAD PUSH3 0x461BCD PUSH1 0xE5 SHL DUP2 MSTORE PUSH1 0x20 PUSH1 0x4 DUP3 ADD MSTORE PUSH1 0x23 PUSH1 0x24 DUP3 ADD MSTORE PUSH32 0x566F74696E67206973206E6F7420616C6C6F7765642061742074686973207469 PUSH1 0x44 DUP3 ADD MSTORE PUSH3 0x36B297 PUSH1 0xE9 SHL PUSH1 0x64 DUP3 ADD MSTORE PUSH1 0x84 ADD JUMPDEST PUSH1 0x40 MLOAD DUP1 SWAP2 SUB SWAP1 REVERT JUMPDEST CALLER PUSH0 SWAP1 DUP2 MSTORE PUSH1 0x1 PUSH1 0x20 MSTORE PUSH1 0x40 DUP2 KECCAK256 DUP1 SLOAD SWAP1 SWAP2 SUB PUSH2 0x299 JUMPI PUSH1 0x40 MLOAD PUSH3 0x461BCD PUSH1 0xE5 SHL DUP2 MSTORE PUSH1 0x20 PUSH1 0x4 DUP3 ADD MSTORE PUSH1 0x15 PUSH1 0x24 DUP3 ADD MSTORE PUSH21 0x2430B9903737903934B3B43A103A37903B37BA3297 PUSH1 0x59 SHL PUSH1 0x44 DUP3 ADD MSTORE PUSH1 0x64 ADD PUSH2 0x239 JUMP JUMPDEST PUSH1 0x1 DUP2 ADD SLOAD PUSH1 0xFF AND ISZERO PUSH2 0x2DF JUMPI PUSH1 0x40 MLOAD PUSH3 0x461BCD PUSH1 0xE5 SHL DUP2 MSTORE PUSH1 0x20 PUSH1 0x4 DUP3 ADD MSTORE PUSH1 0xE PUSH1 0x24 DUP3 ADD MSTORE PUSH14 0x20B63932B0B23C903B37BA32B217 PUSH1 0x91 SHL PUSH1 0x44 DUP3 ADD MSTORE PUSH1 0x64 ADD PUSH2 0x239 JUMP JUMPDEST PUSH1 0x1 DUP2 DUP2 ADD DUP1 SLOAD PUSH1 0xFF NOT AND SWAP1 SWAP2 OR SWAP1 SSTORE PUSH1 0x2 DUP1 DUP3 ADD DUP4 SWAP1 SSTORE DUP2 SLOAD DUP2 SLOAD SWAP1 SWAP2 SWAP1 DUP5 SWAP1 DUP2 LT PUSH2 0x30E JUMPI PUSH2 0x30E PUSH2 0x857 JUMP JUMPDEST SWAP1 PUSH0 MSTORE PUSH1 0x20 PUSH0 KECCAK256 SWAP1 PUSH1 0x2 MUL ADD PUSH1 0x1 ADD PUSH0 DUP3 DUP3 SLOAD PUSH2 0x32B SWAP2 SWAP1 PUSH2 0x86B JUMP JUMPDEST SWAP1 SWAP2 SSTORE POP POP POP POP JUMP JUMPDEST PUSH1 0x2 DUP2 DUP2 SLOAD DUP2 LT PUSH2 0x343 JUMPI PUSH0 DUP1 REVERT JUMPDEST PUSH0 SWAP2 DUP3 MSTORE PUSH1 0x20 SWAP1 SWAP2 KECCAK256 PUSH1 0x2 SWAP1 SWAP2 MUL ADD DUP1 SLOAD PUSH1 0x1 SWAP1 SWAP2 ADD SLOAD SWAP1 SWAP2 POP DUP3 JUMP JUMPDEST CALLER PUSH0 SWAP1 DUP2 MSTORE PUSH1 0x1 PUSH1 0x20 MSTORE PUSH1 0x40 DUP2 KECCAK256 DUP1 SLOAD SWAP1 SWAP2 SUB PUSH2 0x3BF JUMPI PUSH1 0x40 MLOAD PUSH3 0x461BCD PUSH1 0xE5 SHL DUP2 MSTORE PUSH1 0x20 PUSH1 0x4 DUP3 ADD MSTORE PUSH1 0x1A PUSH1 0x24 DUP3 ADD MSTORE PUSH32 0x596F752068617665206E6F20726967687420746F20766F74652E000000000000 PUSH1 0x44 DUP3 ADD MSTORE PUSH1 0x64 ADD PUSH2 0x239 JUMP JUMPDEST PUSH1 0x1 DUP2 ADD SLOAD PUSH1 0xFF AND ISZERO PUSH2 0x409 JUMPI PUSH1 0x40 MLOAD PUSH3 0x461BCD PUSH1 0xE5 SHL DUP2 MSTORE PUSH1 0x20 PUSH1 0x4 DUP3 ADD MSTORE PUSH1 0x12 PUSH1 0x24 DUP3 ADD MSTORE PUSH18 0x2CB7BA9030B63932B0B23C903B37BA32B217 PUSH1 0x71 SHL PUSH1 0x44 DUP3 ADD MSTORE PUSH1 0x64 ADD PUSH2 0x239 JUMP JUMPDEST CALLER PUSH1 0x1 PUSH1 0x1 PUSH1 0xA0 SHL SUB DUP4 AND SUB PUSH2 0x461 JUMPI PUSH1 0x40 MLOAD PUSH3 0x461BCD PUSH1 0xE5 SHL DUP2 MSTORE PUSH1 0x20 PUSH1 0x4 DUP3 ADD MSTORE PUSH1 0x1E PUSH1 0x24 DUP3 ADD MSTORE PUSH32 0x53656C662D64656C65676174696F6E20697320646973616C6C6F7765642E0000 PUSH1 0x44 DUP3 ADD MSTORE PUSH1 0x64 ADD PUSH2 0x239 JUMP JUMPDEST PUSH1 0x1 PUSH1 0x1 PUSH1 0xA0 SHL SUB DUP3 DUP2 AND PUSH0 SWAP1 DUP2 MSTORE PUSH1 0x1 PUSH1 0x20 DUP2 SWAP1 MSTORE PUSH1 0x40 SWAP1 SWAP2 KECCAK256 ADD SLOAD PUSH2 0x100 SWAP1 DIV AND ISZERO PUSH2 0x503 JUMPI PUSH1 0x1 PUSH1 0x1 PUSH1 0xA0 SHL SUB SWAP2 DUP3 AND PUSH0 SWAP1 DUP2 MSTORE PUSH1 0x1 PUSH1 0x20 DUP2 SWAP1 MSTORE PUSH1 0x40 SWAP1 SWAP2 KECCAK256 ADD SLOAD PUSH2 0x100 SWAP1 DIV SWAP1 SWAP2 AND SWAP1 CALLER DUP3 SUB PUSH2 0x4FE JUMPI PUSH1 0x40 MLOAD PUSH3 0x461BCD PUSH1 0xE5 SHL DUP2 MSTORE PUSH1 0x20 PUSH1 0x4 DUP3 ADD MSTORE PUSH1 0x19 PUSH1 0x24 DUP3 ADD MSTORE PUSH32 0x466F756E64206C6F6F7020696E2064656C65676174696F6E2E00000000000000 PUSH1 0x44 DUP3 ADD MSTORE PUSH1 0x64 ADD PUSH2 0x239 JUMP JUMPDEST PUSH2 0x461 JUMP JUMPDEST PUSH1 0x1 PUSH1 0x1 PUSH1 0xA0 SHL SUB DUP3 AND PUSH0 SWAP1 DUP2 MSTORE PUSH1 0x1 PUSH1 0x20 DUP2 SWAP1 MSTORE PUSH1 0x40 SWAP1 SWAP2 KECCAK256 DUP1 SLOAD SWAP1 SWAP2 GT ISZERO PUSH2 0x586 JUMPI PUSH1 0x40 MLOAD PUSH3 0x461BCD PUSH1 0xE5 SHL DUP2 MSTORE PUSH1 0x20 PUSH1 0x4 DUP3 ADD MSTORE PUSH1 0x2E PUSH1 0x24 DUP3 ADD MSTORE PUSH32 0x53656C65637465642064656C656761746520646F6573206E6F74206861766520 PUSH1 0x44 DUP3 ADD MSTORE PUSH14 0x3B37BA34B733903934B3B43A3997 PUSH1 0x91 SHL PUSH1 0x64 DUP3 ADD MSTORE PUSH1 0x84 ADD PUSH2 0x239 JUMP JUMPDEST PUSH1 0x1 DUP3 DUP2 ADD DUP1 SLOAD PUSH1 0x1 PUSH1 0x1 PUSH1 0xA8 SHL SUB NOT AND PUSH2 0x100 PUSH1 0x1 PUSH1 0x1 PUSH1 0xA0 SHL SUB DUP8 AND MUL OR DUP3 OR SWAP1 SSTORE DUP2 ADD SLOAD PUSH1 0xFF AND ISZERO PUSH2 0x5F5 JUMPI DUP2 SLOAD PUSH1 0x2 DUP3 DUP2 ADD SLOAD DUP2 SLOAD DUP2 LT PUSH2 0x5CD JUMPI PUSH2 0x5CD PUSH2 0x857 JUMP JUMPDEST SWAP1 PUSH0 MSTORE PUSH1 0x20 PUSH0 KECCAK256 SWAP1 PUSH1 0x2 MUL ADD PUSH1 0x1 ADD PUSH0 DUP3 DUP3 SLOAD PUSH2 0x5EA SWAP2 SWAP1 PUSH2 0x86B JUMP JUMPDEST SWAP1 SWAP2 SSTORE POP PUSH2 0x60E SWAP1 POP JUMP JUMPDEST DUP2 SLOAD DUP2 SLOAD DUP3 SWAP1 PUSH0 SWAP1 PUSH2 0x608 SWAP1 DUP5 SWAP1 PUSH2 0x86B JUMP JUMPDEST SWAP1 SWAP2 SSTORE POP POP JUMPDEST POP POP POP JUMP JUMPDEST PUSH0 DUP1 DUP1 JUMPDEST PUSH1 0x2 SLOAD DUP2 LT ISZERO PUSH2 0x67C JUMPI DUP2 PUSH1 0x2 DUP3 DUP2 SLOAD DUP2 LT PUSH2 0x635 JUMPI PUSH2 0x635 PUSH2 0x857 JUMP JUMPDEST SWAP1 PUSH0 MSTORE PUSH1 0x20 PUSH0 KECCAK256 SWAP1 PUSH1 0x2 MUL ADD PUSH1 0x1 ADD SLOAD GT ISZERO PUSH2 0x674 JUMPI PUSH1 0x2 DUP2 DUP2 SLOAD DUP2 LT PUSH2 0x65E JUMPI PUSH2 0x65E PUSH2 0x857 JUMP JUMPDEST SWAP1 PUSH0 MSTORE PUSH1 0x20 PUSH0 KECCAK256 SWAP1 PUSH1 0x2 MUL ADD PUSH1 0x1 ADD SLOAD SWAP2 POP DUP1 SWAP3 POP JUMPDEST PUSH1 0x1 ADD PUSH2 0x617 JUMP JUMPDEST POP POP SWAP1 JUMP JUMPDEST PUSH0 SLOAD PUSH1 0x1 PUSH1 0x1 PUSH1 0xA0 SHL SUB AND CALLER EQ PUSH2 0x6EB JUMPI PUSH1 0x40 MLOAD PUSH3 0x461BCD PUSH1 0xE5 SHL DUP2 MSTORE PUSH1 0x20 PUSH1 0x4 DUP3 ADD MSTORE PUSH1 0x28 PUSH1 0x24 DUP3 ADD MSTORE PUSH32 0x4F6E6C79206368616972706572736F6E2063616E206769766520726967687420 PUSH1 0x44 DUP3 ADD MSTORE PUSH8 0x3A37903B37BA3297 PUSH1 0xC1 SHL PUSH1 0x64 DUP3 ADD MSTORE PUSH1 0x84 ADD PUSH2 0x239 JUMP JUMPDEST PUSH1 0x1 PUSH1 0x1 PUSH1 0xA0 SHL SUB DUP2 AND PUSH0 SWAP1 DUP2 MSTORE PUSH1 0x1 PUSH1 0x20 DUP2 SWAP1 MSTORE PUSH1 0x40 SWAP1 SWAP2 KECCAK256 ADD SLOAD PUSH1 0xFF AND ISZERO PUSH2 0x757 JUMPI PUSH1 0x40 MLOAD PUSH3 0x461BCD PUSH1 0xE5 SHL DUP2 MSTORE PUSH1 0x20 PUSH1 0x4 DUP3 ADD MSTORE PUSH1 0x18 PUSH1 0x24 DUP3 ADD MSTORE PUSH32 0x54686520766F74657220616C726561647920766F7465642E0000000000000000 PUSH1 0x44 DUP3 ADD MSTORE PUSH1 0x64 ADD PUSH2 0x239 JUMP JUMPDEST PUSH1 0x1 PUSH1 0x1 PUSH1 0xA0 SHL SUB DUP2 AND PUSH0 SWAP1 DUP2 MSTORE PUSH1 0x1 PUSH1 0x20 MSTORE PUSH1 0x40 SWAP1 KECCAK256 SLOAD ISZERO PUSH2 0x7C8 JUMPI PUSH1 0x40 MLOAD PUSH3 0x461BCD PUSH1 0xE5 SHL DUP2 MSTORE PUSH1 0x20 PUSH1 0x4 DUP3 ADD MSTORE PUSH1 0x24 DUP1 DUP3 ADD MSTORE PUSH32 0x54686520766F74657220616C72656164792068617320766F74696E6720726967 PUSH1 0x44 DUP3 ADD MSTORE PUSH4 0x343A3997 PUSH1 0xE1 SHL PUSH1 0x64 DUP3 ADD MSTORE PUSH1 0x84 ADD PUSH2 0x239 JUMP JUMPDEST PUSH1 0x1 PUSH1 0x1 PUSH1 0xA0 SHL SUB AND PUSH0 SWAP1 DUP2 MSTORE PUSH1 0x1 PUSH1 0x20 DUP2 SWAP1 MSTORE PUSH1 0x40 SWAP1 SWAP2 KECCAK256 SSTORE JUMP JUMPDEST PUSH0 PUSH1 0x2 PUSH2 0x7EF PUSH2 0x613 JUMP JUMPDEST DUP2 SLOAD DUP2 LT PUSH2 0x7FF JUMPI PUSH2 0x7FF PUSH2 0x857 JUMP JUMPDEST SWAP1 PUSH0 MSTORE PUSH1 0x20 PUSH0 KECCAK256 SWAP1 PUSH1 0x2 MUL ADD PUSH0 ADD SLOAD SWAP1 POP SWAP1 JUMP JUMPDEST PUSH0 PUSH1 0x20 DUP3 DUP5 SUB SLT ISZERO PUSH2 0x823 JUMPI PUSH0 DUP1 REVERT JUMPDEST POP CALLDATALOAD SWAP2 SWAP1 POP JUMP JUMPDEST PUSH0 PUSH1 0x20 DUP3 DUP5 SUB SLT ISZERO PUSH2 0x83A JUMPI PUSH0 DUP1 REVERT JUMPDEST DUP2 CALLDATALOAD PUSH1 0x1 PUSH1 0x1 PUSH1 0xA0 SHL SUB DUP2 AND DUP2 EQ PUSH2 0x850 JUMPI PUSH0 DUP1 REVERT JUMPDEST SWAP4 SWAP3 POP POP POP JUMP JUMPDEST PUSH4 0x4E487B71 PUSH1 0xE0 SHL PUSH0 MSTORE PUSH1 0x32 PUSH1 0x4 MSTORE PUSH1 0x24 PUSH0 REVERT JUMPDEST DUP1 DUP3 ADD DUP1 DUP3 GT ISZERO PUSH2 0x88A JUMPI PUSH4 0x4E487B71 PUSH1 0xE0 SHL PUSH0 MSTORE PUSH1 0x11 PUSH1 0x4 MSTORE PUSH1 0x24 PUSH0 REVERT JUMPDEST SWAP3 SWAP2 POP POP JUMP INVALID LOG2 PUSH5 0x6970667358 0x22 SLT KECCAK256 0x2B PUSH16 0xDA434B7F47E59FCBBDE5227C40B7BA30 SWAP16 0xE6 ISZERO NOT MCOPY CALLER DUP2 0xB2 DUP3 MSTORE DIV EQ 0xB6 0x4B PUSH5 0x736F6C6343 STOP ADDMOD XOR STOP CALLER "
				},
				"gasEstimates": {
					"creation": {
						"codeDepositCost": "449200",
						"executionCost": "infinite",
						"totalCost": "infinite"
					},
					"external": {
						"chairperson()": "2380",
						"delegate(address)": "infinite",
						"endTime()": "2361",
						"giveRightToVote(address)": "29073",
						"proposals(uint256)": "6740",
						"startTime()": "2316",
						"vote(uint256)": "83767",
						"voters(address)": "6914",
						"winnerName()": "infinite",
						"winningProposal()": "infinite"
					}
				},
				"methodIdentifiers": {
					"chairperson()": "2e4176cf",
					"delegate(address)": "5c19a95c",
					"endTime()": "3197cbb6",
					"giveRightToVote(address)": "9e7b8d61",
					"proposals(uint256)": "013cf08b",
					"startTime()": "78e97925",
					"vote(uint256)": "0121b93f",
					"voters(address)": "a3ec138d",
					"winnerName()": "e2ba53f0",
					"winningProposal()": "609ff1bd"
				}
			},
			"storageLayout": {
				"storage": [
					{
						"astId": 17,
						"contract": "Ballot/Ballot_01.sol:Ballot",
						"label": "chairperson",
						"offset": 0,
						"slot": "0",
						"type": "t_address"
					},
					{
						"astId": 22,
						"contract": "Ballot/Ballot_01.sol:Ballot",
						"label": "voters",
						"offset": 0,
						"slot": "1",
						"type": "t_mapping(t_address,t_struct(Voter)10_storage)"
					},
					{
						"astId": 26,
						"contract": "Ballot/Ballot_01.sol:Ballot",
						"label": "proposals",
						"offset": 0,
						"slot": "2",
						"type": "t_array(t_struct(Proposal)15_storage)dyn_storage"
					},
					{
						"astId": 28,
						"contract": "Ballot/Ballot_01.sol:Ballot",
						"label": "startTime",
						"offset": 0,
						"slot": "3",
						"type": "t_uint256"
					},
					{
						"astId": 30,
						"contract": "Ballot/Ballot_01.sol:Ballot",
						"label": "endTime",
						"offset": 0,
						"slot": "4",
						"type": "t_uint256"
					}
				],
				"types": {
					"t_address": {
						"encoding": "inplace",
						"label": "address",
						"numberOfBytes": "20"
					},
					"t_array(t_struct(Proposal)15_storage)dyn_storage": {
						"base": "t_struct(Proposal)15_storage",
						"encoding": "dynamic_array",
						"label": "struct Ballot.Proposal[]",
						"numberOfBytes": "32"
					},
					"t_bool": {
						"encoding": "inplace",
						"label": "bool",
						"numberOfBytes": "1"
					},
					"t_bytes32": {
						"encoding": "inplace",
						"label": "bytes32",
						"numberOfBytes": "32"
					},
					"t_mapping(t_address,t_struct(Voter)10_storage)": {
						"encoding": "mapping",
						"key": "t_address",
						"label": "mapping(address => struct Ballot.Voter)",
						"numberOfBytes": "32",
						"value": "t_struct(Voter)10_storage"
					},
					"t_struct(Proposal)15_storage": {
						"encoding": "inplace",
						"label": "struct Ballot.Proposal",
						"members": [
							{
								"astId": 12,
								"contract": "Ballot/Ballot_01.sol:Ballot",
								"label": "name",
								"offset": 0,
								"slot": "0",
								"type": "t_bytes32"
							},
							{
								"astId": 14,
								"contract": "Ballot/Ballot_01.sol:Ballot",
								"label": "voteCount",
								"offset": 0,
								"slot": "1",
								"type": "t_uint256"
							}
						],
						"numberOfBytes": "64"
					},
					"t_struct(Voter)10_storage": {
						"encoding": "inplace",
						"label": "struct Ballot.Voter",
						"members": [
							{
								"astId": 3,
								"contract": "Ballot/Ballot_01.sol:Ballot",
								"label": "weight",
								"offset": 0,
								"slot": "0",
								"type": "t_uint256"
							},
							{
								"astId": 5,
								"contract": "Ballot/Ballot_01.sol:Ballot",
								"label": "voted",
								"offset": 0,
								"slot": "1",
								"type": "t_bool"
							},
							{
								"astId": 7,
								"contract": "Ballot/Ballot_01.sol:Ballot",
								"label": "delegate",
								"offset": 1,
								"slot": "1",
								"type": "t_address"
							},
							{
								"astId": 9,
								"contract": "Ballot/Ballot_01.sol:Ballot",
								"label": "vote",
								"offset": 0,
								"slot": "2",
								"type": "t_uint256"
							}
						],
						"numberOfBytes": "96"
					},
					"t_uint256": {
						"encoding": "inplace",
						"label": "uint256",
						"numberOfBytes": "32"
					}
				}
			},
			"userdoc": {
				"kind": "user",
				"methods": {},
				"version": 1
			}
		}
	}
}