{
	"TinTinCourse/NFTSwap/WTFApe.sol": {
		"WTFApe": {
			"abi": [
				{
					"inputs": [
						{
							"internalType": "string",
							"name": "name_",
							"type": "string"
						},
						{
							"internalType": "string",
							"name": "symbol_",
							"type": "string"
						}
					],
					"stateMutability": "nonpayable",
					"type": "constructor"
				},
				{
					"inputs": [
						{
							"internalType": "address",
							"name": "receiver",
							"type": "address"
						}
					],
					"name": "ERC721InvalidReceiver",
					"type": "error"
				},
				{
					"anonymous": false,
					"inputs": [
						{
							"indexed": true,
							"internalType": "address",
							"name": "owner",
							"type": "address"
						},
						{
							"indexed": true,
							"internalType": "address",
							"name": "approved",
							"type": "address"
						},
						{
							"indexed": true,
							"internalType": "uint256",
							"name": "tokenId",
							"type": "uint256"
						}
					],
					"name": "Approval",
					"type": "event"
				},
				{
					"anonymous": false,
					"inputs": [
						{
							"indexed": true,
							"internalType": "address",
							"name": "owner",
							"type": "address"
						},
						{
							"indexed": true,
							"internalType": "address",
							"name": "operator",
							"type": "address"
						},
						{
							"indexed": false,
							"internalType": "bool",
							"name": "approved",
							"type": "bool"
						}
					],
					"name": "ApprovalForAll",
					"type": "event"
				},
				{
					"anonymous": false,
					"inputs": [
						{
							"indexed": true,
							"internalType": "address",
							"name": "from",
							"type": "address"
						},
						{
							"indexed": true,
							"internalType": "address",
							"name": "to",
							"type": "address"
						},
						{
							"indexed": true,
							"internalType": "uint256",
							"name": "tokenId",
							"type": "uint256"
						}
					],
					"name": "Transfer",
					"type": "event"
				},
				{
					"inputs": [],
					"name": "MAX_APES",
					"outputs": [
						{
							"internalType": "uint256",
							"name": "",
							"type": "uint256"
						}
					],
					"stateMutability": "view",
					"type": "function"
				},
				{
					"inputs": [
						{
							"internalType": "address",
							"name": "to",
							"type": "address"
						},
						{
							"internalType": "uint256",
							"name": "tokenId",
							"type": "uint256"
						}
					],
					"name": "approve",
					"outputs": [],
					"stateMutability": "nonpayable",
					"type": "function"
				},
				{
					"inputs": [
						{
							"internalType": "address",
							"name": "owner",
							"type": "address"
						}
					],
					"name": "balanceOf",
					"outputs": [
						{
							"internalType": "uint256",
							"name": "",
							"type": "uint256"
						}
					],
					"stateMutability": "view",
					"type": "function"
				},
				{
					"inputs": [
						{
							"internalType": "uint256",
							"name": "tokenId",
							"type": "uint256"
						}
					],
					"name": "getApproved",
					"outputs": [
						{
							"internalType": "address",
							"name": "",
							"type": "address"
						}
					],
					"stateMutability": "view",
					"type": "function"
				},
				{
					"inputs": [
						{
							"internalType": "address",
							"name": "owner",
							"type": "address"
						},
						{
							"internalType": "address",
							"name": "operator",
							"type": "address"
						}
					],
					"name": "isApprovedForAll",
					"outputs": [
						{
							"internalType": "bool",
							"name": "",
							"type": "bool"
						}
					],
					"stateMutability": "view",
					"type": "function"
				},
				{
					"inputs": [
						{
							"internalType": "address",
							"name": "to",
							"type": "address"
						},
						{
							"internalType": "uint256",
							"name": "tokenId",
							"type": "uint256"
						}
					],
					"name": "mint",
					"outputs": [],
					"stateMutability": "nonpayable",
					"type": "function"
				},
				{
					"inputs": [],
					"name": "name",
					"outputs": [
						{
							"internalType": "string",
							"name": "",
							"type": "string"
						}
					],
					"stateMutability": "view",
					"type": "function"
				},
				{
					"inputs": [
						{
							"internalType": "uint256",
							"name": "tokenId",
							"type": "uint256"
						}
					],
					"name": "ownerOf",
					"outputs": [
						{
							"internalType": "address",
							"name": "owner",
							"type": "address"
						}
					],
					"stateMutability": "view",
					"type": "function"
				},
				{
					"inputs": [
						{
							"internalType": "address",
							"name": "from",
							"type": "address"
						},
						{
							"internalType": "address",
							"name": "to",
							"type": "address"
						},
						{
							"internalType": "uint256",
							"name": "tokenId",
							"type": "uint256"
						}
					],
					"name": "safeTransferFrom",
					"outputs": [],
					"stateMutability": "nonpayable",
					"type": "function"
				},
				{
					"inputs": [
						{
							"internalType": "address",
							"name": "from",
							"type": "address"
						},
						{
							"internalType": "address",
							"name": "to",
							"type": "address"
						},
						{
							"internalType": "uint256",
							"name": "tokenId",
							"type": "uint256"
						},
						{
							"internalType": "bytes",
							"name": "_data",
							"type": "bytes"
						}
					],
					"name": "safeTransferFrom",
					"outputs": [],
					"stateMutability": "nonpayable",
					"type": "function"
				},
				{
					"inputs": [
						{
							"internalType": "address",
							"name": "operator",
							"type": "address"
						},
						{
							"internalType": "bool",
							"name": "approved",
							"type": "bool"
						}
					],
					"name": "setApprovalForAll",
					"outputs": [],
					"stateMutability": "nonpayable",
					"type": "function"
				},
				{
					"inputs": [
						{
							"internalType": "bytes4",
							"name": "interfaceId",
							"type": "bytes4"
						}
					],
					"name": "supportsInterface",
					"outputs": [
						{
							"internalType": "bool",
							"name": "",
							"type": "bool"
						}
					],
					"stateMutability": "pure",
					"type": "function"
				},
				{
					"inputs": [],
					"name": "symbol",
					"outputs": [
						{
							"internalType": "string",
							"name": "",
							"type": "string"
						}
					],
					"stateMutability": "view",
					"type": "function"
				},
				{
					"inputs": [
						{
							"internalType": "uint256",
							"name": "tokenId",
							"type": "uint256"
						}
					],
					"name": "tokenURI",
					"outputs": [
						{
							"internalType": "string",
							"name": "",
							"type": "string"
						}
					],
					"stateMutability": "view",
					"type": "function"
				},
				{
					"inputs": [
						{
							"internalType": "address",
							"name": "from",
							"type": "address"
						},
						{
							"internalType": "address",
							"name": "to",
							"type": "address"
						},
						{
							"internalType": "uint256",
							"name": "tokenId",
							"type": "uint256"
						}
					],
					"name": "transferFrom",
					"outputs": [],
					"stateMutability": "nonpayable",
					"type": "function"
				}
			],
			"devdoc": {
				"kind": "dev",
				"methods": {
					"supportsInterface(bytes4)": {
						"details": "如果合约实现了查询的`interfaceId`，则返回true 规则详见：https://eips.ethereum.org/EIPS/eip-165#how-interfaces-are-identified[EIP section]"
					}
				},
				"version": 1
			},
			"evm": {
				"assembly": "    /* \"TinTinCourse/NFTSwap/WTFApe.sol\":99:722  contract WTFApe is ERC721{... */\n  mstore(0x40, 0x80)\n    /* \"TinTinCourse/NFTSwap/WTFApe.sol\":154:159  10000 */\n  0x2710\n    /* \"TinTinCourse/NFTSwap/WTFApe.sol\":131:159  uint public MAX_APES = 10000 */\n  0x06\n  sstore\n    /* \"TinTinCourse/NFTSwap/WTFApe.sol\":199:285  constructor(string memory name_, string memory symbol_) ERC721(name_, symbol_){... */\n  callvalue\n  dup1\n  iszero\n  tag_1\n  jumpi\n  0x00\n  dup1\n  revert\ntag_1:\n  pop\n  mload(0x40)\n  sub(codesize, bytecodeSize)\n  dup1\n  bytecodeSize\n  dup4\n  codecopy\n  dup2\n  add\n  0x40\n  dup2\n  swap1\n  mstore\n  tag_2\n  swap2\n  tag_3\n  jump\t// in\ntag_2:\n    /* \"TinTinCourse/NFTSwap/WTFApe.sol\":262:267  name_ */\n  dup2\n    /* \"TinTinCourse/NFTSwap/WTFApe.sol\":269:276  symbol_ */\n  dup2\n    /* \"TinTinCourse/NFTSwap/ERC721.sol\":1105:1109  name */\n  0x00\n    /* \"TinTinCourse/NFTSwap/ERC721.sol\":1105:1117  name = name_ */\n  tag_7\n    /* \"TinTinCourse/NFTSwap/WTFApe.sol\":262:267  name_ */\n  dup4\n    /* \"TinTinCourse/NFTSwap/ERC721.sol\":1105:1109  name */\n  dup3\n    /* \"TinTinCourse/NFTSwap/ERC721.sol\":1105:1117  name = name_ */\n  tag_8\n  jump\t// in\ntag_7:\n  pop\n    /* \"TinTinCourse/NFTSwap/ERC721.sol\":1128:1134  symbol */\n  0x01\n    /* \"TinTinCourse/NFTSwap/ERC721.sol\":1128:1144  symbol = symbol_ */\n  tag_9\n    /* \"TinTinCourse/NFTSwap/ERC721.sol\":1137:1144  symbol_ */\n  dup3\n    /* \"TinTinCourse/NFTSwap/ERC721.sol\":1128:1134  symbol */\n  dup3\n    /* \"TinTinCourse/NFTSwap/ERC721.sol\":1128:1144  symbol = symbol_ */\n  tag_8\n  jump\t// in\ntag_9:\n  pop\n    /* \"TinTinCourse/NFTSwap/ERC721.sol\":1038:1152  constructor(string memory name_, string memory symbol_) {... */\n  pop\n  pop\n    /* \"TinTinCourse/NFTSwap/WTFApe.sol\":199:285  constructor(string memory name_, string memory symbol_) ERC721(name_, symbol_){... */\n  pop\n  pop\n    /* \"TinTinCourse/NFTSwap/WTFApe.sol\":99:722  contract WTFApe is ERC721{... */\n  jump(tag_18)\n    /* \"#utility.yul\":14:141   */\ntag_12:\n    /* \"#utility.yul\":75:85   */\n  0x4e487b71\n    /* \"#utility.yul\":70:73   */\n  0xe0\n    /* \"#utility.yul\":66:86   */\n  shl\n    /* \"#utility.yul\":63:64   */\n  0x00\n    /* \"#utility.yul\":56:87   */\n  mstore\n    /* \"#utility.yul\":106:110   */\n  0x41\n    /* \"#utility.yul\":103:104   */\n  0x04\n    /* \"#utility.yul\":96:111   */\n  mstore\n    /* \"#utility.yul\":130:134   */\n  0x24\n    /* \"#utility.yul\":127:128   */\n  0x00\n    /* \"#utility.yul\":120:135   */\n  revert\n    /* \"#utility.yul\":146:990   */\ntag_13:\n    /* \"#utility.yul\":200:205   */\n  0x00\n    /* \"#utility.yul\":253:256   */\n  dup3\n    /* \"#utility.yul\":246:250   */\n  0x1f\n    /* \"#utility.yul\":238:244   */\n  dup4\n    /* \"#utility.yul\":234:251   */\n  add\n    /* \"#utility.yul\":230:257   */\n  slt\n    /* \"#utility.yul\":220:275   */\n  tag_21\n  jumpi\n    /* \"#utility.yul\":271:272   */\n  0x00\n    /* \"#utility.yul\":268:269   */\n  dup1\n    /* \"#utility.yul\":261:273   */\n  revert\n    /* \"#utility.yul\":220:275   */\ntag_21:\n    /* \"#utility.yul\":294:307   */\n  dup2\n  mload\n  sub(shl(0x40, 0x01), 0x01)\n    /* \"#utility.yul\":356:366   */\n  dup1\n  dup3\n  gt\n    /* \"#utility.yul\":353:389   */\n  iszero\n  tag_23\n  jumpi\n    /* \"#utility.yul\":369:387   */\n  tag_23\n  tag_12\n  jump\t// in\ntag_23:\n    /* \"#utility.yul\":444:446   */\n  0x40\n    /* \"#utility.yul\":438:447   */\n  mload\n    /* \"#utility.yul\":412:414   */\n  0x1f\n    /* \"#utility.yul\":498:511   */\n  dup4\n  add\n  not(0x1f)\n    /* \"#utility.yul\":494:516   */\n  swap1\n  dup2\n  and\n    /* \"#utility.yul\":518:520   */\n  0x3f\n    /* \"#utility.yul\":490:521   */\n  add\n    /* \"#utility.yul\":486:526   */\n  and\n    /* \"#utility.yul\":474:527   */\n  dup2\n  add\n  swap1\n    /* \"#utility.yul\":542:560   */\n  dup3\n  dup3\n  gt\n    /* \"#utility.yul\":562:584   */\n  dup2\n  dup4\n  lt\n    /* \"#utility.yul\":539:585   */\n  or\n    /* \"#utility.yul\":536:608   */\n  iszero\n  tag_25\n  jumpi\n    /* \"#utility.yul\":588:606   */\n  tag_25\n  tag_12\n  jump\t// in\ntag_25:\n    /* \"#utility.yul\":628:638   */\n  dup2\n    /* \"#utility.yul\":624:626   */\n  0x40\n    /* \"#utility.yul\":617:639   */\n  mstore\n    /* \"#utility.yul\":663:665   */\n  dup4\n    /* \"#utility.yul\":655:661   */\n  dup2\n    /* \"#utility.yul\":648:666   */\n  mstore\n    /* \"#utility.yul\":685:689   */\n  0x20\n    /* \"#utility.yul\":675:689   */\n  swap3\n  pop\n    /* \"#utility.yul\":732:735   */\n  dup7\n    /* \"#utility.yul\":725:729   */\n  0x20\n    /* \"#utility.yul\":720:722   */\n  dup6\n    /* \"#utility.yul\":712:718   */\n  dup9\n    /* \"#utility.yul\":708:723   */\n  add\n    /* \"#utility.yul\":704:730   */\n  add\n    /* \"#utility.yul\":701:736   */\n  gt\n    /* \"#utility.yul\":698:753   */\n  iszero\n  tag_26\n  jumpi\n    /* \"#utility.yul\":749:750   */\n  0x00\n    /* \"#utility.yul\":746:747   */\n  dup1\n    /* \"#utility.yul\":739:751   */\n  revert\n    /* \"#utility.yul\":698:753   */\ntag_26:\n    /* \"#utility.yul\":771:772   */\n  0x00\n    /* \"#utility.yul\":762:772   */\n  swap2\n  pop\n    /* \"#utility.yul\":781:914   */\ntag_27:\n    /* \"#utility.yul\":795:797   */\n  dup4\n    /* \"#utility.yul\":792:793   */\n  dup3\n    /* \"#utility.yul\":789:798   */\n  lt\n    /* \"#utility.yul\":781:914   */\n  iszero\n  tag_29\n  jumpi\n    /* \"#utility.yul\":883:897   */\n  dup6\n  dup3\n  add\n    /* \"#utility.yul\":879:902   */\n  dup4\n  add\n    /* \"#utility.yul\":873:903   */\n  mload\n    /* \"#utility.yul\":852:866   */\n  dup2\n  dup4\n  add\n    /* \"#utility.yul\":848:871   */\n  dup5\n  add\n    /* \"#utility.yul\":841:904   */\n  mstore\n    /* \"#utility.yul\":806:816   */\n  swap1\n  dup3\n  add\n  swap1\n    /* \"#utility.yul\":781:914   */\n  jump(tag_27)\ntag_29:\n    /* \"#utility.yul\":958:959   */\n  0x00\n    /* \"#utility.yul\":951:955   */\n  0x20\n    /* \"#utility.yul\":946:948   */\n  dup6\n    /* \"#utility.yul\":938:944   */\n  dup4\n    /* \"#utility.yul\":934:949   */\n  add\n    /* \"#utility.yul\":930:956   */\n  add\n    /* \"#utility.yul\":923:960   */\n  mstore\n    /* \"#utility.yul\":978:984   */\n  dup1\n    /* \"#utility.yul\":969:984   */\n  swap5\n  pop\n  pop\n  pop\n  pop\n  pop\n    /* \"#utility.yul\":146:990   */\n  swap3\n  swap2\n  pop\n  pop\n  jump\t// out\n    /* \"#utility.yul\":995:1557   */\ntag_3:\n    /* \"#utility.yul\":1094:1100   */\n  0x00\n    /* \"#utility.yul\":1102:1108   */\n  dup1\n    /* \"#utility.yul\":1155:1157   */\n  0x40\n    /* \"#utility.yul\":1143:1152   */\n  dup4\n    /* \"#utility.yul\":1134:1141   */\n  dup6\n    /* \"#utility.yul\":1130:1153   */\n  sub\n    /* \"#utility.yul\":1126:1158   */\n  slt\n    /* \"#utility.yul\":1123:1175   */\n  iszero\n  tag_31\n  jumpi\n    /* \"#utility.yul\":1171:1172   */\n  0x00\n    /* \"#utility.yul\":1168:1169   */\n  dup1\n    /* \"#utility.yul\":1161:1173   */\n  revert\n    /* \"#utility.yul\":1123:1175   */\ntag_31:\n    /* \"#utility.yul\":1198:1214   */\n  dup3\n  mload\n  sub(shl(0x40, 0x01), 0x01)\n    /* \"#utility.yul\":1263:1277   */\n  dup1\n  dup3\n  gt\n    /* \"#utility.yul\":1260:1294   */\n  iszero\n  tag_32\n  jumpi\n    /* \"#utility.yul\":1290:1291   */\n  0x00\n    /* \"#utility.yul\":1287:1288   */\n  dup1\n    /* \"#utility.yul\":1280:1292   */\n  revert\n    /* \"#utility.yul\":1260:1294   */\ntag_32:\n    /* \"#utility.yul\":1313:1374   */\n  tag_33\n    /* \"#utility.yul\":1366:1373   */\n  dup7\n    /* \"#utility.yul\":1357:1363   */\n  dup4\n    /* \"#utility.yul\":1346:1355   */\n  dup8\n    /* \"#utility.yul\":1342:1364   */\n  add\n    /* \"#utility.yul\":1313:1374   */\n  tag_13\n  jump\t// in\ntag_33:\n    /* \"#utility.yul\":1303:1374   */\n  swap4\n  pop\n    /* \"#utility.yul\":1420:1422   */\n  0x20\n    /* \"#utility.yul\":1409:1418   */\n  dup6\n    /* \"#utility.yul\":1405:1423   */\n  add\n    /* \"#utility.yul\":1399:1424   */\n  mload\n    /* \"#utility.yul\":1383:1424   */\n  swap2\n  pop\n    /* \"#utility.yul\":1449:1451   */\n  dup1\n    /* \"#utility.yul\":1439:1447   */\n  dup3\n    /* \"#utility.yul\":1436:1452   */\n  gt\n    /* \"#utility.yul\":1433:1469   */\n  iszero\n  tag_34\n  jumpi\n    /* \"#utility.yul\":1465:1466   */\n  0x00\n    /* \"#utility.yul\":1462:1463   */\n  dup1\n    /* \"#utility.yul\":1455:1467   */\n  revert\n    /* \"#utility.yul\":1433:1469   */\ntag_34:\n  pop\n    /* \"#utility.yul\":1488:1551   */\n  tag_35\n    /* \"#utility.yul\":1543:1550   */\n  dup6\n    /* \"#utility.yul\":1532:1540   */\n  dup3\n    /* \"#utility.yul\":1521:1530   */\n  dup7\n    /* \"#utility.yul\":1517:1541   */\n  add\n    /* \"#utility.yul\":1488:1551   */\n  tag_13\n  jump\t// in\ntag_35:\n    /* \"#utility.yul\":1478:1551   */\n  swap2\n  pop\n  pop\n    /* \"#utility.yul\":995:1557   */\n  swap3\n  pop\n  swap3\n  swap1\n  pop\n  jump\t// out\n    /* \"#utility.yul\":1562:1942   */\ntag_14:\n    /* \"#utility.yul\":1641:1642   */\n  0x01\n    /* \"#utility.yul\":1637:1649   */\n  dup2\n  dup2\n  shr\n  swap1\n    /* \"#utility.yul\":1684:1696   */\n  dup3\n  and\n  dup1\n    /* \"#utility.yul\":1705:1766   */\n  tag_37\n  jumpi\n    /* \"#utility.yul\":1759:1763   */\n  0x7f\n    /* \"#utility.yul\":1751:1757   */\n  dup3\n    /* \"#utility.yul\":1747:1764   */\n  and\n    /* \"#utility.yul\":1737:1764   */\n  swap2\n  pop\n    /* \"#utility.yul\":1705:1766   */\ntag_37:\n    /* \"#utility.yul\":1812:1814   */\n  0x20\n    /* \"#utility.yul\":1804:1810   */\n  dup3\n    /* \"#utility.yul\":1801:1815   */\n  lt\n    /* \"#utility.yul\":1781:1799   */\n  dup2\n    /* \"#utility.yul\":1778:1816   */\n  sub\n    /* \"#utility.yul\":1775:1936   */\n  tag_38\n  jumpi\n    /* \"#utility.yul\":1858:1868   */\n  0x4e487b71\n    /* \"#utility.yul\":1853:1856   */\n  0xe0\n    /* \"#utility.yul\":1849:1869   */\n  shl\n    /* \"#utility.yul\":1846:1847   */\n  0x00\n    /* \"#utility.yul\":1839:1870   */\n  mstore\n    /* \"#utility.yul\":1893:1897   */\n  0x22\n    /* \"#utility.yul\":1890:1891   */\n  0x04\n    /* \"#utility.yul\":1883:1898   */\n  mstore\n    /* \"#utility.yul\":1921:1925   */\n  0x24\n    /* \"#utility.yul\":1918:1919   */\n  0x00\n    /* \"#utility.yul\":1911:1926   */\n  revert\n    /* \"#utility.yul\":1775:1936   */\ntag_38:\n  pop\n    /* \"#utility.yul\":1562:1942   */\n  swap2\n  swap1\n  pop\n  jump\t// out\n    /* \"#utility.yul\":2073:2591   */\ntag_16:\n    /* \"#utility.yul\":2175:2177   */\n  0x1f\n    /* \"#utility.yul\":2170:2173   */\n  dup3\n    /* \"#utility.yul\":2167:2178   */\n  gt\n    /* \"#utility.yul\":2164:2585   */\n  iszero\n  tag_41\n  jumpi\n    /* \"#utility.yul\":2211:2216   */\n  dup1\n    /* \"#utility.yul\":2208:2209   */\n  0x00\n    /* \"#utility.yul\":2201:2217   */\n  mstore\n    /* \"#utility.yul\":2255:2259   */\n  0x20\n    /* \"#utility.yul\":2252:2253   */\n  0x00\n    /* \"#utility.yul\":2242:2260   */\n  keccak256\n    /* \"#utility.yul\":2325:2327   */\n  0x1f\n    /* \"#utility.yul\":2313:2323   */\n  dup5\n    /* \"#utility.yul\":2309:2328   */\n  add\n    /* \"#utility.yul\":2306:2307   */\n  0x05\n    /* \"#utility.yul\":2302:2329   */\n  shr\n    /* \"#utility.yul\":2296:2300   */\n  dup2\n    /* \"#utility.yul\":2292:2330   */\n  add\n    /* \"#utility.yul\":2361:2365   */\n  0x20\n    /* \"#utility.yul\":2349:2359   */\n  dup6\n    /* \"#utility.yul\":2346:2366   */\n  lt\n    /* \"#utility.yul\":2343:2390   */\n  iszero\n  tag_42\n  jumpi\n  pop\n    /* \"#utility.yul\":2384:2388   */\n  dup1\n    /* \"#utility.yul\":2343:2390   */\ntag_42:\n    /* \"#utility.yul\":2439:2441   */\n  0x1f\n    /* \"#utility.yul\":2434:2437   */\n  dup5\n    /* \"#utility.yul\":2430:2442   */\n  add\n    /* \"#utility.yul\":2427:2428   */\n  0x05\n    /* \"#utility.yul\":2423:2443   */\n  shr\n    /* \"#utility.yul\":2417:2421   */\n  dup3\n    /* \"#utility.yul\":2413:2444   */\n  add\n    /* \"#utility.yul\":2403:2444   */\n  swap2\n  pop\n    /* \"#utility.yul\":2494:2575   */\ntag_43:\n    /* \"#utility.yul\":2512:2514   */\n  dup2\n    /* \"#utility.yul\":2505:2510   */\n  dup2\n    /* \"#utility.yul\":2502:2515   */\n  lt\n    /* \"#utility.yul\":2494:2575   */\n  iszero\n  tag_45\n  jumpi\n    /* \"#utility.yul\":2571:2572   */\n  0x00\n    /* \"#utility.yul\":2557:2573   */\n  dup2\n  sstore\n    /* \"#utility.yul\":2538:2539   */\n  0x01\n    /* \"#utility.yul\":2527:2540   */\n  add\n    /* \"#utility.yul\":2494:2575   */\n  jump(tag_43)\ntag_45:\n    /* \"#utility.yul\":2498:2501   */\n  pop\n  pop\n    /* \"#utility.yul\":2164:2585   */\ntag_41:\n    /* \"#utility.yul\":2073:2591   */\n  pop\n  pop\n  pop\n  jump\t// out\n    /* \"#utility.yul\":2767:4112   */\ntag_8:\n    /* \"#utility.yul\":2887:2897   */\n  dup2\n  mload\n  sub(shl(0x40, 0x01), 0x01)\n    /* \"#utility.yul\":2909:2939   */\n  dup2\n  gt\n    /* \"#utility.yul\":2906:2962   */\n  iszero\n  tag_49\n  jumpi\n    /* \"#utility.yul\":2942:2960   */\n  tag_49\n  tag_12\n  jump\t// in\ntag_49:\n    /* \"#utility.yul\":2971:3068   */\n  tag_50\n    /* \"#utility.yul\":3061:3067   */\n  dup2\n    /* \"#utility.yul\":3021:3059   */\n  tag_51\n    /* \"#utility.yul\":3053:3057   */\n  dup5\n    /* \"#utility.yul\":3047:3058   */\n  sload\n    /* \"#utility.yul\":3021:3059   */\n  tag_14\n  jump\t// in\ntag_51:\n    /* \"#utility.yul\":3015:3019   */\n  dup5\n    /* \"#utility.yul\":2971:3068   */\n  tag_16\n  jump\t// in\ntag_50:\n    /* \"#utility.yul\":3123:3127   */\n  0x20\n  dup1\n    /* \"#utility.yul\":3180:3182   */\n  0x1f\n    /* \"#utility.yul\":3169:3183   */\n  dup4\n  gt\n    /* \"#utility.yul\":3197:3198   */\n  0x01\n    /* \"#utility.yul\":3192:3855   */\n  dup2\n  eq\n  tag_53\n  jumpi\n    /* \"#utility.yul\":3899:3900   */\n  0x00\n    /* \"#utility.yul\":3916:3922   */\n  dup5\n    /* \"#utility.yul\":3913:4002   */\n  iszero\n  tag_54\n  jumpi\n  pop\n    /* \"#utility.yul\":3968:3987   */\n  dup6\n  dup4\n  add\n    /* \"#utility.yul\":3962:3988   */\n  mload\n    /* \"#utility.yul\":3913:4002   */\ntag_54:\n  not(0x00)\n    /* \"#utility.yul\":2724:2725   */\n  0x03\n    /* \"#utility.yul\":2720:2731   */\n  dup7\n  swap1\n  shl\n    /* \"#utility.yul\":2716:2740   */\n  shr\n    /* \"#utility.yul\":2712:2741   */\n  not\n    /* \"#utility.yul\":2702:2742   */\n  and\n    /* \"#utility.yul\":2748:2749   */\n  0x01\n    /* \"#utility.yul\":2744:2755   */\n  dup6\n  swap1\n  shl\n    /* \"#utility.yul\":2699:2756   */\n  or\n    /* \"#utility.yul\":4015:4096   */\n  dup6\n  sstore\n    /* \"#utility.yul\":3162:4106   */\n  jump(tag_52)\n    /* \"#utility.yul\":3192:3855   */\ntag_53:\n    /* \"#utility.yul\":2020:2021   */\n  0x00\n    /* \"#utility.yul\":2013:2027   */\n  dup6\n  dup2\n  mstore\n    /* \"#utility.yul\":2057:2061   */\n  0x20\n    /* \"#utility.yul\":2044:2062   */\n  dup2\n  keccak256\n  not(0x1f)\n    /* \"#utility.yul\":3228:3248   */\n  dup7\n  and\n  swap2\n    /* \"#utility.yul\":3346:3582   */\ntag_57:\n    /* \"#utility.yul\":3360:3367   */\n  dup3\n    /* \"#utility.yul\":3357:3358   */\n  dup2\n    /* \"#utility.yul\":3354:3368   */\n  lt\n    /* \"#utility.yul\":3346:3582   */\n  iszero\n  tag_59\n  jumpi\n    /* \"#utility.yul\":3449:3468   */\n  dup9\n  dup7\n  add\n    /* \"#utility.yul\":3443:3469   */\n  mload\n    /* \"#utility.yul\":3428:3470   */\n  dup3\n  sstore\n    /* \"#utility.yul\":3541:3568   */\n  swap5\n  dup5\n  add\n  swap5\n    /* \"#utility.yul\":3509:3510   */\n  0x01\n    /* \"#utility.yul\":3497:3511   */\n  swap1\n  swap2\n  add\n  swap1\n    /* \"#utility.yul\":3376:3395   */\n  dup5\n  add\n    /* \"#utility.yul\":3346:3582   */\n  jump(tag_57)\ntag_59:\n    /* \"#utility.yul\":3350:3353   */\n  pop\n    /* \"#utility.yul\":3610:3616   */\n  dup6\n    /* \"#utility.yul\":3601:3608   */\n  dup3\n    /* \"#utility.yul\":3598:3617   */\n  lt\n    /* \"#utility.yul\":3595:3796   */\n  iszero\n  tag_60\n  jumpi\n    /* \"#utility.yul\":3671:3690   */\n  dup8\n  dup6\n  add\n    /* \"#utility.yul\":3665:3691   */\n  mload\n  not(0x00)\n    /* \"#utility.yul\":3754:3755   */\n  0x03\n    /* \"#utility.yul\":3750:3764   */\n  dup9\n  swap1\n  shl\n    /* \"#utility.yul\":3766:3769   */\n  0xf8\n    /* \"#utility.yul\":3746:3770   */\n  and\n    /* \"#utility.yul\":3742:3779   */\n  shr\n    /* \"#utility.yul\":3738:3780   */\n  not\n    /* \"#utility.yul\":3723:3781   */\n  and\n    /* \"#utility.yul\":3708:3782   */\n  dup2\n  sstore\n    /* \"#utility.yul\":3595:3796   */\ntag_60:\n  pop\n  pop\n    /* \"#utility.yul\":3842:3843   */\n  0x01\n    /* \"#utility.yul\":3833:3839   */\n  dup5\n    /* \"#utility.yul\":3830:3831   */\n  0x01\n    /* \"#utility.yul\":3826:3840   */\n  shl\n    /* \"#utility.yul\":3822:3844   */\n  add\n    /* \"#utility.yul\":3816:3820   */\n  dup6\n    /* \"#utility.yul\":3809:3845   */\n  sstore\n    /* \"#utility.yul\":3162:4106   */\ntag_52:\n  pop\n  pop\n  pop\n  pop\n    /* \"#utility.yul\":2767:4112   */\n  pop\n  pop\n  jump\t// out\ntag_18:\n    /* \"TinTinCourse/NFTSwap/WTFApe.sol\":99:722  contract WTFApe is ERC721{... */\n  dataSize(sub_0)\n  dup1\n  dataOffset(sub_0)\n  0x00\n  codecopy\n  0x00\n  return\nstop\n\nsub_0: assembly {\n        /* \"TinTinCourse/NFTSwap/WTFApe.sol\":99:722  contract WTFApe is ERC721{... */\n      mstore(0x40, 0x80)\n      callvalue\n      dup1\n      iszero\n      tag_1\n      jumpi\n      0x00\n      dup1\n      revert\n    tag_1:\n      pop\n      jumpi(tag_2, lt(calldatasize, 0x04))\n      shr(0xe0, calldataload(0x00))\n      dup1\n      0x6352211e\n      gt\n      tag_18\n      jumpi\n      dup1\n      0xb88d4fde\n      gt\n      tag_19\n      jumpi\n      dup1\n      0xb88d4fde\n      eq\n      tag_14\n      jumpi\n      dup1\n      0xbb8a16bd\n      eq\n      tag_15\n      jumpi\n      dup1\n      0xc87b56dd\n      eq\n      tag_16\n      jumpi\n      dup1\n      0xe985e9c5\n      eq\n      tag_17\n      jumpi\n      0x00\n      dup1\n      revert\n    tag_19:\n      dup1\n      0x6352211e\n      eq\n      tag_10\n      jumpi\n      dup1\n      0x70a08231\n      eq\n      tag_11\n      jumpi\n      dup1\n      0x95d89b41\n      eq\n      tag_12\n      jumpi\n      dup1\n      0xa22cb465\n      eq\n      tag_13\n      jumpi\n      0x00\n      dup1\n      revert\n    tag_18:\n      dup1\n      0x095ea7b3\n      gt\n      tag_20\n      jumpi\n      dup1\n      0x095ea7b3\n      eq\n      tag_6\n      jumpi\n      dup1\n      0x23b872dd\n      eq\n      tag_7\n      jumpi\n      dup1\n      0x40c10f19\n      eq\n      tag_8\n      jumpi\n      dup1\n      0x42842e0e\n      eq\n      tag_9\n      jumpi\n      0x00\n      dup1\n      revert\n    tag_20:\n      dup1\n      0x01ffc9a7\n      eq\n      tag_3\n      jumpi\n      dup1\n      0x06fdde03\n      eq\n      tag_4\n      jumpi\n      dup1\n      0x081812fc\n      eq\n      tag_5\n      jumpi\n    tag_2:\n      0x00\n      dup1\n      revert\n        /* \"TinTinCourse/NFTSwap/ERC721.sol\":1205:1532  function supportsInterface(bytes4 interfaceId)... */\n    tag_3:\n      tag_21\n      tag_22\n      calldatasize\n      0x04\n      tag_23\n      jump\t// in\n    tag_22:\n      tag_24\n      jump\t// in\n    tag_21:\n      mload(0x40)\n        /* \"#utility.yul\":565:579   */\n      swap1\n      iszero\n        /* \"#utility.yul\":558:580   */\n      iszero\n        /* \"#utility.yul\":540:581   */\n      dup2\n      mstore\n        /* \"#utility.yul\":528:530   */\n      0x20\n        /* \"#utility.yul\":513:531   */\n      add\n        /* \"TinTinCourse/NFTSwap/ERC721.sol\":1205:1532  function supportsInterface(bytes4 interfaceId)... */\n    tag_25:\n      mload(0x40)\n      dup1\n      swap2\n      sub\n      swap1\n      return\n        /* \"TinTinCourse/NFTSwap/ERC721.sol\":341:368  string public override name */\n    tag_4:\n      tag_27\n      tag_28\n      jump\t// in\n    tag_27:\n      mload(0x40)\n      tag_25\n      swap2\n      swap1\n      tag_30\n      jump\t// in\n        /* \"TinTinCourse/NFTSwap/ERC721.sol\":2871:3070  function getApproved(uint tokenId) external view override returns (address) {... */\n    tag_5:\n      tag_31\n      tag_32\n      calldatasize\n      0x04\n      tag_33\n      jump\t// in\n    tag_32:\n      tag_34\n      jump\t// in\n    tag_31:\n      mload(0x40)\n      sub(shl(0xa0, 0x01), 0x01)\n        /* \"#utility.yul\":1697:1729   */\n      swap1\n      swap2\n      and\n        /* \"#utility.yul\":1679:1730   */\n      dup2\n      mstore\n        /* \"#utility.yul\":1667:1669   */\n      0x20\n        /* \"#utility.yul\":1652:1670   */\n      add\n        /* \"TinTinCourse/NFTSwap/ERC721.sol\":2871:3070  function getApproved(uint tokenId) external view override returns (address) {... */\n      tag_25\n        /* \"#utility.yul\":1533:1736   */\n      jump\n        /* \"TinTinCourse/NFTSwap/ERC721.sol\":3557:3859  function approve(address to, uint tokenId) external override {... */\n    tag_6:\n      tag_37\n      tag_38\n      calldatasize\n      0x04\n      tag_39\n      jump\t// in\n    tag_38:\n      tag_40\n      jump\t// in\n    tag_37:\n      stop\n        /* \"TinTinCourse/NFTSwap/ERC721.sol\":5015:5355  function transferFrom(... */\n    tag_7:\n      tag_37\n      tag_42\n      calldatasize\n      0x04\n      tag_43\n      jump\t// in\n    tag_42:\n      tag_44\n      jump\t// in\n        /* \"TinTinCourse/NFTSwap/WTFApe.sol\":555:719  function mint(address to, uint tokenId) external {... */\n    tag_8:\n      tag_37\n      tag_46\n      calldatasize\n      0x04\n      tag_39\n      jump\t// in\n    tag_46:\n      tag_47\n      jump\t// in\n        /* \"TinTinCourse/NFTSwap/ERC721.sol\":6627:6803  function safeTransferFrom(... */\n    tag_9:\n      tag_37\n      tag_49\n      calldatasize\n      0x04\n      tag_43\n      jump\t// in\n    tag_49:\n      tag_50\n      jump\t// in\n        /* \"TinTinCourse/NFTSwap/ERC721.sol\":1891:2072  function ownerOf(uint tokenId) public view override returns (address owner) {... */\n    tag_10:\n      tag_31\n      tag_52\n      calldatasize\n      0x04\n      tag_33\n      jump\t// in\n    tag_52:\n      tag_53\n      jump\t// in\n        /* \"TinTinCourse/NFTSwap/ERC721.sol\":1628:1805  function balanceOf(address owner) external view override returns (uint) {... */\n    tag_11:\n      tag_55\n      tag_56\n      calldatasize\n      0x04\n      tag_57\n      jump\t// in\n    tag_56:\n      tag_58\n      jump\t// in\n    tag_55:\n      mload(0x40)\n        /* \"#utility.yul\":2848:2873   */\n      swap1\n      dup2\n      mstore\n        /* \"#utility.yul\":2836:2838   */\n      0x20\n        /* \"#utility.yul\":2821:2839   */\n      add\n        /* \"TinTinCourse/NFTSwap/ERC721.sol\":1628:1805  function balanceOf(address owner) external view override returns (uint) {... */\n      tag_25\n        /* \"#utility.yul\":2702:2879   */\n      jump\n        /* \"TinTinCourse/NFTSwap/ERC721.sol\":395:424  string public override symbol */\n    tag_12:\n      tag_27\n      tag_62\n      jump\t// in\n        /* \"TinTinCourse/NFTSwap/ERC721.sol\":2556:2766  function setApprovalForAll(address operator, bool approved) external override {... */\n    tag_13:\n      tag_37\n      tag_65\n      calldatasize\n      0x04\n      tag_66\n      jump\t// in\n    tag_65:\n      tag_67\n      jump\t// in\n        /* \"TinTinCourse/NFTSwap/ERC721.sol\":6200:6582  function safeTransferFrom(... */\n    tag_14:\n      tag_37\n      tag_69\n      calldatasize\n      0x04\n      tag_70\n      jump\t// in\n    tag_69:\n      tag_71\n      jump\t// in\n        /* \"TinTinCourse/NFTSwap/WTFApe.sol\":131:159  uint public MAX_APES = 10000 */\n    tag_15:\n      tag_55\n      sload(0x06)\n      dup2\n      jump\n        /* \"TinTinCourse/NFTSwap/ERC721.sol\":9095:9411  function tokenURI(uint256 tokenId) public view virtual override returns (string memory) {... */\n    tag_16:\n      tag_27\n      tag_76\n      calldatasize\n      0x04\n      tag_33\n      jump\t// in\n    tag_76:\n      tag_77\n      jump\t// in\n        /* \"TinTinCourse/NFTSwap/ERC721.sol\":2224:2423  function isApprovedForAll(address owner, address operator)... */\n    tag_17:\n      tag_21\n      tag_80\n      calldatasize\n      0x04\n      tag_81\n      jump\t// in\n    tag_80:\n      sub(shl(0xa0, 0x01), 0x01)\n        /* \"TinTinCourse/NFTSwap/ERC721.sol\":2380:2405  _operatorApprovals[owner] */\n      swap2\n      dup3\n      and\n        /* \"TinTinCourse/NFTSwap/ERC721.sol\":2351:2355  bool */\n      0x00\n        /* \"TinTinCourse/NFTSwap/ERC721.sol\":2380:2405  _operatorApprovals[owner] */\n      swap1\n      dup2\n      mstore\n        /* \"TinTinCourse/NFTSwap/ERC721.sol\":2380:2398  _operatorApprovals */\n      0x05\n        /* \"TinTinCourse/NFTSwap/ERC721.sol\":2380:2405  _operatorApprovals[owner] */\n      0x20\n      swap1\n      dup2\n      mstore\n      0x40\n      dup1\n      dup4\n      keccak256\n        /* \"TinTinCourse/NFTSwap/ERC721.sol\":2380:2415  _operatorApprovals[owner][operator] */\n      swap4\n      swap1\n      swap5\n      and\n      dup3\n      mstore\n      swap2\n      swap1\n      swap2\n      mstore\n      keccak256\n      sload\n      0xff\n      and\n      swap1\n        /* \"TinTinCourse/NFTSwap/ERC721.sol\":2224:2423  function isApprovedForAll(address owner, address operator)... */\n      jump\n        /* \"TinTinCourse/NFTSwap/ERC721.sol\":1205:1532  function supportsInterface(bytes4 interfaceId)... */\n    tag_24:\n        /* \"TinTinCourse/NFTSwap/ERC721.sol\":1320:1324  bool */\n      0x00\n      not(sub(shl(0xe0, 0x01), 0x01))\n        /* \"TinTinCourse/NFTSwap/ERC721.sol\":1362:1402  interfaceId == type(IERC721).interfaceId */\n      dup3\n      and\n      shl(0xe0, 0x80ac58cd)\n      eq\n      dup1\n        /* \"TinTinCourse/NFTSwap/ERC721.sol\":1362:1459  interfaceId == type(IERC721).interfaceId ||... */\n      tag_85\n      jumpi\n      pop\n      not(sub(shl(0xe0, 0x01), 0x01))\n        /* \"TinTinCourse/NFTSwap/ERC721.sol\":1419:1459  interfaceId == type(IERC165).interfaceId */\n      dup3\n      and\n      shl(0xe0, 0x01ffc9a7)\n      eq\n        /* \"TinTinCourse/NFTSwap/ERC721.sol\":1362:1459  interfaceId == type(IERC721).interfaceId ||... */\n    tag_85:\n        /* \"TinTinCourse/NFTSwap/ERC721.sol\":1362:1524  interfaceId == type(IERC721).interfaceId ||... */\n      dup1\n      tag_86\n      jumpi\n      pop\n      not(sub(shl(0xe0, 0x01), 0x01))\n        /* \"TinTinCourse/NFTSwap/ERC721.sol\":1476:1524  interfaceId == type(IERC721Metadata).interfaceId */\n      dup3\n      and\n      shl(0xe0, 0x5b5e139f)\n      eq\n        /* \"TinTinCourse/NFTSwap/ERC721.sol\":1362:1524  interfaceId == type(IERC721).interfaceId ||... */\n    tag_86:\n        /* \"TinTinCourse/NFTSwap/ERC721.sol\":1342:1524  return... */\n      swap3\n        /* \"TinTinCourse/NFTSwap/ERC721.sol\":1205:1532  function supportsInterface(bytes4 interfaceId)... */\n      swap2\n      pop\n      pop\n      jump\t// out\n        /* \"TinTinCourse/NFTSwap/ERC721.sol\":341:368  string public override name */\n    tag_28:\n      0x00\n      dup1\n      sload\n      tag_87\n      swap1\n      tag_88\n      jump\t// in\n    tag_87:\n      dup1\n      0x1f\n      add\n      0x20\n      dup1\n      swap2\n      div\n      mul\n      0x20\n      add\n      mload(0x40)\n      swap1\n      dup2\n      add\n      0x40\n      mstore\n      dup1\n      swap3\n      swap2\n      swap1\n      dup2\n      dup2\n      mstore\n      0x20\n      add\n      dup3\n      dup1\n      sload\n      tag_89\n      swap1\n      tag_88\n      jump\t// in\n    tag_89:\n      dup1\n      iszero\n      tag_90\n      jumpi\n      dup1\n      0x1f\n      lt\n      tag_91\n      jumpi\n      0x0100\n      dup1\n      dup4\n      sload\n      div\n      mul\n      dup4\n      mstore\n      swap2\n      0x20\n      add\n      swap2\n      jump(tag_90)\n    tag_91:\n      dup3\n      add\n      swap2\n      swap1\n      0x00\n      mstore\n      keccak256(0x00, 0x20)\n      swap1\n    tag_92:\n      dup2\n      sload\n      dup2\n      mstore\n      swap1\n      0x01\n      add\n      swap1\n      0x20\n      add\n      dup1\n      dup4\n      gt\n      tag_92\n      jumpi\n      dup3\n      swap1\n      sub\n      0x1f\n      and\n      dup3\n      add\n      swap2\n    tag_90:\n      pop\n      pop\n      pop\n      pop\n      pop\n      dup2\n      jump\t// out\n        /* \"TinTinCourse/NFTSwap/ERC721.sol\":2871:3070  function getApproved(uint tokenId) external view override returns (address) {... */\n    tag_34:\n        /* \"TinTinCourse/NFTSwap/ERC721.sol\":2938:2945  address */\n      0x00\n        /* \"TinTinCourse/NFTSwap/ERC721.sol\":2966:2982  _owners[tokenId] */\n      dup2\n      dup2\n      mstore\n        /* \"TinTinCourse/NFTSwap/ERC721.sol\":2966:2973  _owners */\n      0x02\n        /* \"TinTinCourse/NFTSwap/ERC721.sol\":2966:2982  _owners[tokenId] */\n      0x20\n      mstore\n      0x40\n      dup2\n      keccak256\n      sload\n      sub(shl(0xa0, 0x01), 0x01)\n      and\n        /* \"TinTinCourse/NFTSwap/ERC721.sol\":2958:3020  require(_owners[tokenId] != address(0), \"token doesn't exist\") */\n      tag_94\n      jumpi\n      mload(0x40)\n      shl(0xe5, 0x461bcd)\n      dup2\n      mstore\n        /* \"#utility.yul\":5363:5365   */\n      0x20\n        /* \"TinTinCourse/NFTSwap/ERC721.sol\":2958:3020  require(_owners[tokenId] != address(0), \"token doesn't exist\") */\n      0x04\n      dup3\n      add\n        /* \"#utility.yul\":5345:5366   */\n      mstore\n        /* \"#utility.yul\":5402:5404   */\n      0x13\n        /* \"#utility.yul\":5382:5400   */\n      0x24\n      dup3\n      add\n        /* \"#utility.yul\":5375:5405   */\n      mstore\n      shl(0x6a, 0x1d1bdad95b88191bd95cdb89dd08195e1a5cdd)\n        /* \"#utility.yul\":5421:5439   */\n      0x44\n      dup3\n      add\n        /* \"#utility.yul\":5414:5463   */\n      mstore\n        /* \"#utility.yul\":5480:5498   */\n      0x64\n      add\n        /* \"TinTinCourse/NFTSwap/ERC721.sol\":2958:3020  require(_owners[tokenId] != address(0), \"token doesn't exist\") */\n    tag_95:\n      mload(0x40)\n      dup1\n      swap2\n      sub\n      swap1\n      revert\n    tag_94:\n      pop\n        /* \"TinTinCourse/NFTSwap/ERC721.sol\":3038:3062  _tokenApprovals[tokenId] */\n      0x00\n      swap1\n      dup2\n      mstore\n        /* \"TinTinCourse/NFTSwap/ERC721.sol\":3038:3053  _tokenApprovals */\n      0x04\n        /* \"TinTinCourse/NFTSwap/ERC721.sol\":3038:3062  _tokenApprovals[tokenId] */\n      0x20\n      mstore\n      0x40\n      swap1\n      keccak256\n      sload\n      sub(shl(0xa0, 0x01), 0x01)\n      and\n      swap1\n        /* \"TinTinCourse/NFTSwap/ERC721.sol\":2871:3070  function getApproved(uint tokenId) external view override returns (address) {... */\n      jump\t// out\n        /* \"TinTinCourse/NFTSwap/ERC721.sol\":3557:3859  function approve(address to, uint tokenId) external override {... */\n    tag_40:\n        /* \"TinTinCourse/NFTSwap/ERC721.sol\":3629:3642  address owner */\n      0x00\n        /* \"TinTinCourse/NFTSwap/ERC721.sol\":3645:3661  _owners[tokenId] */\n      dup2\n      dup2\n      mstore\n        /* \"TinTinCourse/NFTSwap/ERC721.sol\":3645:3652  _owners */\n      0x02\n        /* \"TinTinCourse/NFTSwap/ERC721.sol\":3645:3661  _owners[tokenId] */\n      0x20\n      mstore\n      0x40\n      swap1\n      keccak256\n      sload\n      sub(shl(0xa0, 0x01), 0x01)\n      and\n        /* \"TinTinCourse/NFTSwap/ERC721.sol\":3694:3704  msg.sender */\n      caller\n        /* \"TinTinCourse/NFTSwap/ERC721.sol\":3694:3713  msg.sender == owner */\n      dup2\n      eq\n      dup1\n        /* \"TinTinCourse/NFTSwap/ERC721.sol\":3694:3754  msg.sender == owner || _operatorApprovals[owner][msg.sender] */\n      tag_98\n      jumpi\n      pop\n      sub(shl(0xa0, 0x01), 0x01)\n        /* \"TinTinCourse/NFTSwap/ERC721.sol\":3717:3742  _operatorApprovals[owner] */\n      dup2\n      and\n      0x00\n      swap1\n      dup2\n      mstore\n        /* \"TinTinCourse/NFTSwap/ERC721.sol\":3717:3735  _operatorApprovals */\n      0x05\n        /* \"TinTinCourse/NFTSwap/ERC721.sol\":3717:3742  _operatorApprovals[owner] */\n      0x20\n      swap1\n      dup2\n      mstore\n      0x40\n      dup1\n      dup4\n      keccak256\n        /* \"TinTinCourse/NFTSwap/ERC721.sol\":3743:3753  msg.sender */\n      caller\n        /* \"TinTinCourse/NFTSwap/ERC721.sol\":3717:3754  _operatorApprovals[owner][msg.sender] */\n      dup5\n      mstore\n      swap1\n      swap2\n      mstore\n      swap1\n      keccak256\n      sload\n      0xff\n      and\n        /* \"TinTinCourse/NFTSwap/ERC721.sol\":3694:3754  msg.sender == owner || _operatorApprovals[owner][msg.sender] */\n    tag_98:\n        /* \"TinTinCourse/NFTSwap/ERC721.sol\":3672:3812  require(... */\n      tag_99\n      jumpi\n      mload(0x40)\n      shl(0xe5, 0x461bcd)\n      dup2\n      mstore\n        /* \"#utility.yul\":5711:5713   */\n      0x20\n        /* \"TinTinCourse/NFTSwap/ERC721.sol\":3672:3812  require(... */\n      0x04\n      dup3\n      add\n        /* \"#utility.yul\":5693:5714   */\n      mstore\n        /* \"#utility.yul\":5750:5752   */\n      0x1e\n        /* \"#utility.yul\":5730:5748   */\n      0x24\n      dup3\n      add\n        /* \"#utility.yul\":5723:5753   */\n      mstore\n        /* \"#utility.yul\":5789:5821   */\n      0x6e6f74206f776e6572206e6f7220617070726f76656420666f7220616c6c0000\n        /* \"#utility.yul\":5769:5787   */\n      0x44\n      dup3\n      add\n        /* \"#utility.yul\":5762:5822   */\n      mstore\n        /* \"#utility.yul\":5839:5857   */\n      0x64\n      add\n        /* \"TinTinCourse/NFTSwap/ERC721.sol\":3672:3812  require(... */\n      tag_95\n        /* \"#utility.yul\":5509:5863   */\n      jump\n        /* \"TinTinCourse/NFTSwap/ERC721.sol\":3672:3812  require(... */\n    tag_99:\n        /* \"TinTinCourse/NFTSwap/ERC721.sol\":3823:3851  _approve(owner, to, tokenId) */\n      tag_102\n        /* \"TinTinCourse/NFTSwap/ERC721.sol\":3832:3837  owner */\n      dup2\n        /* \"TinTinCourse/NFTSwap/ERC721.sol\":3839:3841  to */\n      dup5\n        /* \"TinTinCourse/NFTSwap/ERC721.sol\":3843:3850  tokenId */\n      dup5\n        /* \"TinTinCourse/NFTSwap/ERC721.sol\":3823:3831  _approve */\n      tag_103\n        /* \"TinTinCourse/NFTSwap/ERC721.sol\":3823:3851  _approve(owner, to, tokenId) */\n      jump\t// in\n    tag_102:\n        /* \"TinTinCourse/NFTSwap/ERC721.sol\":3618:3859  {... */\n      pop\n        /* \"TinTinCourse/NFTSwap/ERC721.sol\":3557:3859  function approve(address to, uint tokenId) external override {... */\n      pop\n      pop\n      jump\t// out\n        /* \"TinTinCourse/NFTSwap/ERC721.sol\":5015:5355  function transferFrom(... */\n    tag_44:\n        /* \"TinTinCourse/NFTSwap/ERC721.sol\":5140:5153  address owner */\n      0x00\n        /* \"TinTinCourse/NFTSwap/ERC721.sol\":5156:5172  ownerOf(tokenId) */\n      tag_105\n        /* \"TinTinCourse/NFTSwap/ERC721.sol\":5164:5171  tokenId */\n      dup3\n        /* \"TinTinCourse/NFTSwap/ERC721.sol\":5156:5163  ownerOf */\n      tag_53\n        /* \"TinTinCourse/NFTSwap/ERC721.sol\":5156:5172  ownerOf(tokenId) */\n      jump\t// in\n    tag_105:\n        /* \"TinTinCourse/NFTSwap/ERC721.sol\":5140:5172  address owner = ownerOf(tokenId) */\n      swap1\n      pop\n        /* \"TinTinCourse/NFTSwap/ERC721.sol\":5205:5251  _isApprovedOrOwner(owner, msg.sender, tokenId) */\n      tag_106\n        /* \"TinTinCourse/NFTSwap/ERC721.sol\":5224:5229  owner */\n      dup2\n        /* \"TinTinCourse/NFTSwap/ERC721.sol\":5231:5241  msg.sender */\n      caller\n        /* \"TinTinCourse/NFTSwap/ERC721.sol\":5243:5250  tokenId */\n      dup5\n        /* \"TinTinCourse/NFTSwap/ERC721.sol\":5205:5223  _isApprovedOrOwner */\n      tag_107\n        /* \"TinTinCourse/NFTSwap/ERC721.sol\":5205:5251  _isApprovedOrOwner(owner, msg.sender, tokenId) */\n      jump\t// in\n    tag_106:\n        /* \"TinTinCourse/NFTSwap/ERC721.sol\":5183:5301  require(... */\n      tag_108\n      jumpi\n      mload(0x40)\n      shl(0xe5, 0x461bcd)\n      dup2\n      mstore\n        /* \"#utility.yul\":6070:6072   */\n      0x20\n        /* \"TinTinCourse/NFTSwap/ERC721.sol\":5183:5301  require(... */\n      0x04\n      dup3\n      add\n        /* \"#utility.yul\":6052:6073   */\n      mstore\n        /* \"#utility.yul\":6109:6111   */\n      0x16\n        /* \"#utility.yul\":6089:6107   */\n      0x24\n      dup3\n      add\n        /* \"#utility.yul\":6082:6112   */\n      mstore\n      shl(0x52, 0x1b9bdd081bdddb995c881b9bdc88185c1c1c9bdd9959)\n        /* \"#utility.yul\":6128:6146   */\n      0x44\n      dup3\n      add\n        /* \"#utility.yul\":6121:6173   */\n      mstore\n        /* \"#utility.yul\":6190:6208   */\n      0x64\n      add\n        /* \"TinTinCourse/NFTSwap/ERC721.sol\":5183:5301  require(... */\n      tag_95\n        /* \"#utility.yul\":5868:6214   */\n      jump\n        /* \"TinTinCourse/NFTSwap/ERC721.sol\":5183:5301  require(... */\n    tag_108:\n        /* \"TinTinCourse/NFTSwap/ERC721.sol\":5312:5347  _transfer(owner, from, to, tokenId) */\n      tag_111\n        /* \"TinTinCourse/NFTSwap/ERC721.sol\":5322:5327  owner */\n      dup2\n        /* \"TinTinCourse/NFTSwap/ERC721.sol\":5329:5333  from */\n      dup6\n        /* \"TinTinCourse/NFTSwap/ERC721.sol\":5335:5337  to */\n      dup6\n        /* \"TinTinCourse/NFTSwap/ERC721.sol\":5339:5346  tokenId */\n      dup6\n        /* \"TinTinCourse/NFTSwap/ERC721.sol\":5312:5321  _transfer */\n      tag_112\n        /* \"TinTinCourse/NFTSwap/ERC721.sol\":5312:5347  _transfer(owner, from, to, tokenId) */\n      jump\t// in\n    tag_111:\n        /* \"TinTinCourse/NFTSwap/ERC721.sol\":5129:5355  {... */\n      pop\n        /* \"TinTinCourse/NFTSwap/ERC721.sol\":5015:5355  function transferFrom(... */\n      pop\n      pop\n      pop\n      jump\t// out\n        /* \"TinTinCourse/NFTSwap/WTFApe.sol\":555:719  function mint(address to, uint tokenId) external {... */\n    tag_47:\n        /* \"TinTinCourse/NFTSwap/WTFApe.sol\":649:657  MAX_APES */\n      sload(0x06)\n        /* \"TinTinCourse/NFTSwap/WTFApe.sol\":639:646  tokenId */\n      dup2\n        /* \"TinTinCourse/NFTSwap/WTFApe.sol\":639:657  tokenId < MAX_APES */\n      lt\n        /* \"TinTinCourse/NFTSwap/WTFApe.sol\":615:682  require(tokenId >= 0 && tokenId < MAX_APES, \"tokenId out of range\") */\n      tag_115\n      jumpi\n      mload(0x40)\n      shl(0xe5, 0x461bcd)\n      dup2\n      mstore\n        /* \"#utility.yul\":6421:6423   */\n      0x20\n        /* \"TinTinCourse/NFTSwap/WTFApe.sol\":615:682  require(tokenId >= 0 && tokenId < MAX_APES, \"tokenId out of range\") */\n      0x04\n      dup3\n      add\n        /* \"#utility.yul\":6403:6424   */\n      mstore\n        /* \"#utility.yul\":6460:6462   */\n      0x14\n        /* \"#utility.yul\":6440:6458   */\n      0x24\n      dup3\n      add\n        /* \"#utility.yul\":6433:6463   */\n      mstore\n      shl(0x60, 0x746f6b656e4964206f7574206f662072616e6765)\n        /* \"#utility.yul\":6479:6497   */\n      0x44\n      dup3\n      add\n        /* \"#utility.yul\":6472:6522   */\n      mstore\n        /* \"#utility.yul\":6539:6557   */\n      0x64\n      add\n        /* \"TinTinCourse/NFTSwap/WTFApe.sol\":615:682  require(tokenId >= 0 && tokenId < MAX_APES, \"tokenId out of range\") */\n      tag_95\n        /* \"#utility.yul\":6219:6563   */\n      jump\n        /* \"TinTinCourse/NFTSwap/WTFApe.sol\":615:682  require(tokenId >= 0 && tokenId < MAX_APES, \"tokenId out of range\") */\n    tag_115:\n        /* \"TinTinCourse/NFTSwap/WTFApe.sol\":693:711  _mint(to, tokenId) */\n      tag_118\n        /* \"TinTinCourse/NFTSwap/WTFApe.sol\":699:701  to */\n      dup3\n        /* \"TinTinCourse/NFTSwap/WTFApe.sol\":703:710  tokenId */\n      dup3\n        /* \"TinTinCourse/NFTSwap/WTFApe.sol\":693:698  _mint */\n      tag_119\n        /* \"TinTinCourse/NFTSwap/WTFApe.sol\":693:711  _mint(to, tokenId) */\n      jump\t// in\n    tag_118:\n        /* \"TinTinCourse/NFTSwap/WTFApe.sol\":555:719  function mint(address to, uint tokenId) external {... */\n      pop\n      pop\n      jump\t// out\n        /* \"TinTinCourse/NFTSwap/ERC721.sol\":6627:6803  function safeTransferFrom(... */\n    tag_50:\n        /* \"TinTinCourse/NFTSwap/ERC721.sol\":6756:6795  safeTransferFrom(from, to, tokenId, \"\") */\n      tag_102\n        /* \"TinTinCourse/NFTSwap/ERC721.sol\":6773:6777  from */\n      dup4\n        /* \"TinTinCourse/NFTSwap/ERC721.sol\":6779:6781  to */\n      dup4\n        /* \"TinTinCourse/NFTSwap/ERC721.sol\":6783:6790  tokenId */\n      dup4\n        /* \"TinTinCourse/NFTSwap/ERC721.sol\":6756:6795  safeTransferFrom(from, to, tokenId, \"\") */\n      mload(0x40)\n      dup1\n      0x20\n      add\n      0x40\n      mstore\n      dup1\n      0x00\n      dup2\n      mstore\n      pop\n        /* \"TinTinCourse/NFTSwap/ERC721.sol\":6756:6772  safeTransferFrom */\n      tag_71\n        /* \"TinTinCourse/NFTSwap/ERC721.sol\":6756:6795  safeTransferFrom(from, to, tokenId, \"\") */\n      jump\t// in\n        /* \"TinTinCourse/NFTSwap/ERC721.sol\":1891:2072  function ownerOf(uint tokenId) public view override returns (address owner) {... */\n    tag_53:\n        /* \"TinTinCourse/NFTSwap/ERC721.sol\":1952:1965  address owner */\n      0x00\n        /* \"TinTinCourse/NFTSwap/ERC721.sol\":1986:2002  _owners[tokenId] */\n      dup2\n      dup2\n      mstore\n        /* \"TinTinCourse/NFTSwap/ERC721.sol\":1986:1993  _owners */\n      0x02\n        /* \"TinTinCourse/NFTSwap/ERC721.sol\":1986:2002  _owners[tokenId] */\n      0x20\n      mstore\n      0x40\n      swap1\n      keccak256\n      sload\n      sub(shl(0xa0, 0x01), 0x01)\n      and\n      dup1\n        /* \"TinTinCourse/NFTSwap/ERC721.sol\":2013:2064  require(owner != address(0), \"token doesn't exist\") */\n      tag_123\n      jumpi\n      mload(0x40)\n      shl(0xe5, 0x461bcd)\n      dup2\n      mstore\n        /* \"#utility.yul\":5363:5365   */\n      0x20\n        /* \"TinTinCourse/NFTSwap/ERC721.sol\":2013:2064  require(owner != address(0), \"token doesn't exist\") */\n      0x04\n      dup3\n      add\n        /* \"#utility.yul\":5345:5366   */\n      mstore\n        /* \"#utility.yul\":5402:5404   */\n      0x13\n        /* \"#utility.yul\":5382:5400   */\n      0x24\n      dup3\n      add\n        /* \"#utility.yul\":5375:5405   */\n      mstore\n      shl(0x6a, 0x1d1bdad95b88191bd95cdb89dd08195e1a5cdd)\n        /* \"#utility.yul\":5421:5439   */\n      0x44\n      dup3\n      add\n        /* \"#utility.yul\":5414:5463   */\n      mstore\n        /* \"#utility.yul\":5480:5498   */\n      0x64\n      add\n        /* \"TinTinCourse/NFTSwap/ERC721.sol\":2013:2064  require(owner != address(0), \"token doesn't exist\") */\n      tag_95\n        /* \"#utility.yul\":5161:5504   */\n      jump\n        /* \"TinTinCourse/NFTSwap/ERC721.sol\":2013:2064  require(owner != address(0), \"token doesn't exist\") */\n    tag_123:\n        /* \"TinTinCourse/NFTSwap/ERC721.sol\":1891:2072  function ownerOf(uint tokenId) public view override returns (address owner) {... */\n      swap2\n      swap1\n      pop\n      jump\t// out\n        /* \"TinTinCourse/NFTSwap/ERC721.sol\":1628:1805  function balanceOf(address owner) external view override returns (uint) {... */\n    tag_58:\n        /* \"TinTinCourse/NFTSwap/ERC721.sol\":1694:1698  uint */\n      0x00\n      sub(shl(0xa0, 0x01), 0x01)\n        /* \"TinTinCourse/NFTSwap/ERC721.sol\":1719:1738  owner != address(0) */\n      dup3\n      and\n        /* \"TinTinCourse/NFTSwap/ERC721.sol\":1711:1763  require(owner != address(0), \"owner = zero address\") */\n      tag_126\n      jumpi\n      mload(0x40)\n      shl(0xe5, 0x461bcd)\n      dup2\n      mstore\n        /* \"#utility.yul\":6770:6772   */\n      0x20\n        /* \"TinTinCourse/NFTSwap/ERC721.sol\":1711:1763  require(owner != address(0), \"owner = zero address\") */\n      0x04\n      dup3\n      add\n        /* \"#utility.yul\":6752:6773   */\n      mstore\n        /* \"#utility.yul\":6809:6811   */\n      0x14\n        /* \"#utility.yul\":6789:6807   */\n      0x24\n      dup3\n      add\n        /* \"#utility.yul\":6782:6812   */\n      mstore\n      shl(0x60, 0x6f776e6572203d207a65726f2061646472657373)\n        /* \"#utility.yul\":6828:6846   */\n      0x44\n      dup3\n      add\n        /* \"#utility.yul\":6821:6871   */\n      mstore\n        /* \"#utility.yul\":6888:6906   */\n      0x64\n      add\n        /* \"TinTinCourse/NFTSwap/ERC721.sol\":1711:1763  require(owner != address(0), \"owner = zero address\") */\n      tag_95\n        /* \"#utility.yul\":6568:6912   */\n      jump\n        /* \"TinTinCourse/NFTSwap/ERC721.sol\":1711:1763  require(owner != address(0), \"owner = zero address\") */\n    tag_126:\n      pop\n      sub(shl(0xa0, 0x01), 0x01)\n        /* \"TinTinCourse/NFTSwap/ERC721.sol\":1781:1797  _balances[owner] */\n      and\n      0x00\n      swap1\n      dup2\n      mstore\n        /* \"TinTinCourse/NFTSwap/ERC721.sol\":1781:1790  _balances */\n      0x03\n        /* \"TinTinCourse/NFTSwap/ERC721.sol\":1781:1797  _balances[owner] */\n      0x20\n      mstore\n      0x40\n      swap1\n      keccak256\n      sload\n      swap1\n        /* \"TinTinCourse/NFTSwap/ERC721.sol\":1628:1805  function balanceOf(address owner) external view override returns (uint) {... */\n      jump\t// out\n        /* \"TinTinCourse/NFTSwap/ERC721.sol\":395:424  string public override symbol */\n    tag_62:\n      0x01\n      dup1\n      sload\n      tag_87\n      swap1\n      tag_88\n      jump\t// in\n        /* \"TinTinCourse/NFTSwap/ERC721.sol\":2556:2766  function setApprovalForAll(address operator, bool approved) external override {... */\n    tag_67:\n        /* \"TinTinCourse/NFTSwap/ERC721.sol\":2664:2674  msg.sender */\n      caller\n        /* \"TinTinCourse/NFTSwap/ERC721.sol\":2645:2675  _operatorApprovals[msg.sender] */\n      0x00\n      dup2\n      dup2\n      mstore\n        /* \"TinTinCourse/NFTSwap/ERC721.sol\":2645:2663  _operatorApprovals */\n      0x05\n        /* \"TinTinCourse/NFTSwap/ERC721.sol\":2645:2675  _operatorApprovals[msg.sender] */\n      0x20\n      swap1\n      dup2\n      mstore\n      0x40\n      dup1\n      dup4\n      keccak256\n      sub(shl(0xa0, 0x01), 0x01)\n        /* \"TinTinCourse/NFTSwap/ERC721.sol\":2645:2685  _operatorApprovals[msg.sender][operator] */\n      dup8\n      and\n      dup1\n      dup6\n      mstore\n      swap1\n      dup4\n      mstore\n      swap3\n      dup2\n      swap1\n      keccak256\n        /* \"TinTinCourse/NFTSwap/ERC721.sol\":2645:2696  _operatorApprovals[msg.sender][operator] = approved */\n      dup1\n      sload\n      not(0xff)\n      and\n      dup7\n      iszero\n      iszero\n      swap1\n      dup2\n      or\n      swap1\n      swap2\n      sstore\n        /* \"TinTinCourse/NFTSwap/ERC721.sol\":2712:2758  ApprovalForAll(msg.sender, operator, approved) */\n      swap1\n      mload\n        /* \"#utility.yul\":540:581   */\n      swap1\n      dup2\n      mstore\n        /* \"TinTinCourse/NFTSwap/ERC721.sol\":2645:2685  _operatorApprovals[msg.sender][operator] */\n      swap2\n      swap3\n        /* \"TinTinCourse/NFTSwap/ERC721.sol\":2664:2674  msg.sender */\n      swap2\n        /* \"TinTinCourse/NFTSwap/ERC721.sol\":2712:2758  ApprovalForAll(msg.sender, operator, approved) */\n      0x17307eab39ab6107e8899845ad3d59bd9653f200f220920489ca2b5937696c31\n      swap2\n        /* \"#utility.yul\":513:531   */\n      add\n        /* \"TinTinCourse/NFTSwap/ERC721.sol\":2712:2758  ApprovalForAll(msg.sender, operator, approved) */\n      mload(0x40)\n      dup1\n      swap2\n      sub\n      swap1\n      log3\n        /* \"TinTinCourse/NFTSwap/ERC721.sol\":2556:2766  function setApprovalForAll(address operator, bool approved) external override {... */\n      pop\n      pop\n      jump\t// out\n        /* \"TinTinCourse/NFTSwap/ERC721.sol\":6200:6582  function safeTransferFrom(... */\n    tag_71:\n        /* \"TinTinCourse/NFTSwap/ERC721.sol\":6356:6369  address owner */\n      0x00\n        /* \"TinTinCourse/NFTSwap/ERC721.sol\":6372:6388  ownerOf(tokenId) */\n      tag_137\n        /* \"TinTinCourse/NFTSwap/ERC721.sol\":6380:6387  tokenId */\n      dup4\n        /* \"TinTinCourse/NFTSwap/ERC721.sol\":6372:6379  ownerOf */\n      tag_53\n        /* \"TinTinCourse/NFTSwap/ERC721.sol\":6372:6388  ownerOf(tokenId) */\n      jump\t// in\n    tag_137:\n        /* \"TinTinCourse/NFTSwap/ERC721.sol\":6356:6388  address owner = ownerOf(tokenId) */\n      swap1\n      pop\n        /* \"TinTinCourse/NFTSwap/ERC721.sol\":6421:6467  _isApprovedOrOwner(owner, msg.sender, tokenId) */\n      tag_138\n        /* \"TinTinCourse/NFTSwap/ERC721.sol\":6440:6445  owner */\n      dup2\n        /* \"TinTinCourse/NFTSwap/ERC721.sol\":6447:6457  msg.sender */\n      caller\n        /* \"TinTinCourse/NFTSwap/ERC721.sol\":6459:6466  tokenId */\n      dup6\n        /* \"TinTinCourse/NFTSwap/ERC721.sol\":6421:6439  _isApprovedOrOwner */\n      tag_107\n        /* \"TinTinCourse/NFTSwap/ERC721.sol\":6421:6467  _isApprovedOrOwner(owner, msg.sender, tokenId) */\n      jump\t// in\n    tag_138:\n        /* \"TinTinCourse/NFTSwap/ERC721.sol\":6399:6517  require(... */\n      tag_139\n      jumpi\n      mload(0x40)\n      shl(0xe5, 0x461bcd)\n      dup2\n      mstore\n        /* \"#utility.yul\":6070:6072   */\n      0x20\n        /* \"TinTinCourse/NFTSwap/ERC721.sol\":6399:6517  require(... */\n      0x04\n      dup3\n      add\n        /* \"#utility.yul\":6052:6073   */\n      mstore\n        /* \"#utility.yul\":6109:6111   */\n      0x16\n        /* \"#utility.yul\":6089:6107   */\n      0x24\n      dup3\n      add\n        /* \"#utility.yul\":6082:6112   */\n      mstore\n      shl(0x52, 0x1b9bdd081bdddb995c881b9bdc88185c1c1c9bdd9959)\n        /* \"#utility.yul\":6128:6146   */\n      0x44\n      dup3\n      add\n        /* \"#utility.yul\":6121:6173   */\n      mstore\n        /* \"#utility.yul\":6190:6208   */\n      0x64\n      add\n        /* \"TinTinCourse/NFTSwap/ERC721.sol\":6399:6517  require(... */\n      tag_95\n        /* \"#utility.yul\":5868:6214   */\n      jump\n        /* \"TinTinCourse/NFTSwap/ERC721.sol\":6399:6517  require(... */\n    tag_139:\n        /* \"TinTinCourse/NFTSwap/ERC721.sol\":6528:6574  _safeTransfer(owner, from, to, tokenId, _data) */\n      tag_141\n        /* \"TinTinCourse/NFTSwap/ERC721.sol\":6542:6547  owner */\n      dup2\n        /* \"TinTinCourse/NFTSwap/ERC721.sol\":6549:6553  from */\n      dup7\n        /* \"TinTinCourse/NFTSwap/ERC721.sol\":6555:6557  to */\n      dup7\n        /* \"TinTinCourse/NFTSwap/ERC721.sol\":6559:6566  tokenId */\n      dup7\n        /* \"TinTinCourse/NFTSwap/ERC721.sol\":6568:6573  _data */\n      dup7\n        /* \"TinTinCourse/NFTSwap/ERC721.sol\":6528:6541  _safeTransfer */\n      tag_142\n        /* \"TinTinCourse/NFTSwap/ERC721.sol\":6528:6574  _safeTransfer(owner, from, to, tokenId, _data) */\n      jump\t// in\n    tag_141:\n        /* \"TinTinCourse/NFTSwap/ERC721.sol\":6345:6582  {... */\n      pop\n        /* \"TinTinCourse/NFTSwap/ERC721.sol\":6200:6582  function safeTransferFrom(... */\n      pop\n      pop\n      pop\n      pop\n      jump\t// out\n        /* \"TinTinCourse/NFTSwap/ERC721.sol\":9095:9411  function tokenURI(uint256 tokenId) public view virtual override returns (string memory) {... */\n    tag_77:\n        /* \"TinTinCourse/NFTSwap/ERC721.sol\":9230:9231  0 */\n      0x00\n        /* \"TinTinCourse/NFTSwap/ERC721.sol\":9202:9218  _owners[tokenId] */\n      dup2\n      dup2\n      mstore\n        /* \"TinTinCourse/NFTSwap/ERC721.sol\":9202:9209  _owners */\n      0x02\n        /* \"TinTinCourse/NFTSwap/ERC721.sol\":9202:9218  _owners[tokenId] */\n      0x20\n      mstore\n      0x40\n      swap1\n      keccak256\n      sload\n        /* \"TinTinCourse/NFTSwap/ERC721.sol\":9168:9181  string memory */\n      0x60\n      swap1\n      sub(shl(0xa0, 0x01), 0x01)\n        /* \"TinTinCourse/NFTSwap/ERC721.sol\":9202:9218  _owners[tokenId] */\n      and\n        /* \"TinTinCourse/NFTSwap/ERC721.sol\":9194:9252  require(_owners[tokenId] != address(0), \"Token Not Exist\") */\n      tag_144\n      jumpi\n      mload(0x40)\n      shl(0xe5, 0x461bcd)\n      dup2\n      mstore\n        /* \"#utility.yul\":7119:7121   */\n      0x20\n        /* \"TinTinCourse/NFTSwap/ERC721.sol\":9194:9252  require(_owners[tokenId] != address(0), \"Token Not Exist\") */\n      0x04\n      dup3\n      add\n        /* \"#utility.yul\":7101:7122   */\n      mstore\n        /* \"#utility.yul\":7158:7160   */\n      0x0f\n        /* \"#utility.yul\":7138:7156   */\n      0x24\n      dup3\n      add\n        /* \"#utility.yul\":7131:7161   */\n      mstore\n      shl(0x8a, 0x151bdad95b88139bdd08115e1a5cdd)\n        /* \"#utility.yul\":7177:7195   */\n      0x44\n      dup3\n      add\n        /* \"#utility.yul\":7170:7215   */\n      mstore\n        /* \"#utility.yul\":7232:7250   */\n      0x64\n      add\n        /* \"TinTinCourse/NFTSwap/ERC721.sol\":9194:9252  require(_owners[tokenId] != address(0), \"Token Not Exist\") */\n      tag_95\n        /* \"#utility.yul\":6917:7256   */\n      jump\n        /* \"TinTinCourse/NFTSwap/ERC721.sol\":9194:9252  require(_owners[tokenId] != address(0), \"Token Not Exist\") */\n    tag_144:\n        /* \"TinTinCourse/NFTSwap/ERC721.sol\":9265:9286  string memory baseURI */\n      0x00\n        /* \"TinTinCourse/NFTSwap/ERC721.sol\":9289:9299  _baseURI() */\n      tag_147\n        /* \"TinTinCourse/NFTSwap/ERC721.sol\":9289:9297  _baseURI */\n      tag_148\n        /* \"TinTinCourse/NFTSwap/ERC721.sol\":9289:9299  _baseURI() */\n      jump\t// in\n    tag_147:\n        /* \"TinTinCourse/NFTSwap/ERC721.sol\":9265:9299  string memory baseURI = _baseURI() */\n      swap1\n      pop\n        /* \"TinTinCourse/NFTSwap/ERC721.sol\":9341:9342  0 */\n      0x00\n        /* \"TinTinCourse/NFTSwap/ERC721.sol\":9323:9330  baseURI */\n      dup2\n        /* \"TinTinCourse/NFTSwap/ERC721.sol\":9317:9338  bytes(baseURI).length */\n      mload\n        /* \"TinTinCourse/NFTSwap/ERC721.sol\":9317:9342  bytes(baseURI).length > 0 */\n      gt\n        /* \"TinTinCourse/NFTSwap/ERC721.sol\":9317:9403  bytes(baseURI).length > 0 ? string(abi.encodePacked(baseURI, tokenId.toString())) : \"\" */\n      tag_149\n      jumpi\n      mload(0x40)\n      dup1\n      0x20\n      add\n      0x40\n      mstore\n      dup1\n      0x00\n      dup2\n      mstore\n      pop\n      jump(tag_150)\n    tag_149:\n        /* \"TinTinCourse/NFTSwap/ERC721.sol\":9369:9376  baseURI */\n      dup1\n        /* \"TinTinCourse/NFTSwap/ERC721.sol\":9378:9396  tokenId.toString() */\n      tag_151\n        /* \"TinTinCourse/NFTSwap/ERC721.sol\":9378:9385  tokenId */\n      dup5\n        /* \"TinTinCourse/NFTSwap/ERC721.sol\":9378:9394  tokenId.toString */\n      tag_152\n        /* \"TinTinCourse/NFTSwap/ERC721.sol\":9378:9396  tokenId.toString() */\n      jump\t// in\n    tag_151:\n        /* \"TinTinCourse/NFTSwap/ERC721.sol\":9352:9397  abi.encodePacked(baseURI, tokenId.toString()) */\n      add(0x20, mload(0x40))\n      tag_153\n      swap3\n      swap2\n      swap1\n      tag_154\n      jump\t// in\n    tag_153:\n      mload(0x40)\n      0x20\n      dup2\n      dup4\n      sub\n      sub\n      dup2\n      mstore\n      swap1\n      0x40\n      mstore\n        /* \"TinTinCourse/NFTSwap/ERC721.sol\":9317:9403  bytes(baseURI).length > 0 ? string(abi.encodePacked(baseURI, tokenId.toString())) : \"\" */\n    tag_150:\n        /* \"TinTinCourse/NFTSwap/ERC721.sol\":9310:9403  return bytes(baseURI).length > 0 ? string(abi.encodePacked(baseURI, tokenId.toString())) : \"\" */\n      swap4\n        /* \"TinTinCourse/NFTSwap/ERC721.sol\":9095:9411  function tokenURI(uint256 tokenId) public view virtual override returns (string memory) {... */\n      swap3\n      pop\n      pop\n      pop\n      jump\t// out\n        /* \"TinTinCourse/NFTSwap/ERC721.sol\":3202:3395  function _approve(... */\n    tag_103:\n        /* \"TinTinCourse/NFTSwap/ERC721.sol\":3314:3338  _tokenApprovals[tokenId] */\n      0x00\n      dup2\n      dup2\n      mstore\n        /* \"TinTinCourse/NFTSwap/ERC721.sol\":3314:3329  _tokenApprovals */\n      0x04\n        /* \"TinTinCourse/NFTSwap/ERC721.sol\":3314:3338  _tokenApprovals[tokenId] */\n      0x20\n      mstore\n      0x40\n      dup1\n      dup3\n      keccak256\n        /* \"TinTinCourse/NFTSwap/ERC721.sol\":3314:3343  _tokenApprovals[tokenId] = to */\n      dup1\n      sload\n      not(sub(shl(0xa0, 0x01), 0x01))\n      and\n      sub(shl(0xa0, 0x01), 0x01)\n      dup7\n      dup2\n      and\n      swap2\n      dup3\n      or\n      swap1\n      swap3\n      sstore\n        /* \"TinTinCourse/NFTSwap/ERC721.sol\":3359:3387  Approval(owner, to, tokenId) */\n      swap2\n      mload\n        /* \"TinTinCourse/NFTSwap/ERC721.sol\":3314:3338  _tokenApprovals[tokenId] */\n      dup5\n      swap4\n        /* \"TinTinCourse/NFTSwap/ERC721.sol\":3359:3387  Approval(owner, to, tokenId) */\n      swap2\n      dup8\n      and\n      swap2\n      0x8c5be1e5ebec7d5bd14f71427d1e84f3dd0314c0f7b2291e5b200ac8c7c3b925\n      swap2\n      log4\n        /* \"TinTinCourse/NFTSwap/ERC721.sol\":3202:3395  function _approve(... */\n      pop\n      pop\n      pop\n      jump\t// out\n        /* \"TinTinCourse/NFTSwap/ERC721.sol\":3959:4242  function _isApprovedOrOwner(... */\n    tag_107:\n        /* \"TinTinCourse/NFTSwap/ERC721.sol\":4089:4093  bool */\n      0x00\n        /* \"TinTinCourse/NFTSwap/ERC721.sol\":4125:4130  owner */\n      dup4\n      sub(shl(0xa0, 0x01), 0x01)\n        /* \"TinTinCourse/NFTSwap/ERC721.sol\":4114:4130  spender == owner */\n      and\n        /* \"TinTinCourse/NFTSwap/ERC721.sol\":4114:4121  spender */\n      dup4\n      sub(shl(0xa0, 0x01), 0x01)\n        /* \"TinTinCourse/NFTSwap/ERC721.sol\":4114:4130  spender == owner */\n      and\n      eq\n        /* \"TinTinCourse/NFTSwap/ERC721.sol\":4114:4182  spender == owner ||... */\n      dup1\n      tag_158\n      jumpi\n      pop\n        /* \"TinTinCourse/NFTSwap/ERC721.sol\":4147:4171  _tokenApprovals[tokenId] */\n      0x00\n      dup3\n      dup2\n      mstore\n        /* \"TinTinCourse/NFTSwap/ERC721.sol\":4147:4162  _tokenApprovals */\n      0x04\n        /* \"TinTinCourse/NFTSwap/ERC721.sol\":4147:4171  _tokenApprovals[tokenId] */\n      0x20\n      mstore\n      0x40\n      swap1\n      keccak256\n      sload\n      sub(shl(0xa0, 0x01), 0x01)\n        /* \"TinTinCourse/NFTSwap/ERC721.sol\":4147:4182  _tokenApprovals[tokenId] == spender */\n      dup5\n      dup2\n      and\n        /* \"TinTinCourse/NFTSwap/ERC721.sol\":4147:4171  _tokenApprovals[tokenId] */\n      swap2\n      and\n        /* \"TinTinCourse/NFTSwap/ERC721.sol\":4147:4182  _tokenApprovals[tokenId] == spender */\n      eq\n        /* \"TinTinCourse/NFTSwap/ERC721.sol\":4114:4182  spender == owner ||... */\n    tag_158:\n        /* \"TinTinCourse/NFTSwap/ERC721.sol\":4114:4233  spender == owner ||... */\n      dup1\n      tag_159\n      jumpi\n      pop\n      sub(shl(0xa0, 0x01), 0x01)\n        /* \"TinTinCourse/NFTSwap/ERC721.sol\":4199:4224  _operatorApprovals[owner] */\n      dup1\n      dup6\n      and\n      0x00\n      swap1\n      dup2\n      mstore\n        /* \"TinTinCourse/NFTSwap/ERC721.sol\":4199:4217  _operatorApprovals */\n      0x05\n        /* \"TinTinCourse/NFTSwap/ERC721.sol\":4199:4224  _operatorApprovals[owner] */\n      0x20\n      swap1\n      dup2\n      mstore\n      0x40\n      dup1\n      dup4\n      keccak256\n        /* \"TinTinCourse/NFTSwap/ERC721.sol\":4199:4233  _operatorApprovals[owner][spender] */\n      swap4\n      dup8\n      and\n      dup4\n      mstore\n      swap3\n      swap1\n      mstore\n      keccak256\n      sload\n      0xff\n      and\n        /* \"TinTinCourse/NFTSwap/ERC721.sol\":4114:4233  spender == owner ||... */\n    tag_159:\n        /* \"TinTinCourse/NFTSwap/ERC721.sol\":4106:4234  return (spender == owner ||... */\n      swap5\n        /* \"TinTinCourse/NFTSwap/ERC721.sol\":3959:4242  function _isApprovedOrOwner(... */\n      swap4\n      pop\n      pop\n      pop\n      pop\n      jump\t// out\n        /* \"TinTinCourse/NFTSwap/ERC721.sol\":4471:4906  function _transfer(... */\n    tag_112:\n        /* \"TinTinCourse/NFTSwap/ERC721.sol\":4623:4628  owner */\n      dup4\n      sub(shl(0xa0, 0x01), 0x01)\n        /* \"TinTinCourse/NFTSwap/ERC721.sol\":4615:4628  from == owner */\n      and\n        /* \"TinTinCourse/NFTSwap/ERC721.sol\":4615:4619  from */\n      dup4\n      sub(shl(0xa0, 0x01), 0x01)\n        /* \"TinTinCourse/NFTSwap/ERC721.sol\":4615:4628  from == owner */\n      and\n      eq\n        /* \"TinTinCourse/NFTSwap/ERC721.sol\":4607:4642  require(from == owner, \"not owner\") */\n      tag_161\n      jumpi\n      mload(0x40)\n      shl(0xe5, 0x461bcd)\n      dup2\n      mstore\n        /* \"#utility.yul\":7964:7966   */\n      0x20\n        /* \"TinTinCourse/NFTSwap/ERC721.sol\":4607:4642  require(from == owner, \"not owner\") */\n      0x04\n      dup3\n      add\n        /* \"#utility.yul\":7946:7967   */\n      mstore\n        /* \"#utility.yul\":8003:8004   */\n      0x09\n        /* \"#utility.yul\":7983:8001   */\n      0x24\n      dup3\n      add\n        /* \"#utility.yul\":7976:8005   */\n      mstore\n      shl(0xb9, 0x3737ba1037bbb732b9)\n        /* \"#utility.yul\":8021:8039   */\n      0x44\n      dup3\n      add\n        /* \"#utility.yul\":8014:8053   */\n      mstore\n        /* \"#utility.yul\":8070:8088   */\n      0x64\n      add\n        /* \"TinTinCourse/NFTSwap/ERC721.sol\":4607:4642  require(from == owner, \"not owner\") */\n      tag_95\n        /* \"#utility.yul\":7762:8094   */\n      jump\n        /* \"TinTinCourse/NFTSwap/ERC721.sol\":4607:4642  require(from == owner, \"not owner\") */\n    tag_161:\n      sub(shl(0xa0, 0x01), 0x01)\n        /* \"TinTinCourse/NFTSwap/ERC721.sol\":4661:4677  to != address(0) */\n      dup3\n      and\n        /* \"TinTinCourse/NFTSwap/ERC721.sol\":4653:4710  require(to != address(0), \"transfer to the zero address\") */\n      tag_164\n      jumpi\n      mload(0x40)\n      shl(0xe5, 0x461bcd)\n      dup2\n      mstore\n        /* \"#utility.yul\":8301:8303   */\n      0x20\n        /* \"TinTinCourse/NFTSwap/ERC721.sol\":4653:4710  require(to != address(0), \"transfer to the zero address\") */\n      0x04\n      dup3\n      add\n        /* \"#utility.yul\":8283:8304   */\n      mstore\n        /* \"#utility.yul\":8340:8342   */\n      0x1c\n        /* \"#utility.yul\":8320:8338   */\n      0x24\n      dup3\n      add\n        /* \"#utility.yul\":8313:8343   */\n      mstore\n        /* \"#utility.yul\":8379:8409   */\n      0x7472616e7366657220746f20746865207a65726f206164647265737300000000\n        /* \"#utility.yul\":8359:8377   */\n      0x44\n      dup3\n      add\n        /* \"#utility.yul\":8352:8410   */\n      mstore\n        /* \"#utility.yul\":8427:8445   */\n      0x64\n      add\n        /* \"TinTinCourse/NFTSwap/ERC721.sol\":4653:4710  require(to != address(0), \"transfer to the zero address\") */\n      tag_95\n        /* \"#utility.yul\":8099:8451   */\n      jump\n        /* \"TinTinCourse/NFTSwap/ERC721.sol\":4653:4710  require(to != address(0), \"transfer to the zero address\") */\n    tag_164:\n        /* \"TinTinCourse/NFTSwap/ERC721.sol\":4723:4759  _approve(owner, address(0), tokenId) */\n      tag_167\n        /* \"TinTinCourse/NFTSwap/ERC721.sol\":4732:4737  owner */\n      dup5\n        /* \"TinTinCourse/NFTSwap/ERC721.sol\":4747:4748  0 */\n      0x00\n        /* \"TinTinCourse/NFTSwap/ERC721.sol\":4751:4758  tokenId */\n      dup4\n        /* \"TinTinCourse/NFTSwap/ERC721.sol\":4723:4731  _approve */\n      tag_103\n        /* \"TinTinCourse/NFTSwap/ERC721.sol\":4723:4759  _approve(owner, address(0), tokenId) */\n      jump\t// in\n    tag_167:\n      sub(shl(0xa0, 0x01), 0x01)\n        /* \"TinTinCourse/NFTSwap/ERC721.sol\":4772:4787  _balances[from] */\n      dup4\n      and\n      0x00\n      swap1\n      dup2\n      mstore\n        /* \"TinTinCourse/NFTSwap/ERC721.sol\":4772:4781  _balances */\n      0x03\n        /* \"TinTinCourse/NFTSwap/ERC721.sol\":4772:4787  _balances[from] */\n      0x20\n      mstore\n      0x40\n      dup2\n      keccak256\n        /* \"TinTinCourse/NFTSwap/ERC721.sol\":4772:4792  _balances[from] -= 1 */\n      dup1\n      sload\n        /* \"TinTinCourse/NFTSwap/ERC721.sol\":4791:4792  1 */\n      0x01\n      swap3\n        /* \"TinTinCourse/NFTSwap/ERC721.sol\":4772:4787  _balances[from] */\n      swap1\n        /* \"TinTinCourse/NFTSwap/ERC721.sol\":4772:4792  _balances[from] -= 1 */\n      tag_168\n      swap1\n        /* \"TinTinCourse/NFTSwap/ERC721.sol\":4791:4792  1 */\n      dup5\n      swap1\n        /* \"TinTinCourse/NFTSwap/ERC721.sol\":4772:4792  _balances[from] -= 1 */\n      tag_169\n      jump\t// in\n    tag_168:\n      swap1\n      swap2\n      sstore\n      pop\n      pop\n      sub(shl(0xa0, 0x01), 0x01)\n        /* \"TinTinCourse/NFTSwap/ERC721.sol\":4803:4816  _balances[to] */\n      dup3\n      and\n      0x00\n      swap1\n      dup2\n      mstore\n        /* \"TinTinCourse/NFTSwap/ERC721.sol\":4803:4812  _balances */\n      0x03\n        /* \"TinTinCourse/NFTSwap/ERC721.sol\":4803:4816  _balances[to] */\n      0x20\n      mstore\n      0x40\n      dup2\n      keccak256\n        /* \"TinTinCourse/NFTSwap/ERC721.sol\":4803:4821  _balances[to] += 1 */\n      dup1\n      sload\n        /* \"TinTinCourse/NFTSwap/ERC721.sol\":4820:4821  1 */\n      0x01\n      swap3\n        /* \"TinTinCourse/NFTSwap/ERC721.sol\":4803:4816  _balances[to] */\n      swap1\n        /* \"TinTinCourse/NFTSwap/ERC721.sol\":4803:4821  _balances[to] += 1 */\n      tag_170\n      swap1\n        /* \"TinTinCourse/NFTSwap/ERC721.sol\":4820:4821  1 */\n      dup5\n      swap1\n        /* \"TinTinCourse/NFTSwap/ERC721.sol\":4803:4821  _balances[to] += 1 */\n      tag_171\n      jump\t// in\n    tag_170:\n      swap1\n      swap2\n      sstore\n      pop\n      pop\n        /* \"TinTinCourse/NFTSwap/ERC721.sol\":4832:4848  _owners[tokenId] */\n      0x00\n      dup2\n      dup2\n      mstore\n        /* \"TinTinCourse/NFTSwap/ERC721.sol\":4832:4839  _owners */\n      0x02\n        /* \"TinTinCourse/NFTSwap/ERC721.sol\":4832:4848  _owners[tokenId] */\n      0x20\n      mstore\n      0x40\n      dup1\n      dup3\n      keccak256\n        /* \"TinTinCourse/NFTSwap/ERC721.sol\":4832:4853  _owners[tokenId] = to */\n      dup1\n      sload\n      not(sub(shl(0xa0, 0x01), 0x01))\n      and\n      sub(shl(0xa0, 0x01), 0x01)\n      dup7\n      dup2\n      and\n      swap2\n      dup3\n      or\n      swap1\n      swap3\n      sstore\n        /* \"TinTinCourse/NFTSwap/ERC721.sol\":4871:4898  Transfer(from, to, tokenId) */\n      swap2\n      mload\n        /* \"TinTinCourse/NFTSwap/ERC721.sol\":4832:4848  _owners[tokenId] */\n      dup5\n      swap4\n        /* \"TinTinCourse/NFTSwap/ERC721.sol\":4871:4898  Transfer(from, to, tokenId) */\n      swap2\n      dup8\n      and\n      swap2\n      0xddf252ad1be2c89b69c2b068fc378daa952ba7f163c4a11628f55a4df523b3ef\n      swap2\n      log4\n        /* \"TinTinCourse/NFTSwap/ERC721.sol\":4471:4906  function _transfer(... */\n      pop\n      pop\n      pop\n      pop\n      jump\t// out\n        /* \"TinTinCourse/NFTSwap/ERC721.sol\":7256:7570  function _mint(address to, uint tokenId) internal virtual {... */\n    tag_119:\n      sub(shl(0xa0, 0x01), 0x01)\n        /* \"TinTinCourse/NFTSwap/ERC721.sol\":7333:7349  to != address(0) */\n      dup3\n      and\n        /* \"TinTinCourse/NFTSwap/ERC721.sol\":7325:7374  require(to != address(0), \"mint to zero address\") */\n      tag_173\n      jumpi\n      mload(0x40)\n      shl(0xe5, 0x461bcd)\n      dup2\n      mstore\n        /* \"#utility.yul\":9053:9055   */\n      0x20\n        /* \"TinTinCourse/NFTSwap/ERC721.sol\":7325:7374  require(to != address(0), \"mint to zero address\") */\n      0x04\n      dup3\n      add\n        /* \"#utility.yul\":9035:9056   */\n      mstore\n        /* \"#utility.yul\":9092:9094   */\n      0x14\n        /* \"#utility.yul\":9072:9090   */\n      0x24\n      dup3\n      add\n        /* \"#utility.yul\":9065:9095   */\n      mstore\n      shl(0x60, 0x6d696e7420746f207a65726f2061646472657373)\n        /* \"#utility.yul\":9111:9129   */\n      0x44\n      dup3\n      add\n        /* \"#utility.yul\":9104:9154   */\n      mstore\n        /* \"#utility.yul\":9171:9189   */\n      0x64\n      add\n        /* \"TinTinCourse/NFTSwap/ERC721.sol\":7325:7374  require(to != address(0), \"mint to zero address\") */\n      tag_95\n        /* \"#utility.yul\":8851:9195   */\n      jump\n        /* \"TinTinCourse/NFTSwap/ERC721.sol\":7325:7374  require(to != address(0), \"mint to zero address\") */\n    tag_173:\n        /* \"TinTinCourse/NFTSwap/ERC721.sol\":7421:7422  0 */\n      0x00\n        /* \"TinTinCourse/NFTSwap/ERC721.sol\":7393:7409  _owners[tokenId] */\n      dup2\n      dup2\n      mstore\n        /* \"TinTinCourse/NFTSwap/ERC721.sol\":7393:7400  _owners */\n      0x02\n        /* \"TinTinCourse/NFTSwap/ERC721.sol\":7393:7409  _owners[tokenId] */\n      0x20\n      mstore\n      0x40\n      swap1\n      keccak256\n      sload\n      sub(shl(0xa0, 0x01), 0x01)\n      and\n        /* \"TinTinCourse/NFTSwap/ERC721.sol\":7393:7423  _owners[tokenId] == address(0) */\n      iszero\n        /* \"TinTinCourse/NFTSwap/ERC721.sol\":7385:7448  require(_owners[tokenId] == address(0), \"token already minted\") */\n      tag_176\n      jumpi\n      mload(0x40)\n      shl(0xe5, 0x461bcd)\n      dup2\n      mstore\n        /* \"#utility.yul\":9402:9404   */\n      0x20\n        /* \"TinTinCourse/NFTSwap/ERC721.sol\":7385:7448  require(_owners[tokenId] == address(0), \"token already minted\") */\n      0x04\n      dup3\n      add\n        /* \"#utility.yul\":9384:9405   */\n      mstore\n        /* \"#utility.yul\":9441:9443   */\n      0x14\n        /* \"#utility.yul\":9421:9439   */\n      0x24\n      dup3\n      add\n        /* \"#utility.yul\":9414:9444   */\n      mstore\n      shl(0x62, 0x1d1bdad95b88185b1c9958591e481b5a5b9d1959)\n        /* \"#utility.yul\":9460:9478   */\n      0x44\n      dup3\n      add\n        /* \"#utility.yul\":9453:9503   */\n      mstore\n        /* \"#utility.yul\":9520:9538   */\n      0x64\n      add\n        /* \"TinTinCourse/NFTSwap/ERC721.sol\":7385:7448  require(_owners[tokenId] == address(0), \"token already minted\") */\n      tag_95\n        /* \"#utility.yul\":9200:9544   */\n      jump\n        /* \"TinTinCourse/NFTSwap/ERC721.sol\":7385:7448  require(_owners[tokenId] == address(0), \"token already minted\") */\n    tag_176:\n      sub(shl(0xa0, 0x01), 0x01)\n        /* \"TinTinCourse/NFTSwap/ERC721.sol\":7461:7474  _balances[to] */\n      dup3\n      and\n      0x00\n      swap1\n      dup2\n      mstore\n        /* \"TinTinCourse/NFTSwap/ERC721.sol\":7461:7470  _balances */\n      0x03\n        /* \"TinTinCourse/NFTSwap/ERC721.sol\":7461:7474  _balances[to] */\n      0x20\n      mstore\n      0x40\n      dup2\n      keccak256\n        /* \"TinTinCourse/NFTSwap/ERC721.sol\":7461:7479  _balances[to] += 1 */\n      dup1\n      sload\n        /* \"TinTinCourse/NFTSwap/ERC721.sol\":7478:7479  1 */\n      0x01\n      swap3\n        /* \"TinTinCourse/NFTSwap/ERC721.sol\":7461:7474  _balances[to] */\n      swap1\n        /* \"TinTinCourse/NFTSwap/ERC721.sol\":7461:7479  _balances[to] += 1 */\n      tag_179\n      swap1\n        /* \"TinTinCourse/NFTSwap/ERC721.sol\":7478:7479  1 */\n      dup5\n      swap1\n        /* \"TinTinCourse/NFTSwap/ERC721.sol\":7461:7479  _balances[to] += 1 */\n      tag_171\n      jump\t// in\n    tag_179:\n      swap1\n      swap2\n      sstore\n      pop\n      pop\n        /* \"TinTinCourse/NFTSwap/ERC721.sol\":7490:7506  _owners[tokenId] */\n      0x00\n      dup2\n      dup2\n      mstore\n        /* \"TinTinCourse/NFTSwap/ERC721.sol\":7490:7497  _owners */\n      0x02\n        /* \"TinTinCourse/NFTSwap/ERC721.sol\":7490:7506  _owners[tokenId] */\n      0x20\n      mstore\n      0x40\n      dup1\n      dup3\n      keccak256\n        /* \"TinTinCourse/NFTSwap/ERC721.sol\":7490:7511  _owners[tokenId] = to */\n      dup1\n      sload\n      not(sub(shl(0xa0, 0x01), 0x01))\n      and\n      sub(shl(0xa0, 0x01), 0x01)\n      dup7\n      and\n      swap1\n      dup2\n      or\n      swap1\n      swap2\n      sstore\n        /* \"TinTinCourse/NFTSwap/ERC721.sol\":7529:7562  Transfer(address(0), to, tokenId) */\n      swap1\n      mload\n        /* \"TinTinCourse/NFTSwap/ERC721.sol\":7490:7506  _owners[tokenId] */\n      dup4\n      swap3\n      swap1\n        /* \"TinTinCourse/NFTSwap/ERC721.sol\":7529:7562  Transfer(address(0), to, tokenId) */\n      0xddf252ad1be2c89b69c2b068fc378daa952ba7f163c4a11628f55a4df523b3ef\n      swap1\n        /* \"TinTinCourse/NFTSwap/ERC721.sol\":7490:7506  _owners[tokenId] */\n      dup3\n      swap1\n        /* \"TinTinCourse/NFTSwap/ERC721.sol\":7529:7562  Transfer(address(0), to, tokenId) */\n      log4\n        /* \"TinTinCourse/NFTSwap/ERC721.sol\":7256:7570  function _mint(address to, uint tokenId) internal virtual {... */\n      pop\n      pop\n      jump\t// out\n        /* \"TinTinCourse/NFTSwap/ERC721.sol\":5813:6084  function _safeTransfer(... */\n    tag_142:\n        /* \"TinTinCourse/NFTSwap/ERC721.sol\":5982:6017  _transfer(owner, from, to, tokenId) */\n      tag_181\n        /* \"TinTinCourse/NFTSwap/ERC721.sol\":5992:5997  owner */\n      dup6\n        /* \"TinTinCourse/NFTSwap/ERC721.sol\":5999:6003  from */\n      dup6\n        /* \"TinTinCourse/NFTSwap/ERC721.sol\":6005:6007  to */\n      dup6\n        /* \"TinTinCourse/NFTSwap/ERC721.sol\":6009:6016  tokenId */\n      dup6\n        /* \"TinTinCourse/NFTSwap/ERC721.sol\":5982:5991  _transfer */\n      tag_112\n        /* \"TinTinCourse/NFTSwap/ERC721.sol\":5982:6017  _transfer(owner, from, to, tokenId) */\n      jump\t// in\n    tag_181:\n        /* \"TinTinCourse/NFTSwap/ERC721.sol\":6028:6076  _checkOnERC721Received(from, to, tokenId, _data) */\n      tag_141\n        /* \"TinTinCourse/NFTSwap/ERC721.sol\":6051:6055  from */\n      dup5\n        /* \"TinTinCourse/NFTSwap/ERC721.sol\":6057:6059  to */\n      dup5\n        /* \"TinTinCourse/NFTSwap/ERC721.sol\":6061:6068  tokenId */\n      dup5\n        /* \"TinTinCourse/NFTSwap/ERC721.sol\":6070:6075  _data */\n      dup5\n        /* \"TinTinCourse/NFTSwap/ERC721.sol\":6028:6050  _checkOnERC721Received */\n      tag_183\n        /* \"TinTinCourse/NFTSwap/ERC721.sol\":6028:6076  _checkOnERC721Received(from, to, tokenId, _data) */\n      jump\t// in\n        /* \"TinTinCourse/NFTSwap/WTFApe.sol\":373:522  function _baseURI() internal pure override returns (string memory) {... */\n    tag_148:\n        /* \"TinTinCourse/NFTSwap/WTFApe.sol\":425:438  string memory */\n      0x60\n        /* \"TinTinCourse/NFTSwap/WTFApe.sol\":451:514  return \"ipfs://QmeSjSinHpPnmXmspMjwiXyN6zS4E9zccariGR3jxcaWtq/\" */\n      mload(0x40)\n      dup1\n      0x60\n      add\n      0x40\n      mstore\n      dup1\n      0x36\n      dup2\n      mstore\n      0x20\n      add\n      data_8382b382247cd07401a2ef2f394137c3f3b0972798bae0a9c78b0c261acbb56b\n      0x36\n      swap2\n      codecopy\n      swap1\n      pop\n        /* \"TinTinCourse/NFTSwap/WTFApe.sol\":373:522  function _baseURI() internal pure override returns (string memory) {... */\n      swap1\n      jump\t// out\n        /* \"TinTinCourse/NFTSwap/String.sol\":408:1131  function toString(uint256 value) internal pure returns (string memory) {... */\n    tag_152:\n        /* \"TinTinCourse/NFTSwap/String.sol\":464:477  string memory */\n      0x60\n        /* \"TinTinCourse/NFTSwap/String.sol\":685:690  value */\n      dup2\n        /* \"TinTinCourse/NFTSwap/String.sol\":694:695  0 */\n      0x00\n        /* \"TinTinCourse/NFTSwap/String.sol\":685:695  value == 0 */\n      sub\n        /* \"TinTinCourse/NFTSwap/String.sol\":681:734  if (value == 0) {... */\n      tag_186\n      jumpi\n      pop\n      pop\n        /* \"TinTinCourse/NFTSwap/String.sol\":712:722  return \"0\" */\n      0x40\n      dup1\n      mload\n      dup1\n      dup3\n      add\n      swap1\n      swap2\n      mstore\n      0x01\n      dup2\n      mstore\n      shl(0xfc, 0x03)\n      0x20\n      dup3\n      add\n      mstore\n      swap1\n        /* \"TinTinCourse/NFTSwap/String.sol\":408:1131  function toString(uint256 value) internal pure returns (string memory) {... */\n      jump\t// out\n        /* \"TinTinCourse/NFTSwap/String.sol\":681:734  if (value == 0) {... */\n    tag_186:\n        /* \"TinTinCourse/NFTSwap/String.sol\":759:764  value */\n      dup2\n        /* \"TinTinCourse/NFTSwap/String.sol\":744:756  uint256 temp */\n      0x00\n        /* \"TinTinCourse/NFTSwap/String.sol\":800:878  while (temp != 0) {... */\n    tag_187:\n        /* \"TinTinCourse/NFTSwap/String.sol\":807:816  temp != 0 */\n      dup2\n      iszero\n        /* \"TinTinCourse/NFTSwap/String.sol\":800:878  while (temp != 0) {... */\n      tag_188\n      jumpi\n        /* \"TinTinCourse/NFTSwap/String.sol\":833:841  digits++ */\n      dup1\n      tag_189\n      dup2\n      tag_190\n      jump\t// in\n    tag_189:\n      swap2\n      pop\n        /* \"TinTinCourse/NFTSwap/String.sol\":856:866  temp /= 10 */\n      tag_191\n      swap1\n      pop\n        /* \"TinTinCourse/NFTSwap/String.sol\":864:866  10 */\n      0x0a\n        /* \"TinTinCourse/NFTSwap/String.sol\":856:866  temp /= 10 */\n      dup4\n      tag_192\n      jump\t// in\n    tag_191:\n      swap2\n      pop\n        /* \"TinTinCourse/NFTSwap/String.sol\":800:878  while (temp != 0) {... */\n      jump(tag_187)\n    tag_188:\n        /* \"TinTinCourse/NFTSwap/String.sol\":888:907  bytes memory buffer */\n      0x00\n        /* \"TinTinCourse/NFTSwap/String.sol\":920:926  digits */\n      dup2\n        /* \"TinTinCourse/NFTSwap/String.sol\":910:927  new bytes(digits) */\n      0xffffffffffffffff\n      dup2\n      gt\n      iszero\n      tag_194\n      jumpi\n      tag_194\n      tag_195\n      jump\t// in\n    tag_194:\n      mload(0x40)\n      swap1\n      dup1\n      dup3\n      mstore\n      dup1\n      0x1f\n      add\n      not(0x1f)\n      and\n      0x20\n      add\n      dup3\n      add\n      0x40\n      mstore\n      dup1\n      iszero\n      tag_196\n      jumpi\n      0x20\n      dup3\n      add\n      dup2\n      dup1\n      calldatasize\n      dup4\n      calldatacopy\n      add\n      swap1\n      pop\n    tag_196:\n      pop\n        /* \"TinTinCourse/NFTSwap/String.sol\":888:927  bytes memory buffer = new bytes(digits) */\n      swap1\n      pop\n        /* \"TinTinCourse/NFTSwap/String.sol\":938:1092  while (value != 0) {... */\n    tag_197:\n        /* \"TinTinCourse/NFTSwap/String.sol\":945:955  value != 0 */\n      dup5\n      iszero\n        /* \"TinTinCourse/NFTSwap/String.sol\":938:1092  while (value != 0) {... */\n      tag_159\n      jumpi\n        /* \"TinTinCourse/NFTSwap/String.sol\":972:983  digits -= 1 */\n      tag_199\n        /* \"TinTinCourse/NFTSwap/String.sol\":982:983  1 */\n      0x01\n        /* \"TinTinCourse/NFTSwap/String.sol\":972:983  digits -= 1 */\n      dup4\n      tag_169\n      jump\t// in\n    tag_199:\n      swap2\n      pop\n        /* \"TinTinCourse/NFTSwap/String.sol\":1041:1051  value % 10 */\n      tag_200\n        /* \"TinTinCourse/NFTSwap/String.sol\":1049:1051  10 */\n      0x0a\n        /* \"TinTinCourse/NFTSwap/String.sol\":1041:1046  value */\n      dup7\n        /* \"TinTinCourse/NFTSwap/String.sol\":1041:1051  value % 10 */\n      tag_201\n      jump\t// in\n    tag_200:\n        /* \"TinTinCourse/NFTSwap/String.sol\":1028:1052  48 + uint256(value % 10) */\n      tag_202\n      swap1\n        /* \"TinTinCourse/NFTSwap/String.sol\":1028:1030  48 */\n      0x30\n        /* \"TinTinCourse/NFTSwap/String.sol\":1028:1052  48 + uint256(value % 10) */\n      tag_171\n      jump\t// in\n    tag_202:\n        /* \"TinTinCourse/NFTSwap/String.sol\":1015:1054  bytes1(uint8(48 + uint256(value % 10))) */\n      0xf8\n      shl\n        /* \"TinTinCourse/NFTSwap/String.sol\":998:1004  buffer */\n      dup2\n        /* \"TinTinCourse/NFTSwap/String.sol\":1005:1011  digits */\n      dup4\n        /* \"TinTinCourse/NFTSwap/String.sol\":998:1012  buffer[digits] */\n      dup2\n      mload\n      dup2\n      lt\n      tag_204\n      jumpi\n      tag_204\n      tag_205\n      jump\t// in\n    tag_204:\n      0x20\n      add\n      add\n        /* \"TinTinCourse/NFTSwap/String.sol\":998:1054  buffer[digits] = bytes1(uint8(48 + uint256(value % 10))) */\n      swap1\n      not(sub(shl(0xf8, 0x01), 0x01))\n      and\n      swap1\n      dup2\n      0x00\n      byte\n      swap1\n      mstore8\n      pop\n        /* \"TinTinCourse/NFTSwap/String.sol\":1069:1080  value /= 10 */\n      tag_206\n        /* \"TinTinCourse/NFTSwap/String.sol\":1078:1080  10 */\n      0x0a\n        /* \"TinTinCourse/NFTSwap/String.sol\":1069:1080  value /= 10 */\n      dup7\n      tag_192\n      jump\t// in\n    tag_206:\n      swap5\n      pop\n        /* \"TinTinCourse/NFTSwap/String.sol\":938:1092  while (value != 0) {... */\n      jump(tag_197)\n        /* \"TinTinCourse/NFTSwap/ERC721.sol\":8205:9002  function _checkOnERC721Received(address from, address to, uint256 tokenId, bytes memory data) private {... */\n    tag_183:\n      sub(shl(0xa0, 0x01), 0x01)\n        /* \"TinTinCourse/NFTSwap/ERC721.sol\":8322:8336  to.code.length */\n      dup4\n      and\n      extcodesize\n        /* \"TinTinCourse/NFTSwap/ERC721.sol\":8322:8340  to.code.length > 0 */\n      iszero\n        /* \"TinTinCourse/NFTSwap/ERC721.sol\":8318:8995  if (to.code.length > 0) {... */\n      tag_111\n      jumpi\n        /* \"TinTinCourse/NFTSwap/ERC721.sol\":8361:8430  IERC721Receiver(to).onERC721Received(msg.sender, from, tokenId, data) */\n      mload(0x40)\n      shl(0xe1, 0x0a85bd01)\n      dup2\n      mstore\n      sub(shl(0xa0, 0x01), 0x01)\n        /* \"TinTinCourse/NFTSwap/ERC721.sol\":8361:8397  IERC721Receiver(to).onERC721Received */\n      dup5\n      and\n      swap1\n      0x150b7a02\n      swap1\n        /* \"TinTinCourse/NFTSwap/ERC721.sol\":8361:8430  IERC721Receiver(to).onERC721Received(msg.sender, from, tokenId, data) */\n      tag_209\n      swap1\n        /* \"TinTinCourse/NFTSwap/ERC721.sol\":8398:8408  msg.sender */\n      caller\n      swap1\n        /* \"TinTinCourse/NFTSwap/ERC721.sol\":8410:8414  from */\n      dup9\n      swap1\n        /* \"TinTinCourse/NFTSwap/ERC721.sol\":8416:8423  tokenId */\n      dup8\n      swap1\n        /* \"TinTinCourse/NFTSwap/ERC721.sol\":8425:8429  data */\n      dup8\n      swap1\n        /* \"TinTinCourse/NFTSwap/ERC721.sol\":8361:8430  IERC721Receiver(to).onERC721Received(msg.sender, from, tokenId, data) */\n      0x04\n      add\n      tag_210\n      jump\t// in\n    tag_209:\n      0x20\n      mload(0x40)\n      dup1\n      dup4\n      sub\n      dup2\n      0x00\n      dup8\n      gas\n      call\n      swap3\n      pop\n      pop\n      pop\n      dup1\n      iszero\n      tag_211\n      jumpi\n      pop\n      0x40\n      dup1\n      mload\n      0x1f\n      returndatasize\n      swap1\n      dup2\n      add\n      not(0x1f)\n      and\n      dup3\n      add\n      swap1\n      swap3\n      mstore\n      tag_212\n      swap2\n      dup2\n      add\n      swap1\n      tag_213\n      jump\t// in\n    tag_212:\n      0x01\n    tag_211:\n        /* \"TinTinCourse/NFTSwap/ERC721.sol\":8357:8984  try IERC721Receiver(to).onERC721Received(msg.sender, from, tokenId, data) returns (bytes4 retval) {... */\n      tag_214\n      jumpi\n      returndatasize\n      dup1\n      dup1\n      iszero\n      tag_219\n      jumpi\n      mload(0x40)\n      swap2\n      pop\n      and(add(returndatasize, 0x3f), not(0x1f))\n      dup3\n      add\n      0x40\n      mstore\n      returndatasize\n      dup3\n      mstore\n      returndatasize\n      0x00\n      0x20\n      dup5\n      add\n      returndatacopy\n      jump(tag_218)\n    tag_219:\n      0x60\n      swap2\n      pop\n    tag_218:\n      pop\n        /* \"TinTinCourse/NFTSwap/ERC721.sol\":8673:8679  reason */\n      dup1\n        /* \"TinTinCourse/NFTSwap/ERC721.sol\":8673:8686  reason.length */\n      mload\n        /* \"TinTinCourse/NFTSwap/ERC721.sol\":8690:8691  0 */\n      0x00\n        /* \"TinTinCourse/NFTSwap/ERC721.sol\":8673:8691  reason.length == 0 */\n      sub\n        /* \"TinTinCourse/NFTSwap/ERC721.sol\":8669:8969  if (reason.length == 0) {... */\n      tag_220\n      jumpi\n        /* \"TinTinCourse/NFTSwap/ERC721.sol\":8723:8748  ERC721InvalidReceiver(to) */\n      mload(0x40)\n      shl(0xe1, 0x32505749)\n      dup2\n      mstore\n      sub(shl(0xa0, 0x01), 0x01)\n        /* \"#utility.yul\":1697:1729   */\n      dup6\n      and\n        /* \"TinTinCourse/NFTSwap/ERC721.sol\":8723:8748  ERC721InvalidReceiver(to) */\n      0x04\n      dup3\n      add\n        /* \"#utility.yul\":1679:1730   */\n      mstore\n        /* \"#utility.yul\":1652:1670   */\n      0x24\n      add\n        /* \"TinTinCourse/NFTSwap/ERC721.sol\":8723:8748  ERC721InvalidReceiver(to) */\n      tag_95\n        /* \"#utility.yul\":1533:1736   */\n      jump\n        /* \"TinTinCourse/NFTSwap/ERC721.sol\":8669:8969  if (reason.length == 0) {... */\n    tag_220:\n        /* \"TinTinCourse/NFTSwap/ERC721.sol\":8919:8925  reason */\n      dup1\n        /* \"TinTinCourse/NFTSwap/ERC721.sol\":8913:8926  mload(reason) */\n      mload\n        /* \"TinTinCourse/NFTSwap/ERC721.sol\":8904:8910  reason */\n      dup2\n        /* \"TinTinCourse/NFTSwap/ERC721.sol\":8900:8902  32 */\n      0x20\n        /* \"TinTinCourse/NFTSwap/ERC721.sol\":8896:8911  add(32, reason) */\n      add\n        /* \"TinTinCourse/NFTSwap/ERC721.sol\":8889:8927  revert(add(32, reason), mload(reason)) */\n      revert\n        /* \"TinTinCourse/NFTSwap/ERC721.sol\":8357:8984  try IERC721Receiver(to).onERC721Received(msg.sender, from, tokenId, data) returns (bytes4 retval) {... */\n    tag_214:\n      not(sub(shl(0xe0, 0x01), 0x01))\n        /* \"TinTinCourse/NFTSwap/ERC721.sol\":8478:8529  retval != IERC721Receiver.onERC721Received.selector */\n      dup2\n      and\n      shl(0xe1, 0x0a85bd01)\n      eq\n        /* \"TinTinCourse/NFTSwap/ERC721.sol\":8474:8606  if (retval != IERC721Receiver.onERC721Received.selector) {... */\n      tag_141\n      jumpi\n        /* \"TinTinCourse/NFTSwap/ERC721.sol\":8561:8586  ERC721InvalidReceiver(to) */\n      mload(0x40)\n      shl(0xe1, 0x32505749)\n      dup2\n      mstore\n      sub(shl(0xa0, 0x01), 0x01)\n        /* \"#utility.yul\":1697:1729   */\n      dup6\n      and\n        /* \"TinTinCourse/NFTSwap/ERC721.sol\":8561:8586  ERC721InvalidReceiver(to) */\n      0x04\n      dup3\n      add\n        /* \"#utility.yul\":1679:1730   */\n      mstore\n        /* \"#utility.yul\":1652:1670   */\n      0x24\n      add\n        /* \"TinTinCourse/NFTSwap/ERC721.sol\":8561:8586  ERC721InvalidReceiver(to) */\n      tag_95\n        /* \"#utility.yul\":1533:1736   */\n      jump\n        /* \"#utility.yul\":14:145   */\n    tag_226:\n      not(sub(shl(0xe0, 0x01), 0x01))\n        /* \"#utility.yul\":88:120   */\n      dup2\n      and\n        /* \"#utility.yul\":78:121   */\n      dup2\n      eq\n        /* \"#utility.yul\":68:139   */\n      tag_234\n      jumpi\n        /* \"#utility.yul\":135:136   */\n      0x00\n        /* \"#utility.yul\":132:133   */\n      dup1\n        /* \"#utility.yul\":125:137   */\n      revert\n        /* \"#utility.yul\":68:139   */\n    tag_234:\n        /* \"#utility.yul\":14:145   */\n      pop\n      jump\t// out\n        /* \"#utility.yul\":150:395   */\n    tag_23:\n        /* \"#utility.yul\":208:214   */\n      0x00\n        /* \"#utility.yul\":261:263   */\n      0x20\n        /* \"#utility.yul\":249:258   */\n      dup3\n        /* \"#utility.yul\":240:247   */\n      dup5\n        /* \"#utility.yul\":236:259   */\n      sub\n        /* \"#utility.yul\":232:264   */\n      slt\n        /* \"#utility.yul\":229:281   */\n      iszero\n      tag_236\n      jumpi\n        /* \"#utility.yul\":277:278   */\n      0x00\n        /* \"#utility.yul\":274:275   */\n      dup1\n        /* \"#utility.yul\":267:279   */\n      revert\n        /* \"#utility.yul\":229:281   */\n    tag_236:\n        /* \"#utility.yul\":316:325   */\n      dup2\n        /* \"#utility.yul\":303:326   */\n      calldataload\n        /* \"#utility.yul\":335:365   */\n      tag_150\n        /* \"#utility.yul\":359:364   */\n      dup2\n        /* \"#utility.yul\":335:365   */\n      tag_226\n      jump\t// in\n        /* \"#utility.yul\":592:842   */\n    tag_227:\n        /* \"#utility.yul\":677:678   */\n      0x00\n        /* \"#utility.yul\":687:800   */\n    tag_240:\n        /* \"#utility.yul\":701:707   */\n      dup4\n        /* \"#utility.yul\":698:699   */\n      dup2\n        /* \"#utility.yul\":695:708   */\n      lt\n        /* \"#utility.yul\":687:800   */\n      iszero\n      tag_242\n      jumpi\n        /* \"#utility.yul\":777:788   */\n      dup2\n      dup2\n      add\n        /* \"#utility.yul\":771:789   */\n      mload\n        /* \"#utility.yul\":758:769   */\n      dup4\n      dup3\n      add\n        /* \"#utility.yul\":751:790   */\n      mstore\n        /* \"#utility.yul\":723:725   */\n      0x20\n        /* \"#utility.yul\":716:726   */\n      add\n        /* \"#utility.yul\":687:800   */\n      jump(tag_240)\n    tag_242:\n      pop\n      pop\n        /* \"#utility.yul\":834:835   */\n      0x00\n        /* \"#utility.yul\":816:832   */\n      swap2\n      add\n        /* \"#utility.yul\":809:836   */\n      mstore\n        /* \"#utility.yul\":592:842   */\n      jump\t// out\n        /* \"#utility.yul\":847:1118   */\n    tag_228:\n        /* \"#utility.yul\":889:892   */\n      0x00\n        /* \"#utility.yul\":927:932   */\n      dup2\n        /* \"#utility.yul\":921:933   */\n      mload\n        /* \"#utility.yul\":954:960   */\n      dup1\n        /* \"#utility.yul\":949:952   */\n      dup5\n        /* \"#utility.yul\":942:961   */\n      mstore\n        /* \"#utility.yul\":970:1046   */\n      tag_244\n        /* \"#utility.yul\":1039:1045   */\n      dup2\n        /* \"#utility.yul\":1032:1036   */\n      0x20\n        /* \"#utility.yul\":1027:1030   */\n      dup7\n        /* \"#utility.yul\":1023:1037   */\n      add\n        /* \"#utility.yul\":1016:1020   */\n      0x20\n        /* \"#utility.yul\":1009:1014   */\n      dup7\n        /* \"#utility.yul\":1005:1021   */\n      add\n        /* \"#utility.yul\":970:1046   */\n      tag_227\n      jump\t// in\n    tag_244:\n        /* \"#utility.yul\":1100:1102   */\n      0x1f\n        /* \"#utility.yul\":1079:1094   */\n      add\n      not(0x1f)\n        /* \"#utility.yul\":1075:1104   */\n      and\n        /* \"#utility.yul\":1066:1105   */\n      swap3\n      swap1\n      swap3\n      add\n        /* \"#utility.yul\":1107:1111   */\n      0x20\n        /* \"#utility.yul\":1062:1112   */\n      add\n      swap3\n        /* \"#utility.yul\":847:1118   */\n      swap2\n      pop\n      pop\n      jump\t// out\n        /* \"#utility.yul\":1123:1343   */\n    tag_30:\n        /* \"#utility.yul\":1272:1274   */\n      0x20\n        /* \"#utility.yul\":1261:1270   */\n      dup2\n        /* \"#utility.yul\":1254:1275   */\n      mstore\n        /* \"#utility.yul\":1235:1239   */\n      0x00\n        /* \"#utility.yul\":1292:1337   */\n      tag_150\n        /* \"#utility.yul\":1333:1335   */\n      0x20\n        /* \"#utility.yul\":1322:1331   */\n      dup4\n        /* \"#utility.yul\":1318:1336   */\n      add\n        /* \"#utility.yul\":1310:1316   */\n      dup5\n        /* \"#utility.yul\":1292:1337   */\n      tag_228\n      jump\t// in\n        /* \"#utility.yul\":1348:1528   */\n    tag_33:\n        /* \"#utility.yul\":1407:1413   */\n      0x00\n        /* \"#utility.yul\":1460:1462   */\n      0x20\n        /* \"#utility.yul\":1448:1457   */\n      dup3\n        /* \"#utility.yul\":1439:1446   */\n      dup5\n        /* \"#utility.yul\":1435:1458   */\n      sub\n        /* \"#utility.yul\":1431:1463   */\n      slt\n        /* \"#utility.yul\":1428:1480   */\n      iszero\n      tag_248\n      jumpi\n        /* \"#utility.yul\":1476:1477   */\n      0x00\n        /* \"#utility.yul\":1473:1474   */\n      dup1\n        /* \"#utility.yul\":1466:1478   */\n      revert\n        /* \"#utility.yul\":1428:1480   */\n    tag_248:\n      pop\n        /* \"#utility.yul\":1499:1522   */\n      calldataload\n      swap2\n        /* \"#utility.yul\":1348:1528   */\n      swap1\n      pop\n      jump\t// out\n        /* \"#utility.yul\":1741:1914   */\n    tag_229:\n        /* \"#utility.yul\":1809:1829   */\n      dup1\n      calldataload\n      sub(shl(0xa0, 0x01), 0x01)\n        /* \"#utility.yul\":1858:1889   */\n      dup2\n      and\n        /* \"#utility.yul\":1848:1890   */\n      dup2\n      eq\n        /* \"#utility.yul\":1838:1908   */\n      tag_123\n      jumpi\n        /* \"#utility.yul\":1904:1905   */\n      0x00\n        /* \"#utility.yul\":1901:1902   */\n      dup1\n        /* \"#utility.yul\":1894:1906   */\n      revert\n        /* \"#utility.yul\":1919:2173   */\n    tag_39:\n        /* \"#utility.yul\":1987:1993   */\n      0x00\n        /* \"#utility.yul\":1995:2001   */\n      dup1\n        /* \"#utility.yul\":2048:2050   */\n      0x40\n        /* \"#utility.yul\":2036:2045   */\n      dup4\n        /* \"#utility.yul\":2027:2034   */\n      dup6\n        /* \"#utility.yul\":2023:2046   */\n      sub\n        /* \"#utility.yul\":2019:2051   */\n      slt\n        /* \"#utility.yul\":2016:2068   */\n      iszero\n      tag_253\n      jumpi\n        /* \"#utility.yul\":2064:2065   */\n      0x00\n        /* \"#utility.yul\":2061:2062   */\n      dup1\n        /* \"#utility.yul\":2054:2066   */\n      revert\n        /* \"#utility.yul\":2016:2068   */\n    tag_253:\n        /* \"#utility.yul\":2087:2116   */\n      tag_254\n        /* \"#utility.yul\":2106:2115   */\n      dup4\n        /* \"#utility.yul\":2087:2116   */\n      tag_229\n      jump\t// in\n    tag_254:\n        /* \"#utility.yul\":2077:2116   */\n      swap5\n        /* \"#utility.yul\":2163:2165   */\n      0x20\n        /* \"#utility.yul\":2148:2166   */\n      swap4\n      swap1\n      swap4\n      add\n        /* \"#utility.yul\":2135:2167   */\n      calldataload\n      swap4\n      pop\n      pop\n      pop\n        /* \"#utility.yul\":1919:2173   */\n      jump\t// out\n        /* \"#utility.yul\":2178:2506   */\n    tag_43:\n        /* \"#utility.yul\":2255:2261   */\n      0x00\n        /* \"#utility.yul\":2263:2269   */\n      dup1\n        /* \"#utility.yul\":2271:2277   */\n      0x00\n        /* \"#utility.yul\":2324:2326   */\n      0x60\n        /* \"#utility.yul\":2312:2321   */\n      dup5\n        /* \"#utility.yul\":2303:2310   */\n      dup7\n        /* \"#utility.yul\":2299:2322   */\n      sub\n        /* \"#utility.yul\":2295:2327   */\n      slt\n        /* \"#utility.yul\":2292:2344   */\n      iszero\n      tag_256\n      jumpi\n        /* \"#utility.yul\":2340:2341   */\n      0x00\n        /* \"#utility.yul\":2337:2338   */\n      dup1\n        /* \"#utility.yul\":2330:2342   */\n      revert\n        /* \"#utility.yul\":2292:2344   */\n    tag_256:\n        /* \"#utility.yul\":2363:2392   */\n      tag_257\n        /* \"#utility.yul\":2382:2391   */\n      dup5\n        /* \"#utility.yul\":2363:2392   */\n      tag_229\n      jump\t// in\n    tag_257:\n        /* \"#utility.yul\":2353:2392   */\n      swap3\n      pop\n        /* \"#utility.yul\":2411:2449   */\n      tag_258\n        /* \"#utility.yul\":2445:2447   */\n      0x20\n        /* \"#utility.yul\":2434:2443   */\n      dup6\n        /* \"#utility.yul\":2430:2448   */\n      add\n        /* \"#utility.yul\":2411:2449   */\n      tag_229\n      jump\t// in\n    tag_258:\n        /* \"#utility.yul\":2401:2449   */\n      swap2\n      pop\n        /* \"#utility.yul\":2496:2498   */\n      0x40\n        /* \"#utility.yul\":2485:2494   */\n      dup5\n        /* \"#utility.yul\":2481:2499   */\n      add\n        /* \"#utility.yul\":2468:2500   */\n      calldataload\n        /* \"#utility.yul\":2458:2500   */\n      swap1\n      pop\n        /* \"#utility.yul\":2178:2506   */\n      swap3\n      pop\n      swap3\n      pop\n      swap3\n      jump\t// out\n        /* \"#utility.yul\":2511:2697   */\n    tag_57:\n        /* \"#utility.yul\":2570:2576   */\n      0x00\n        /* \"#utility.yul\":2623:2625   */\n      0x20\n        /* \"#utility.yul\":2611:2620   */\n      dup3\n        /* \"#utility.yul\":2602:2609   */\n      dup5\n        /* \"#utility.yul\":2598:2621   */\n      sub\n        /* \"#utility.yul\":2594:2626   */\n      slt\n        /* \"#utility.yul\":2591:2643   */\n      iszero\n      tag_260\n      jumpi\n        /* \"#utility.yul\":2639:2640   */\n      0x00\n        /* \"#utility.yul\":2636:2637   */\n      dup1\n        /* \"#utility.yul\":2629:2641   */\n      revert\n        /* \"#utility.yul\":2591:2643   */\n    tag_260:\n        /* \"#utility.yul\":2662:2691   */\n      tag_150\n        /* \"#utility.yul\":2681:2690   */\n      dup3\n        /* \"#utility.yul\":2662:2691   */\n      tag_229\n      jump\t// in\n        /* \"#utility.yul\":2884:3231   */\n    tag_66:\n        /* \"#utility.yul\":2949:2955   */\n      0x00\n        /* \"#utility.yul\":2957:2963   */\n      dup1\n        /* \"#utility.yul\":3010:3012   */\n      0x40\n        /* \"#utility.yul\":2998:3007   */\n      dup4\n        /* \"#utility.yul\":2989:2996   */\n      dup6\n        /* \"#utility.yul\":2985:3008   */\n      sub\n        /* \"#utility.yul\":2981:3013   */\n      slt\n        /* \"#utility.yul\":2978:3030   */\n      iszero\n      tag_264\n      jumpi\n        /* \"#utility.yul\":3026:3027   */\n      0x00\n        /* \"#utility.yul\":3023:3024   */\n      dup1\n        /* \"#utility.yul\":3016:3028   */\n      revert\n        /* \"#utility.yul\":2978:3030   */\n    tag_264:\n        /* \"#utility.yul\":3049:3078   */\n      tag_265\n        /* \"#utility.yul\":3068:3077   */\n      dup4\n        /* \"#utility.yul\":3049:3078   */\n      tag_229\n      jump\t// in\n    tag_265:\n        /* \"#utility.yul\":3039:3078   */\n      swap2\n      pop\n        /* \"#utility.yul\":3128:3130   */\n      0x20\n        /* \"#utility.yul\":3117:3126   */\n      dup4\n        /* \"#utility.yul\":3113:3131   */\n      add\n        /* \"#utility.yul\":3100:3132   */\n      calldataload\n        /* \"#utility.yul\":3175:3180   */\n      dup1\n        /* \"#utility.yul\":3168:3181   */\n      iszero\n        /* \"#utility.yul\":3161:3182   */\n      iszero\n        /* \"#utility.yul\":3154:3159   */\n      dup2\n        /* \"#utility.yul\":3151:3183   */\n      eq\n        /* \"#utility.yul\":3141:3201   */\n      tag_266\n      jumpi\n        /* \"#utility.yul\":3197:3198   */\n      0x00\n        /* \"#utility.yul\":3194:3195   */\n      dup1\n        /* \"#utility.yul\":3187:3199   */\n      revert\n        /* \"#utility.yul\":3141:3201   */\n    tag_266:\n        /* \"#utility.yul\":3220:3225   */\n      dup1\n        /* \"#utility.yul\":3210:3225   */\n      swap2\n      pop\n      pop\n        /* \"#utility.yul\":2884:3231   */\n      swap3\n      pop\n      swap3\n      swap1\n      pop\n      jump\t// out\n        /* \"#utility.yul\":3236:3363   */\n    tag_195:\n        /* \"#utility.yul\":3297:3307   */\n      0x4e487b71\n        /* \"#utility.yul\":3292:3295   */\n      0xe0\n        /* \"#utility.yul\":3288:3308   */\n      shl\n        /* \"#utility.yul\":3285:3286   */\n      0x00\n        /* \"#utility.yul\":3278:3309   */\n      mstore\n        /* \"#utility.yul\":3328:3332   */\n      0x41\n        /* \"#utility.yul\":3325:3326   */\n      0x04\n        /* \"#utility.yul\":3318:3333   */\n      mstore\n        /* \"#utility.yul\":3352:3356   */\n      0x24\n        /* \"#utility.yul\":3349:3350   */\n      0x00\n        /* \"#utility.yul\":3342:3357   */\n      revert\n        /* \"#utility.yul\":3368:4506   */\n    tag_70:\n        /* \"#utility.yul\":3463:3469   */\n      0x00\n        /* \"#utility.yul\":3471:3477   */\n      dup1\n        /* \"#utility.yul\":3479:3485   */\n      0x00\n        /* \"#utility.yul\":3487:3493   */\n      dup1\n        /* \"#utility.yul\":3540:3543   */\n      0x80\n        /* \"#utility.yul\":3528:3537   */\n      dup6\n        /* \"#utility.yul\":3519:3526   */\n      dup8\n        /* \"#utility.yul\":3515:3538   */\n      sub\n        /* \"#utility.yul\":3511:3544   */\n      slt\n        /* \"#utility.yul\":3508:3561   */\n      iszero\n      tag_269\n      jumpi\n        /* \"#utility.yul\":3557:3558   */\n      0x00\n        /* \"#utility.yul\":3554:3555   */\n      dup1\n        /* \"#utility.yul\":3547:3559   */\n      revert\n        /* \"#utility.yul\":3508:3561   */\n    tag_269:\n        /* \"#utility.yul\":3580:3609   */\n      tag_270\n        /* \"#utility.yul\":3599:3608   */\n      dup6\n        /* \"#utility.yul\":3580:3609   */\n      tag_229\n      jump\t// in\n    tag_270:\n        /* \"#utility.yul\":3570:3609   */\n      swap4\n      pop\n        /* \"#utility.yul\":3628:3666   */\n      tag_271\n        /* \"#utility.yul\":3662:3664   */\n      0x20\n        /* \"#utility.yul\":3651:3660   */\n      dup7\n        /* \"#utility.yul\":3647:3665   */\n      add\n        /* \"#utility.yul\":3628:3666   */\n      tag_229\n      jump\t// in\n    tag_271:\n        /* \"#utility.yul\":3618:3666   */\n      swap3\n      pop\n        /* \"#utility.yul\":3713:3715   */\n      0x40\n        /* \"#utility.yul\":3702:3711   */\n      dup6\n        /* \"#utility.yul\":3698:3716   */\n      add\n        /* \"#utility.yul\":3685:3717   */\n      calldataload\n        /* \"#utility.yul\":3675:3717   */\n      swap2\n      pop\n        /* \"#utility.yul\":3768:3770   */\n      0x60\n        /* \"#utility.yul\":3757:3766   */\n      dup6\n        /* \"#utility.yul\":3753:3771   */\n      add\n        /* \"#utility.yul\":3740:3772   */\n      calldataload\n        /* \"#utility.yul\":3791:3809   */\n      0xffffffffffffffff\n        /* \"#utility.yul\":3832:3834   */\n      dup1\n        /* \"#utility.yul\":3824:3830   */\n      dup3\n        /* \"#utility.yul\":3821:3835   */\n      gt\n        /* \"#utility.yul\":3818:3852   */\n      iszero\n      tag_272\n      jumpi\n        /* \"#utility.yul\":3848:3849   */\n      0x00\n        /* \"#utility.yul\":3845:3846   */\n      dup1\n        /* \"#utility.yul\":3838:3850   */\n      revert\n        /* \"#utility.yul\":3818:3852   */\n    tag_272:\n        /* \"#utility.yul\":3886:3892   */\n      dup2\n        /* \"#utility.yul\":3875:3884   */\n      dup8\n        /* \"#utility.yul\":3871:3893   */\n      add\n        /* \"#utility.yul\":3861:3893   */\n      swap2\n      pop\n        /* \"#utility.yul\":3931:3938   */\n      dup8\n        /* \"#utility.yul\":3924:3928   */\n      0x1f\n        /* \"#utility.yul\":3920:3922   */\n      dup4\n        /* \"#utility.yul\":3916:3929   */\n      add\n        /* \"#utility.yul\":3912:3939   */\n      slt\n        /* \"#utility.yul\":3902:3957   */\n      tag_273\n      jumpi\n        /* \"#utility.yul\":3953:3954   */\n      0x00\n        /* \"#utility.yul\":3950:3951   */\n      dup1\n        /* \"#utility.yul\":3943:3955   */\n      revert\n        /* \"#utility.yul\":3902:3957   */\n    tag_273:\n        /* \"#utility.yul\":3989:3991   */\n      dup2\n        /* \"#utility.yul\":3976:3992   */\n      calldataload\n        /* \"#utility.yul\":4011:4013   */\n      dup2\n        /* \"#utility.yul\":4007:4009   */\n      dup2\n        /* \"#utility.yul\":4004:4014   */\n      gt\n        /* \"#utility.yul\":4001:4037   */\n      iszero\n      tag_275\n      jumpi\n        /* \"#utility.yul\":4017:4035   */\n      tag_275\n      tag_195\n      jump\t// in\n    tag_275:\n        /* \"#utility.yul\":4092:4094   */\n      0x40\n        /* \"#utility.yul\":4086:4095   */\n      mload\n        /* \"#utility.yul\":4060:4062   */\n      0x1f\n        /* \"#utility.yul\":4146:4159   */\n      dup3\n      add\n      not(0x1f)\n        /* \"#utility.yul\":4142:4164   */\n      swap1\n      dup2\n      and\n        /* \"#utility.yul\":4166:4168   */\n      0x3f\n        /* \"#utility.yul\":4138:4169   */\n      add\n        /* \"#utility.yul\":4134:4174   */\n      and\n        /* \"#utility.yul\":4122:4175   */\n      dup2\n      add\n      swap1\n        /* \"#utility.yul\":4190:4208   */\n      dup4\n      dup3\n      gt\n        /* \"#utility.yul\":4210:4232   */\n      dup2\n      dup4\n      lt\n        /* \"#utility.yul\":4187:4233   */\n      or\n        /* \"#utility.yul\":4184:4256   */\n      iszero\n      tag_277\n      jumpi\n        /* \"#utility.yul\":4236:4254   */\n      tag_277\n      tag_195\n      jump\t// in\n    tag_277:\n        /* \"#utility.yul\":4276:4286   */\n      dup2\n        /* \"#utility.yul\":4272:4274   */\n      0x40\n        /* \"#utility.yul\":4265:4287   */\n      mstore\n        /* \"#utility.yul\":4311:4313   */\n      dup3\n        /* \"#utility.yul\":4303:4309   */\n      dup2\n        /* \"#utility.yul\":4296:4314   */\n      mstore\n        /* \"#utility.yul\":4351:4358   */\n      dup11\n        /* \"#utility.yul\":4346:4348   */\n      0x20\n        /* \"#utility.yul\":4341:4343   */\n      dup5\n        /* \"#utility.yul\":4337:4339   */\n      dup8\n        /* \"#utility.yul\":4333:4344   */\n      add\n        /* \"#utility.yul\":4329:4349   */\n      add\n        /* \"#utility.yul\":4326:4359   */\n      gt\n        /* \"#utility.yul\":4323:4376   */\n      iszero\n      tag_278\n      jumpi\n        /* \"#utility.yul\":4372:4373   */\n      0x00\n        /* \"#utility.yul\":4369:4370   */\n      dup1\n        /* \"#utility.yul\":4362:4374   */\n      revert\n        /* \"#utility.yul\":4323:4376   */\n    tag_278:\n        /* \"#utility.yul\":4428:4430   */\n      dup3\n        /* \"#utility.yul\":4423:4425   */\n      0x20\n        /* \"#utility.yul\":4419:4421   */\n      dup7\n        /* \"#utility.yul\":4415:4426   */\n      add\n        /* \"#utility.yul\":4410:4412   */\n      0x20\n        /* \"#utility.yul\":4402:4408   */\n      dup4\n        /* \"#utility.yul\":4398:4413   */\n      add\n        /* \"#utility.yul\":4385:4431   */\n      calldatacopy\n        /* \"#utility.yul\":4473:4474   */\n      0x00\n        /* \"#utility.yul\":4468:4470   */\n      0x20\n        /* \"#utility.yul\":4463:4465   */\n      dup5\n        /* \"#utility.yul\":4455:4461   */\n      dup4\n        /* \"#utility.yul\":4451:4466   */\n      add\n        /* \"#utility.yul\":4447:4471   */\n      add\n        /* \"#utility.yul\":4440:4475   */\n      mstore\n        /* \"#utility.yul\":4494:4500   */\n      dup1\n        /* \"#utility.yul\":4484:4500   */\n      swap6\n      pop\n      pop\n      pop\n      pop\n      pop\n      pop\n        /* \"#utility.yul\":3368:4506   */\n      swap3\n      swap6\n      swap2\n      swap5\n      pop\n      swap3\n      pop\n      jump\t// out\n        /* \"#utility.yul\":4511:4771   */\n    tag_81:\n        /* \"#utility.yul\":4579:4585   */\n      0x00\n        /* \"#utility.yul\":4587:4593   */\n      dup1\n        /* \"#utility.yul\":4640:4642   */\n      0x40\n        /* \"#utility.yul\":4628:4637   */\n      dup4\n        /* \"#utility.yul\":4619:4626   */\n      dup6\n        /* \"#utility.yul\":4615:4638   */\n      sub\n        /* \"#utility.yul\":4611:4643   */\n      slt\n        /* \"#utility.yul\":4608:4660   */\n      iszero\n      tag_280\n      jumpi\n        /* \"#utility.yul\":4656:4657   */\n      0x00\n        /* \"#utility.yul\":4653:4654   */\n      dup1\n        /* \"#utility.yul\":4646:4658   */\n      revert\n        /* \"#utility.yul\":4608:4660   */\n    tag_280:\n        /* \"#utility.yul\":4679:4708   */\n      tag_281\n        /* \"#utility.yul\":4698:4707   */\n      dup4\n        /* \"#utility.yul\":4679:4708   */\n      tag_229\n      jump\t// in\n    tag_281:\n        /* \"#utility.yul\":4669:4708   */\n      swap2\n      pop\n        /* \"#utility.yul\":4727:4765   */\n      tag_282\n        /* \"#utility.yul\":4761:4763   */\n      0x20\n        /* \"#utility.yul\":4750:4759   */\n      dup5\n        /* \"#utility.yul\":4746:4764   */\n      add\n        /* \"#utility.yul\":4727:4765   */\n      tag_229\n      jump\t// in\n    tag_282:\n        /* \"#utility.yul\":4717:4765   */\n      swap1\n      pop\n        /* \"#utility.yul\":4511:4771   */\n      swap3\n      pop\n      swap3\n      swap1\n      pop\n      jump\t// out\n        /* \"#utility.yul\":4776:5156   */\n    tag_88:\n        /* \"#utility.yul\":4855:4856   */\n      0x01\n        /* \"#utility.yul\":4851:4863   */\n      dup2\n      dup2\n      shr\n      swap1\n        /* \"#utility.yul\":4898:4910   */\n      dup3\n      and\n      dup1\n        /* \"#utility.yul\":4919:4980   */\n      tag_284\n      jumpi\n        /* \"#utility.yul\":4973:4977   */\n      0x7f\n        /* \"#utility.yul\":4965:4971   */\n      dup3\n        /* \"#utility.yul\":4961:4978   */\n      and\n        /* \"#utility.yul\":4951:4978   */\n      swap2\n      pop\n        /* \"#utility.yul\":4919:4980   */\n    tag_284:\n        /* \"#utility.yul\":5026:5028   */\n      0x20\n        /* \"#utility.yul\":5018:5024   */\n      dup3\n        /* \"#utility.yul\":5015:5029   */\n      lt\n        /* \"#utility.yul\":4995:5013   */\n      dup2\n        /* \"#utility.yul\":4992:5030   */\n      sub\n        /* \"#utility.yul\":4989:5150   */\n      tag_285\n      jumpi\n        /* \"#utility.yul\":5072:5082   */\n      0x4e487b71\n        /* \"#utility.yul\":5067:5070   */\n      0xe0\n        /* \"#utility.yul\":5063:5083   */\n      shl\n        /* \"#utility.yul\":5060:5061   */\n      0x00\n        /* \"#utility.yul\":5053:5084   */\n      mstore\n        /* \"#utility.yul\":5107:5111   */\n      0x22\n        /* \"#utility.yul\":5104:5105   */\n      0x04\n        /* \"#utility.yul\":5097:5112   */\n      mstore\n        /* \"#utility.yul\":5135:5139   */\n      0x24\n        /* \"#utility.yul\":5132:5133   */\n      0x00\n        /* \"#utility.yul\":5125:5140   */\n      revert\n        /* \"#utility.yul\":4989:5150   */\n    tag_285:\n      pop\n        /* \"#utility.yul\":4776:5156   */\n      swap2\n      swap1\n      pop\n      jump\t// out\n        /* \"#utility.yul\":7261:7757   */\n    tag_154:\n        /* \"#utility.yul\":7440:7443   */\n      0x00\n        /* \"#utility.yul\":7478:7484   */\n      dup4\n        /* \"#utility.yul\":7472:7485   */\n      mload\n        /* \"#utility.yul\":7494:7560   */\n      tag_293\n        /* \"#utility.yul\":7553:7559   */\n      dup2\n        /* \"#utility.yul\":7548:7551   */\n      dup5\n        /* \"#utility.yul\":7541:7545   */\n      0x20\n        /* \"#utility.yul\":7533:7539   */\n      dup9\n        /* \"#utility.yul\":7529:7546   */\n      add\n        /* \"#utility.yul\":7494:7560   */\n      tag_227\n      jump\t// in\n    tag_293:\n        /* \"#utility.yul\":7623:7636   */\n      dup4\n      mload\n        /* \"#utility.yul\":7582:7598   */\n      swap1\n      dup4\n      add\n      swap1\n        /* \"#utility.yul\":7645:7715   */\n      tag_294\n        /* \"#utility.yul\":7623:7636   */\n      dup2\n        /* \"#utility.yul\":7582:7598   */\n      dup4\n        /* \"#utility.yul\":7692:7696   */\n      0x20\n        /* \"#utility.yul\":7680:7697   */\n      dup9\n      add\n        /* \"#utility.yul\":7645:7715   */\n      tag_227\n      jump\t// in\n    tag_294:\n        /* \"#utility.yul\":7731:7751   */\n      add\n      swap5\n        /* \"#utility.yul\":7261:7757   */\n      swap4\n      pop\n      pop\n      pop\n      pop\n      jump\t// out\n        /* \"#utility.yul\":8456:8583   */\n    tag_230:\n        /* \"#utility.yul\":8517:8527   */\n      0x4e487b71\n        /* \"#utility.yul\":8512:8515   */\n      0xe0\n        /* \"#utility.yul\":8508:8528   */\n      shl\n        /* \"#utility.yul\":8505:8506   */\n      0x00\n        /* \"#utility.yul\":8498:8529   */\n      mstore\n        /* \"#utility.yul\":8548:8552   */\n      0x11\n        /* \"#utility.yul\":8545:8546   */\n      0x04\n        /* \"#utility.yul\":8538:8553   */\n      mstore\n        /* \"#utility.yul\":8572:8576   */\n      0x24\n        /* \"#utility.yul\":8569:8570   */\n      0x00\n        /* \"#utility.yul\":8562:8577   */\n      revert\n        /* \"#utility.yul\":8588:8716   */\n    tag_169:\n        /* \"#utility.yul\":8655:8664   */\n      dup2\n      dup2\n      sub\n        /* \"#utility.yul\":8676:8687   */\n      dup2\n      dup2\n      gt\n        /* \"#utility.yul\":8673:8710   */\n      iszero\n      tag_86\n      jumpi\n        /* \"#utility.yul\":8690:8708   */\n      tag_86\n      tag_230\n      jump\t// in\n        /* \"#utility.yul\":8721:8846   */\n    tag_171:\n        /* \"#utility.yul\":8786:8795   */\n      dup1\n      dup3\n      add\n        /* \"#utility.yul\":8807:8817   */\n      dup1\n      dup3\n      gt\n        /* \"#utility.yul\":8804:8840   */\n      iszero\n      tag_86\n      jumpi\n        /* \"#utility.yul\":8820:8838   */\n      tag_86\n      tag_230\n      jump\t// in\n        /* \"#utility.yul\":9549:9684   */\n    tag_190:\n        /* \"#utility.yul\":9588:9591   */\n      0x00\n        /* \"#utility.yul\":9609:9626   */\n      0x01\n      dup3\n      add\n        /* \"#utility.yul\":9606:9649   */\n      tag_308\n      jumpi\n        /* \"#utility.yul\":9629:9647   */\n      tag_308\n      tag_230\n      jump\t// in\n    tag_308:\n      pop\n        /* \"#utility.yul\":9676:9677   */\n      0x01\n        /* \"#utility.yul\":9665:9678   */\n      add\n      swap1\n        /* \"#utility.yul\":9549:9684   */\n      jump\t// out\n        /* \"#utility.yul\":9689:9816   */\n    tag_231:\n        /* \"#utility.yul\":9750:9760   */\n      0x4e487b71\n        /* \"#utility.yul\":9745:9748   */\n      0xe0\n        /* \"#utility.yul\":9741:9761   */\n      shl\n        /* \"#utility.yul\":9738:9739   */\n      0x00\n        /* \"#utility.yul\":9731:9762   */\n      mstore\n        /* \"#utility.yul\":9781:9785   */\n      0x12\n        /* \"#utility.yul\":9778:9779   */\n      0x04\n        /* \"#utility.yul\":9771:9786   */\n      mstore\n        /* \"#utility.yul\":9805:9809   */\n      0x24\n        /* \"#utility.yul\":9802:9803   */\n      0x00\n        /* \"#utility.yul\":9795:9810   */\n      revert\n        /* \"#utility.yul\":9821:9941   */\n    tag_192:\n        /* \"#utility.yul\":9861:9862   */\n      0x00\n        /* \"#utility.yul\":9887:9888   */\n      dup3\n        /* \"#utility.yul\":9877:9912   */\n      tag_312\n      jumpi\n        /* \"#utility.yul\":9892:9910   */\n      tag_312\n      tag_231\n      jump\t// in\n    tag_312:\n      pop\n        /* \"#utility.yul\":9926:9935   */\n      div\n      swap1\n        /* \"#utility.yul\":9821:9941   */\n      jump\t// out\n        /* \"#utility.yul\":9946:10058   */\n    tag_201:\n        /* \"#utility.yul\":9978:9979   */\n      0x00\n        /* \"#utility.yul\":10004:10005   */\n      dup3\n        /* \"#utility.yul\":9994:10029   */\n      tag_315\n      jumpi\n        /* \"#utility.yul\":10009:10027   */\n      tag_315\n      tag_231\n      jump\t// in\n    tag_315:\n      pop\n        /* \"#utility.yul\":10043:10052   */\n      mod\n      swap1\n        /* \"#utility.yul\":9946:10058   */\n      jump\t// out\n        /* \"#utility.yul\":10063:10190   */\n    tag_205:\n        /* \"#utility.yul\":10124:10134   */\n      0x4e487b71\n        /* \"#utility.yul\":10119:10122   */\n      0xe0\n        /* \"#utility.yul\":10115:10135   */\n      shl\n        /* \"#utility.yul\":10112:10113   */\n      0x00\n        /* \"#utility.yul\":10105:10136   */\n      mstore\n        /* \"#utility.yul\":10155:10159   */\n      0x32\n        /* \"#utility.yul\":10152:10153   */\n      0x04\n        /* \"#utility.yul\":10145:10160   */\n      mstore\n        /* \"#utility.yul\":10179:10183   */\n      0x24\n        /* \"#utility.yul\":10176:10177   */\n      0x00\n        /* \"#utility.yul\":10169:10184   */\n      revert\n        /* \"#utility.yul\":10195:10684   */\n    tag_210:\n      sub(shl(0xa0, 0x01), 0x01)\n        /* \"#utility.yul\":10464:10479   */\n      dup6\n      dup2\n      and\n        /* \"#utility.yul\":10446:10480   */\n      dup3\n      mstore\n        /* \"#utility.yul\":10516:10531   */\n      dup5\n      and\n        /* \"#utility.yul\":10511:10513   */\n      0x20\n        /* \"#utility.yul\":10496:10514   */\n      dup3\n      add\n        /* \"#utility.yul\":10489:10532   */\n      mstore\n        /* \"#utility.yul\":10563:10565   */\n      0x40\n        /* \"#utility.yul\":10548:10566   */\n      dup2\n      add\n        /* \"#utility.yul\":10541:10575   */\n      dup4\n      swap1\n      mstore\n        /* \"#utility.yul\":10611:10614   */\n      0x80\n        /* \"#utility.yul\":10606:10608   */\n      0x60\n        /* \"#utility.yul\":10591:10609   */\n      dup3\n      add\n        /* \"#utility.yul\":10584:10615   */\n      dup2\n      swap1\n      mstore\n        /* \"#utility.yul\":10389:10393   */\n      0x00\n      swap1\n        /* \"#utility.yul\":10632:10678   */\n      tag_318\n      swap1\n        /* \"#utility.yul\":10658:10677   */\n      dup4\n      add\n        /* \"#utility.yul\":10650:10656   */\n      dup5\n        /* \"#utility.yul\":10632:10678   */\n      tag_228\n      jump\t// in\n    tag_318:\n        /* \"#utility.yul\":10624:10678   */\n      swap7\n        /* \"#utility.yul\":10195:10684   */\n      swap6\n      pop\n      pop\n      pop\n      pop\n      pop\n      pop\n      jump\t// out\n        /* \"#utility.yul\":10689:10938   */\n    tag_213:\n        /* \"#utility.yul\":10758:10764   */\n      0x00\n        /* \"#utility.yul\":10811:10813   */\n      0x20\n        /* \"#utility.yul\":10799:10808   */\n      dup3\n        /* \"#utility.yul\":10790:10797   */\n      dup5\n        /* \"#utility.yul\":10786:10809   */\n      sub\n        /* \"#utility.yul\":10782:10814   */\n      slt\n        /* \"#utility.yul\":10779:10831   */\n      iszero\n      tag_320\n      jumpi\n        /* \"#utility.yul\":10827:10828   */\n      0x00\n        /* \"#utility.yul\":10824:10825   */\n      dup1\n        /* \"#utility.yul\":10817:10829   */\n      revert\n        /* \"#utility.yul\":10779:10831   */\n    tag_320:\n        /* \"#utility.yul\":10859:10868   */\n      dup2\n        /* \"#utility.yul\":10853:10869   */\n      mload\n        /* \"#utility.yul\":10878:10908   */\n      tag_150\n        /* \"#utility.yul\":10902:10907   */\n      dup2\n        /* \"#utility.yul\":10878:10908   */\n      tag_226\n      jump\t// in\n    stop\n    data_8382b382247cd07401a2ef2f394137c3f3b0972798bae0a9c78b0c261acbb56b 697066733a2f2f516d65536a53696e4870506e6d586d73704d6a776958794e367a533445397a63636172694752336a7863615774712f\n\n    auxdata: 0xa2646970667358221220d9bcd85a07f539ed4ad343f27713f85640638e3feb313cf34cfba339dbe2398664736f6c63430008180033\n}\n",
				"bytecode": {
					"linkReferences": {},
					"object": "608060405261271060065534801562000016575f80fd5b506040516200148c3803806200148c833981016040819052620000399162000123565b81815f62000048838262000213565b50600162000057828262000213565b5050505050620002df565b634e487b7160e01b5f52604160045260245ffd5b5f82601f83011262000086575f80fd5b81516001600160401b0380821115620000a357620000a362000062565b604051601f8301601f19908116603f01168101908282118183101715620000ce57620000ce62000062565b8160405283815260209250866020858801011115620000eb575f80fd5b5f91505b838210156200010e5785820183015181830184015290820190620000ef565b5f602085830101528094505050505092915050565b5f806040838503121562000135575f80fd5b82516001600160401b03808211156200014c575f80fd5b6200015a8683870162000076565b9350602085015191508082111562000170575f80fd5b506200017f8582860162000076565b9150509250929050565b600181811c908216806200019e57607f821691505b602082108103620001bd57634e487b7160e01b5f52602260045260245ffd5b50919050565b601f8211156200020e57805f5260205f20601f840160051c81016020851015620001ea5750805b601f840160051c820191505b818110156200020b575f8155600101620001f6565b50505b505050565b81516001600160401b038111156200022f576200022f62000062565b620002478162000240845462000189565b84620001c3565b602080601f8311600181146200027d575f8415620002655750858301515b5f19600386901b1c1916600185901b178555620002d7565b5f85815260208120601f198616915b82811015620002ad578886015182559484019460019091019084016200028c565b5085821015620002cb57878501515f19600388901b60f8161c191681555b505060018460011b0185555b505050505050565b61119f80620002ed5f395ff3fe608060405234801561000f575f80fd5b50600436106100f0575f3560e01c80636352211e11610093578063b88d4fde11610063578063b88d4fde146101f9578063bb8a16bd1461020c578063c87b56dd14610215578063e985e9c514610228575f80fd5b80636352211e146101aa57806370a08231146101bd57806395d89b41146101de578063a22cb465146101e6575f80fd5b8063095ea7b3116100ce578063095ea7b31461015c57806323b872dd1461017157806340c10f191461018457806342842e0e14610197575f80fd5b806301ffc9a7146100f457806306fdde031461011c578063081812fc14610131575b5f80fd5b610107610102366004610d62565b610263565b60405190151581526020015b60405180910390f35b6101246102b4565b6040516101139190610dca565b61014461013f366004610ddc565b61033f565b6040516001600160a01b039091168152602001610113565b61016f61016a366004610e09565b6103b8565b005b61016f61017f366004610e31565b61045b565b61016f610192366004610e09565b6104c9565b61016f6101a5366004610e31565b61051f565b6101446101b8366004610ddc565b610539565b6101d06101cb366004610e6a565b610598565b604051908152602001610113565b610124610601565b61016f6101f4366004610e83565b61060e565b61016f610207366004610ed0565b610679565b6101d060065481565b610124610223366004610ddc565b6106e9565b610107610236366004610fa5565b6001600160a01b039182165f90815260056020908152604080832093909416825291909152205460ff1690565b5f6001600160e01b031982166380ac58cd60e01b148061029357506001600160e01b031982166301ffc9a760e01b145b806102ae57506001600160e01b03198216635b5e139f60e01b145b92915050565b5f80546102c090610fd6565b80601f01602080910402602001604051908101604052809291908181526020018280546102ec90610fd6565b80156103375780601f1061030e57610100808354040283529160200191610337565b820191905f5260205f20905b81548152906001019060200180831161031a57829003601f168201915b505050505081565b5f818152600260205260408120546001600160a01b031661039d5760405162461bcd60e51b81526020600482015260136024820152721d1bdad95b88191bd95cdb89dd08195e1a5cdd606a1b60448201526064015b60405180910390fd5b505f908152600460205260409020546001600160a01b031690565b5f818152600260205260409020546001600160a01b0316338114806103ff57506001600160a01b0381165f90815260056020908152604080832033845290915290205460ff165b61044b5760405162461bcd60e51b815260206004820152601e60248201527f6e6f74206f776e6572206e6f7220617070726f76656420666f7220616c6c00006044820152606401610394565b61045681848461079a565b505050565b5f61046582610539565b90506104728133846107f5565b6104b75760405162461bcd60e51b81526020600482015260166024820152751b9bdd081bdddb995c881b9bdc88185c1c1c9bdd995960521b6044820152606401610394565b6104c381858585610865565b50505050565b60065481106105115760405162461bcd60e51b8152602060048201526014602482015273746f6b656e4964206f7574206f662072616e676560601b6044820152606401610394565b61051b82826109c9565b5050565b61045683838360405180602001604052805f815250610679565b5f818152600260205260409020546001600160a01b0316806105935760405162461bcd60e51b81526020600482015260136024820152721d1bdad95b88191bd95cdb89dd08195e1a5cdd606a1b6044820152606401610394565b919050565b5f6001600160a01b0382166105e65760405162461bcd60e51b81526020600482015260146024820152736f776e6572203d207a65726f206164647265737360601b6044820152606401610394565b506001600160a01b03165f9081526003602052604090205490565b600180546102c090610fd6565b335f8181526005602090815260408083206001600160a01b03871680855290835292819020805460ff191686151590811790915590519081529192917f17307eab39ab6107e8899845ad3d59bd9653f200f220920489ca2b5937696c31910160405180910390a35050565b5f61068383610539565b90506106908133856107f5565b6106d55760405162461bcd60e51b81526020600482015260166024820152751b9bdd081bdddb995c881b9bdc88185c1c1c9bdd995960521b6044820152606401610394565b6106e28186868686610af6565b5050505050565b5f818152600260205260409020546060906001600160a01b03166107415760405162461bcd60e51b815260206004820152600f60248201526e151bdad95b88139bdd08115e1a5cdd608a1b6044820152606401610394565b5f61074a610b0e565b90505f8151116107685760405180602001604052805f815250610793565b8061077284610b2e565b60405160200161078392919061100e565b6040516020818303038152906040525b9392505050565b5f8181526004602052604080822080546001600160a01b0319166001600160a01b0386811691821790925591518493918716917f8c5be1e5ebec7d5bd14f71427d1e84f3dd0314c0f7b2291e5b200ac8c7c3b92591a4505050565b5f836001600160a01b0316836001600160a01b0316148061082e57505f828152600460205260409020546001600160a01b038481169116145b8061085d57506001600160a01b038085165f9081526005602090815260408083209387168352929052205460ff165b949350505050565b836001600160a01b0316836001600160a01b0316146108b25760405162461bcd60e51b81526020600482015260096024820152683737ba1037bbb732b960b91b6044820152606401610394565b6001600160a01b0382166109085760405162461bcd60e51b815260206004820152601c60248201527f7472616e7366657220746f20746865207a65726f2061646472657373000000006044820152606401610394565b610913845f8361079a565b6001600160a01b0383165f90815260036020526040812080546001929061093b908490611050565b90915550506001600160a01b0382165f908152600360205260408120805460019290610968908490611063565b90915550505f8181526002602052604080822080546001600160a01b0319166001600160a01b0386811691821790925591518493918716917fddf252ad1be2c89b69c2b068fc378daa952ba7f163c4a11628f55a4df523b3ef91a450505050565b6001600160a01b038216610a165760405162461bcd60e51b81526020600482015260146024820152736d696e7420746f207a65726f206164647265737360601b6044820152606401610394565b5f818152600260205260409020546001600160a01b031615610a715760405162461bcd60e51b81526020600482015260146024820152731d1bdad95b88185b1c9958591e481b5a5b9d195960621b6044820152606401610394565b6001600160a01b0382165f908152600360205260408120805460019290610a99908490611063565b90915550505f8181526002602052604080822080546001600160a01b0319166001600160a01b03861690811790915590518392907fddf252ad1be2c89b69c2b068fc378daa952ba7f163c4a11628f55a4df523b3ef908290a45050565b610b0285858585610865565b6106e284848484610c2b565b606060405180606001604052806036815260200161113460369139905090565b6060815f03610b545750506040805180820190915260018152600360fc1b602082015290565b815f5b8115610b7d5780610b6781611076565b9150610b769050600a836110a2565b9150610b57565b5f8167ffffffffffffffff811115610b9757610b97610ebc565b6040519080825280601f01601f191660200182016040528015610bc1576020820181803683370190505b5090505b841561085d57610bd6600183611050565b9150610be3600a866110b5565b610bee906030611063565b60f81b818381518110610c0357610c036110c8565b60200101906001600160f81b03191690815f1a905350610c24600a866110a2565b9450610bc5565b6001600160a01b0383163b156104c357604051630a85bd0160e11b81526001600160a01b0384169063150b7a0290610c6d9033908890879087906004016110dc565b6020604051808303815f875af1925050508015610ca7575060408051601f3d908101601f19168201909252610ca491810190611118565b60015b610d0e573d808015610cd4576040519150601f19603f3d011682016040523d82523d5f602084013e610cd9565b606091505b5080515f03610d0657604051633250574960e11b81526001600160a01b0385166004820152602401610394565b805181602001fd5b6001600160e01b03198116630a85bd0160e11b146106e257604051633250574960e11b81526001600160a01b0385166004820152602401610394565b6001600160e01b031981168114610d5f575f80fd5b50565b5f60208284031215610d72575f80fd5b813561079381610d4a565b5f5b83811015610d97578181015183820152602001610d7f565b50505f910152565b5f8151808452610db6816020860160208601610d7d565b601f01601f19169290920160200192915050565b602081525f6107936020830184610d9f565b5f60208284031215610dec575f80fd5b5035919050565b80356001600160a01b0381168114610593575f80fd5b5f8060408385031215610e1a575f80fd5b610e2383610df3565b946020939093013593505050565b5f805f60608486031215610e43575f80fd5b610e4c84610df3565b9250610e5a60208501610df3565b9150604084013590509250925092565b5f60208284031215610e7a575f80fd5b61079382610df3565b5f8060408385031215610e94575f80fd5b610e9d83610df3565b915060208301358015158114610eb1575f80fd5b809150509250929050565b634e487b7160e01b5f52604160045260245ffd5b5f805f8060808587031215610ee3575f80fd5b610eec85610df3565b9350610efa60208601610df3565b925060408501359150606085013567ffffffffffffffff80821115610f1d575f80fd5b818701915087601f830112610f30575f80fd5b813581811115610f4257610f42610ebc565b604051601f8201601f19908116603f01168101908382118183101715610f6a57610f6a610ebc565b816040528281528a6020848701011115610f82575f80fd5b826020860160208301375f60208483010152809550505050505092959194509250565b5f8060408385031215610fb6575f80fd5b610fbf83610df3565b9150610fcd60208401610df3565b90509250929050565b600181811c90821680610fea57607f821691505b60208210810361100857634e487b7160e01b5f52602260045260245ffd5b50919050565b5f835161101f818460208801610d7d565b835190830190611033818360208801610d7d565b01949350505050565b634e487b7160e01b5f52601160045260245ffd5b818103818111156102ae576102ae61103c565b808201808211156102ae576102ae61103c565b5f600182016110875761108761103c565b5060010190565b634e487b7160e01b5f52601260045260245ffd5b5f826110b0576110b061108e565b500490565b5f826110c3576110c361108e565b500690565b634e487b7160e01b5f52603260045260245ffd5b6001600160a01b03858116825284166020820152604081018390526080606082018190525f9061110e90830184610d9f565b9695505050505050565b5f60208284031215611128575f80fd5b815161079381610d4a56fe697066733a2f2f516d65536a53696e4870506e6d586d73704d6a776958794e367a533445397a63636172694752336a7863615774712fa2646970667358221220d9bcd85a07f539ed4ad343f27713f85640638e3feb313cf34cfba339dbe2398664736f6c63430008180033",
					"opcodes": "PUSH1 0x80 PUSH1 0x40 MSTORE PUSH2 0x2710 PUSH1 0x6 SSTORE CALLVALUE DUP1 ISZERO PUSH3 0x16 JUMPI PUSH0 DUP1 REVERT JUMPDEST POP PUSH1 0x40 MLOAD PUSH3 0x148C CODESIZE SUB DUP1 PUSH3 0x148C DUP4 CODECOPY DUP2 ADD PUSH1 0x40 DUP2 SWAP1 MSTORE PUSH3 0x39 SWAP2 PUSH3 0x123 JUMP JUMPDEST DUP2 DUP2 PUSH0 PUSH3 0x48 DUP4 DUP3 PUSH3 0x213 JUMP JUMPDEST POP PUSH1 0x1 PUSH3 0x57 DUP3 DUP3 PUSH3 0x213 JUMP JUMPDEST POP POP POP POP POP PUSH3 0x2DF JUMP JUMPDEST PUSH4 0x4E487B71 PUSH1 0xE0 SHL PUSH0 MSTORE PUSH1 0x41 PUSH1 0x4 MSTORE PUSH1 0x24 PUSH0 REVERT JUMPDEST PUSH0 DUP3 PUSH1 0x1F DUP4 ADD SLT PUSH3 0x86 JUMPI PUSH0 DUP1 REVERT JUMPDEST DUP2 MLOAD PUSH1 0x1 PUSH1 0x1 PUSH1 0x40 SHL SUB DUP1 DUP3 GT ISZERO PUSH3 0xA3 JUMPI PUSH3 0xA3 PUSH3 0x62 JUMP JUMPDEST PUSH1 0x40 MLOAD PUSH1 0x1F DUP4 ADD PUSH1 0x1F NOT SWAP1 DUP2 AND PUSH1 0x3F ADD AND DUP2 ADD SWAP1 DUP3 DUP3 GT DUP2 DUP4 LT OR ISZERO PUSH3 0xCE JUMPI PUSH3 0xCE PUSH3 0x62 JUMP JUMPDEST DUP2 PUSH1 0x40 MSTORE DUP4 DUP2 MSTORE PUSH1 0x20 SWAP3 POP DUP7 PUSH1 0x20 DUP6 DUP9 ADD ADD GT ISZERO PUSH3 0xEB JUMPI PUSH0 DUP1 REVERT JUMPDEST PUSH0 SWAP2 POP JUMPDEST DUP4 DUP3 LT ISZERO PUSH3 0x10E JUMPI DUP6 DUP3 ADD DUP4 ADD MLOAD DUP2 DUP4 ADD DUP5 ADD MSTORE SWAP1 DUP3 ADD SWAP1 PUSH3 0xEF JUMP JUMPDEST PUSH0 PUSH1 0x20 DUP6 DUP4 ADD ADD MSTORE DUP1 SWAP5 POP POP POP POP POP SWAP3 SWAP2 POP POP JUMP JUMPDEST PUSH0 DUP1 PUSH1 0x40 DUP4 DUP6 SUB SLT ISZERO PUSH3 0x135 JUMPI PUSH0 DUP1 REVERT JUMPDEST DUP3 MLOAD PUSH1 0x1 PUSH1 0x1 PUSH1 0x40 SHL SUB DUP1 DUP3 GT ISZERO PUSH3 0x14C JUMPI PUSH0 DUP1 REVERT JUMPDEST PUSH3 0x15A DUP7 DUP4 DUP8 ADD PUSH3 0x76 JUMP JUMPDEST SWAP4 POP PUSH1 0x20 DUP6 ADD MLOAD SWAP2 POP DUP1 DUP3 GT ISZERO PUSH3 0x170 JUMPI PUSH0 DUP1 REVERT JUMPDEST POP PUSH3 0x17F DUP6 DUP3 DUP7 ADD PUSH3 0x76 JUMP JUMPDEST SWAP2 POP POP SWAP3 POP SWAP3 SWAP1 POP JUMP JUMPDEST PUSH1 0x1 DUP2 DUP2 SHR SWAP1 DUP3 AND DUP1 PUSH3 0x19E JUMPI PUSH1 0x7F DUP3 AND SWAP2 POP JUMPDEST PUSH1 0x20 DUP3 LT DUP2 SUB PUSH3 0x1BD JUMPI PUSH4 0x4E487B71 PUSH1 0xE0 SHL PUSH0 MSTORE PUSH1 0x22 PUSH1 0x4 MSTORE PUSH1 0x24 PUSH0 REVERT JUMPDEST POP SWAP2 SWAP1 POP JUMP JUMPDEST PUSH1 0x1F DUP3 GT ISZERO PUSH3 0x20E JUMPI DUP1 PUSH0 MSTORE PUSH1 0x20 PUSH0 KECCAK256 PUSH1 0x1F DUP5 ADD PUSH1 0x5 SHR DUP2 ADD PUSH1 0x20 DUP6 LT ISZERO PUSH3 0x1EA JUMPI POP DUP1 JUMPDEST PUSH1 0x1F DUP5 ADD PUSH1 0x5 SHR DUP3 ADD SWAP2 POP JUMPDEST DUP2 DUP2 LT ISZERO PUSH3 0x20B JUMPI PUSH0 DUP2 SSTORE PUSH1 0x1 ADD PUSH3 0x1F6 JUMP JUMPDEST POP POP JUMPDEST POP POP POP JUMP JUMPDEST DUP2 MLOAD PUSH1 0x1 PUSH1 0x1 PUSH1 0x40 SHL SUB DUP2 GT ISZERO PUSH3 0x22F JUMPI PUSH3 0x22F PUSH3 0x62 JUMP JUMPDEST PUSH3 0x247 DUP2 PUSH3 0x240 DUP5 SLOAD PUSH3 0x189 JUMP JUMPDEST DUP5 PUSH3 0x1C3 JUMP JUMPDEST PUSH1 0x20 DUP1 PUSH1 0x1F DUP4 GT PUSH1 0x1 DUP2 EQ PUSH3 0x27D JUMPI PUSH0 DUP5 ISZERO PUSH3 0x265 JUMPI POP DUP6 DUP4 ADD MLOAD JUMPDEST PUSH0 NOT PUSH1 0x3 DUP7 SWAP1 SHL SHR NOT AND PUSH1 0x1 DUP6 SWAP1 SHL OR DUP6 SSTORE PUSH3 0x2D7 JUMP JUMPDEST PUSH0 DUP6 DUP2 MSTORE PUSH1 0x20 DUP2 KECCAK256 PUSH1 0x1F NOT DUP7 AND SWAP2 JUMPDEST DUP3 DUP2 LT ISZERO PUSH3 0x2AD JUMPI DUP9 DUP7 ADD MLOAD DUP3 SSTORE SWAP5 DUP5 ADD SWAP5 PUSH1 0x1 SWAP1 SWAP2 ADD SWAP1 DUP5 ADD PUSH3 0x28C JUMP JUMPDEST POP DUP6 DUP3 LT ISZERO PUSH3 0x2CB JUMPI DUP8 DUP6 ADD MLOAD PUSH0 NOT PUSH1 0x3 DUP9 SWAP1 SHL PUSH1 0xF8 AND SHR NOT AND DUP2 SSTORE JUMPDEST POP POP PUSH1 0x1 DUP5 PUSH1 0x1 SHL ADD DUP6 SSTORE JUMPDEST POP POP POP POP POP POP JUMP JUMPDEST PUSH2 0x119F DUP1 PUSH3 0x2ED PUSH0 CODECOPY PUSH0 RETURN INVALID PUSH1 0x80 PUSH1 0x40 MSTORE CALLVALUE DUP1 ISZERO PUSH2 0xF JUMPI PUSH0 DUP1 REVERT JUMPDEST POP PUSH1 0x4 CALLDATASIZE LT PUSH2 0xF0 JUMPI PUSH0 CALLDATALOAD PUSH1 0xE0 SHR DUP1 PUSH4 0x6352211E GT PUSH2 0x93 JUMPI DUP1 PUSH4 0xB88D4FDE GT PUSH2 0x63 JUMPI DUP1 PUSH4 0xB88D4FDE EQ PUSH2 0x1F9 JUMPI DUP1 PUSH4 0xBB8A16BD EQ PUSH2 0x20C JUMPI DUP1 PUSH4 0xC87B56DD EQ PUSH2 0x215 JUMPI DUP1 PUSH4 0xE985E9C5 EQ PUSH2 0x228 JUMPI PUSH0 DUP1 REVERT JUMPDEST DUP1 PUSH4 0x6352211E EQ PUSH2 0x1AA JUMPI DUP1 PUSH4 0x70A08231 EQ PUSH2 0x1BD JUMPI DUP1 PUSH4 0x95D89B41 EQ PUSH2 0x1DE JUMPI DUP1 PUSH4 0xA22CB465 EQ PUSH2 0x1E6 JUMPI PUSH0 DUP1 REVERT JUMPDEST DUP1 PUSH4 0x95EA7B3 GT PUSH2 0xCE JUMPI DUP1 PUSH4 0x95EA7B3 EQ PUSH2 0x15C JUMPI DUP1 PUSH4 0x23B872DD EQ PUSH2 0x171 JUMPI DUP1 PUSH4 0x40C10F19 EQ PUSH2 0x184 JUMPI DUP1 PUSH4 0x42842E0E EQ PUSH2 0x197 JUMPI PUSH0 DUP1 REVERT JUMPDEST DUP1 PUSH4 0x1FFC9A7 EQ PUSH2 0xF4 JUMPI DUP1 PUSH4 0x6FDDE03 EQ PUSH2 0x11C JUMPI DUP1 PUSH4 0x81812FC EQ PUSH2 0x131 JUMPI JUMPDEST PUSH0 DUP1 REVERT JUMPDEST PUSH2 0x107 PUSH2 0x102 CALLDATASIZE PUSH1 0x4 PUSH2 0xD62 JUMP JUMPDEST PUSH2 0x263 JUMP JUMPDEST PUSH1 0x40 MLOAD SWAP1 ISZERO ISZERO DUP2 MSTORE PUSH1 0x20 ADD JUMPDEST PUSH1 0x40 MLOAD DUP1 SWAP2 SUB SWAP1 RETURN JUMPDEST PUSH2 0x124 PUSH2 0x2B4 JUMP JUMPDEST PUSH1 0x40 MLOAD PUSH2 0x113 SWAP2 SWAP1 PUSH2 0xDCA JUMP JUMPDEST PUSH2 0x144 PUSH2 0x13F CALLDATASIZE PUSH1 0x4 PUSH2 0xDDC JUMP JUMPDEST PUSH2 0x33F JUMP JUMPDEST PUSH1 0x40 MLOAD PUSH1 0x1 PUSH1 0x1 PUSH1 0xA0 SHL SUB SWAP1 SWAP2 AND DUP2 MSTORE PUSH1 0x20 ADD PUSH2 0x113 JUMP JUMPDEST PUSH2 0x16F PUSH2 0x16A CALLDATASIZE PUSH1 0x4 PUSH2 0xE09 JUMP JUMPDEST PUSH2 0x3B8 JUMP JUMPDEST STOP JUMPDEST PUSH2 0x16F PUSH2 0x17F CALLDATASIZE PUSH1 0x4 PUSH2 0xE31 JUMP JUMPDEST PUSH2 0x45B JUMP JUMPDEST PUSH2 0x16F PUSH2 0x192 CALLDATASIZE PUSH1 0x4 PUSH2 0xE09 JUMP JUMPDEST PUSH2 0x4C9 JUMP JUMPDEST PUSH2 0x16F PUSH2 0x1A5 CALLDATASIZE PUSH1 0x4 PUSH2 0xE31 JUMP JUMPDEST PUSH2 0x51F JUMP JUMPDEST PUSH2 0x144 PUSH2 0x1B8 CALLDATASIZE PUSH1 0x4 PUSH2 0xDDC JUMP JUMPDEST PUSH2 0x539 JUMP JUMPDEST PUSH2 0x1D0 PUSH2 0x1CB CALLDATASIZE PUSH1 0x4 PUSH2 0xE6A JUMP JUMPDEST PUSH2 0x598 JUMP JUMPDEST PUSH1 0x40 MLOAD SWAP1 DUP2 MSTORE PUSH1 0x20 ADD PUSH2 0x113 JUMP JUMPDEST PUSH2 0x124 PUSH2 0x601 JUMP JUMPDEST PUSH2 0x16F PUSH2 0x1F4 CALLDATASIZE PUSH1 0x4 PUSH2 0xE83 JUMP JUMPDEST PUSH2 0x60E JUMP JUMPDEST PUSH2 0x16F PUSH2 0x207 CALLDATASIZE PUSH1 0x4 PUSH2 0xED0 JUMP JUMPDEST PUSH2 0x679 JUMP JUMPDEST PUSH2 0x1D0 PUSH1 0x6 SLOAD DUP2 JUMP JUMPDEST PUSH2 0x124 PUSH2 0x223 CALLDATASIZE PUSH1 0x4 PUSH2 0xDDC JUMP JUMPDEST PUSH2 0x6E9 JUMP JUMPDEST PUSH2 0x107 PUSH2 0x236 CALLDATASIZE PUSH1 0x4 PUSH2 0xFA5 JUMP JUMPDEST PUSH1 0x1 PUSH1 0x1 PUSH1 0xA0 SHL SUB SWAP2 DUP3 AND PUSH0 SWAP1 DUP2 MSTORE PUSH1 0x5 PUSH1 0x20 SWAP1 DUP2 MSTORE PUSH1 0x40 DUP1 DUP4 KECCAK256 SWAP4 SWAP1 SWAP5 AND DUP3 MSTORE SWAP2 SWAP1 SWAP2 MSTORE KECCAK256 SLOAD PUSH1 0xFF AND SWAP1 JUMP JUMPDEST PUSH0 PUSH1 0x1 PUSH1 0x1 PUSH1 0xE0 SHL SUB NOT DUP3 AND PUSH4 0x80AC58CD PUSH1 0xE0 SHL EQ DUP1 PUSH2 0x293 JUMPI POP PUSH1 0x1 PUSH1 0x1 PUSH1 0xE0 SHL SUB NOT DUP3 AND PUSH4 0x1FFC9A7 PUSH1 0xE0 SHL EQ JUMPDEST DUP1 PUSH2 0x2AE JUMPI POP PUSH1 0x1 PUSH1 0x1 PUSH1 0xE0 SHL SUB NOT DUP3 AND PUSH4 0x5B5E139F PUSH1 0xE0 SHL EQ JUMPDEST SWAP3 SWAP2 POP POP JUMP JUMPDEST PUSH0 DUP1 SLOAD PUSH2 0x2C0 SWAP1 PUSH2 0xFD6 JUMP JUMPDEST DUP1 PUSH1 0x1F ADD PUSH1 0x20 DUP1 SWAP2 DIV MUL PUSH1 0x20 ADD PUSH1 0x40 MLOAD SWAP1 DUP2 ADD PUSH1 0x40 MSTORE DUP1 SWAP3 SWAP2 SWAP1 DUP2 DUP2 MSTORE PUSH1 0x20 ADD DUP3 DUP1 SLOAD PUSH2 0x2EC SWAP1 PUSH2 0xFD6 JUMP JUMPDEST DUP1 ISZERO PUSH2 0x337 JUMPI DUP1 PUSH1 0x1F LT PUSH2 0x30E JUMPI PUSH2 0x100 DUP1 DUP4 SLOAD DIV MUL DUP4 MSTORE SWAP2 PUSH1 0x20 ADD SWAP2 PUSH2 0x337 JUMP JUMPDEST DUP3 ADD SWAP2 SWAP1 PUSH0 MSTORE PUSH1 0x20 PUSH0 KECCAK256 SWAP1 JUMPDEST DUP2 SLOAD DUP2 MSTORE SWAP1 PUSH1 0x1 ADD SWAP1 PUSH1 0x20 ADD DUP1 DUP4 GT PUSH2 0x31A JUMPI DUP3 SWAP1 SUB PUSH1 0x1F AND DUP3 ADD SWAP2 JUMPDEST POP POP POP POP POP DUP2 JUMP JUMPDEST PUSH0 DUP2 DUP2 MSTORE PUSH1 0x2 PUSH1 0x20 MSTORE PUSH1 0x40 DUP2 KECCAK256 SLOAD PUSH1 0x1 PUSH1 0x1 PUSH1 0xA0 SHL SUB AND PUSH2 0x39D JUMPI PUSH1 0x40 MLOAD PUSH3 0x461BCD PUSH1 0xE5 SHL DUP2 MSTORE PUSH1 0x20 PUSH1 0x4 DUP3 ADD MSTORE PUSH1 0x13 PUSH1 0x24 DUP3 ADD MSTORE PUSH19 0x1D1BDAD95B88191BD95CDB89DD08195E1A5CDD PUSH1 0x6A SHL PUSH1 0x44 DUP3 ADD MSTORE PUSH1 0x64 ADD JUMPDEST PUSH1 0x40 MLOAD DUP1 SWAP2 SUB SWAP1 REVERT JUMPDEST POP PUSH0 SWAP1 DUP2 MSTORE PUSH1 0x4 PUSH1 0x20 MSTORE PUSH1 0x40 SWAP1 KECCAK256 SLOAD PUSH1 0x1 PUSH1 0x1 PUSH1 0xA0 SHL SUB AND SWAP1 JUMP JUMPDEST PUSH0 DUP2 DUP2 MSTORE PUSH1 0x2 PUSH1 0x20 MSTORE PUSH1 0x40 SWAP1 KECCAK256 SLOAD PUSH1 0x1 PUSH1 0x1 PUSH1 0xA0 SHL SUB AND CALLER DUP2 EQ DUP1 PUSH2 0x3FF JUMPI POP PUSH1 0x1 PUSH1 0x1 PUSH1 0xA0 SHL SUB DUP2 AND PUSH0 SWAP1 DUP2 MSTORE PUSH1 0x5 PUSH1 0x20 SWAP1 DUP2 MSTORE PUSH1 0x40 DUP1 DUP4 KECCAK256 CALLER DUP5 MSTORE SWAP1 SWAP2 MSTORE SWAP1 KECCAK256 SLOAD PUSH1 0xFF AND JUMPDEST PUSH2 0x44B JUMPI PUSH1 0x40 MLOAD PUSH3 0x461BCD PUSH1 0xE5 SHL DUP2 MSTORE PUSH1 0x20 PUSH1 0x4 DUP3 ADD MSTORE PUSH1 0x1E PUSH1 0x24 DUP3 ADD MSTORE PUSH32 0x6E6F74206F776E6572206E6F7220617070726F76656420666F7220616C6C0000 PUSH1 0x44 DUP3 ADD MSTORE PUSH1 0x64 ADD PUSH2 0x394 JUMP JUMPDEST PUSH2 0x456 DUP2 DUP5 DUP5 PUSH2 0x79A JUMP JUMPDEST POP POP POP JUMP JUMPDEST PUSH0 PUSH2 0x465 DUP3 PUSH2 0x539 JUMP JUMPDEST SWAP1 POP PUSH2 0x472 DUP2 CALLER DUP5 PUSH2 0x7F5 JUMP JUMPDEST PUSH2 0x4B7 JUMPI PUSH1 0x40 MLOAD PUSH3 0x461BCD PUSH1 0xE5 SHL DUP2 MSTORE PUSH1 0x20 PUSH1 0x4 DUP3 ADD MSTORE PUSH1 0x16 PUSH1 0x24 DUP3 ADD MSTORE PUSH22 0x1B9BDD081BDDDB995C881B9BDC88185C1C1C9BDD9959 PUSH1 0x52 SHL PUSH1 0x44 DUP3 ADD MSTORE PUSH1 0x64 ADD PUSH2 0x394 JUMP JUMPDEST PUSH2 0x4C3 DUP2 DUP6 DUP6 DUP6 PUSH2 0x865 JUMP JUMPDEST POP POP POP POP JUMP JUMPDEST PUSH1 0x6 SLOAD DUP2 LT PUSH2 0x511 JUMPI PUSH1 0x40 MLOAD PUSH3 0x461BCD PUSH1 0xE5 SHL DUP2 MSTORE PUSH1 0x20 PUSH1 0x4 DUP3 ADD MSTORE PUSH1 0x14 PUSH1 0x24 DUP3 ADD MSTORE PUSH20 0x746F6B656E4964206F7574206F662072616E6765 PUSH1 0x60 SHL PUSH1 0x44 DUP3 ADD MSTORE PUSH1 0x64 ADD PUSH2 0x394 JUMP JUMPDEST PUSH2 0x51B DUP3 DUP3 PUSH2 0x9C9 JUMP JUMPDEST POP POP JUMP JUMPDEST PUSH2 0x456 DUP4 DUP4 DUP4 PUSH1 0x40 MLOAD DUP1 PUSH1 0x20 ADD PUSH1 0x40 MSTORE DUP1 PUSH0 DUP2 MSTORE POP PUSH2 0x679 JUMP JUMPDEST PUSH0 DUP2 DUP2 MSTORE PUSH1 0x2 PUSH1 0x20 MSTORE PUSH1 0x40 SWAP1 KECCAK256 SLOAD PUSH1 0x1 PUSH1 0x1 PUSH1 0xA0 SHL SUB AND DUP1 PUSH2 0x593 JUMPI PUSH1 0x40 MLOAD PUSH3 0x461BCD PUSH1 0xE5 SHL DUP2 MSTORE PUSH1 0x20 PUSH1 0x4 DUP3 ADD MSTORE PUSH1 0x13 PUSH1 0x24 DUP3 ADD MSTORE PUSH19 0x1D1BDAD95B88191BD95CDB89DD08195E1A5CDD PUSH1 0x6A SHL PUSH1 0x44 DUP3 ADD MSTORE PUSH1 0x64 ADD PUSH2 0x394 JUMP JUMPDEST SWAP2 SWAP1 POP JUMP JUMPDEST PUSH0 PUSH1 0x1 PUSH1 0x1 PUSH1 0xA0 SHL SUB DUP3 AND PUSH2 0x5E6 JUMPI PUSH1 0x40 MLOAD PUSH3 0x461BCD PUSH1 0xE5 SHL DUP2 MSTORE PUSH1 0x20 PUSH1 0x4 DUP3 ADD MSTORE PUSH1 0x14 PUSH1 0x24 DUP3 ADD MSTORE PUSH20 0x6F776E6572203D207A65726F2061646472657373 PUSH1 0x60 SHL PUSH1 0x44 DUP3 ADD MSTORE PUSH1 0x64 ADD PUSH2 0x394 JUMP JUMPDEST POP PUSH1 0x1 PUSH1 0x1 PUSH1 0xA0 SHL SUB AND PUSH0 SWAP1 DUP2 MSTORE PUSH1 0x3 PUSH1 0x20 MSTORE PUSH1 0x40 SWAP1 KECCAK256 SLOAD SWAP1 JUMP JUMPDEST PUSH1 0x1 DUP1 SLOAD PUSH2 0x2C0 SWAP1 PUSH2 0xFD6 JUMP JUMPDEST CALLER PUSH0 DUP2 DUP2 MSTORE PUSH1 0x5 PUSH1 0x20 SWAP1 DUP2 MSTORE PUSH1 0x40 DUP1 DUP4 KECCAK256 PUSH1 0x1 PUSH1 0x1 PUSH1 0xA0 SHL SUB DUP8 AND DUP1 DUP6 MSTORE SWAP1 DUP4 MSTORE SWAP3 DUP2 SWAP1 KECCAK256 DUP1 SLOAD PUSH1 0xFF NOT AND DUP7 ISZERO ISZERO SWAP1 DUP2 OR SWAP1 SWAP2 SSTORE SWAP1 MLOAD SWAP1 DUP2 MSTORE SWAP2 SWAP3 SWAP2 PUSH32 0x17307EAB39AB6107E8899845AD3D59BD9653F200F220920489CA2B5937696C31 SWAP2 ADD PUSH1 0x40 MLOAD DUP1 SWAP2 SUB SWAP1 LOG3 POP POP JUMP JUMPDEST PUSH0 PUSH2 0x683 DUP4 PUSH2 0x539 JUMP JUMPDEST SWAP1 POP PUSH2 0x690 DUP2 CALLER DUP6 PUSH2 0x7F5 JUMP JUMPDEST PUSH2 0x6D5 JUMPI PUSH1 0x40 MLOAD PUSH3 0x461BCD PUSH1 0xE5 SHL DUP2 MSTORE PUSH1 0x20 PUSH1 0x4 DUP3 ADD MSTORE PUSH1 0x16 PUSH1 0x24 DUP3 ADD MSTORE PUSH22 0x1B9BDD081BDDDB995C881B9BDC88185C1C1C9BDD9959 PUSH1 0x52 SHL PUSH1 0x44 DUP3 ADD MSTORE PUSH1 0x64 ADD PUSH2 0x394 JUMP JUMPDEST PUSH2 0x6E2 DUP2 DUP7 DUP7 DUP7 DUP7 PUSH2 0xAF6 JUMP JUMPDEST POP POP POP POP POP JUMP JUMPDEST PUSH0 DUP2 DUP2 MSTORE PUSH1 0x2 PUSH1 0x20 MSTORE PUSH1 0x40 SWAP1 KECCAK256 SLOAD PUSH1 0x60 SWAP1 PUSH1 0x1 PUSH1 0x1 PUSH1 0xA0 SHL SUB AND PUSH2 0x741 JUMPI PUSH1 0x40 MLOAD PUSH3 0x461BCD PUSH1 0xE5 SHL DUP2 MSTORE PUSH1 0x20 PUSH1 0x4 DUP3 ADD MSTORE PUSH1 0xF PUSH1 0x24 DUP3 ADD MSTORE PUSH15 0x151BDAD95B88139BDD08115E1A5CDD PUSH1 0x8A SHL PUSH1 0x44 DUP3 ADD MSTORE PUSH1 0x64 ADD PUSH2 0x394 JUMP JUMPDEST PUSH0 PUSH2 0x74A PUSH2 0xB0E JUMP JUMPDEST SWAP1 POP PUSH0 DUP2 MLOAD GT PUSH2 0x768 JUMPI PUSH1 0x40 MLOAD DUP1 PUSH1 0x20 ADD PUSH1 0x40 MSTORE DUP1 PUSH0 DUP2 MSTORE POP PUSH2 0x793 JUMP JUMPDEST DUP1 PUSH2 0x772 DUP5 PUSH2 0xB2E JUMP JUMPDEST PUSH1 0x40 MLOAD PUSH1 0x20 ADD PUSH2 0x783 SWAP3 SWAP2 SWAP1 PUSH2 0x100E JUMP JUMPDEST PUSH1 0x40 MLOAD PUSH1 0x20 DUP2 DUP4 SUB SUB DUP2 MSTORE SWAP1 PUSH1 0x40 MSTORE JUMPDEST SWAP4 SWAP3 POP POP POP JUMP JUMPDEST PUSH0 DUP2 DUP2 MSTORE PUSH1 0x4 PUSH1 0x20 MSTORE PUSH1 0x40 DUP1 DUP3 KECCAK256 DUP1 SLOAD PUSH1 0x1 PUSH1 0x1 PUSH1 0xA0 SHL SUB NOT AND PUSH1 0x1 PUSH1 0x1 PUSH1 0xA0 SHL SUB DUP7 DUP2 AND SWAP2 DUP3 OR SWAP1 SWAP3 SSTORE SWAP2 MLOAD DUP5 SWAP4 SWAP2 DUP8 AND SWAP2 PUSH32 0x8C5BE1E5EBEC7D5BD14F71427D1E84F3DD0314C0F7B2291E5B200AC8C7C3B925 SWAP2 LOG4 POP POP POP JUMP JUMPDEST PUSH0 DUP4 PUSH1 0x1 PUSH1 0x1 PUSH1 0xA0 SHL SUB AND DUP4 PUSH1 0x1 PUSH1 0x1 PUSH1 0xA0 SHL SUB AND EQ DUP1 PUSH2 0x82E JUMPI POP PUSH0 DUP3 DUP2 MSTORE PUSH1 0x4 PUSH1 0x20 MSTORE PUSH1 0x40 SWAP1 KECCAK256 SLOAD PUSH1 0x1 PUSH1 0x1 PUSH1 0xA0 SHL SUB DUP5 DUP2 AND SWAP2 AND EQ JUMPDEST DUP1 PUSH2 0x85D JUMPI POP PUSH1 0x1 PUSH1 0x1 PUSH1 0xA0 SHL SUB DUP1 DUP6 AND PUSH0 SWAP1 DUP2 MSTORE PUSH1 0x5 PUSH1 0x20 SWAP1 DUP2 MSTORE PUSH1 0x40 DUP1 DUP4 KECCAK256 SWAP4 DUP8 AND DUP4 MSTORE SWAP3 SWAP1 MSTORE KECCAK256 SLOAD PUSH1 0xFF AND JUMPDEST SWAP5 SWAP4 POP POP POP POP JUMP JUMPDEST DUP4 PUSH1 0x1 PUSH1 0x1 PUSH1 0xA0 SHL SUB AND DUP4 PUSH1 0x1 PUSH1 0x1 PUSH1 0xA0 SHL SUB AND EQ PUSH2 0x8B2 JUMPI PUSH1 0x40 MLOAD PUSH3 0x461BCD PUSH1 0xE5 SHL DUP2 MSTORE PUSH1 0x20 PUSH1 0x4 DUP3 ADD MSTORE PUSH1 0x9 PUSH1 0x24 DUP3 ADD MSTORE PUSH9 0x3737BA1037BBB732B9 PUSH1 0xB9 SHL PUSH1 0x44 DUP3 ADD MSTORE PUSH1 0x64 ADD PUSH2 0x394 JUMP JUMPDEST PUSH1 0x1 PUSH1 0x1 PUSH1 0xA0 SHL SUB DUP3 AND PUSH2 0x908 JUMPI PUSH1 0x40 MLOAD PUSH3 0x461BCD PUSH1 0xE5 SHL DUP2 MSTORE PUSH1 0x20 PUSH1 0x4 DUP3 ADD MSTORE PUSH1 0x1C PUSH1 0x24 DUP3 ADD MSTORE PUSH32 0x7472616E7366657220746F20746865207A65726F206164647265737300000000 PUSH1 0x44 DUP3 ADD MSTORE PUSH1 0x64 ADD PUSH2 0x394 JUMP JUMPDEST PUSH2 0x913 DUP5 PUSH0 DUP4 PUSH2 0x79A JUMP JUMPDEST PUSH1 0x1 PUSH1 0x1 PUSH1 0xA0 SHL SUB DUP4 AND PUSH0 SWAP1 DUP2 MSTORE PUSH1 0x3 PUSH1 0x20 MSTORE PUSH1 0x40 DUP2 KECCAK256 DUP1 SLOAD PUSH1 0x1 SWAP3 SWAP1 PUSH2 0x93B SWAP1 DUP5 SWAP1 PUSH2 0x1050 JUMP JUMPDEST SWAP1 SWAP2 SSTORE POP POP PUSH1 0x1 PUSH1 0x1 PUSH1 0xA0 SHL SUB DUP3 AND PUSH0 SWAP1 DUP2 MSTORE PUSH1 0x3 PUSH1 0x20 MSTORE PUSH1 0x40 DUP2 KECCAK256 DUP1 SLOAD PUSH1 0x1 SWAP3 SWAP1 PUSH2 0x968 SWAP1 DUP5 SWAP1 PUSH2 0x1063 JUMP JUMPDEST SWAP1 SWAP2 SSTORE POP POP PUSH0 DUP2 DUP2 MSTORE PUSH1 0x2 PUSH1 0x20 MSTORE PUSH1 0x40 DUP1 DUP3 KECCAK256 DUP1 SLOAD PUSH1 0x1 PUSH1 0x1 PUSH1 0xA0 SHL SUB NOT AND PUSH1 0x1 PUSH1 0x1 PUSH1 0xA0 SHL SUB DUP7 DUP2 AND SWAP2 DUP3 OR SWAP1 SWAP3 SSTORE SWAP2 MLOAD DUP5 SWAP4 SWAP2 DUP8 AND SWAP2 PUSH32 0xDDF252AD1BE2C89B69C2B068FC378DAA952BA7F163C4A11628F55A4DF523B3EF SWAP2 LOG4 POP POP POP POP JUMP JUMPDEST PUSH1 0x1 PUSH1 0x1 PUSH1 0xA0 SHL SUB DUP3 AND PUSH2 0xA16 JUMPI PUSH1 0x40 MLOAD PUSH3 0x461BCD PUSH1 0xE5 SHL DUP2 MSTORE PUSH1 0x20 PUSH1 0x4 DUP3 ADD MSTORE PUSH1 0x14 PUSH1 0x24 DUP3 ADD MSTORE PUSH20 0x6D696E7420746F207A65726F2061646472657373 PUSH1 0x60 SHL PUSH1 0x44 DUP3 ADD MSTORE PUSH1 0x64 ADD PUSH2 0x394 JUMP JUMPDEST PUSH0 DUP2 DUP2 MSTORE PUSH1 0x2 PUSH1 0x20 MSTORE PUSH1 0x40 SWAP1 KECCAK256 SLOAD PUSH1 0x1 PUSH1 0x1 PUSH1 0xA0 SHL SUB AND ISZERO PUSH2 0xA71 JUMPI PUSH1 0x40 MLOAD PUSH3 0x461BCD PUSH1 0xE5 SHL DUP2 MSTORE PUSH1 0x20 PUSH1 0x4 DUP3 ADD MSTORE PUSH1 0x14 PUSH1 0x24 DUP3 ADD MSTORE PUSH20 0x1D1BDAD95B88185B1C9958591E481B5A5B9D1959 PUSH1 0x62 SHL PUSH1 0x44 DUP3 ADD MSTORE PUSH1 0x64 ADD PUSH2 0x394 JUMP JUMPDEST PUSH1 0x1 PUSH1 0x1 PUSH1 0xA0 SHL SUB DUP3 AND PUSH0 SWAP1 DUP2 MSTORE PUSH1 0x3 PUSH1 0x20 MSTORE PUSH1 0x40 DUP2 KECCAK256 DUP1 SLOAD PUSH1 0x1 SWAP3 SWAP1 PUSH2 0xA99 SWAP1 DUP5 SWAP1 PUSH2 0x1063 JUMP JUMPDEST SWAP1 SWAP2 SSTORE POP POP PUSH0 DUP2 DUP2 MSTORE PUSH1 0x2 PUSH1 0x20 MSTORE PUSH1 0x40 DUP1 DUP3 KECCAK256 DUP1 SLOAD PUSH1 0x1 PUSH1 0x1 PUSH1 0xA0 SHL SUB NOT AND PUSH1 0x1 PUSH1 0x1 PUSH1 0xA0 SHL SUB DUP7 AND SWAP1 DUP2 OR SWAP1 SWAP2 SSTORE SWAP1 MLOAD DUP4 SWAP3 SWAP1 PUSH32 0xDDF252AD1BE2C89B69C2B068FC378DAA952BA7F163C4A11628F55A4DF523B3EF SWAP1 DUP3 SWAP1 LOG4 POP POP JUMP JUMPDEST PUSH2 0xB02 DUP6 DUP6 DUP6 DUP6 PUSH2 0x865 JUMP JUMPDEST PUSH2 0x6E2 DUP5 DUP5 DUP5 DUP5 PUSH2 0xC2B JUMP JUMPDEST PUSH1 0x60 PUSH1 0x40 MLOAD DUP1 PUSH1 0x60 ADD PUSH1 0x40 MSTORE DUP1 PUSH1 0x36 DUP2 MSTORE PUSH1 0x20 ADD PUSH2 0x1134 PUSH1 0x36 SWAP2 CODECOPY SWAP1 POP SWAP1 JUMP JUMPDEST PUSH1 0x60 DUP2 PUSH0 SUB PUSH2 0xB54 JUMPI POP POP PUSH1 0x40 DUP1 MLOAD DUP1 DUP3 ADD SWAP1 SWAP2 MSTORE PUSH1 0x1 DUP2 MSTORE PUSH1 0x3 PUSH1 0xFC SHL PUSH1 0x20 DUP3 ADD MSTORE SWAP1 JUMP JUMPDEST DUP2 PUSH0 JUMPDEST DUP2 ISZERO PUSH2 0xB7D JUMPI DUP1 PUSH2 0xB67 DUP2 PUSH2 0x1076 JUMP JUMPDEST SWAP2 POP PUSH2 0xB76 SWAP1 POP PUSH1 0xA DUP4 PUSH2 0x10A2 JUMP JUMPDEST SWAP2 POP PUSH2 0xB57 JUMP JUMPDEST PUSH0 DUP2 PUSH8 0xFFFFFFFFFFFFFFFF DUP2 GT ISZERO PUSH2 0xB97 JUMPI PUSH2 0xB97 PUSH2 0xEBC JUMP JUMPDEST PUSH1 0x40 MLOAD SWAP1 DUP1 DUP3 MSTORE DUP1 PUSH1 0x1F ADD PUSH1 0x1F NOT AND PUSH1 0x20 ADD DUP3 ADD PUSH1 0x40 MSTORE DUP1 ISZERO PUSH2 0xBC1 JUMPI PUSH1 0x20 DUP3 ADD DUP2 DUP1 CALLDATASIZE DUP4 CALLDATACOPY ADD SWAP1 POP JUMPDEST POP SWAP1 POP JUMPDEST DUP5 ISZERO PUSH2 0x85D JUMPI PUSH2 0xBD6 PUSH1 0x1 DUP4 PUSH2 0x1050 JUMP JUMPDEST SWAP2 POP PUSH2 0xBE3 PUSH1 0xA DUP7 PUSH2 0x10B5 JUMP JUMPDEST PUSH2 0xBEE SWAP1 PUSH1 0x30 PUSH2 0x1063 JUMP JUMPDEST PUSH1 0xF8 SHL DUP2 DUP4 DUP2 MLOAD DUP2 LT PUSH2 0xC03 JUMPI PUSH2 0xC03 PUSH2 0x10C8 JUMP JUMPDEST PUSH1 0x20 ADD ADD SWAP1 PUSH1 0x1 PUSH1 0x1 PUSH1 0xF8 SHL SUB NOT AND SWAP1 DUP2 PUSH0 BYTE SWAP1 MSTORE8 POP PUSH2 0xC24 PUSH1 0xA DUP7 PUSH2 0x10A2 JUMP JUMPDEST SWAP5 POP PUSH2 0xBC5 JUMP JUMPDEST PUSH1 0x1 PUSH1 0x1 PUSH1 0xA0 SHL SUB DUP4 AND EXTCODESIZE ISZERO PUSH2 0x4C3 JUMPI PUSH1 0x40 MLOAD PUSH4 0xA85BD01 PUSH1 0xE1 SHL DUP2 MSTORE PUSH1 0x1 PUSH1 0x1 PUSH1 0xA0 SHL SUB DUP5 AND SWAP1 PUSH4 0x150B7A02 SWAP1 PUSH2 0xC6D SWAP1 CALLER SWAP1 DUP9 SWAP1 DUP8 SWAP1 DUP8 SWAP1 PUSH1 0x4 ADD PUSH2 0x10DC JUMP JUMPDEST PUSH1 0x20 PUSH1 0x40 MLOAD DUP1 DUP4 SUB DUP2 PUSH0 DUP8 GAS CALL SWAP3 POP POP POP DUP1 ISZERO PUSH2 0xCA7 JUMPI POP PUSH1 0x40 DUP1 MLOAD PUSH1 0x1F RETURNDATASIZE SWAP1 DUP2 ADD PUSH1 0x1F NOT AND DUP3 ADD SWAP1 SWAP3 MSTORE PUSH2 0xCA4 SWAP2 DUP2 ADD SWAP1 PUSH2 0x1118 JUMP JUMPDEST PUSH1 0x1 JUMPDEST PUSH2 0xD0E JUMPI RETURNDATASIZE DUP1 DUP1 ISZERO PUSH2 0xCD4 JUMPI PUSH1 0x40 MLOAD SWAP2 POP PUSH1 0x1F NOT PUSH1 0x3F RETURNDATASIZE ADD AND DUP3 ADD PUSH1 0x40 MSTORE RETURNDATASIZE DUP3 MSTORE RETURNDATASIZE PUSH0 PUSH1 0x20 DUP5 ADD RETURNDATACOPY PUSH2 0xCD9 JUMP JUMPDEST PUSH1 0x60 SWAP2 POP JUMPDEST POP DUP1 MLOAD PUSH0 SUB PUSH2 0xD06 JUMPI PUSH1 0x40 MLOAD PUSH4 0x32505749 PUSH1 0xE1 SHL DUP2 MSTORE PUSH1 0x1 PUSH1 0x1 PUSH1 0xA0 SHL SUB DUP6 AND PUSH1 0x4 DUP3 ADD MSTORE PUSH1 0x24 ADD PUSH2 0x394 JUMP JUMPDEST DUP1 MLOAD DUP2 PUSH1 0x20 ADD REVERT JUMPDEST PUSH1 0x1 PUSH1 0x1 PUSH1 0xE0 SHL SUB NOT DUP2 AND PUSH4 0xA85BD01 PUSH1 0xE1 SHL EQ PUSH2 0x6E2 JUMPI PUSH1 0x40 MLOAD PUSH4 0x32505749 PUSH1 0xE1 SHL DUP2 MSTORE PUSH1 0x1 PUSH1 0x1 PUSH1 0xA0 SHL SUB DUP6 AND PUSH1 0x4 DUP3 ADD MSTORE PUSH1 0x24 ADD PUSH2 0x394 JUMP JUMPDEST PUSH1 0x1 PUSH1 0x1 PUSH1 0xE0 SHL SUB NOT DUP2 AND DUP2 EQ PUSH2 0xD5F JUMPI PUSH0 DUP1 REVERT JUMPDEST POP JUMP JUMPDEST PUSH0 PUSH1 0x20 DUP3 DUP5 SUB SLT ISZERO PUSH2 0xD72 JUMPI PUSH0 DUP1 REVERT JUMPDEST DUP2 CALLDATALOAD PUSH2 0x793 DUP2 PUSH2 0xD4A JUMP JUMPDEST PUSH0 JUMPDEST DUP4 DUP2 LT ISZERO PUSH2 0xD97 JUMPI DUP2 DUP2 ADD MLOAD DUP4 DUP3 ADD MSTORE PUSH1 0x20 ADD PUSH2 0xD7F JUMP JUMPDEST POP POP PUSH0 SWAP2 ADD MSTORE JUMP JUMPDEST PUSH0 DUP2 MLOAD DUP1 DUP5 MSTORE PUSH2 0xDB6 DUP2 PUSH1 0x20 DUP7 ADD PUSH1 0x20 DUP7 ADD PUSH2 0xD7D JUMP JUMPDEST PUSH1 0x1F ADD PUSH1 0x1F NOT AND SWAP3 SWAP1 SWAP3 ADD PUSH1 0x20 ADD SWAP3 SWAP2 POP POP JUMP JUMPDEST PUSH1 0x20 DUP2 MSTORE PUSH0 PUSH2 0x793 PUSH1 0x20 DUP4 ADD DUP5 PUSH2 0xD9F JUMP JUMPDEST PUSH0 PUSH1 0x20 DUP3 DUP5 SUB SLT ISZERO PUSH2 0xDEC JUMPI PUSH0 DUP1 REVERT JUMPDEST POP CALLDATALOAD SWAP2 SWAP1 POP JUMP JUMPDEST DUP1 CALLDATALOAD PUSH1 0x1 PUSH1 0x1 PUSH1 0xA0 SHL SUB DUP2 AND DUP2 EQ PUSH2 0x593 JUMPI PUSH0 DUP1 REVERT JUMPDEST PUSH0 DUP1 PUSH1 0x40 DUP4 DUP6 SUB SLT ISZERO PUSH2 0xE1A JUMPI PUSH0 DUP1 REVERT JUMPDEST PUSH2 0xE23 DUP4 PUSH2 0xDF3 JUMP JUMPDEST SWAP5 PUSH1 0x20 SWAP4 SWAP1 SWAP4 ADD CALLDATALOAD SWAP4 POP POP POP JUMP JUMPDEST PUSH0 DUP1 PUSH0 PUSH1 0x60 DUP5 DUP7 SUB SLT ISZERO PUSH2 0xE43 JUMPI PUSH0 DUP1 REVERT JUMPDEST PUSH2 0xE4C DUP5 PUSH2 0xDF3 JUMP JUMPDEST SWAP3 POP PUSH2 0xE5A PUSH1 0x20 DUP6 ADD PUSH2 0xDF3 JUMP JUMPDEST SWAP2 POP PUSH1 0x40 DUP5 ADD CALLDATALOAD SWAP1 POP SWAP3 POP SWAP3 POP SWAP3 JUMP JUMPDEST PUSH0 PUSH1 0x20 DUP3 DUP5 SUB SLT ISZERO PUSH2 0xE7A JUMPI PUSH0 DUP1 REVERT JUMPDEST PUSH2 0x793 DUP3 PUSH2 0xDF3 JUMP JUMPDEST PUSH0 DUP1 PUSH1 0x40 DUP4 DUP6 SUB SLT ISZERO PUSH2 0xE94 JUMPI PUSH0 DUP1 REVERT JUMPDEST PUSH2 0xE9D DUP4 PUSH2 0xDF3 JUMP JUMPDEST SWAP2 POP PUSH1 0x20 DUP4 ADD CALLDATALOAD DUP1 ISZERO ISZERO DUP2 EQ PUSH2 0xEB1 JUMPI PUSH0 DUP1 REVERT JUMPDEST DUP1 SWAP2 POP POP SWAP3 POP SWAP3 SWAP1 POP JUMP JUMPDEST PUSH4 0x4E487B71 PUSH1 0xE0 SHL PUSH0 MSTORE PUSH1 0x41 PUSH1 0x4 MSTORE PUSH1 0x24 PUSH0 REVERT JUMPDEST PUSH0 DUP1 PUSH0 DUP1 PUSH1 0x80 DUP6 DUP8 SUB SLT ISZERO PUSH2 0xEE3 JUMPI PUSH0 DUP1 REVERT JUMPDEST PUSH2 0xEEC DUP6 PUSH2 0xDF3 JUMP JUMPDEST SWAP4 POP PUSH2 0xEFA PUSH1 0x20 DUP7 ADD PUSH2 0xDF3 JUMP JUMPDEST SWAP3 POP PUSH1 0x40 DUP6 ADD CALLDATALOAD SWAP2 POP PUSH1 0x60 DUP6 ADD CALLDATALOAD PUSH8 0xFFFFFFFFFFFFFFFF DUP1 DUP3 GT ISZERO PUSH2 0xF1D JUMPI PUSH0 DUP1 REVERT JUMPDEST DUP2 DUP8 ADD SWAP2 POP DUP8 PUSH1 0x1F DUP4 ADD SLT PUSH2 0xF30 JUMPI PUSH0 DUP1 REVERT JUMPDEST DUP2 CALLDATALOAD DUP2 DUP2 GT ISZERO PUSH2 0xF42 JUMPI PUSH2 0xF42 PUSH2 0xEBC JUMP JUMPDEST PUSH1 0x40 MLOAD PUSH1 0x1F DUP3 ADD PUSH1 0x1F NOT SWAP1 DUP2 AND PUSH1 0x3F ADD AND DUP2 ADD SWAP1 DUP4 DUP3 GT DUP2 DUP4 LT OR ISZERO PUSH2 0xF6A JUMPI PUSH2 0xF6A PUSH2 0xEBC JUMP JUMPDEST DUP2 PUSH1 0x40 MSTORE DUP3 DUP2 MSTORE DUP11 PUSH1 0x20 DUP5 DUP8 ADD ADD GT ISZERO PUSH2 0xF82 JUMPI PUSH0 DUP1 REVERT JUMPDEST DUP3 PUSH1 0x20 DUP7 ADD PUSH1 0x20 DUP4 ADD CALLDATACOPY PUSH0 PUSH1 0x20 DUP5 DUP4 ADD ADD MSTORE DUP1 SWAP6 POP POP POP POP POP POP SWAP3 SWAP6 SWAP2 SWAP5 POP SWAP3 POP JUMP JUMPDEST PUSH0 DUP1 PUSH1 0x40 DUP4 DUP6 SUB SLT ISZERO PUSH2 0xFB6 JUMPI PUSH0 DUP1 REVERT JUMPDEST PUSH2 0xFBF DUP4 PUSH2 0xDF3 JUMP JUMPDEST SWAP2 POP PUSH2 0xFCD PUSH1 0x20 DUP5 ADD PUSH2 0xDF3 JUMP JUMPDEST SWAP1 POP SWAP3 POP SWAP3 SWAP1 POP JUMP JUMPDEST PUSH1 0x1 DUP2 DUP2 SHR SWAP1 DUP3 AND DUP1 PUSH2 0xFEA JUMPI PUSH1 0x7F DUP3 AND SWAP2 POP JUMPDEST PUSH1 0x20 DUP3 LT DUP2 SUB PUSH2 0x1008 JUMPI PUSH4 0x4E487B71 PUSH1 0xE0 SHL PUSH0 MSTORE PUSH1 0x22 PUSH1 0x4 MSTORE PUSH1 0x24 PUSH0 REVERT JUMPDEST POP SWAP2 SWAP1 POP JUMP JUMPDEST PUSH0 DUP4 MLOAD PUSH2 0x101F DUP2 DUP5 PUSH1 0x20 DUP9 ADD PUSH2 0xD7D JUMP JUMPDEST DUP4 MLOAD SWAP1 DUP4 ADD SWAP1 PUSH2 0x1033 DUP2 DUP4 PUSH1 0x20 DUP9 ADD PUSH2 0xD7D JUMP JUMPDEST ADD SWAP5 SWAP4 POP POP POP POP JUMP JUMPDEST PUSH4 0x4E487B71 PUSH1 0xE0 SHL PUSH0 MSTORE PUSH1 0x11 PUSH1 0x4 MSTORE PUSH1 0x24 PUSH0 REVERT JUMPDEST DUP2 DUP2 SUB DUP2 DUP2 GT ISZERO PUSH2 0x2AE JUMPI PUSH2 0x2AE PUSH2 0x103C JUMP JUMPDEST DUP1 DUP3 ADD DUP1 DUP3 GT ISZERO PUSH2 0x2AE JUMPI PUSH2 0x2AE PUSH2 0x103C JUMP JUMPDEST PUSH0 PUSH1 0x1 DUP3 ADD PUSH2 0x1087 JUMPI PUSH2 0x1087 PUSH2 0x103C JUMP JUMPDEST POP PUSH1 0x1 ADD SWAP1 JUMP JUMPDEST PUSH4 0x4E487B71 PUSH1 0xE0 SHL PUSH0 MSTORE PUSH1 0x12 PUSH1 0x4 MSTORE PUSH1 0x24 PUSH0 REVERT JUMPDEST PUSH0 DUP3 PUSH2 0x10B0 JUMPI PUSH2 0x10B0 PUSH2 0x108E JUMP JUMPDEST POP DIV SWAP1 JUMP JUMPDEST PUSH0 DUP3 PUSH2 0x10C3 JUMPI PUSH2 0x10C3 PUSH2 0x108E JUMP JUMPDEST POP MOD SWAP1 JUMP JUMPDEST PUSH4 0x4E487B71 PUSH1 0xE0 SHL PUSH0 MSTORE PUSH1 0x32 PUSH1 0x4 MSTORE PUSH1 0x24 PUSH0 REVERT JUMPDEST PUSH1 0x1 PUSH1 0x1 PUSH1 0xA0 SHL SUB DUP6 DUP2 AND DUP3 MSTORE DUP5 AND PUSH1 0x20 DUP3 ADD MSTORE PUSH1 0x40 DUP2 ADD DUP4 SWAP1 MSTORE PUSH1 0x80 PUSH1 0x60 DUP3 ADD DUP2 SWAP1 MSTORE PUSH0 SWAP1 PUSH2 0x110E SWAP1 DUP4 ADD DUP5 PUSH2 0xD9F JUMP JUMPDEST SWAP7 SWAP6 POP POP POP POP POP POP JUMP JUMPDEST PUSH0 PUSH1 0x20 DUP3 DUP5 SUB SLT ISZERO PUSH2 0x1128 JUMPI PUSH0 DUP1 REVERT JUMPDEST DUP2 MLOAD PUSH2 0x793 DUP2 PUSH2 0xD4A JUMP INVALID PUSH10 0x7066733A2F2F516D6553 PUSH11 0x53696E4870506E6D586D73 PUSH17 0x4D6A776958794E367A533445397A636361 PUSH19 0x694752336A7863615774712FA2646970667358 0x22 SLT KECCAK256 0xD9 0xBC 0xD8 GAS SMOD CREATE2 CODECOPY 0xED BLOBBASEFEE 0xD3 NUMBER CALLCODE PUSH24 0x13F85640638E3FEB313CF34CFBA339DBE2398664736F6C63 NUMBER STOP ADDMOD XOR STOP CALLER "
				},
				"gasEstimates": {
					"creation": {
						"codeDepositCost": "902200",
						"executionCost": "infinite",
						"totalCost": "infinite"
					},
					"external": {
						"MAX_APES()": "2338",
						"approve(address,uint256)": "31121",
						"balanceOf(address)": "2630",
						"getApproved(uint256)": "4756",
						"isApprovedForAll(address,address)": "infinite",
						"mint(address,uint256)": "55409",
						"name()": "infinite",
						"ownerOf(uint256)": "2558",
						"safeTransferFrom(address,address,uint256)": "infinite",
						"safeTransferFrom(address,address,uint256,bytes)": "infinite",
						"setApprovalForAll(address,bool)": "26671",
						"supportsInterface(bytes4)": "531",
						"symbol()": "infinite",
						"tokenURI(uint256)": "infinite",
						"transferFrom(address,address,uint256)": "infinite"
					},
					"internal": {
						"_baseURI()": "infinite"
					}
				},
				"methodIdentifiers": {
					"MAX_APES()": "bb8a16bd",
					"approve(address,uint256)": "095ea7b3",
					"balanceOf(address)": "70a08231",
					"getApproved(uint256)": "081812fc",
					"isApprovedForAll(address,address)": "e985e9c5",
					"mint(address,uint256)": "40c10f19",
					"name()": "06fdde03",
					"ownerOf(uint256)": "6352211e",
					"safeTransferFrom(address,address,uint256)": "42842e0e",
					"safeTransferFrom(address,address,uint256,bytes)": "b88d4fde",
					"setApprovalForAll(address,bool)": "a22cb465",
					"supportsInterface(bytes4)": "01ffc9a7",
					"symbol()": "95d89b41",
					"tokenURI(uint256)": "c87b56dd",
					"transferFrom(address,address,uint256)": "23b872dd"
				}
			},
			"storageLayout": {
				"storage": [
					{
						"astId": 16,
						"contract": "TinTinCourse/NFTSwap/WTFApe.sol:WTFApe",
						"label": "name",
						"offset": 0,
						"slot": "0",
						"type": "t_string_storage"
					},
					{
						"astId": 19,
						"contract": "TinTinCourse/NFTSwap/WTFApe.sol:WTFApe",
						"label": "symbol",
						"offset": 0,
						"slot": "1",
						"type": "t_string_storage"
					},
					{
						"astId": 23,
						"contract": "TinTinCourse/NFTSwap/WTFApe.sol:WTFApe",
						"label": "_owners",
						"offset": 0,
						"slot": "2",
						"type": "t_mapping(t_uint256,t_address)"
					},
					{
						"astId": 27,
						"contract": "TinTinCourse/NFTSwap/WTFApe.sol:WTFApe",
						"label": "_balances",
						"offset": 0,
						"slot": "3",
						"type": "t_mapping(t_address,t_uint256)"
					},
					{
						"astId": 31,
						"contract": "TinTinCourse/NFTSwap/WTFApe.sol:WTFApe",
						"label": "_tokenApprovals",
						"offset": 0,
						"slot": "4",
						"type": "t_mapping(t_uint256,t_address)"
					},
					{
						"astId": 37,
						"contract": "TinTinCourse/NFTSwap/WTFApe.sol:WTFApe",
						"label": "_operatorApprovals",
						"offset": 0,
						"slot": "5",
						"type": "t_mapping(t_address,t_mapping(t_address,t_bool))"
					},
					{
						"astId": 1483,
						"contract": "TinTinCourse/NFTSwap/WTFApe.sol:WTFApe",
						"label": "MAX_APES",
						"offset": 0,
						"slot": "6",
						"type": "t_uint256"
					}
				],
				"types": {
					"t_address": {
						"encoding": "inplace",
						"label": "address",
						"numberOfBytes": "20"
					},
					"t_bool": {
						"encoding": "inplace",
						"label": "bool",
						"numberOfBytes": "1"
					},
					"t_mapping(t_address,t_bool)": {
						"encoding": "mapping",
						"key": "t_address",
						"label": "mapping(address => bool)",
						"numberOfBytes": "32",
						"value": "t_bool"
					},
					"t_mapping(t_address,t_mapping(t_address,t_bool))": {
						"encoding": "mapping",
						"key": "t_address",
						"label": "mapping(address => mapping(address => bool))",
						"numberOfBytes": "32",
						"value": "t_mapping(t_address,t_bool)"
					},
					"t_mapping(t_address,t_uint256)": {
						"encoding": "mapping",
						"key": "t_address",
						"label": "mapping(address => uint256)",
						"numberOfBytes": "32",
						"value": "t_uint256"
					},
					"t_mapping(t_uint256,t_address)": {
						"encoding": "mapping",
						"key": "t_uint256",
						"label": "mapping(uint256 => address)",
						"numberOfBytes": "32",
						"value": "t_address"
					},
					"t_string_storage": {
						"encoding": "bytes",
						"label": "string",
						"numberOfBytes": "32"
					},
					"t_uint256": {
						"encoding": "inplace",
						"label": "uint256",
						"numberOfBytes": "32"
					}
				}
			},
			"userdoc": {
				"kind": "user",
				"methods": {
					"safeTransferFrom(address,address,uint256,bytes)": {
						"notice": "实现IERC721的safeTransferFrom，安全转账，调用了_safeTransfer函数。"
					},
					"tokenURI(uint256)": {
						"notice": "实现IERC721Metadata的tokenURI函数，查询metadata。"
					}
				},
				"version": 1
			}
		}
	}
}