{
	"TinTinCourse/InsertionSort.sol": {
		"InsertionSort": {
			"abi": [
				{
					"inputs": [],
					"name": "getArray",
					"outputs": [
						{
							"internalType": "uint256[]",
							"name": "",
							"type": "uint256[]"
						}
					],
					"stateMutability": "view",
					"type": "function"
				},
				{
					"inputs": [
						{
							"internalType": "uint256[]",
							"name": "arr",
							"type": "uint256[]"
						}
					],
					"name": "sortAndStore",
					"outputs": [],
					"stateMutability": "nonpayable",
					"type": "function"
				}
			],
			"devdoc": {
				"kind": "dev",
				"methods": {},
				"version": 1
			},
			"evm": {
				"assembly": "    /* \"TinTinCourse/InsertionSort.sol\":139:972  contract InsertionSort {... */\n  mstore(0x40, 0x80)\n  callvalue\n  dup1\n  iszero\n  tag_1\n  jumpi\n  0x00\n  dup1\n  revert\ntag_1:\n  pop\n  dataSize(sub_0)\n  dup1\n  dataOffset(sub_0)\n  0x00\n  codecopy\n  0x00\n  return\nstop\n\nsub_0: assembly {\n        /* \"TinTinCourse/InsertionSort.sol\":139:972  contract InsertionSort {... */\n      mstore(0x40, 0x80)\n      callvalue\n      dup1\n      iszero\n      tag_1\n      jumpi\n      0x00\n      dup1\n      revert\n    tag_1:\n      pop\n      jumpi(tag_2, lt(calldatasize, 0x04))\n      shr(0xe0, calldataload(0x00))\n      dup1\n      0x8cb6588d\n      eq\n      tag_3\n      jumpi\n      dup1\n      0xd504ea1d\n      eq\n      tag_4\n      jumpi\n    tag_2:\n      0x00\n      dup1\n      revert\n        /* \"TinTinCourse/InsertionSort.sol\":252:838  function sortAndStore(uint256[] memory arr) public {... */\n    tag_3:\n      tag_5\n      tag_6\n      calldatasize\n      0x04\n      tag_7\n      jump\t// in\n    tag_6:\n      tag_8\n      jump\t// in\n    tag_5:\n      stop\n        /* \"TinTinCourse/InsertionSort.sol\":879:969  function getArray() public view returns (uint256[] memory) {... */\n    tag_4:\n      tag_9\n      tag_10\n      jump\t// in\n    tag_9:\n      mload(0x40)\n      tag_11\n      swap2\n      swap1\n      tag_12\n      jump\t// in\n    tag_11:\n      mload(0x40)\n      dup1\n      swap2\n      sub\n      swap1\n      return\n        /* \"TinTinCourse/InsertionSort.sol\":252:838  function sortAndStore(uint256[] memory arr) public {... */\n    tag_8:\n        /* \"TinTinCourse/InsertionSort.sol\":326:336  arr.length */\n      dup1\n      mload\n        /* \"TinTinCourse/InsertionSort.sol\":366:367  1 */\n      0x01\n        /* \"TinTinCourse/InsertionSort.sol\":349:781  for (uint256 i = 1; i < n; ++i) {... */\n    tag_14:\n        /* \"TinTinCourse/InsertionSort.sol\":373:374  n */\n      dup2\n        /* \"TinTinCourse/InsertionSort.sol\":369:370  i */\n      dup2\n        /* \"TinTinCourse/InsertionSort.sol\":369:374  i < n */\n      lt\n        /* \"TinTinCourse/InsertionSort.sol\":349:781  for (uint256 i = 1; i < n; ++i) {... */\n      iszero\n      tag_15\n      jumpi\n        /* \"TinTinCourse/InsertionSort.sol\":410:421  uint256 key */\n      0x00\n        /* \"TinTinCourse/InsertionSort.sol\":424:427  arr */\n      dup4\n        /* \"TinTinCourse/InsertionSort.sol\":428:429  i */\n      dup3\n        /* \"TinTinCourse/InsertionSort.sol\":424:430  arr[i] */\n      dup2\n      mload\n      dup2\n      lt\n      tag_18\n      jumpi\n      tag_18\n      tag_19\n      jump\t// in\n    tag_18:\n      0x20\n      mul\n      0x20\n      add\n      add\n      mload\n        /* \"TinTinCourse/InsertionSort.sol\":410:430  uint256 key = arr[i] */\n      swap1\n      pop\n        /* \"TinTinCourse/InsertionSort.sol\":445:454  uint256 j */\n      0x00\n        /* \"TinTinCourse/InsertionSort.sol\":457:458  i */\n      dup3\n        /* \"TinTinCourse/InsertionSort.sol\":445:458  uint256 j = i */\n      swap1\n      pop\n        /* \"TinTinCourse/InsertionSort.sol\":553:730  while (j > 0 && arr[j - 1] > key) {... */\n    tag_20:\n        /* \"TinTinCourse/InsertionSort.sol\":564:565  0 */\n      0x00\n        /* \"TinTinCourse/InsertionSort.sol\":560:561  j */\n      dup2\n        /* \"TinTinCourse/InsertionSort.sol\":560:565  j > 0 */\n      gt\n        /* \"TinTinCourse/InsertionSort.sol\":560:585  j > 0 && arr[j - 1] > key */\n      dup1\n      iszero\n      tag_22\n      jumpi\n      pop\n        /* \"TinTinCourse/InsertionSort.sol\":582:585  key */\n      dup2\n        /* \"TinTinCourse/InsertionSort.sol\":569:572  arr */\n      dup6\n        /* \"TinTinCourse/InsertionSort.sol\":573:578  j - 1 */\n      tag_23\n        /* \"TinTinCourse/InsertionSort.sol\":577:578  1 */\n      0x01\n        /* \"TinTinCourse/InsertionSort.sol\":573:574  j */\n      dup5\n        /* \"TinTinCourse/InsertionSort.sol\":573:578  j - 1 */\n      tag_24\n      jump\t// in\n    tag_23:\n        /* \"TinTinCourse/InsertionSort.sol\":569:579  arr[j - 1] */\n      dup2\n      mload\n      dup2\n      lt\n      tag_26\n      jumpi\n      tag_26\n      tag_19\n      jump\t// in\n    tag_26:\n      0x20\n      mul\n      0x20\n      add\n      add\n      mload\n        /* \"TinTinCourse/InsertionSort.sol\":569:585  arr[j - 1] > key */\n      gt\n        /* \"TinTinCourse/InsertionSort.sol\":560:585  j > 0 && arr[j - 1] > key */\n    tag_22:\n        /* \"TinTinCourse/InsertionSort.sol\":553:730  while (j > 0 && arr[j - 1] > key) {... */\n      iszero\n      tag_21\n      jumpi\n        /* \"TinTinCourse/InsertionSort.sol\":615:618  arr */\n      dup5\n        /* \"TinTinCourse/InsertionSort.sol\":619:624  j - 1 */\n      tag_27\n        /* \"TinTinCourse/InsertionSort.sol\":623:624  1 */\n      0x01\n        /* \"TinTinCourse/InsertionSort.sol\":619:620  j */\n      dup4\n        /* \"TinTinCourse/InsertionSort.sol\":619:624  j - 1 */\n      tag_24\n      jump\t// in\n    tag_27:\n        /* \"TinTinCourse/InsertionSort.sol\":615:625  arr[j - 1] */\n      dup2\n      mload\n      dup2\n      lt\n      tag_29\n      jumpi\n      tag_29\n      tag_19\n      jump\t// in\n    tag_29:\n      0x20\n      mul\n      0x20\n      add\n      add\n      mload\n        /* \"TinTinCourse/InsertionSort.sol\":606:609  arr */\n      dup6\n        /* \"TinTinCourse/InsertionSort.sol\":610:611  j */\n      dup3\n        /* \"TinTinCourse/InsertionSort.sol\":606:612  arr[j] */\n      dup2\n      mload\n      dup2\n      lt\n      tag_31\n      jumpi\n      tag_31\n      tag_19\n      jump\t// in\n    tag_31:\n      0x20\n      swap1\n      dup2\n      mul\n      swap2\n      swap1\n      swap2\n      add\n      add\n        /* \"TinTinCourse/InsertionSort.sol\":606:625  arr[j] = arr[j - 1] */\n      mstore\n        /* \"TinTinCourse/InsertionSort.sol\":666:669  j-- */\n      dup1\n      tag_32\n      dup2\n      tag_33\n      jump\t// in\n    tag_32:\n      swap2\n      pop\n      pop\n        /* \"TinTinCourse/InsertionSort.sol\":553:730  while (j > 0 && arr[j - 1] > key) {... */\n      jump(tag_20)\n    tag_21:\n        /* \"TinTinCourse/InsertionSort.sol\":753:756  key */\n      dup2\n        /* \"TinTinCourse/InsertionSort.sol\":744:747  arr */\n      dup6\n        /* \"TinTinCourse/InsertionSort.sol\":748:749  j */\n      dup3\n        /* \"TinTinCourse/InsertionSort.sol\":744:750  arr[j] */\n      dup2\n      mload\n      dup2\n      lt\n      tag_35\n      jumpi\n      tag_35\n      tag_19\n      jump\t// in\n    tag_35:\n      0x20\n      swap1\n      dup2\n      mul\n      swap2\n      swap1\n      swap2\n      add\n      add\n        /* \"TinTinCourse/InsertionSort.sol\":744:756  arr[j] = key */\n      mstore\n      pop\n      pop\n        /* \"TinTinCourse/InsertionSort.sol\":376:379  ++i */\n      0x01\n      add\n        /* \"TinTinCourse/InsertionSort.sol\":349:781  for (uint256 i = 1; i < n; ++i) {... */\n      jump(tag_14)\n    tag_15:\n      pop\n        /* \"TinTinCourse/InsertionSort.sol\":791:802  Array = arr */\n      dup2\n      mload\n      tag_36\n      swap1\n        /* \"TinTinCourse/InsertionSort.sol\":791:796  Array */\n      0x00\n      swap1\n        /* \"TinTinCourse/InsertionSort.sol\":791:802  Array = arr */\n      0x20\n      dup6\n      add\n      swap1\n      tag_37\n      jump\t// in\n    tag_36:\n      pop\n        /* \"TinTinCourse/InsertionSort.sol\":303:838  {... */\n      pop\n        /* \"TinTinCourse/InsertionSort.sol\":252:838  function sortAndStore(uint256[] memory arr) public {... */\n      pop\n      jump\t// out\n        /* \"TinTinCourse/InsertionSort.sol\":879:969  function getArray() public view returns (uint256[] memory) {... */\n    tag_10:\n        /* \"TinTinCourse/InsertionSort.sol\":920:936  uint256[] memory */\n      0x60\n        /* \"TinTinCourse/InsertionSort.sol\":956:961  Array */\n      0x00\n        /* \"TinTinCourse/InsertionSort.sol\":949:961  return Array */\n      dup1\n      sload\n      dup1\n      0x20\n      mul\n      0x20\n      add\n      mload(0x40)\n      swap1\n      dup2\n      add\n      0x40\n      mstore\n      dup1\n      swap3\n      swap2\n      swap1\n      dup2\n      dup2\n      mstore\n      0x20\n      add\n      dup3\n      dup1\n      sload\n      dup1\n      iszero\n      tag_39\n      jumpi\n      0x20\n      mul\n      dup3\n      add\n      swap2\n      swap1\n      0x00\n      mstore\n      keccak256(0x00, 0x20)\n      swap1\n    tag_40:\n      dup2\n      sload\n      dup2\n      mstore\n      0x20\n      add\n      swap1\n      0x01\n      add\n      swap1\n      dup1\n      dup4\n      gt\n      tag_40\n      jumpi\n    tag_39:\n      pop\n      pop\n      pop\n      pop\n      pop\n      swap1\n      pop\n        /* \"TinTinCourse/InsertionSort.sol\":879:969  function getArray() public view returns (uint256[] memory) {... */\n      swap1\n      jump\t// out\n    tag_37:\n      dup3\n      dup1\n      sload\n      dup3\n      dup3\n      sstore\n      swap1\n      0x00\n      mstore\n      keccak256(0x00, 0x20)\n      swap1\n      dup2\n      add\n      swap3\n      dup3\n      iszero\n      tag_43\n      jumpi\n      swap2\n      0x20\n      mul\n      dup3\n      add\n    tag_42:\n      dup3\n      dup2\n      gt\n      iszero\n      tag_43\n      jumpi\n      dup3\n      mload\n      dup3\n      sstore\n      swap2\n      0x20\n      add\n      swap2\n      swap1\n      0x01\n      add\n      swap1\n      jump(tag_42)\n    tag_43:\n      pop\n      tag_44\n      swap3\n      swap2\n      pop\n      tag_45\n      jump\t// in\n    tag_44:\n      pop\n      swap1\n      jump\t// out\n    tag_45:\n    tag_46:\n      dup1\n      dup3\n      gt\n      iszero\n      tag_44\n      jumpi\n      0x00\n      dup2\n      sstore\n      0x01\n      add\n      jump(tag_46)\n        /* \"#utility.yul\":14:141   */\n    tag_48:\n        /* \"#utility.yul\":75:85   */\n      0x4e487b71\n        /* \"#utility.yul\":70:73   */\n      0xe0\n        /* \"#utility.yul\":66:86   */\n      shl\n        /* \"#utility.yul\":63:64   */\n      0x00\n        /* \"#utility.yul\":56:87   */\n      mstore\n        /* \"#utility.yul\":106:110   */\n      0x41\n        /* \"#utility.yul\":103:104   */\n      0x04\n        /* \"#utility.yul\":96:111   */\n      mstore\n        /* \"#utility.yul\":130:134   */\n      0x24\n        /* \"#utility.yul\":127:128   */\n      0x00\n        /* \"#utility.yul\":120:135   */\n      revert\n        /* \"#utility.yul\":146:1261   */\n    tag_7:\n        /* \"#utility.yul\":230:236   */\n      0x00\n        /* \"#utility.yul\":261:263   */\n      0x20\n        /* \"#utility.yul\":304:306   */\n      dup1\n        /* \"#utility.yul\":292:301   */\n      dup4\n        /* \"#utility.yul\":283:290   */\n      dup6\n        /* \"#utility.yul\":279:302   */\n      sub\n        /* \"#utility.yul\":275:307   */\n      slt\n        /* \"#utility.yul\":272:324   */\n      iszero\n      tag_53\n      jumpi\n        /* \"#utility.yul\":320:321   */\n      0x00\n        /* \"#utility.yul\":317:318   */\n      dup1\n        /* \"#utility.yul\":310:322   */\n      revert\n        /* \"#utility.yul\":272:324   */\n    tag_53:\n        /* \"#utility.yul\":360:369   */\n      dup3\n        /* \"#utility.yul\":347:370   */\n      calldataload\n        /* \"#utility.yul\":389:407   */\n      0xffffffffffffffff\n        /* \"#utility.yul\":430:432   */\n      dup1\n        /* \"#utility.yul\":422:428   */\n      dup3\n        /* \"#utility.yul\":419:433   */\n      gt\n        /* \"#utility.yul\":416:450   */\n      iszero\n      tag_54\n      jumpi\n        /* \"#utility.yul\":446:447   */\n      0x00\n        /* \"#utility.yul\":443:444   */\n      dup1\n        /* \"#utility.yul\":436:448   */\n      revert\n        /* \"#utility.yul\":416:450   */\n    tag_54:\n        /* \"#utility.yul\":484:490   */\n      dup2\n        /* \"#utility.yul\":473:482   */\n      dup6\n        /* \"#utility.yul\":469:491   */\n      add\n        /* \"#utility.yul\":459:491   */\n      swap2\n      pop\n        /* \"#utility.yul\":529:536   */\n      dup6\n        /* \"#utility.yul\":522:526   */\n      0x1f\n        /* \"#utility.yul\":518:520   */\n      dup4\n        /* \"#utility.yul\":514:527   */\n      add\n        /* \"#utility.yul\":510:537   */\n      slt\n        /* \"#utility.yul\":500:555   */\n      tag_55\n      jumpi\n        /* \"#utility.yul\":551:552   */\n      0x00\n        /* \"#utility.yul\":548:549   */\n      dup1\n        /* \"#utility.yul\":541:553   */\n      revert\n        /* \"#utility.yul\":500:555   */\n    tag_55:\n        /* \"#utility.yul\":587:589   */\n      dup2\n        /* \"#utility.yul\":574:590   */\n      calldataload\n        /* \"#utility.yul\":609:611   */\n      dup2\n        /* \"#utility.yul\":605:607   */\n      dup2\n        /* \"#utility.yul\":602:612   */\n      gt\n        /* \"#utility.yul\":599:635   */\n      iszero\n      tag_57\n      jumpi\n        /* \"#utility.yul\":615:633   */\n      tag_57\n      tag_48\n      jump\t// in\n    tag_57:\n        /* \"#utility.yul\":661:663   */\n      dup1\n        /* \"#utility.yul\":658:659   */\n      0x05\n        /* \"#utility.yul\":654:664   */\n      shl\n        /* \"#utility.yul\":693:695   */\n      0x40\n        /* \"#utility.yul\":687:696   */\n      mload\n        /* \"#utility.yul\":756:758   */\n      0x1f\n        /* \"#utility.yul\":752:759   */\n      not\n        /* \"#utility.yul\":747:749   */\n      0x3f\n        /* \"#utility.yul\":743:745   */\n      dup4\n        /* \"#utility.yul\":739:750   */\n      add\n        /* \"#utility.yul\":735:760   */\n      and\n        /* \"#utility.yul\":727:733   */\n      dup2\n        /* \"#utility.yul\":723:761   */\n      add\n        /* \"#utility.yul\":811:817   */\n      dup2\n        /* \"#utility.yul\":799:809   */\n      dup2\n        /* \"#utility.yul\":796:818   */\n      lt\n        /* \"#utility.yul\":791:793   */\n      dup6\n        /* \"#utility.yul\":779:789   */\n      dup3\n        /* \"#utility.yul\":776:794   */\n      gt\n        /* \"#utility.yul\":773:819   */\n      or\n        /* \"#utility.yul\":770:842   */\n      iszero\n      tag_59\n      jumpi\n        /* \"#utility.yul\":822:840   */\n      tag_59\n      tag_48\n      jump\t// in\n    tag_59:\n        /* \"#utility.yul\":858:860   */\n      0x40\n        /* \"#utility.yul\":851:873   */\n      mstore\n        /* \"#utility.yul\":908:926   */\n      swap2\n      dup3\n      mstore\n        /* \"#utility.yul\":942:957   */\n      dup5\n      dup3\n      add\n      swap3\n      pop\n        /* \"#utility.yul\":984:995   */\n      dup4\n      dup2\n      add\n        /* \"#utility.yul\":980:1000   */\n      dup6\n      add\n      swap2\n        /* \"#utility.yul\":1012:1031   */\n      dup9\n      dup4\n      gt\n        /* \"#utility.yul\":1009:1048   */\n      iszero\n      tag_60\n      jumpi\n        /* \"#utility.yul\":1044:1045   */\n      0x00\n        /* \"#utility.yul\":1041:1042   */\n      dup1\n        /* \"#utility.yul\":1034:1046   */\n      revert\n        /* \"#utility.yul\":1009:1048   */\n    tag_60:\n        /* \"#utility.yul\":1068:1079   */\n      swap4\n      dup6\n      add\n      swap4\n        /* \"#utility.yul\":1088:1230   */\n    tag_61:\n        /* \"#utility.yul\":1104:1110   */\n      dup3\n        /* \"#utility.yul\":1099:1102   */\n      dup6\n        /* \"#utility.yul\":1096:1111   */\n      lt\n        /* \"#utility.yul\":1088:1230   */\n      iszero\n      tag_63\n      jumpi\n        /* \"#utility.yul\":1170:1187   */\n      dup5\n      calldataload\n        /* \"#utility.yul\":1158:1188   */\n      dup5\n      mstore\n        /* \"#utility.yul\":1121:1133   */\n      swap4\n      dup6\n      add\n      swap4\n        /* \"#utility.yul\":1208:1220   */\n      swap3\n      dup6\n      add\n      swap3\n        /* \"#utility.yul\":1088:1230   */\n      jump(tag_61)\n    tag_63:\n        /* \"#utility.yul\":1249:1255   */\n      swap9\n        /* \"#utility.yul\":146:1261   */\n      swap8\n      pop\n      pop\n      pop\n      pop\n      pop\n      pop\n      pop\n      pop\n      jump\t// out\n        /* \"#utility.yul\":1266:1898   */\n    tag_12:\n        /* \"#utility.yul\":1437:1439   */\n      0x20\n        /* \"#utility.yul\":1489:1510   */\n      dup1\n      dup3\n      mstore\n        /* \"#utility.yul\":1559:1572   */\n      dup3\n      mload\n        /* \"#utility.yul\":1462:1480   */\n      dup3\n      dup3\n      add\n        /* \"#utility.yul\":1581:1603   */\n      dup2\n      swap1\n      mstore\n        /* \"#utility.yul\":1408:1412   */\n      0x00\n      swap2\n        /* \"#utility.yul\":1437:1439   */\n      swap1\n        /* \"#utility.yul\":1660:1675   */\n      dup5\n      dup3\n      add\n      swap1\n        /* \"#utility.yul\":1634:1636   */\n      0x40\n        /* \"#utility.yul\":1619:1637   */\n      dup6\n      add\n      swap1\n        /* \"#utility.yul\":1408:1412   */\n      dup5\n        /* \"#utility.yul\":1703:1872   */\n    tag_65:\n        /* \"#utility.yul\":1717:1723   */\n      dup2\n        /* \"#utility.yul\":1714:1715   */\n      dup2\n        /* \"#utility.yul\":1711:1724   */\n      lt\n        /* \"#utility.yul\":1703:1872   */\n      iszero\n      tag_67\n      jumpi\n        /* \"#utility.yul\":1778:1791   */\n      dup4\n      mload\n        /* \"#utility.yul\":1766:1792   */\n      dup4\n      mstore\n        /* \"#utility.yul\":1847:1862   */\n      swap3\n      dup5\n      add\n      swap3\n        /* \"#utility.yul\":1812:1824   */\n      swap2\n      dup5\n      add\n      swap2\n        /* \"#utility.yul\":1739:1740   */\n      0x01\n        /* \"#utility.yul\":1732:1741   */\n      add\n        /* \"#utility.yul\":1703:1872   */\n      jump(tag_65)\n    tag_67:\n      pop\n        /* \"#utility.yul\":1889:1892   */\n      swap1\n      swap7\n        /* \"#utility.yul\":1266:1898   */\n      swap6\n      pop\n      pop\n      pop\n      pop\n      pop\n      pop\n      jump\t// out\n        /* \"#utility.yul\":1903:2030   */\n    tag_19:\n        /* \"#utility.yul\":1964:1974   */\n      0x4e487b71\n        /* \"#utility.yul\":1959:1962   */\n      0xe0\n        /* \"#utility.yul\":1955:1975   */\n      shl\n        /* \"#utility.yul\":1952:1953   */\n      0x00\n        /* \"#utility.yul\":1945:1976   */\n      mstore\n        /* \"#utility.yul\":1995:1999   */\n      0x32\n        /* \"#utility.yul\":1992:1993   */\n      0x04\n        /* \"#utility.yul\":1985:2000   */\n      mstore\n        /* \"#utility.yul\":2019:2023   */\n      0x24\n        /* \"#utility.yul\":2016:2017   */\n      0x00\n        /* \"#utility.yul\":2009:2024   */\n      revert\n        /* \"#utility.yul\":2035:2162   */\n    tag_49:\n        /* \"#utility.yul\":2096:2106   */\n      0x4e487b71\n        /* \"#utility.yul\":2091:2094   */\n      0xe0\n        /* \"#utility.yul\":2087:2107   */\n      shl\n        /* \"#utility.yul\":2084:2085   */\n      0x00\n        /* \"#utility.yul\":2077:2108   */\n      mstore\n        /* \"#utility.yul\":2127:2131   */\n      0x11\n        /* \"#utility.yul\":2124:2125   */\n      0x04\n        /* \"#utility.yul\":2117:2132   */\n      mstore\n        /* \"#utility.yul\":2151:2155   */\n      0x24\n        /* \"#utility.yul\":2148:2149   */\n      0x00\n        /* \"#utility.yul\":2141:2156   */\n      revert\n        /* \"#utility.yul\":2167:2295   */\n    tag_24:\n        /* \"#utility.yul\":2234:2243   */\n      dup2\n      dup2\n      sub\n        /* \"#utility.yul\":2255:2266   */\n      dup2\n      dup2\n      gt\n        /* \"#utility.yul\":2252:2289   */\n      iszero\n      tag_72\n      jumpi\n        /* \"#utility.yul\":2269:2287   */\n      tag_72\n      tag_49\n      jump\t// in\n    tag_72:\n        /* \"#utility.yul\":2167:2295   */\n      swap3\n      swap2\n      pop\n      pop\n      jump\t// out\n        /* \"#utility.yul\":2300:2436   */\n    tag_33:\n        /* \"#utility.yul\":2339:2342   */\n      0x00\n        /* \"#utility.yul\":2367:2372   */\n      dup2\n        /* \"#utility.yul\":2357:2396   */\n      tag_75\n      jumpi\n        /* \"#utility.yul\":2376:2394   */\n      tag_75\n      tag_49\n      jump\t// in\n    tag_75:\n      pop\n      not(0x00)\n        /* \"#utility.yul\":2412:2430   */\n      add\n      swap1\n        /* \"#utility.yul\":2300:2436   */\n      jump\t// out\n\n    auxdata: 0xa2646970667358221220fa86e514e51d988933dde75577b269b94df5f00f0f906ebcc2df7eaee88c265964736f6c63430008180033\n}\n",
				"bytecode": {
					"linkReferences": {},
					"object": "608060405234801561000f575f80fd5b506103b18061001d5f395ff3fe608060405234801561000f575f80fd5b5060043610610034575f3560e01c80638cb6588d14610038578063d504ea1d1461004d575b5f80fd5b61004b610046366004610229565b61006b565b005b610055610163565b60405161006291906102e2565b60405180910390f35b805160015b8181101561014b575f83828151811061008b5761008b610325565b602002602001015190505f8290505b5f811180156100cb575081856100b160018461034d565b815181106100c1576100c1610325565b6020026020010151115b1561012357846100dc60018361034d565b815181106100ec576100ec610325565b602002602001015185828151811061010657610106610325565b60209081029190910101528061011b81610366565b91505061009a565b8185828151811061013657610136610325565b60209081029190910101525050600101610070565b50815161015e905f9060208501906101b8565b505050565b60605f8054806020026020016040519081016040528092919081815260200182805480156101ae57602002820191905f5260205f20905b81548152602001906001019080831161019a575b5050505050905090565b828054828255905f5260205f209081019282156101f1579160200282015b828111156101f15782518255916020019190600101906101d6565b506101fd929150610201565b5090565b5b808211156101fd575f8155600101610202565b634e487b7160e01b5f52604160045260245ffd5b5f602080838503121561023a575f80fd5b823567ffffffffffffffff80821115610251575f80fd5b818501915085601f830112610264575f80fd5b81358181111561027657610276610215565b8060051b604051601f19603f8301168101818110858211171561029b5761029b610215565b6040529182528482019250838101850191888311156102b8575f80fd5b938501935b828510156102d6578435845293850193928501926102bd565b98975050505050505050565b602080825282518282018190525f9190848201906040850190845b81811015610319578351835292840192918401916001016102fd565b50909695505050505050565b634e487b7160e01b5f52603260045260245ffd5b634e487b7160e01b5f52601160045260245ffd5b8181038181111561036057610360610339565b92915050565b5f8161037457610374610339565b505f19019056fea2646970667358221220fa86e514e51d988933dde75577b269b94df5f00f0f906ebcc2df7eaee88c265964736f6c63430008180033",
					"opcodes": "PUSH1 0x80 PUSH1 0x40 MSTORE CALLVALUE DUP1 ISZERO PUSH2 0xF JUMPI PUSH0 DUP1 REVERT JUMPDEST POP PUSH2 0x3B1 DUP1 PUSH2 0x1D PUSH0 CODECOPY PUSH0 RETURN INVALID PUSH1 0x80 PUSH1 0x40 MSTORE CALLVALUE DUP1 ISZERO PUSH2 0xF JUMPI PUSH0 DUP1 REVERT JUMPDEST POP PUSH1 0x4 CALLDATASIZE LT PUSH2 0x34 JUMPI PUSH0 CALLDATALOAD PUSH1 0xE0 SHR DUP1 PUSH4 0x8CB6588D EQ PUSH2 0x38 JUMPI DUP1 PUSH4 0xD504EA1D EQ PUSH2 0x4D JUMPI JUMPDEST PUSH0 DUP1 REVERT JUMPDEST PUSH2 0x4B PUSH2 0x46 CALLDATASIZE PUSH1 0x4 PUSH2 0x229 JUMP JUMPDEST PUSH2 0x6B JUMP JUMPDEST STOP JUMPDEST PUSH2 0x55 PUSH2 0x163 JUMP JUMPDEST PUSH1 0x40 MLOAD PUSH2 0x62 SWAP2 SWAP1 PUSH2 0x2E2 JUMP JUMPDEST PUSH1 0x40 MLOAD DUP1 SWAP2 SUB SWAP1 RETURN JUMPDEST DUP1 MLOAD PUSH1 0x1 JUMPDEST DUP2 DUP2 LT ISZERO PUSH2 0x14B JUMPI PUSH0 DUP4 DUP3 DUP2 MLOAD DUP2 LT PUSH2 0x8B JUMPI PUSH2 0x8B PUSH2 0x325 JUMP JUMPDEST PUSH1 0x20 MUL PUSH1 0x20 ADD ADD MLOAD SWAP1 POP PUSH0 DUP3 SWAP1 POP JUMPDEST PUSH0 DUP2 GT DUP1 ISZERO PUSH2 0xCB JUMPI POP DUP2 DUP6 PUSH2 0xB1 PUSH1 0x1 DUP5 PUSH2 0x34D JUMP JUMPDEST DUP2 MLOAD DUP2 LT PUSH2 0xC1 JUMPI PUSH2 0xC1 PUSH2 0x325 JUMP JUMPDEST PUSH1 0x20 MUL PUSH1 0x20 ADD ADD MLOAD GT JUMPDEST ISZERO PUSH2 0x123 JUMPI DUP5 PUSH2 0xDC PUSH1 0x1 DUP4 PUSH2 0x34D JUMP JUMPDEST DUP2 MLOAD DUP2 LT PUSH2 0xEC JUMPI PUSH2 0xEC PUSH2 0x325 JUMP JUMPDEST PUSH1 0x20 MUL PUSH1 0x20 ADD ADD MLOAD DUP6 DUP3 DUP2 MLOAD DUP2 LT PUSH2 0x106 JUMPI PUSH2 0x106 PUSH2 0x325 JUMP JUMPDEST PUSH1 0x20 SWAP1 DUP2 MUL SWAP2 SWAP1 SWAP2 ADD ADD MSTORE DUP1 PUSH2 0x11B DUP2 PUSH2 0x366 JUMP JUMPDEST SWAP2 POP POP PUSH2 0x9A JUMP JUMPDEST DUP2 DUP6 DUP3 DUP2 MLOAD DUP2 LT PUSH2 0x136 JUMPI PUSH2 0x136 PUSH2 0x325 JUMP JUMPDEST PUSH1 0x20 SWAP1 DUP2 MUL SWAP2 SWAP1 SWAP2 ADD ADD MSTORE POP POP PUSH1 0x1 ADD PUSH2 0x70 JUMP JUMPDEST POP DUP2 MLOAD PUSH2 0x15E SWAP1 PUSH0 SWAP1 PUSH1 0x20 DUP6 ADD SWAP1 PUSH2 0x1B8 JUMP JUMPDEST POP POP POP JUMP JUMPDEST PUSH1 0x60 PUSH0 DUP1 SLOAD DUP1 PUSH1 0x20 MUL PUSH1 0x20 ADD PUSH1 0x40 MLOAD SWAP1 DUP2 ADD PUSH1 0x40 MSTORE DUP1 SWAP3 SWAP2 SWAP1 DUP2 DUP2 MSTORE PUSH1 0x20 ADD DUP3 DUP1 SLOAD DUP1 ISZERO PUSH2 0x1AE JUMPI PUSH1 0x20 MUL DUP3 ADD SWAP2 SWAP1 PUSH0 MSTORE PUSH1 0x20 PUSH0 KECCAK256 SWAP1 JUMPDEST DUP2 SLOAD DUP2 MSTORE PUSH1 0x20 ADD SWAP1 PUSH1 0x1 ADD SWAP1 DUP1 DUP4 GT PUSH2 0x19A JUMPI JUMPDEST POP POP POP POP POP SWAP1 POP SWAP1 JUMP JUMPDEST DUP3 DUP1 SLOAD DUP3 DUP3 SSTORE SWAP1 PUSH0 MSTORE PUSH1 0x20 PUSH0 KECCAK256 SWAP1 DUP2 ADD SWAP3 DUP3 ISZERO PUSH2 0x1F1 JUMPI SWAP2 PUSH1 0x20 MUL DUP3 ADD JUMPDEST DUP3 DUP2 GT ISZERO PUSH2 0x1F1 JUMPI DUP3 MLOAD DUP3 SSTORE SWAP2 PUSH1 0x20 ADD SWAP2 SWAP1 PUSH1 0x1 ADD SWAP1 PUSH2 0x1D6 JUMP JUMPDEST POP PUSH2 0x1FD SWAP3 SWAP2 POP PUSH2 0x201 JUMP JUMPDEST POP SWAP1 JUMP JUMPDEST JUMPDEST DUP1 DUP3 GT ISZERO PUSH2 0x1FD JUMPI PUSH0 DUP2 SSTORE PUSH1 0x1 ADD PUSH2 0x202 JUMP JUMPDEST PUSH4 0x4E487B71 PUSH1 0xE0 SHL PUSH0 MSTORE PUSH1 0x41 PUSH1 0x4 MSTORE PUSH1 0x24 PUSH0 REVERT JUMPDEST PUSH0 PUSH1 0x20 DUP1 DUP4 DUP6 SUB SLT ISZERO PUSH2 0x23A JUMPI PUSH0 DUP1 REVERT JUMPDEST DUP3 CALLDATALOAD PUSH8 0xFFFFFFFFFFFFFFFF DUP1 DUP3 GT ISZERO PUSH2 0x251 JUMPI PUSH0 DUP1 REVERT JUMPDEST DUP2 DUP6 ADD SWAP2 POP DUP6 PUSH1 0x1F DUP4 ADD SLT PUSH2 0x264 JUMPI PUSH0 DUP1 REVERT JUMPDEST DUP2 CALLDATALOAD DUP2 DUP2 GT ISZERO PUSH2 0x276 JUMPI PUSH2 0x276 PUSH2 0x215 JUMP JUMPDEST DUP1 PUSH1 0x5 SHL PUSH1 0x40 MLOAD PUSH1 0x1F NOT PUSH1 0x3F DUP4 ADD AND DUP2 ADD DUP2 DUP2 LT DUP6 DUP3 GT OR ISZERO PUSH2 0x29B JUMPI PUSH2 0x29B PUSH2 0x215 JUMP JUMPDEST PUSH1 0x40 MSTORE SWAP2 DUP3 MSTORE DUP5 DUP3 ADD SWAP3 POP DUP4 DUP2 ADD DUP6 ADD SWAP2 DUP9 DUP4 GT ISZERO PUSH2 0x2B8 JUMPI PUSH0 DUP1 REVERT JUMPDEST SWAP4 DUP6 ADD SWAP4 JUMPDEST DUP3 DUP6 LT ISZERO PUSH2 0x2D6 JUMPI DUP5 CALLDATALOAD DUP5 MSTORE SWAP4 DUP6 ADD SWAP4 SWAP3 DUP6 ADD SWAP3 PUSH2 0x2BD JUMP JUMPDEST SWAP9 SWAP8 POP POP POP POP POP POP POP POP JUMP JUMPDEST PUSH1 0x20 DUP1 DUP3 MSTORE DUP3 MLOAD DUP3 DUP3 ADD DUP2 SWAP1 MSTORE PUSH0 SWAP2 SWAP1 DUP5 DUP3 ADD SWAP1 PUSH1 0x40 DUP6 ADD SWAP1 DUP5 JUMPDEST DUP2 DUP2 LT ISZERO PUSH2 0x319 JUMPI DUP4 MLOAD DUP4 MSTORE SWAP3 DUP5 ADD SWAP3 SWAP2 DUP5 ADD SWAP2 PUSH1 0x1 ADD PUSH2 0x2FD JUMP JUMPDEST POP SWAP1 SWAP7 SWAP6 POP POP POP POP POP POP JUMP JUMPDEST PUSH4 0x4E487B71 PUSH1 0xE0 SHL PUSH0 MSTORE PUSH1 0x32 PUSH1 0x4 MSTORE PUSH1 0x24 PUSH0 REVERT JUMPDEST PUSH4 0x4E487B71 PUSH1 0xE0 SHL PUSH0 MSTORE PUSH1 0x11 PUSH1 0x4 MSTORE PUSH1 0x24 PUSH0 REVERT JUMPDEST DUP2 DUP2 SUB DUP2 DUP2 GT ISZERO PUSH2 0x360 JUMPI PUSH2 0x360 PUSH2 0x339 JUMP JUMPDEST SWAP3 SWAP2 POP POP JUMP JUMPDEST PUSH0 DUP2 PUSH2 0x374 JUMPI PUSH2 0x374 PUSH2 0x339 JUMP JUMPDEST POP PUSH0 NOT ADD SWAP1 JUMP INVALID LOG2 PUSH5 0x6970667358 0x22 SLT KECCAK256 STATICCALL DUP7 0xE5 EQ 0xE5 SAR SWAP9 DUP10 CALLER 0xDD 0xE7 SSTORE PUSH24 0xB269B94DF5F00F0F906EBCC2DF7EAEE88C265964736F6C63 NUMBER STOP ADDMOD XOR STOP CALLER "
				},
				"gasEstimates": {
					"creation": {
						"codeDepositCost": "189000",
						"executionCost": "230",
						"totalCost": "189230"
					},
					"external": {
						"getArray()": "infinite",
						"sortAndStore(uint256[])": "infinite"
					}
				},
				"methodIdentifiers": {
					"getArray()": "d504ea1d",
					"sortAndStore(uint256[])": "8cb6588d"
				}
			},
			"storageLayout": {
				"storage": [
					{
						"astId": 4,
						"contract": "TinTinCourse/InsertionSort.sol:InsertionSort",
						"label": "Array",
						"offset": 0,
						"slot": "0",
						"type": "t_array(t_uint256)dyn_storage"
					}
				],
				"types": {
					"t_array(t_uint256)dyn_storage": {
						"base": "t_uint256",
						"encoding": "dynamic_array",
						"label": "uint256[]",
						"numberOfBytes": "32"
					},
					"t_uint256": {
						"encoding": "inplace",
						"label": "uint256",
						"numberOfBytes": "32"
					}
				}
			},
			"userdoc": {
				"kind": "user",
				"methods": {},
				"version": 1
			}
		}
	}
}